{
	"MultiSigWalletWithDailyLimit_flat.sol": {
		"MultiSigWallet": {
			"abi": [
				{
					"constant": true,
					"inputs": [
						{
							"name": "",
							"type": "uint256"
						}
					],
					"name": "owners",
					"outputs": [
						{
							"name": "",
							"type": "address"
						}
					],
					"payable": false,
					"stateMutability": "view",
					"type": "function"
				},
				{
					"constant": false,
					"inputs": [
						{
							"name": "owner",
							"type": "address"
						}
					],
					"name": "removeOwner",
					"outputs": [],
					"payable": false,
					"stateMutability": "nonpayable",
					"type": "function"
				},
				{
					"constant": false,
					"inputs": [
						{
							"name": "transactionId",
							"type": "uint256"
						}
					],
					"name": "revokeConfirmation",
					"outputs": [],
					"payable": false,
					"stateMutability": "nonpayable",
					"type": "function"
				},
				{
					"constant": true,
					"inputs": [
						{
							"name": "",
							"type": "address"
						}
					],
					"name": "isOwner",
					"outputs": [
						{
							"name": "",
							"type": "bool"
						}
					],
					"payable": false,
					"stateMutability": "view",
					"type": "function"
				},
				{
					"constant": true,
					"inputs": [
						{
							"name": "",
							"type": "uint256"
						},
						{
							"name": "",
							"type": "address"
						}
					],
					"name": "confirmations",
					"outputs": [
						{
							"name": "",
							"type": "bool"
						}
					],
					"payable": false,
					"stateMutability": "view",
					"type": "function"
				},
				{
					"constant": true,
					"inputs": [
						{
							"name": "pending",
							"type": "bool"
						},
						{
							"name": "executed",
							"type": "bool"
						}
					],
					"name": "getTransactionCount",
					"outputs": [
						{
							"name": "count",
							"type": "uint256"
						}
					],
					"payable": false,
					"stateMutability": "view",
					"type": "function"
				},
				{
					"constant": false,
					"inputs": [
						{
							"name": "owner",
							"type": "address"
						}
					],
					"name": "addOwner",
					"outputs": [],
					"payable": false,
					"stateMutability": "nonpayable",
					"type": "function"
				},
				{
					"constant": true,
					"inputs": [
						{
							"name": "transactionId",
							"type": "uint256"
						}
					],
					"name": "isConfirmed",
					"outputs": [
						{
							"name": "",
							"type": "bool"
						}
					],
					"payable": false,
					"stateMutability": "view",
					"type": "function"
				},
				{
					"constant": true,
					"inputs": [
						{
							"name": "transactionId",
							"type": "uint256"
						}
					],
					"name": "getConfirmationCount",
					"outputs": [
						{
							"name": "count",
							"type": "uint256"
						}
					],
					"payable": false,
					"stateMutability": "view",
					"type": "function"
				},
				{
					"constant": true,
					"inputs": [
						{
							"name": "",
							"type": "uint256"
						}
					],
					"name": "transactions",
					"outputs": [
						{
							"name": "destination",
							"type": "address"
						},
						{
							"name": "value",
							"type": "uint256"
						},
						{
							"name": "data",
							"type": "bytes"
						},
						{
							"name": "executed",
							"type": "bool"
						}
					],
					"payable": false,
					"stateMutability": "view",
					"type": "function"
				},
				{
					"constant": true,
					"inputs": [],
					"name": "getOwners",
					"outputs": [
						{
							"name": "",
							"type": "address[]"
						}
					],
					"payable": false,
					"stateMutability": "view",
					"type": "function"
				},
				{
					"constant": true,
					"inputs": [
						{
							"name": "from",
							"type": "uint256"
						},
						{
							"name": "to",
							"type": "uint256"
						},
						{
							"name": "pending",
							"type": "bool"
						},
						{
							"name": "executed",
							"type": "bool"
						}
					],
					"name": "getTransactionIds",
					"outputs": [
						{
							"name": "_transactionIds",
							"type": "uint256[]"
						}
					],
					"payable": false,
					"stateMutability": "view",
					"type": "function"
				},
				{
					"constant": true,
					"inputs": [
						{
							"name": "transactionId",
							"type": "uint256"
						}
					],
					"name": "getConfirmations",
					"outputs": [
						{
							"name": "_confirmations",
							"type": "address[]"
						}
					],
					"payable": false,
					"stateMutability": "view",
					"type": "function"
				},
				{
					"constant": true,
					"inputs": [],
					"name": "transactionCount",
					"outputs": [
						{
							"name": "",
							"type": "uint256"
						}
					],
					"payable": false,
					"stateMutability": "view",
					"type": "function"
				},
				{
					"constant": false,
					"inputs": [
						{
							"name": "_required",
							"type": "uint256"
						}
					],
					"name": "changeRequirement",
					"outputs": [],
					"payable": false,
					"stateMutability": "nonpayable",
					"type": "function"
				},
				{
					"constant": false,
					"inputs": [
						{
							"name": "transactionId",
							"type": "uint256"
						}
					],
					"name": "confirmTransaction",
					"outputs": [],
					"payable": false,
					"stateMutability": "nonpayable",
					"type": "function"
				},
				{
					"constant": false,
					"inputs": [
						{
							"name": "destination",
							"type": "address"
						},
						{
							"name": "value",
							"type": "uint256"
						},
						{
							"name": "data",
							"type": "bytes"
						}
					],
					"name": "submitTransaction",
					"outputs": [
						{
							"name": "transactionId",
							"type": "uint256"
						}
					],
					"payable": false,
					"stateMutability": "nonpayable",
					"type": "function"
				},
				{
					"constant": true,
					"inputs": [],
					"name": "MAX_OWNER_COUNT",
					"outputs": [
						{
							"name": "",
							"type": "uint256"
						}
					],
					"payable": false,
					"stateMutability": "view",
					"type": "function"
				},
				{
					"constant": true,
					"inputs": [],
					"name": "required",
					"outputs": [
						{
							"name": "",
							"type": "uint256"
						}
					],
					"payable": false,
					"stateMutability": "view",
					"type": "function"
				},
				{
					"constant": false,
					"inputs": [
						{
							"name": "owner",
							"type": "address"
						},
						{
							"name": "newOwner",
							"type": "address"
						}
					],
					"name": "replaceOwner",
					"outputs": [],
					"payable": false,
					"stateMutability": "nonpayable",
					"type": "function"
				},
				{
					"constant": false,
					"inputs": [
						{
							"name": "transactionId",
							"type": "uint256"
						}
					],
					"name": "executeTransaction",
					"outputs": [],
					"payable": false,
					"stateMutability": "nonpayable",
					"type": "function"
				},
				{
					"inputs": [
						{
							"name": "_owners",
							"type": "address[]"
						},
						{
							"name": "_required",
							"type": "uint256"
						}
					],
					"payable": false,
					"stateMutability": "nonpayable",
					"type": "constructor"
				},
				{
					"payable": true,
					"stateMutability": "payable",
					"type": "fallback"
				},
				{
					"anonymous": false,
					"inputs": [
						{
							"indexed": true,
							"name": "sender",
							"type": "address"
						},
						{
							"indexed": true,
							"name": "transactionId",
							"type": "uint256"
						}
					],
					"name": "Confirmation",
					"type": "event"
				},
				{
					"anonymous": false,
					"inputs": [
						{
							"indexed": true,
							"name": "sender",
							"type": "address"
						},
						{
							"indexed": true,
							"name": "transactionId",
							"type": "uint256"
						}
					],
					"name": "Revocation",
					"type": "event"
				},
				{
					"anonymous": false,
					"inputs": [
						{
							"indexed": true,
							"name": "transactionId",
							"type": "uint256"
						}
					],
					"name": "Submission",
					"type": "event"
				},
				{
					"anonymous": false,
					"inputs": [
						{
							"indexed": true,
							"name": "transactionId",
							"type": "uint256"
						}
					],
					"name": "Execution",
					"type": "event"
				},
				{
					"anonymous": false,
					"inputs": [
						{
							"indexed": true,
							"name": "transactionId",
							"type": "uint256"
						}
					],
					"name": "ExecutionFailure",
					"type": "event"
				},
				{
					"anonymous": false,
					"inputs": [
						{
							"indexed": true,
							"name": "sender",
							"type": "address"
						},
						{
							"indexed": false,
							"name": "value",
							"type": "uint256"
						}
					],
					"name": "Deposit",
					"type": "event"
				},
				{
					"anonymous": false,
					"inputs": [
						{
							"indexed": true,
							"name": "owner",
							"type": "address"
						}
					],
					"name": "OwnerAddition",
					"type": "event"
				},
				{
					"anonymous": false,
					"inputs": [
						{
							"indexed": true,
							"name": "owner",
							"type": "address"
						}
					],
					"name": "OwnerRemoval",
					"type": "event"
				},
				{
					"anonymous": false,
					"inputs": [
						{
							"indexed": false,
							"name": "required",
							"type": "uint256"
						}
					],
					"name": "RequirementChange",
					"type": "event"
				}
			],
			"devdoc": {
				"author": "Stefan George - <stefan.george@consensys.net>",
				"methods": {
					"addOwner(address)": {
						"details": "Allows to add a new owner. Transaction has to be sent by wallet.",
						"params": {
							"owner": "Address of new owner."
						}
					},
					"changeRequirement(uint256)": {
						"details": "Allows to change the number of required confirmations. Transaction has to be sent by wallet.",
						"params": {
							"_required": "Number of required confirmations."
						}
					},
					"confirmTransaction(uint256)": {
						"details": "Allows an owner to confirm a transaction.",
						"params": {
							"transactionId": "Transaction ID."
						}
					},
					"executeTransaction(uint256)": {
						"details": "Allows anyone to execute a confirmed transaction.",
						"params": {
							"transactionId": "Transaction ID."
						}
					},
					"getConfirmationCount(uint256)": {
						"details": "Returns number of confirmations of a transaction.",
						"params": {
							"transactionId": "Transaction ID."
						},
						"return": "Number of confirmations."
					},
					"getConfirmations(uint256)": {
						"details": "Returns array with owner addresses, which confirmed transaction.",
						"params": {
							"transactionId": "Transaction ID."
						},
						"return": "Returns array of owner addresses."
					},
					"getOwners()": {
						"details": "Returns list of owners.",
						"return": "List of owner addresses."
					},
					"getTransactionCount(bool,bool)": {
						"details": "Returns total number of transactions after filers are applied.",
						"params": {
							"executed": "Include executed transactions.",
							"pending": "Include pending transactions."
						},
						"return": "Total number of transactions after filters are applied."
					},
					"getTransactionIds(uint256,uint256,bool,bool)": {
						"details": "Returns list of transaction IDs in defined range.",
						"params": {
							"executed": "Include executed transactions.",
							"from": "Index start position of transaction array.",
							"pending": "Include pending transactions.",
							"to": "Index end position of transaction array."
						},
						"return": "Returns array of transaction IDs."
					},
					"isConfirmed(uint256)": {
						"details": "Returns the confirmation status of a transaction.",
						"params": {
							"transactionId": "Transaction ID."
						},
						"return": "Confirmation status."
					},
					"removeOwner(address)": {
						"details": "Allows to remove an owner. Transaction has to be sent by wallet.",
						"params": {
							"owner": "Address of owner."
						}
					},
					"replaceOwner(address,address)": {
						"details": "Allows to replace an owner with a new owner. Transaction has to be sent by wallet.",
						"params": {
							"newOwner": "Address of new owner.",
							"owner": "Address of owner to be replaced."
						}
					},
					"revokeConfirmation(uint256)": {
						"details": "Allows an owner to revoke a confirmation for a transaction.",
						"params": {
							"transactionId": "Transaction ID."
						}
					},
					"submitTransaction(address,uint256,bytes)": {
						"details": "Allows an owner to submit and confirm a transaction.",
						"params": {
							"data": "Transaction data payload.",
							"destination": "Transaction target address.",
							"value": "Transaction ether value."
						},
						"return": "Returns transaction ID."
					}
				},
				"title": "Multisignature wallet - Allows multiple parties to agree on transactions before execution."
			},
			"evm": {
				"assembly": "    /* \"MultiSigWalletWithDailyLimit_flat.sol\":217:12845  contract MultiSigWallet {... */\n  mstore(0x40, 0x80)\n    /* \"MultiSigWalletWithDailyLimit_flat.sol\":2846:3199  function MultiSigWallet(address[] _owners, uint _required)... */\n  callvalue\n    /* \"--CODEGEN--\":8:17   */\n  dup1\n    /* \"--CODEGEN--\":5:7   */\n  iszero\n  tag_1\n  jumpi\n    /* \"--CODEGEN--\":30:31   */\n  0x0\n    /* \"--CODEGEN--\":27:28   */\n  dup1\n    /* \"--CODEGEN--\":20:32   */\n  revert\n    /* \"--CODEGEN--\":5:7   */\ntag_1:\n    /* \"MultiSigWalletWithDailyLimit_flat.sol\":2846:3199  function MultiSigWallet(address[] _owners, uint _required)... */\n  pop\n  mload(0x40)\n  sub(codesize, bytecodeSize)\n  dup1\n  bytecodeSize\n  dup4\n  codecopy\n  dup2\n  add\n  0x40\n  mstore\n  dup1\n  mload\n  0x20\n  dup3\n  add\n  mload\n  swap2\n  add\n    /* \"MultiSigWalletWithDailyLimit_flat.sol\":2945:2959  _owners.length */\n  dup1\n  mload\n    /* \"MultiSigWalletWithDailyLimit_flat.sol\":2846:3199  function MultiSigWallet(address[] _owners, uint _required)... */\n  swap1\n  swap2\n  swap1\n    /* \"MultiSigWalletWithDailyLimit_flat.sol\":2991:2997  uint i */\n  0x0\n  swap1\n    /* \"MultiSigWalletWithDailyLimit_flat.sol\":2846:3199  function MultiSigWallet(address[] _owners, uint _required)... */\n  dup3\n    /* \"MultiSigWalletWithDailyLimit_flat.sol\":850:852  50 */\n  0x32\n    /* \"MultiSigWalletWithDailyLimit_flat.sol\":2284:2313  ownerCount <= MAX_OWNER_COUNT */\n  dup3\n  gt\n  dup1\n  iszero\n  swap1\n    /* \"MultiSigWalletWithDailyLimit_flat.sol\":2284:2352  ownerCount <= MAX_OWNER_COUNT... */\n  tag_4\n  jumpi\n  pop\n    /* \"MultiSigWalletWithDailyLimit_flat.sol\":2342:2352  ownerCount */\n  dup2\n    /* \"MultiSigWalletWithDailyLimit_flat.sol\":2329:2338  _required */\n  dup2\n    /* \"MultiSigWalletWithDailyLimit_flat.sol\":2329:2352  _required <= ownerCount */\n  gt\n  iszero\n    /* \"MultiSigWalletWithDailyLimit_flat.sol\":2284:2352  ownerCount <= MAX_OWNER_COUNT... */\ntag_4:\n    /* \"MultiSigWalletWithDailyLimit_flat.sol\":2284:2382  ownerCount <= MAX_OWNER_COUNT... */\n  dup1\n  iszero\n  tag_5\n  jumpi\n  pop\n    /* \"MultiSigWalletWithDailyLimit_flat.sol\":2368:2382  _required != 0 */\n  dup1\n  iszero\n  iszero\n    /* \"MultiSigWalletWithDailyLimit_flat.sol\":2284:2382  ownerCount <= MAX_OWNER_COUNT... */\ntag_5:\n    /* \"MultiSigWalletWithDailyLimit_flat.sol\":2284:2413  ownerCount <= MAX_OWNER_COUNT... */\n  dup1\n  iszero\n  tag_6\n  jumpi\n  pop\n    /* \"MultiSigWalletWithDailyLimit_flat.sol\":2398:2413  ownerCount != 0 */\n  dup2\n  iszero\n  iszero\n    /* \"MultiSigWalletWithDailyLimit_flat.sol\":2284:2413  ownerCount <= MAX_OWNER_COUNT... */\ntag_6:\n    /* \"MultiSigWalletWithDailyLimit_flat.sol\":2276:2414  require(ownerCount <= MAX_OWNER_COUNT... */\n  iszero\n  iszero\n  tag_7\n  jumpi\n  0x0\n  dup1\n  revert\ntag_7:\n    /* \"MultiSigWalletWithDailyLimit_flat.sol\":2998:2999  0 */\n  0x0\n    /* \"MultiSigWalletWithDailyLimit_flat.sol\":2991:2999  uint i=0 */\n  swap3\n  pop\n    /* \"MultiSigWalletWithDailyLimit_flat.sol\":2986:3137  for (uint i=0; i<_owners.length; i++) {... */\ntag_9:\n    /* \"MultiSigWalletWithDailyLimit_flat.sol\":3003:3010  _owners */\n  dup5\n    /* \"MultiSigWalletWithDailyLimit_flat.sol\":3003:3017  _owners.length */\n  mload\n    /* \"MultiSigWalletWithDailyLimit_flat.sol\":3001:3002  i */\n  dup4\n    /* \"MultiSigWalletWithDailyLimit_flat.sol\":3001:3017  i<_owners.length */\n  lt\n    /* \"MultiSigWalletWithDailyLimit_flat.sol\":2986:3137  for (uint i=0; i<_owners.length; i++) {... */\n  iszero\n  tag_10\n  jumpi\n    /* \"MultiSigWalletWithDailyLimit_flat.sol\":3047:3054  isOwner */\n  0x2\n    /* \"MultiSigWalletWithDailyLimit_flat.sol\":3047:3066  isOwner[_owners[i]] */\n  0x0\n    /* \"MultiSigWalletWithDailyLimit_flat.sol\":3055:3062  _owners */\n  dup7\n    /* \"MultiSigWalletWithDailyLimit_flat.sol\":3063:3064  i */\n  dup6\n    /* \"MultiSigWalletWithDailyLimit_flat.sol\":3055:3065  _owners[i] */\n  dup2\n  mload\n  dup2\n  lt\n  iszero\n  iszero\n  tag_12\n  jumpi\n  invalid\ntag_12:\n  0x20\n  swap1\n  dup2\n  mul\n  swap1\n  swap2\n  add\n  dup2\n  add\n  mload\n  sub(exp(0x2, 0xa0), 0x1)\n    /* \"MultiSigWalletWithDailyLimit_flat.sol\":3047:3066  isOwner[_owners[i]] */\n  and\n  dup3\n  mstore\n  dup2\n  add\n  swap2\n  swap1\n  swap2\n  mstore\n  0x40\n  add\n  0x0\n  keccak256\n  sload\n  0xff\n  and\n    /* \"MultiSigWalletWithDailyLimit_flat.sol\":3046:3066  !isOwner[_owners[i]] */\n  iszero\n    /* \"MultiSigWalletWithDailyLimit_flat.sol\":3046:3085  !isOwner[_owners[i]] && _owners[i] != 0 */\n  dup1\n  iszero\n  tag_13\n  jumpi\n  pop\n    /* \"MultiSigWalletWithDailyLimit_flat.sol\":3070:3077  _owners */\n  dup5\n    /* \"MultiSigWalletWithDailyLimit_flat.sol\":3078:3079  i */\n  dup4\n    /* \"MultiSigWalletWithDailyLimit_flat.sol\":3070:3080  _owners[i] */\n  dup2\n  mload\n  dup2\n  lt\n  iszero\n  iszero\n  tag_14\n  jumpi\n  invalid\ntag_14:\n  swap1\n  0x20\n  add\n  swap1\n  0x20\n  mul\n  add\n  mload\n  sub(exp(0x2, 0xa0), 0x1)\n    /* \"MultiSigWalletWithDailyLimit_flat.sol\":3070:3085  _owners[i] != 0 */\n  and\n    /* \"MultiSigWalletWithDailyLimit_flat.sol\":3084:3085  0 */\n  0x0\n    /* \"MultiSigWalletWithDailyLimit_flat.sol\":3070:3085  _owners[i] != 0 */\n  eq\n  iszero\n    /* \"MultiSigWalletWithDailyLimit_flat.sol\":3046:3085  !isOwner[_owners[i]] && _owners[i] != 0 */\ntag_13:\n    /* \"MultiSigWalletWithDailyLimit_flat.sol\":3038:3086  require(!isOwner[_owners[i]] && _owners[i] != 0) */\n  iszero\n  iszero\n  tag_15\n  jumpi\n  0x0\n  dup1\n  revert\ntag_15:\n    /* \"MultiSigWalletWithDailyLimit_flat.sol\":3122:3126  true */\n  0x1\n    /* \"MultiSigWalletWithDailyLimit_flat.sol\":3100:3107  isOwner */\n  0x2\n    /* \"MultiSigWalletWithDailyLimit_flat.sol\":3100:3119  isOwner[_owners[i]] */\n  0x0\n    /* \"MultiSigWalletWithDailyLimit_flat.sol\":3108:3115  _owners */\n  dup8\n    /* \"MultiSigWalletWithDailyLimit_flat.sol\":3116:3117  i */\n  dup7\n    /* \"MultiSigWalletWithDailyLimit_flat.sol\":3108:3118  _owners[i] */\n  dup2\n  mload\n  dup2\n  lt\n  iszero\n  iszero\n  tag_16\n  jumpi\n  invalid\ntag_16:\n  0x20\n  swap1\n  dup2\n  mul\n  swap2\n  swap1\n  swap2\n  add\n  dup2\n  add\n  mload\n  sub(exp(0x2, 0xa0), 0x1)\n    /* \"MultiSigWalletWithDailyLimit_flat.sol\":3100:3119  isOwner[_owners[i]] */\n  and\n  dup3\n  mstore\n  dup2\n  add\n  swap2\n  swap1\n  swap2\n  mstore\n  0x40\n  add\n  0x0\n  keccak256\n    /* \"MultiSigWalletWithDailyLimit_flat.sol\":3100:3126  isOwner[_owners[i]] = true */\n  dup1\n  sload\n  not(0xff)\n  and\n  swap2\n  iszero\n  iszero\n  swap2\n  swap1\n  swap2\n  or\n  swap1\n  sstore\n  0x1\n    /* \"MultiSigWalletWithDailyLimit_flat.sol\":3019:3022  i++ */\n  swap3\n  swap1\n  swap3\n  add\n  swap2\n    /* \"MultiSigWalletWithDailyLimit_flat.sol\":2986:3137  for (uint i=0; i<_owners.length; i++) {... */\n  jump(tag_9)\ntag_10:\n    /* \"MultiSigWalletWithDailyLimit_flat.sol\":3146:3162  owners = _owners */\n  dup5\n  mload\n  tag_17\n  swap1\n    /* \"MultiSigWalletWithDailyLimit_flat.sol\":3146:3152  owners */\n  0x3\n  swap1\n    /* \"MultiSigWalletWithDailyLimit_flat.sol\":3146:3162  owners = _owners */\n  0x20\n  dup9\n  add\n  swap1\n  jump\t// in(tag_18)\ntag_17:\n  pop\n  pop\n  pop\n    /* \"MultiSigWalletWithDailyLimit_flat.sol\":3172:3180  required */\n  0x4\n    /* \"MultiSigWalletWithDailyLimit_flat.sol\":3172:3192  required = _required */\n  swap2\n  swap1\n  swap2\n  sstore\n  pop\n    /* \"MultiSigWalletWithDailyLimit_flat.sol\":217:12845  contract MultiSigWallet {... */\n  tag_19\n  swap1\n  pop\n  jump\ntag_18:\n  dup3\n  dup1\n  sload\n  dup3\n  dup3\n  sstore\n  swap1\n  0x0\n  mstore\n  keccak256(0x0, 0x20)\n  swap1\n  dup2\n  add\n  swap3\n  dup3\n  iszero\n  tag_22\n  jumpi\n  swap2\n  0x20\n  mul\n  dup3\n  add\ntag_21:\n  dup3\n  dup2\n  gt\n  iszero\n  tag_22\n  jumpi\n  dup3\n  mload\n  dup3\n  sload\n  not(sub(exp(0x2, 0xa0), 0x1))\n  and\n  sub(exp(0x2, 0xa0), 0x1)\n  swap1\n  swap2\n  and\n  or\n  dup3\n  sstore\n  0x20\n  swap1\n  swap3\n  add\n  swap2\n  0x1\n  swap1\n  swap2\n  add\n  swap1\n  jump(tag_21)\ntag_22:\n  pop\n  tag_23\n  swap3\n  swap2\n  pop\n  jump\t// in(tag_24)\ntag_23:\n  pop\n  swap1\n  jump\t// out\ntag_24:\n  tag_25\n  swap2\n  swap1\ntag_26:\n  dup1\n  dup3\n  gt\n  iszero\n  tag_23\n  jumpi\n  dup1\n  sload\n  not(sub(exp(0x2, 0xa0), 0x1))\n  and\n  dup2\n  sstore\n  0x1\n  add\n  jump(tag_26)\ntag_25:\n  swap1\n  jump\t// out\ntag_19:\n  dataSize(sub_0)\n  dup1\n  dataOffset(sub_0)\n  0x0\n  codecopy\n  0x0\n  return\nstop\n\nsub_0: assembly {\n        /* \"MultiSigWalletWithDailyLimit_flat.sol\":217:12845  contract MultiSigWallet {... */\n      mstore(0x40, 0x80)\n      jumpi(tag_1, lt(calldatasize, 0x4))\n      and(div(calldataload(0x0), 0x100000000000000000000000000000000000000000000000000000000), 0xffffffff)\n      0x25e7c27\n      dup2\n      eq\n      tag_2\n      jumpi\n      dup1\n      0x173825d9\n      eq\n      tag_3\n      jumpi\n      dup1\n      0x20ea8d86\n      eq\n      tag_4\n      jumpi\n      dup1\n      0x2f54bf6e\n      eq\n      tag_5\n      jumpi\n      dup1\n      0x3411c81c\n      eq\n      tag_6\n      jumpi\n      dup1\n      0x54741525\n      eq\n      tag_7\n      jumpi\n      dup1\n      0x7065cb48\n      eq\n      tag_8\n      jumpi\n      dup1\n      0x784547a7\n      eq\n      tag_9\n      jumpi\n      dup1\n      0x8b51d13f\n      eq\n      tag_10\n      jumpi\n      dup1\n      0x9ace38c2\n      eq\n      tag_11\n      jumpi\n      dup1\n      0xa0e67e2b\n      eq\n      tag_12\n      jumpi\n      dup1\n      0xa8abe69a\n      eq\n      tag_13\n      jumpi\n      dup1\n      0xb5dc40c3\n      eq\n      tag_14\n      jumpi\n      dup1\n      0xb77bf600\n      eq\n      tag_15\n      jumpi\n      dup1\n      0xba51a6df\n      eq\n      tag_16\n      jumpi\n      dup1\n      0xc01a8c84\n      eq\n      tag_17\n      jumpi\n      dup1\n      0xc6427474\n      eq\n      tag_18\n      jumpi\n      dup1\n      0xd74f8edd\n      eq\n      tag_19\n      jumpi\n      dup1\n      0xdc8452cd\n      eq\n      tag_20\n      jumpi\n      dup1\n      0xe20056e6\n      eq\n      tag_21\n      jumpi\n      dup1\n      0xee22610b\n      eq\n      tag_22\n      jumpi\n    tag_1:\n        /* \"MultiSigWalletWithDailyLimit_flat.sol\":2551:2552  0 */\n      0x0\n        /* \"MultiSigWalletWithDailyLimit_flat.sol\":2539:2548  msg.value */\n      callvalue\n        /* \"MultiSigWalletWithDailyLimit_flat.sol\":2539:2552  msg.value > 0 */\n      gt\n        /* \"MultiSigWalletWithDailyLimit_flat.sol\":2535:2596  if (msg.value > 0)... */\n      iszero\n      tag_25\n      jumpi\n        /* \"MultiSigWalletWithDailyLimit_flat.sol\":2566:2596  Deposit(msg.sender, msg.value) */\n      0x40\n      dup1\n      mload\n        /* \"MultiSigWalletWithDailyLimit_flat.sol\":2586:2595  msg.value */\n      callvalue\n        /* \"MultiSigWalletWithDailyLimit_flat.sol\":2566:2596  Deposit(msg.sender, msg.value) */\n      dup2\n      mstore\n      swap1\n      mload\n        /* \"MultiSigWalletWithDailyLimit_flat.sol\":2574:2584  msg.sender */\n      caller\n      swap2\n        /* \"MultiSigWalletWithDailyLimit_flat.sol\":2566:2596  Deposit(msg.sender, msg.value) */\n      0xe1fffcc4923d04b559f4d29a8bfc6cda04eb5b0d3c460751c2402c5c5cc9109c\n      swap2\n      swap1\n      dup2\n      swap1\n      sub\n      0x20\n      add\n      swap1\n      log2\n        /* \"MultiSigWalletWithDailyLimit_flat.sol\":2535:2596  if (msg.value > 0)... */\n    tag_25:\n        /* \"MultiSigWalletWithDailyLimit_flat.sol\":217:12845  contract MultiSigWallet {... */\n      stop\n        /* \"MultiSigWalletWithDailyLimit_flat.sol\":1061:1084  address[] public owners */\n    tag_2:\n      callvalue\n        /* \"--CODEGEN--\":8:17   */\n      dup1\n        /* \"--CODEGEN--\":5:7   */\n      iszero\n      tag_26\n      jumpi\n        /* \"--CODEGEN--\":30:31   */\n      0x0\n        /* \"--CODEGEN--\":27:28   */\n      dup1\n        /* \"--CODEGEN--\":20:32   */\n      revert\n        /* \"--CODEGEN--\":5:7   */\n    tag_26:\n      pop\n        /* \"MultiSigWalletWithDailyLimit_flat.sol\":1061:1084  address[] public owners */\n      tag_27\n      calldataload(0x4)\n      jump(tag_28)\n    tag_27:\n      0x40\n      dup1\n      mload\n      sub(exp(0x2, 0xa0), 0x1)\n      swap1\n      swap3\n      and\n      dup3\n      mstore\n      mload\n      swap1\n      dup2\n      swap1\n      sub\n      0x20\n      add\n      swap1\n      return\n        /* \"MultiSigWalletWithDailyLimit_flat.sol\":3726:4186  function removeOwner(address owner)... */\n    tag_3:\n      callvalue\n        /* \"--CODEGEN--\":8:17   */\n      dup1\n        /* \"--CODEGEN--\":5:7   */\n      iszero\n      tag_29\n      jumpi\n        /* \"--CODEGEN--\":30:31   */\n      0x0\n        /* \"--CODEGEN--\":27:28   */\n      dup1\n        /* \"--CODEGEN--\":20:32   */\n      revert\n        /* \"--CODEGEN--\":5:7   */\n    tag_29:\n      pop\n        /* \"MultiSigWalletWithDailyLimit_flat.sol\":3726:4186  function removeOwner(address owner)... */\n      tag_25\n      and(calldataload(0x4), sub(exp(0x2, 0xa0), 0x1))\n      jump(tag_31)\n        /* \"MultiSigWalletWithDailyLimit_flat.sol\":6292:6583  function revokeConfirmation(uint transactionId)... */\n    tag_4:\n      callvalue\n        /* \"--CODEGEN--\":8:17   */\n      dup1\n        /* \"--CODEGEN--\":5:7   */\n      iszero\n      tag_32\n      jumpi\n        /* \"--CODEGEN--\":30:31   */\n      0x0\n        /* \"--CODEGEN--\":27:28   */\n      dup1\n        /* \"--CODEGEN--\":20:32   */\n      revert\n        /* \"--CODEGEN--\":5:7   */\n    tag_32:\n      pop\n        /* \"MultiSigWalletWithDailyLimit_flat.sol\":6292:6583  function revokeConfirmation(uint transactionId)... */\n      tag_25\n      calldataload(0x4)\n      jump(tag_34)\n        /* \"MultiSigWalletWithDailyLimit_flat.sol\":1015:1055  mapping (address => bool) public isOwner */\n    tag_5:\n      callvalue\n        /* \"--CODEGEN--\":8:17   */\n      dup1\n        /* \"--CODEGEN--\":5:7   */\n      iszero\n      tag_35\n      jumpi\n        /* \"--CODEGEN--\":30:31   */\n      0x0\n        /* \"--CODEGEN--\":27:28   */\n      dup1\n        /* \"--CODEGEN--\":20:32   */\n      revert\n        /* \"--CODEGEN--\":5:7   */\n    tag_35:\n      pop\n        /* \"MultiSigWalletWithDailyLimit_flat.sol\":1015:1055  mapping (address => bool) public isOwner */\n      tag_36\n      and(calldataload(0x4), sub(exp(0x2, 0xa0), 0x1))\n      jump(tag_37)\n    tag_36:\n      0x40\n      dup1\n      mload\n      swap2\n      iszero\n      iszero\n      dup3\n      mstore\n      mload\n      swap1\n      dup2\n      swap1\n      sub\n      0x20\n      add\n      swap1\n      return\n        /* \"MultiSigWalletWithDailyLimit_flat.sol\":945:1009  mapping (uint => mapping (address => bool)) public confirmations */\n    tag_6:\n      callvalue\n        /* \"--CODEGEN--\":8:17   */\n      dup1\n        /* \"--CODEGEN--\":5:7   */\n      iszero\n      tag_38\n      jumpi\n        /* \"--CODEGEN--\":30:31   */\n      0x0\n        /* \"--CODEGEN--\":27:28   */\n      dup1\n        /* \"--CODEGEN--\":20:32   */\n      revert\n        /* \"--CODEGEN--\":5:7   */\n    tag_38:\n      pop\n        /* \"MultiSigWalletWithDailyLimit_flat.sol\":945:1009  mapping (uint => mapping (address => bool)) public confirmations */\n      tag_36\n      calldataload(0x4)\n      and(calldataload(0x24), sub(exp(0x2, 0xa0), 0x1))\n      jump(tag_40)\n        /* \"MultiSigWalletWithDailyLimit_flat.sol\":10546:10865  function getTransactionCount(bool pending, bool executed)... */\n    tag_7:\n      callvalue\n        /* \"--CODEGEN--\":8:17   */\n      dup1\n        /* \"--CODEGEN--\":5:7   */\n      iszero\n      tag_41\n      jumpi\n        /* \"--CODEGEN--\":30:31   */\n      0x0\n        /* \"--CODEGEN--\":27:28   */\n      dup1\n        /* \"--CODEGEN--\":20:32   */\n      revert\n        /* \"--CODEGEN--\":5:7   */\n    tag_41:\n      pop\n        /* \"MultiSigWalletWithDailyLimit_flat.sol\":10546:10865  function getTransactionCount(bool pending, bool executed)... */\n      tag_42\n      iszero(iszero(calldataload(0x4)))\n      iszero(iszero(calldataload(0x24)))\n      jump(tag_43)\n    tag_42:\n      0x40\n      dup1\n      mload\n      swap2\n      dup3\n      mstore\n      mload\n      swap1\n      dup2\n      swap1\n      sub\n      0x20\n      add\n      swap1\n      return\n        /* \"MultiSigWalletWithDailyLimit_flat.sol\":3326:3603  function addOwner(address owner)... */\n    tag_8:\n      callvalue\n        /* \"--CODEGEN--\":8:17   */\n      dup1\n        /* \"--CODEGEN--\":5:7   */\n      iszero\n      tag_44\n      jumpi\n        /* \"--CODEGEN--\":30:31   */\n      0x0\n        /* \"--CODEGEN--\":27:28   */\n      dup1\n        /* \"--CODEGEN--\":20:32   */\n      revert\n        /* \"--CODEGEN--\":5:7   */\n    tag_44:\n      pop\n        /* \"MultiSigWalletWithDailyLimit_flat.sol\":3326:3603  function addOwner(address owner)... */\n      tag_25\n      and(calldataload(0x4), sub(exp(0x2, 0xa0), 0x1))\n      jump(tag_46)\n        /* \"MultiSigWalletWithDailyLimit_flat.sol\":8714:9051  function isConfirmed(uint transactionId)... */\n    tag_9:\n      callvalue\n        /* \"--CODEGEN--\":8:17   */\n      dup1\n        /* \"--CODEGEN--\":5:7   */\n      iszero\n      tag_47\n      jumpi\n        /* \"--CODEGEN--\":30:31   */\n      0x0\n        /* \"--CODEGEN--\":27:28   */\n      dup1\n        /* \"--CODEGEN--\":20:32   */\n      revert\n        /* \"--CODEGEN--\":5:7   */\n    tag_47:\n      pop\n        /* \"MultiSigWalletWithDailyLimit_flat.sol\":8714:9051  function isConfirmed(uint transactionId)... */\n      tag_36\n      calldataload(0x4)\n      jump(tag_49)\n        /* \"MultiSigWalletWithDailyLimit_flat.sol\":10032:10284  function getConfirmationCount(uint transactionId)... */\n    tag_10:\n      callvalue\n        /* \"--CODEGEN--\":8:17   */\n      dup1\n        /* \"--CODEGEN--\":5:7   */\n      iszero\n      tag_50\n      jumpi\n        /* \"--CODEGEN--\":30:31   */\n      0x0\n        /* \"--CODEGEN--\":27:28   */\n      dup1\n        /* \"--CODEGEN--\":20:32   */\n      revert\n        /* \"--CODEGEN--\":5:7   */\n    tag_50:\n      pop\n        /* \"MultiSigWalletWithDailyLimit_flat.sol\":10032:10284  function getConfirmationCount(uint transactionId)... */\n      tag_42\n      calldataload(0x4)\n      jump(tag_52)\n        /* \"MultiSigWalletWithDailyLimit_flat.sol\":890:939  mapping (uint => Transaction) public transactions */\n    tag_11:\n      callvalue\n        /* \"--CODEGEN--\":8:17   */\n      dup1\n        /* \"--CODEGEN--\":5:7   */\n      iszero\n      tag_53\n      jumpi\n        /* \"--CODEGEN--\":30:31   */\n      0x0\n        /* \"--CODEGEN--\":27:28   */\n      dup1\n        /* \"--CODEGEN--\":20:32   */\n      revert\n        /* \"--CODEGEN--\":5:7   */\n    tag_53:\n      pop\n        /* \"MultiSigWalletWithDailyLimit_flat.sol\":890:939  mapping (uint => Transaction) public transactions */\n      tag_54\n      calldataload(0x4)\n      jump(tag_55)\n    tag_54:\n      mload(0x40)\n      dup1\n      dup6\n      sub(exp(0x2, 0xa0), 0x1)\n      and\n      sub(exp(0x2, 0xa0), 0x1)\n      and\n      dup2\n      mstore\n      0x20\n      add\n      dup5\n      dup2\n      mstore\n      0x20\n      add\n      dup1\n      0x20\n      add\n      dup4\n      iszero\n      iszero\n      iszero\n      iszero\n      dup2\n      mstore\n      0x20\n      add\n      dup3\n      dup2\n      sub\n      dup3\n      mstore\n      dup5\n      dup2\n      dup2\n      mload\n      dup2\n      mstore\n      0x20\n      add\n      swap2\n      pop\n      dup1\n      mload\n      swap1\n      0x20\n      add\n      swap1\n      dup1\n      dup4\n      dup4\n        /* \"--CODEGEN--\":23:24   */\n      0x0\n        /* \"--CODEGEN--\":8:108   */\n    tag_56:\n        /* \"--CODEGEN--\":33:36   */\n      dup4\n        /* \"--CODEGEN--\":30:31   */\n      dup2\n        /* \"--CODEGEN--\":27:37   */\n      lt\n        /* \"--CODEGEN--\":8:108   */\n      iszero\n      tag_57\n      jumpi\n        /* \"--CODEGEN--\":90:101   */\n      dup2\n      dup2\n      add\n        /* \"--CODEGEN--\":84:102   */\n      mload\n        /* \"--CODEGEN--\":71:82   */\n      dup4\n      dup3\n      add\n        /* \"--CODEGEN--\":64:103   */\n      mstore\n        /* \"--CODEGEN--\":52:54   */\n      0x20\n        /* \"--CODEGEN--\":45:55   */\n      add\n        /* \"--CODEGEN--\":8:108   */\n      jump(tag_56)\n    tag_57:\n        /* \"--CODEGEN--\":12:26   */\n      pop\n        /* \"MultiSigWalletWithDailyLimit_flat.sol\":890:939  mapping (uint => Transaction) public transactions */\n      pop\n      pop\n      pop\n      swap1\n      pop\n      swap1\n      dup2\n      add\n      swap1\n      0x1f\n      and\n      dup1\n      iszero\n      tag_59\n      jumpi\n      dup1\n      dup3\n      sub\n      dup1\n      mload\n      0x1\n      dup4\n      0x20\n      sub\n      0x100\n      exp\n      sub\n      not\n      and\n      dup2\n      mstore\n      0x20\n      add\n      swap2\n      pop\n    tag_59:\n      pop\n      swap6\n      pop\n      pop\n      pop\n      pop\n      pop\n      pop\n      mload(0x40)\n      dup1\n      swap2\n      sub\n      swap1\n      return\n        /* \"MultiSigWalletWithDailyLimit_flat.sol\":10949:11064  function getOwners()... */\n    tag_12:\n      callvalue\n        /* \"--CODEGEN--\":8:17   */\n      dup1\n        /* \"--CODEGEN--\":5:7   */\n      iszero\n      tag_60\n      jumpi\n        /* \"--CODEGEN--\":30:31   */\n      0x0\n        /* \"--CODEGEN--\":27:28   */\n      dup1\n        /* \"--CODEGEN--\":20:32   */\n      revert\n        /* \"--CODEGEN--\":5:7   */\n    tag_60:\n        /* \"MultiSigWalletWithDailyLimit_flat.sol\":10949:11064  function getOwners()... */\n      pop\n      tag_61\n      jump(tag_62)\n    tag_61:\n      0x40\n      dup1\n      mload\n      0x20\n      dup1\n      dup3\n      mstore\n      dup4\n      mload\n      dup2\n      dup4\n      add\n      mstore\n      dup4\n      mload\n      swap2\n      swap3\n      dup4\n      swap3\n      swap1\n      dup4\n      add\n      swap2\n      dup6\n      dup2\n      add\n      swap2\n      mul\n      dup1\n      dup4\n      dup4\n      0x0\n        /* \"--CODEGEN--\":8:108   */\n    tag_63:\n        /* \"--CODEGEN--\":33:36   */\n      dup4\n        /* \"--CODEGEN--\":30:31   */\n      dup2\n        /* \"--CODEGEN--\":27:37   */\n      lt\n        /* \"--CODEGEN--\":8:108   */\n      iszero\n      tag_64\n      jumpi\n        /* \"--CODEGEN--\":90:101   */\n      dup2\n      dup2\n      add\n        /* \"--CODEGEN--\":84:102   */\n      mload\n        /* \"--CODEGEN--\":71:82   */\n      dup4\n      dup3\n      add\n        /* \"--CODEGEN--\":64:103   */\n      mstore\n        /* \"--CODEGEN--\":52:54   */\n      0x20\n        /* \"--CODEGEN--\":45:55   */\n      add\n        /* \"--CODEGEN--\":8:108   */\n      jump(tag_63)\n    tag_64:\n        /* \"--CODEGEN--\":12:26   */\n      pop\n        /* \"MultiSigWalletWithDailyLimit_flat.sol\":10949:11064  function getOwners()... */\n      pop\n      pop\n      pop\n      swap1\n      pop\n      add\n      swap3\n      pop\n      pop\n      pop\n      mload(0x40)\n      dup1\n      swap2\n      sub\n      swap1\n      return\n        /* \"MultiSigWalletWithDailyLimit_flat.sol\":12167:12843  function getTransactionIds(uint from, uint to, bool pending, bool executed)... */\n    tag_13:\n      callvalue\n        /* \"--CODEGEN--\":8:17   */\n      dup1\n        /* \"--CODEGEN--\":5:7   */\n      iszero\n      tag_66\n      jumpi\n        /* \"--CODEGEN--\":30:31   */\n      0x0\n        /* \"--CODEGEN--\":27:28   */\n      dup1\n        /* \"--CODEGEN--\":20:32   */\n      revert\n        /* \"--CODEGEN--\":5:7   */\n    tag_66:\n      pop\n        /* \"MultiSigWalletWithDailyLimit_flat.sol\":12167:12843  function getTransactionIds(uint from, uint to, bool pending, bool executed)... */\n      tag_61\n      calldataload(0x4)\n      calldataload(0x24)\n      iszero(iszero(calldataload(0x44)))\n      iszero(iszero(calldataload(0x64)))\n      jump(tag_68)\n        /* \"MultiSigWalletWithDailyLimit_flat.sol\":11243:11818  function getConfirmations(uint transactionId)... */\n    tag_14:\n      callvalue\n        /* \"--CODEGEN--\":8:17   */\n      dup1\n        /* \"--CODEGEN--\":5:7   */\n      iszero\n      tag_72\n      jumpi\n        /* \"--CODEGEN--\":30:31   */\n      0x0\n        /* \"--CODEGEN--\":27:28   */\n      dup1\n        /* \"--CODEGEN--\":20:32   */\n      revert\n        /* \"--CODEGEN--\":5:7   */\n    tag_72:\n      pop\n        /* \"MultiSigWalletWithDailyLimit_flat.sol\":11243:11818  function getConfirmations(uint transactionId)... */\n      tag_61\n      calldataload(0x4)\n      jump(tag_74)\n        /* \"MultiSigWalletWithDailyLimit_flat.sol\":1116:1144  uint public transactionCount */\n    tag_15:\n      callvalue\n        /* \"--CODEGEN--\":8:17   */\n      dup1\n        /* \"--CODEGEN--\":5:7   */\n      iszero\n      tag_78\n      jumpi\n        /* \"--CODEGEN--\":30:31   */\n      0x0\n        /* \"--CODEGEN--\":27:28   */\n      dup1\n        /* \"--CODEGEN--\":20:32   */\n      revert\n        /* \"--CODEGEN--\":5:7   */\n    tag_78:\n        /* \"MultiSigWalletWithDailyLimit_flat.sol\":1116:1144  uint public transactionCount */\n      pop\n      tag_42\n      jump(tag_80)\n        /* \"MultiSigWalletWithDailyLimit_flat.sol\":5008:5215  function changeRequirement(uint _required)... */\n    tag_16:\n      callvalue\n        /* \"--CODEGEN--\":8:17   */\n      dup1\n        /* \"--CODEGEN--\":5:7   */\n      iszero\n      tag_81\n      jumpi\n        /* \"--CODEGEN--\":30:31   */\n      0x0\n        /* \"--CODEGEN--\":27:28   */\n      dup1\n        /* \"--CODEGEN--\":20:32   */\n      revert\n        /* \"--CODEGEN--\":5:7   */\n    tag_81:\n      pop\n        /* \"MultiSigWalletWithDailyLimit_flat.sol\":5008:5215  function changeRequirement(uint _required)... */\n      tag_25\n      calldataload(0x4)\n      jump(tag_83)\n        /* \"MultiSigWalletWithDailyLimit_flat.sol\":5824:6168  function confirmTransaction(uint transactionId)... */\n    tag_17:\n      callvalue\n        /* \"--CODEGEN--\":8:17   */\n      dup1\n        /* \"--CODEGEN--\":5:7   */\n      iszero\n      tag_84\n      jumpi\n        /* \"--CODEGEN--\":30:31   */\n      0x0\n        /* \"--CODEGEN--\":27:28   */\n      dup1\n        /* \"--CODEGEN--\":20:32   */\n      revert\n        /* \"--CODEGEN--\":5:7   */\n    tag_84:\n      pop\n        /* \"MultiSigWalletWithDailyLimit_flat.sol\":5824:6168  function confirmTransaction(uint transactionId)... */\n      tag_25\n      calldataload(0x4)\n      jump(tag_86)\n        /* \"MultiSigWalletWithDailyLimit_flat.sol\":5474:5718  function submitTransaction(address destination, uint value, bytes data)... */\n    tag_18:\n      callvalue\n        /* \"--CODEGEN--\":8:17   */\n      dup1\n        /* \"--CODEGEN--\":5:7   */\n      iszero\n      tag_87\n      jumpi\n        /* \"--CODEGEN--\":30:31   */\n      0x0\n        /* \"--CODEGEN--\":27:28   */\n      dup1\n        /* \"--CODEGEN--\":20:32   */\n      revert\n        /* \"--CODEGEN--\":5:7   */\n    tag_87:\n      pop\n        /* \"MultiSigWalletWithDailyLimit_flat.sol\":5474:5718  function submitTransaction(address destination, uint value, bytes data)... */\n      0x40\n      dup1\n      mload\n      0x20\n      0x4\n      calldataload(0x44)\n      dup2\n      dup2\n      add\n      calldataload\n      0x1f\n      dup2\n      add\n      dup5\n      swap1\n      div\n      dup5\n      mul\n      dup6\n      add\n      dup5\n      add\n      swap1\n      swap6\n      mstore\n      dup5\n      dup5\n      mstore\n      tag_42\n      swap5\n      dup3\n      calldataload\n      sub(exp(0x2, 0xa0), 0x1)\n      and\n      swap5\n      0x24\n      dup1\n      calldataload\n      swap6\n      calldatasize\n      swap6\n      swap5\n      0x64\n      swap5\n      swap3\n      add\n      swap2\n      swap1\n      dup2\n      swap1\n      dup5\n      add\n      dup4\n      dup3\n      dup1\n      dup3\n      dup5\n      calldatacopy\n      pop\n      swap5\n      swap8\n      pop\n      tag_89\n      swap7\n      pop\n      pop\n      pop\n      pop\n      pop\n      pop\n      pop\n      jump\n        /* \"MultiSigWalletWithDailyLimit_flat.sol\":811:852  uint constant public MAX_OWNER_COUNT = 50 */\n    tag_19:\n      callvalue\n        /* \"--CODEGEN--\":8:17   */\n      dup1\n        /* \"--CODEGEN--\":5:7   */\n      iszero\n      tag_90\n      jumpi\n        /* \"--CODEGEN--\":30:31   */\n      0x0\n        /* \"--CODEGEN--\":27:28   */\n      dup1\n        /* \"--CODEGEN--\":20:32   */\n      revert\n        /* \"--CODEGEN--\":5:7   */\n    tag_90:\n        /* \"MultiSigWalletWithDailyLimit_flat.sol\":811:852  uint constant public MAX_OWNER_COUNT = 50 */\n      pop\n      tag_42\n      jump(tag_92)\n        /* \"MultiSigWalletWithDailyLimit_flat.sol\":1090:1110  uint public required */\n    tag_20:\n      callvalue\n        /* \"--CODEGEN--\":8:17   */\n      dup1\n        /* \"--CODEGEN--\":5:7   */\n      iszero\n      tag_93\n      jumpi\n        /* \"--CODEGEN--\":30:31   */\n      0x0\n        /* \"--CODEGEN--\":27:28   */\n      dup1\n        /* \"--CODEGEN--\":20:32   */\n      revert\n        /* \"--CODEGEN--\":5:7   */\n    tag_93:\n        /* \"MultiSigWalletWithDailyLimit_flat.sol\":1090:1110  uint public required */\n      pop\n      tag_42\n      jump(tag_95)\n        /* \"MultiSigWalletWithDailyLimit_flat.sol\":4388:4837  function replaceOwner(address owner, address newOwner)... */\n    tag_21:\n      callvalue\n        /* \"--CODEGEN--\":8:17   */\n      dup1\n        /* \"--CODEGEN--\":5:7   */\n      iszero\n      tag_96\n      jumpi\n        /* \"--CODEGEN--\":30:31   */\n      0x0\n        /* \"--CODEGEN--\":27:28   */\n      dup1\n        /* \"--CODEGEN--\":20:32   */\n      revert\n        /* \"--CODEGEN--\":5:7   */\n    tag_96:\n      pop\n        /* \"MultiSigWalletWithDailyLimit_flat.sol\":4388:4837  function replaceOwner(address owner, address newOwner)... */\n      tag_25\n      sub(exp(0x2, 0xa0), 0x1)\n      calldataload(0x4)\n      dup2\n      and\n      swap1\n      calldataload(0x24)\n      and\n      jump(tag_98)\n        /* \"MultiSigWalletWithDailyLimit_flat.sol\":6697:7283  function executeTransaction(uint transactionId)... */\n    tag_22:\n      callvalue\n        /* \"--CODEGEN--\":8:17   */\n      dup1\n        /* \"--CODEGEN--\":5:7   */\n      iszero\n      tag_99\n      jumpi\n        /* \"--CODEGEN--\":30:31   */\n      0x0\n        /* \"--CODEGEN--\":27:28   */\n      dup1\n        /* \"--CODEGEN--\":20:32   */\n      revert\n        /* \"--CODEGEN--\":5:7   */\n    tag_99:\n      pop\n        /* \"MultiSigWalletWithDailyLimit_flat.sol\":6697:7283  function executeTransaction(uint transactionId)... */\n      tag_25\n      calldataload(0x4)\n      jump(tag_101)\n        /* \"MultiSigWalletWithDailyLimit_flat.sol\":1061:1084  address[] public owners */\n    tag_28:\n      0x3\n      dup1\n      sload\n      dup3\n      swap1\n      dup2\n      lt\n      tag_102\n      jumpi\n      invalid\n    tag_102:\n      0x0\n      swap2\n      dup3\n      mstore\n      0x20\n      swap1\n      swap2\n      keccak256\n      add\n      sload\n      sub(exp(0x2, 0xa0), 0x1)\n      and\n      swap1\n      pop\n      dup2\n      jump\t// out\n        /* \"MultiSigWalletWithDailyLimit_flat.sol\":3726:4186  function removeOwner(address owner)... */\n    tag_31:\n        /* \"MultiSigWalletWithDailyLimit_flat.sol\":3874:3880  uint i */\n      0x0\n        /* \"MultiSigWalletWithDailyLimit_flat.sol\":1348:1358  msg.sender */\n      caller\n        /* \"MultiSigWalletWithDailyLimit_flat.sol\":1370:1374  this */\n      address\n        /* \"MultiSigWalletWithDailyLimit_flat.sol\":1348:1375  msg.sender == address(this) */\n      eq\n        /* \"MultiSigWalletWithDailyLimit_flat.sol\":1340:1376  require(msg.sender == address(this)) */\n      tag_105\n      jumpi\n      0x0\n      dup1\n      revert\n    tag_105:\n      sub(exp(0x2, 0xa0), 0x1)\n        /* \"MultiSigWalletWithDailyLimit_flat.sol\":1554:1568  isOwner[owner] */\n      dup3\n      and\n      0x0\n      swap1\n      dup2\n      mstore\n        /* \"MultiSigWalletWithDailyLimit_flat.sol\":1554:1561  isOwner */\n      0x2\n        /* \"MultiSigWalletWithDailyLimit_flat.sol\":1554:1568  isOwner[owner] */\n      0x20\n      mstore\n      0x40\n      swap1\n      keccak256\n      sload\n        /* \"MultiSigWalletWithDailyLimit_flat.sol\":3816:3821  owner */\n      dup3\n      swap1\n        /* \"MultiSigWalletWithDailyLimit_flat.sol\":1554:1568  isOwner[owner] */\n      0xff\n      and\n        /* \"MultiSigWalletWithDailyLimit_flat.sol\":1546:1569  require(isOwner[owner]) */\n      iszero\n      iszero\n      tag_107\n      jumpi\n      0x0\n      dup1\n      revert\n    tag_107:\n      sub(exp(0x2, 0xa0), 0x1)\n        /* \"MultiSigWalletWithDailyLimit_flat.sol\":3837:3851  isOwner[owner] */\n      dup4\n      and\n        /* \"MultiSigWalletWithDailyLimit_flat.sol\":3854:3859  false */\n      0x0\n        /* \"MultiSigWalletWithDailyLimit_flat.sol\":3837:3851  isOwner[owner] */\n      swap1\n      dup2\n      mstore\n        /* \"MultiSigWalletWithDailyLimit_flat.sol\":3837:3844  isOwner */\n      0x2\n        /* \"MultiSigWalletWithDailyLimit_flat.sol\":3837:3851  isOwner[owner] */\n      0x20\n      mstore\n      0x40\n      dup2\n      keccak256\n        /* \"MultiSigWalletWithDailyLimit_flat.sol\":3837:3859  isOwner[owner] = false */\n      dup1\n      sload\n      not(0xff)\n      and\n      swap1\n      sstore\n        /* \"MultiSigWalletWithDailyLimit_flat.sol\":3854:3859  false */\n      swap2\n      pop\n        /* \"MultiSigWalletWithDailyLimit_flat.sol\":3869:4039  for (uint i=0; i<owners.length - 1; i++)... */\n    tag_109:\n        /* \"MultiSigWalletWithDailyLimit_flat.sol\":3886:3892  owners */\n      0x3\n        /* \"MultiSigWalletWithDailyLimit_flat.sol\":3886:3899  owners.length */\n      sload\n      not(0x0)\n        /* \"MultiSigWalletWithDailyLimit_flat.sol\":3886:3903  owners.length - 1 */\n      add\n        /* \"MultiSigWalletWithDailyLimit_flat.sol\":3884:3903  i<owners.length - 1 */\n      dup3\n      lt\n        /* \"MultiSigWalletWithDailyLimit_flat.sol\":3869:4039  for (uint i=0; i<owners.length - 1; i++)... */\n      iszero\n      tag_110\n      jumpi\n        /* \"MultiSigWalletWithDailyLimit_flat.sol\":3939:3944  owner */\n      dup3\n      sub(exp(0x2, 0xa0), 0x1)\n        /* \"MultiSigWalletWithDailyLimit_flat.sol\":3926:3944  owners[i] == owner */\n      and\n        /* \"MultiSigWalletWithDailyLimit_flat.sol\":3926:3932  owners */\n      0x3\n        /* \"MultiSigWalletWithDailyLimit_flat.sol\":3933:3934  i */\n      dup4\n        /* \"MultiSigWalletWithDailyLimit_flat.sol\":3926:3935  owners[i] */\n      dup2\n      sload\n      dup2\n      lt\n      iszero\n      iszero\n      tag_112\n      jumpi\n      invalid\n    tag_112:\n      0x0\n      swap2\n      dup3\n      mstore\n      0x20\n      swap1\n      swap2\n      keccak256\n      add\n      sload\n      sub(exp(0x2, 0xa0), 0x1)\n      and\n        /* \"MultiSigWalletWithDailyLimit_flat.sol\":3926:3944  owners[i] == owner */\n      eq\n        /* \"MultiSigWalletWithDailyLimit_flat.sol\":3922:4039  if (owners[i] == owner) {... */\n      iszero\n      tag_114\n      jumpi\n        /* \"MultiSigWalletWithDailyLimit_flat.sol\":3976:3982  owners */\n      0x3\n        /* \"MultiSigWalletWithDailyLimit_flat.sol\":3983:3996  owners.length */\n      dup1\n      sload\n      not(0x0)\n        /* \"MultiSigWalletWithDailyLimit_flat.sol\":3983:4000  owners.length - 1 */\n      dup2\n      add\n      swap1\n        /* \"MultiSigWalletWithDailyLimit_flat.sol\":3976:4001  owners[owners.length - 1] */\n      dup2\n      lt\n      tag_115\n      jumpi\n      invalid\n    tag_115:\n      0x0\n      swap2\n      dup3\n      mstore\n      0x20\n      swap1\n      swap2\n      keccak256\n      add\n      sload\n        /* \"MultiSigWalletWithDailyLimit_flat.sol\":3964:3970  owners */\n      0x3\n        /* \"MultiSigWalletWithDailyLimit_flat.sol\":3964:3973  owners[i] */\n      dup1\n      sload\n      sub(exp(0x2, 0xa0), 0x1)\n        /* \"MultiSigWalletWithDailyLimit_flat.sol\":3976:4001  owners[owners.length - 1] */\n      swap1\n      swap3\n      and\n      swap2\n        /* \"MultiSigWalletWithDailyLimit_flat.sol\":3971:3972  i */\n      dup5\n      swap1\n        /* \"MultiSigWalletWithDailyLimit_flat.sol\":3964:3973  owners[i] */\n      dup2\n      lt\n      tag_117\n      jumpi\n      invalid\n    tag_117:\n      swap1\n      0x0\n      mstore\n      keccak256(0x0, 0x20)\n      add\n      0x0\n        /* \"MultiSigWalletWithDailyLimit_flat.sol\":3964:4001  owners[i] = owners[owners.length - 1] */\n      0x100\n      exp\n      dup2\n      sload\n      dup2\n      sub(exp(0x2, 0xa0), 0x1)\n      mul\n      not\n      and\n      swap1\n      dup4\n      sub(exp(0x2, 0xa0), 0x1)\n      and\n      mul\n      or\n      swap1\n      sstore\n      pop\n        /* \"MultiSigWalletWithDailyLimit_flat.sol\":4019:4024  break */\n      jump(tag_110)\n        /* \"MultiSigWalletWithDailyLimit_flat.sol\":3922:4039  if (owners[i] == owner) {... */\n    tag_114:\n        /* \"MultiSigWalletWithDailyLimit_flat.sol\":3905:3908  i++ */\n      0x1\n      swap1\n      swap2\n      add\n      swap1\n        /* \"MultiSigWalletWithDailyLimit_flat.sol\":3869:4039  for (uint i=0; i<owners.length - 1; i++)... */\n      jump(tag_109)\n    tag_110:\n        /* \"MultiSigWalletWithDailyLimit_flat.sol\":4048:4054  owners */\n      0x3\n        /* \"MultiSigWalletWithDailyLimit_flat.sol\":4048:4066  owners.length -= 1 */\n      dup1\n      sload\n      not(0x0)\n      add\n      swap1\n      tag_119\n      swap1\n      dup3\n      jump\t// in(tag_120)\n    tag_119:\n      pop\n        /* \"MultiSigWalletWithDailyLimit_flat.sol\":4091:4097  owners */\n      0x3\n        /* \"MultiSigWalletWithDailyLimit_flat.sol\":4091:4104  owners.length */\n      sload\n        /* \"MultiSigWalletWithDailyLimit_flat.sol\":4080:4088  required */\n      sload(0x4)\n        /* \"MultiSigWalletWithDailyLimit_flat.sol\":4080:4104  required > owners.length */\n      gt\n        /* \"MultiSigWalletWithDailyLimit_flat.sol\":4076:4150  if (required > owners.length)... */\n      iszero\n      tag_122\n      jumpi\n        /* \"MultiSigWalletWithDailyLimit_flat.sol\":4136:4142  owners */\n      0x3\n        /* \"MultiSigWalletWithDailyLimit_flat.sol\":4136:4149  owners.length */\n      sload\n        /* \"MultiSigWalletWithDailyLimit_flat.sol\":4118:4150  changeRequirement(owners.length) */\n      tag_122\n      swap1\n        /* \"MultiSigWalletWithDailyLimit_flat.sol\":4118:4135  changeRequirement */\n      tag_83\n        /* \"MultiSigWalletWithDailyLimit_flat.sol\":4118:4150  changeRequirement(owners.length) */\n      jump\t// in\n    tag_122:\n        /* \"MultiSigWalletWithDailyLimit_flat.sol\":4160:4179  OwnerRemoval(owner) */\n      mload(0x40)\n      sub(exp(0x2, 0xa0), 0x1)\n      dup5\n      and\n      swap1\n      0x8001553a916ef2f495d26a907cc54d96ed840d7bda71e73194bf5a9df7a76b90\n      swap1\n      0x0\n      swap1\n      log2\n        /* \"MultiSigWalletWithDailyLimit_flat.sol\":1386:1387  _ */\n      pop\n        /* \"MultiSigWalletWithDailyLimit_flat.sol\":3726:4186  function removeOwner(address owner)... */\n      pop\n      pop\n      jump\t// out\n        /* \"MultiSigWalletWithDailyLimit_flat.sol\":6292:6583  function revokeConfirmation(uint transactionId)... */\n    tag_34:\n        /* \"MultiSigWalletWithDailyLimit_flat.sol\":6375:6385  msg.sender */\n      caller\n        /* \"MultiSigWalletWithDailyLimit_flat.sol\":1554:1568  isOwner[owner] */\n      0x0\n      dup2\n      dup2\n      mstore\n        /* \"MultiSigWalletWithDailyLimit_flat.sol\":1554:1561  isOwner */\n      0x2\n        /* \"MultiSigWalletWithDailyLimit_flat.sol\":1554:1568  isOwner[owner] */\n      0x20\n      mstore\n      0x40\n      swap1\n      keccak256\n      sload\n      0xff\n      and\n        /* \"MultiSigWalletWithDailyLimit_flat.sol\":1546:1569  require(isOwner[owner]) */\n      iszero\n      iszero\n      tag_124\n      jumpi\n      0x0\n      dup1\n      revert\n    tag_124:\n        /* \"MultiSigWalletWithDailyLimit_flat.sol\":1799:1827  confirmations[transactionId] */\n      0x0\n      dup3\n      dup2\n      mstore\n        /* \"MultiSigWalletWithDailyLimit_flat.sol\":1799:1812  confirmations */\n      0x1\n        /* \"MultiSigWalletWithDailyLimit_flat.sol\":1799:1827  confirmations[transactionId] */\n      0x20\n      swap1\n      dup2\n      mstore\n      0x40\n      dup1\n      dup4\n      keccak256\n        /* \"MultiSigWalletWithDailyLimit_flat.sol\":6420:6430  msg.sender */\n      caller\n        /* \"MultiSigWalletWithDailyLimit_flat.sol\":1799:1834  confirmations[transactionId][owner] */\n      dup1\n      dup6\n      mstore\n      swap3\n      mstore\n      swap1\n      swap2\n      keccak256\n      sload\n        /* \"MultiSigWalletWithDailyLimit_flat.sol\":6405:6418  transactionId */\n      dup4\n      swap2\n        /* \"MultiSigWalletWithDailyLimit_flat.sol\":6420:6430  msg.sender */\n      swap1\n        /* \"MultiSigWalletWithDailyLimit_flat.sol\":1799:1834  confirmations[transactionId][owner] */\n      0xff\n      and\n        /* \"MultiSigWalletWithDailyLimit_flat.sol\":1791:1835  require(confirmations[transactionId][owner]) */\n      iszero\n      iszero\n      tag_126\n      jumpi\n      0x0\n      dup1\n      revert\n    tag_126:\n        /* \"MultiSigWalletWithDailyLimit_flat.sol\":2055:2067  transactions */\n      0x0\n        /* \"MultiSigWalletWithDailyLimit_flat.sol\":2055:2082  transactions[transactionId] */\n      dup5\n      dup2\n      mstore\n      0x20\n      dup2\n      swap1\n      mstore\n      0x40\n      swap1\n      keccak256\n        /* \"MultiSigWalletWithDailyLimit_flat.sol\":2055:2091  transactions[transactionId].executed */\n      0x3\n      add\n      sload\n        /* \"MultiSigWalletWithDailyLimit_flat.sol\":6452:6465  transactionId */\n      dup5\n      swap1\n        /* \"MultiSigWalletWithDailyLimit_flat.sol\":2055:2091  transactions[transactionId].executed */\n      0xff\n      and\n        /* \"MultiSigWalletWithDailyLimit_flat.sol\":2054:2091  !transactions[transactionId].executed */\n      iszero\n        /* \"MultiSigWalletWithDailyLimit_flat.sol\":2046:2092  require(!transactions[transactionId].executed) */\n      tag_128\n      jumpi\n      0x0\n      dup1\n      revert\n    tag_128:\n        /* \"MultiSigWalletWithDailyLimit_flat.sol\":6524:6529  false */\n      0x0\n        /* \"MultiSigWalletWithDailyLimit_flat.sol\":6481:6509  confirmations[transactionId] */\n      dup6\n      dup2\n      mstore\n        /* \"MultiSigWalletWithDailyLimit_flat.sol\":6481:6494  confirmations */\n      0x1\n        /* \"MultiSigWalletWithDailyLimit_flat.sol\":6481:6509  confirmations[transactionId] */\n      0x20\n      swap1\n      dup2\n      mstore\n      0x40\n      dup1\n      dup4\n      keccak256\n        /* \"MultiSigWalletWithDailyLimit_flat.sol\":6510:6520  msg.sender */\n      caller\n        /* \"MultiSigWalletWithDailyLimit_flat.sol\":6481:6521  confirmations[transactionId][msg.sender] */\n      dup1\n      dup6\n      mstore\n      swap3\n      mstore\n      dup1\n      dup4\n      keccak256\n        /* \"MultiSigWalletWithDailyLimit_flat.sol\":6481:6529  confirmations[transactionId][msg.sender] = false */\n      dup1\n      sload\n      not(0xff)\n      and\n      swap1\n      sstore\n        /* \"MultiSigWalletWithDailyLimit_flat.sol\":6539:6576  Revocation(msg.sender, transactionId) */\n      mload\n        /* \"MultiSigWalletWithDailyLimit_flat.sol\":6495:6508  transactionId */\n      dup8\n      swap3\n        /* \"MultiSigWalletWithDailyLimit_flat.sol\":6539:6576  Revocation(msg.sender, transactionId) */\n      0xf6a317157440607f36269043eb55f1287a5a19ba2216afeab88cd46cbcfb88e9\n      swap2\n      log3\n        /* \"MultiSigWalletWithDailyLimit_flat.sol\":1845:1846  _ */\n      pop\n        /* \"MultiSigWalletWithDailyLimit_flat.sol\":1579:1580  _ */\n      pop\n      pop\n        /* \"MultiSigWalletWithDailyLimit_flat.sol\":6292:6583  function revokeConfirmation(uint transactionId)... */\n      pop\n      pop\n      jump\t// out\n        /* \"MultiSigWalletWithDailyLimit_flat.sol\":1015:1055  mapping (address => bool) public isOwner */\n    tag_37:\n      mstore(0x20, 0x2)\n      0x0\n      swap1\n      dup2\n      mstore\n      0x40\n      swap1\n      keccak256\n      sload\n      0xff\n      and\n      dup2\n      jump\t// out\n        /* \"MultiSigWalletWithDailyLimit_flat.sol\":945:1009  mapping (uint => mapping (address => bool)) public confirmations */\n    tag_40:\n      0x1\n      0x20\n      swap1\n      dup2\n      mstore\n      0x0\n      swap3\n      dup4\n      mstore\n      0x40\n      dup1\n      dup5\n      keccak256\n      swap1\n      swap2\n      mstore\n      swap1\n      dup3\n      mstore\n      swap1\n      keccak256\n      sload\n      0xff\n      and\n      dup2\n      jump\t// out\n        /* \"MultiSigWalletWithDailyLimit_flat.sol\":10546:10865  function getTransactionCount(bool pending, bool executed)... */\n    tag_43:\n        /* \"MultiSigWalletWithDailyLimit_flat.sol\":10653:10663  uint count */\n      0x0\n      dup1\n        /* \"MultiSigWalletWithDailyLimit_flat.sol\":10679:10858  for (uint i=0; i<transactionCount; i++)... */\n    tag_131:\n        /* \"MultiSigWalletWithDailyLimit_flat.sol\":10696:10712  transactionCount */\n      sload(0x5)\n        /* \"MultiSigWalletWithDailyLimit_flat.sol\":10694:10695  i */\n      dup2\n        /* \"MultiSigWalletWithDailyLimit_flat.sol\":10694:10712  i<transactionCount */\n      lt\n        /* \"MultiSigWalletWithDailyLimit_flat.sol\":10679:10858  for (uint i=0; i<transactionCount; i++)... */\n      iszero\n      tag_132\n      jumpi\n        /* \"MultiSigWalletWithDailyLimit_flat.sol\":10738:10745  pending */\n      dup4\n        /* \"MultiSigWalletWithDailyLimit_flat.sol\":10738:10774  pending && !transactions[i].executed */\n      dup1\n      iszero\n      tag_134\n      jumpi\n      pop\n        /* \"MultiSigWalletWithDailyLimit_flat.sol\":10750:10762  transactions */\n      0x0\n        /* \"MultiSigWalletWithDailyLimit_flat.sol\":10750:10765  transactions[i] */\n      dup2\n      dup2\n      mstore\n      0x20\n      dup2\n      swap1\n      mstore\n      0x40\n      swap1\n      keccak256\n        /* \"MultiSigWalletWithDailyLimit_flat.sol\":10750:10774  transactions[i].executed */\n      0x3\n      add\n      sload\n      0xff\n      and\n        /* \"MultiSigWalletWithDailyLimit_flat.sol\":10749:10774  !transactions[i].executed */\n      iszero\n        /* \"MultiSigWalletWithDailyLimit_flat.sol\":10738:10774  pending && !transactions[i].executed */\n    tag_134:\n        /* \"MultiSigWalletWithDailyLimit_flat.sol\":10738:10830  pending && !transactions[i].executed... */\n      dup1\n      tag_136\n      jumpi\n      pop\n        /* \"MultiSigWalletWithDailyLimit_flat.sol\":10794:10802  executed */\n      dup3\n        /* \"MultiSigWalletWithDailyLimit_flat.sol\":10794:10830  executed && transactions[i].executed */\n      dup1\n      iszero\n      tag_136\n      jumpi\n      pop\n        /* \"MultiSigWalletWithDailyLimit_flat.sol\":10806:10818  transactions */\n      0x0\n        /* \"MultiSigWalletWithDailyLimit_flat.sol\":10806:10821  transactions[i] */\n      dup2\n      dup2\n      mstore\n      0x20\n      dup2\n      swap1\n      mstore\n      0x40\n      swap1\n      keccak256\n        /* \"MultiSigWalletWithDailyLimit_flat.sol\":10806:10830  transactions[i].executed */\n      0x3\n      add\n      sload\n      0xff\n      and\n        /* \"MultiSigWalletWithDailyLimit_flat.sol\":10794:10830  executed && transactions[i].executed */\n    tag_136:\n        /* \"MultiSigWalletWithDailyLimit_flat.sol\":10731:10858  if (   pending && !transactions[i].executed... */\n      iszero\n      tag_137\n      jumpi\n        /* \"MultiSigWalletWithDailyLimit_flat.sol\":10857:10858  1 */\n      0x1\n        /* \"MultiSigWalletWithDailyLimit_flat.sol\":10848:10858  count += 1 */\n      dup3\n      add\n      swap2\n      pop\n        /* \"MultiSigWalletWithDailyLimit_flat.sol\":10731:10858  if (   pending && !transactions[i].executed... */\n    tag_137:\n        /* \"MultiSigWalletWithDailyLimit_flat.sol\":10714:10717  i++ */\n      0x1\n      add\n        /* \"MultiSigWalletWithDailyLimit_flat.sol\":10679:10858  for (uint i=0; i<transactionCount; i++)... */\n      jump(tag_131)\n    tag_132:\n        /* \"MultiSigWalletWithDailyLimit_flat.sol\":10546:10865  function getTransactionCount(bool pending, bool executed)... */\n      pop\n      swap3\n      swap2\n      pop\n      pop\n      jump\t// out\n        /* \"MultiSigWalletWithDailyLimit_flat.sol\":3326:3603  function addOwner(address owner)... */\n    tag_46:\n        /* \"MultiSigWalletWithDailyLimit_flat.sol\":1348:1358  msg.sender */\n      caller\n        /* \"MultiSigWalletWithDailyLimit_flat.sol\":1370:1374  this */\n      address\n        /* \"MultiSigWalletWithDailyLimit_flat.sol\":1348:1375  msg.sender == address(this) */\n      eq\n        /* \"MultiSigWalletWithDailyLimit_flat.sol\":1340:1376  require(msg.sender == address(this)) */\n      tag_139\n      jumpi\n      0x0\n      dup1\n      revert\n    tag_139:\n      sub(exp(0x2, 0xa0), 0x1)\n        /* \"MultiSigWalletWithDailyLimit_flat.sol\":1461:1475  isOwner[owner] */\n      dup2\n      and\n      0x0\n      swap1\n      dup2\n      mstore\n        /* \"MultiSigWalletWithDailyLimit_flat.sol\":1461:1468  isOwner */\n      0x2\n        /* \"MultiSigWalletWithDailyLimit_flat.sol\":1461:1475  isOwner[owner] */\n      0x20\n      mstore\n      0x40\n      swap1\n      keccak256\n      sload\n        /* \"MultiSigWalletWithDailyLimit_flat.sol\":3419:3424  owner */\n      dup2\n      swap1\n        /* \"MultiSigWalletWithDailyLimit_flat.sol\":1461:1475  isOwner[owner] */\n      0xff\n      and\n        /* \"MultiSigWalletWithDailyLimit_flat.sol\":1460:1475  !isOwner[owner] */\n      iszero\n        /* \"MultiSigWalletWithDailyLimit_flat.sol\":1452:1476  require(!isOwner[owner]) */\n      tag_141\n      jumpi\n      0x0\n      dup1\n      revert\n    tag_141:\n        /* \"MultiSigWalletWithDailyLimit_flat.sol\":3442:3447  owner */\n      dup2\n      sub(exp(0x2, 0xa0), 0x1)\n        /* \"MultiSigWalletWithDailyLimit_flat.sol\":2169:2182  _address != 0 */\n      dup2\n      and\n      iszero\n      iszero\n        /* \"MultiSigWalletWithDailyLimit_flat.sol\":2161:2183  require(_address != 0) */\n      tag_143\n      jumpi\n      0x0\n      dup1\n      revert\n    tag_143:\n        /* \"MultiSigWalletWithDailyLimit_flat.sol\":3474:3480  owners */\n      0x3\n        /* \"MultiSigWalletWithDailyLimit_flat.sol\":3474:3487  owners.length */\n      dup1\n      sload\n      swap1\n      pop\n        /* \"MultiSigWalletWithDailyLimit_flat.sol\":3490:3491  1 */\n      0x1\n        /* \"MultiSigWalletWithDailyLimit_flat.sol\":3474:3491  owners.length + 1 */\n      add\n        /* \"MultiSigWalletWithDailyLimit_flat.sol\":3493:3501  required */\n      sload(0x4)\n        /* \"MultiSigWalletWithDailyLimit_flat.sol\":850:852  50 */\n      0x32\n        /* \"MultiSigWalletWithDailyLimit_flat.sol\":2284:2294  ownerCount */\n      dup3\n        /* \"MultiSigWalletWithDailyLimit_flat.sol\":2284:2313  ownerCount <= MAX_OWNER_COUNT */\n      gt\n      iszero\n        /* \"MultiSigWalletWithDailyLimit_flat.sol\":2284:2352  ownerCount <= MAX_OWNER_COUNT... */\n      dup1\n      iszero\n      tag_145\n      jumpi\n      pop\n        /* \"MultiSigWalletWithDailyLimit_flat.sol\":2342:2352  ownerCount */\n      dup2\n        /* \"MultiSigWalletWithDailyLimit_flat.sol\":2329:2338  _required */\n      dup2\n        /* \"MultiSigWalletWithDailyLimit_flat.sol\":2329:2352  _required <= ownerCount */\n      gt\n      iszero\n        /* \"MultiSigWalletWithDailyLimit_flat.sol\":2284:2352  ownerCount <= MAX_OWNER_COUNT... */\n    tag_145:\n        /* \"MultiSigWalletWithDailyLimit_flat.sol\":2284:2382  ownerCount <= MAX_OWNER_COUNT... */\n      dup1\n      iszero\n      tag_146\n      jumpi\n      pop\n        /* \"MultiSigWalletWithDailyLimit_flat.sol\":2368:2382  _required != 0 */\n      dup1\n      iszero\n      iszero\n        /* \"MultiSigWalletWithDailyLimit_flat.sol\":2284:2382  ownerCount <= MAX_OWNER_COUNT... */\n    tag_146:\n        /* \"MultiSigWalletWithDailyLimit_flat.sol\":2284:2413  ownerCount <= MAX_OWNER_COUNT... */\n      dup1\n      iszero\n      tag_147\n      jumpi\n      pop\n        /* \"MultiSigWalletWithDailyLimit_flat.sol\":2398:2413  ownerCount != 0 */\n      dup2\n      iszero\n      iszero\n        /* \"MultiSigWalletWithDailyLimit_flat.sol\":2284:2413  ownerCount <= MAX_OWNER_COUNT... */\n    tag_147:\n        /* \"MultiSigWalletWithDailyLimit_flat.sol\":2276:2414  require(ownerCount <= MAX_OWNER_COUNT... */\n      iszero\n      iszero\n      tag_148\n      jumpi\n      0x0\n      dup1\n      revert\n    tag_148:\n      sub(exp(0x2, 0xa0), 0x1)\n        /* \"MultiSigWalletWithDailyLimit_flat.sol\":3517:3531  isOwner[owner] */\n      dup6\n      and\n      0x0\n      dup2\n      dup2\n      mstore\n        /* \"MultiSigWalletWithDailyLimit_flat.sol\":3517:3524  isOwner */\n      0x2\n        /* \"MultiSigWalletWithDailyLimit_flat.sol\":3517:3531  isOwner[owner] */\n      0x20\n      mstore\n      0x40\n      dup1\n      dup3\n      keccak256\n        /* \"MultiSigWalletWithDailyLimit_flat.sol\":3517:3538  isOwner[owner] = true */\n      dup1\n      sload\n      not(0xff)\n      and\n        /* \"MultiSigWalletWithDailyLimit_flat.sol\":3534:3538  true */\n      0x1\n        /* \"MultiSigWalletWithDailyLimit_flat.sol\":3517:3538  isOwner[owner] = true */\n      swap1\n      dup2\n      or\n      swap1\n      swap2\n      sstore\n        /* \"MultiSigWalletWithDailyLimit_flat.sol\":3548:3554  owners */\n      0x3\n        /* \"--CODEGEN--\":27:37   */\n      dup1\n      sload\n        /* \"--CODEGEN--\":23:41   */\n      swap2\n      dup3\n      add\n        /* \"--CODEGEN--\":45:68   */\n      dup2\n      sstore\n        /* \"MultiSigWalletWithDailyLimit_flat.sol\":3548:3566  owners.push(owner) */\n      dup4\n      mstore\n      0xc2575a0e9e593c00f959f8c92f12db2869c3395a3b0502d05e2516446f71f85b\n      add\n      dup1\n      sload\n      not(0xffffffffffffffffffffffffffffffffffffffff)\n      and\n      dup5\n      or\n      swap1\n      sstore\n        /* \"MultiSigWalletWithDailyLimit_flat.sol\":3576:3596  OwnerAddition(owner) */\n      mload\n      0xf39e6e1eb0edcf53c221607b54b00cd28f3196fed0a24994dc308b8f611b682d\n      swap2\n        /* \"MultiSigWalletWithDailyLimit_flat.sol\":3517:3531  isOwner[owner] */\n      swap1\n        /* \"MultiSigWalletWithDailyLimit_flat.sol\":3576:3596  OwnerAddition(owner) */\n      log2\n        /* \"MultiSigWalletWithDailyLimit_flat.sol\":2193:2194  _ */\n      pop\n      pop\n        /* \"MultiSigWalletWithDailyLimit_flat.sol\":1486:1487  _ */\n      pop\n        /* \"MultiSigWalletWithDailyLimit_flat.sol\":1386:1387  _ */\n      pop\n        /* \"MultiSigWalletWithDailyLimit_flat.sol\":3326:3603  function addOwner(address owner)... */\n      pop\n      jump\t// out\n        /* \"MultiSigWalletWithDailyLimit_flat.sol\":8714:9051  function isConfirmed(uint transactionId)... */\n    tag_49:\n        /* \"MultiSigWalletWithDailyLimit_flat.sol\":8804:8808  bool */\n      0x0\n      dup1\n      dup1\n        /* \"MultiSigWalletWithDailyLimit_flat.sol\":8848:9045  for (uint i=0; i<owners.length; i++) {... */\n    tag_152:\n        /* \"MultiSigWalletWithDailyLimit_flat.sol\":8865:8871  owners */\n      0x3\n        /* \"MultiSigWalletWithDailyLimit_flat.sol\":8865:8878  owners.length */\n      sload\n        /* \"MultiSigWalletWithDailyLimit_flat.sol\":8863:8878  i<owners.length */\n      dup2\n      lt\n        /* \"MultiSigWalletWithDailyLimit_flat.sol\":8848:9045  for (uint i=0; i<owners.length; i++) {... */\n      iszero\n      tag_153\n      jumpi\n        /* \"MultiSigWalletWithDailyLimit_flat.sol\":8903:8931  confirmations[transactionId] */\n      0x0\n      dup5\n      dup2\n      mstore\n        /* \"MultiSigWalletWithDailyLimit_flat.sol\":8903:8916  confirmations */\n      0x1\n        /* \"MultiSigWalletWithDailyLimit_flat.sol\":8903:8931  confirmations[transactionId] */\n      0x20\n      mstore\n      0x40\n      dup2\n      keccak256\n        /* \"MultiSigWalletWithDailyLimit_flat.sol\":8932:8938  owners */\n      0x3\n        /* \"MultiSigWalletWithDailyLimit_flat.sol\":8932:8941  owners[i] */\n      dup1\n      sload\n        /* \"MultiSigWalletWithDailyLimit_flat.sol\":8903:8931  confirmations[transactionId] */\n      swap2\n      swap3\n      swap2\n        /* \"MultiSigWalletWithDailyLimit_flat.sol\":8939:8940  i */\n      dup5\n      swap1\n        /* \"MultiSigWalletWithDailyLimit_flat.sol\":8932:8941  owners[i] */\n      dup2\n      lt\n      tag_155\n      jumpi\n      invalid\n    tag_155:\n      0x0\n      swap2\n      dup3\n      mstore\n      0x20\n      dup1\n      dup4\n      keccak256\n      swap1\n      swap2\n      add\n      sload\n      sub(exp(0x2, 0xa0), 0x1)\n      and\n        /* \"MultiSigWalletWithDailyLimit_flat.sol\":8903:8942  confirmations[transactionId][owners[i]] */\n      dup4\n      mstore\n      dup3\n      add\n      swap3\n      swap1\n      swap3\n      mstore\n      0x40\n      add\n      swap1\n      keccak256\n      sload\n      0xff\n      and\n        /* \"MultiSigWalletWithDailyLimit_flat.sol\":8899:8970  if (confirmations[transactionId][owners[i]])... */\n      iszero\n      tag_157\n      jumpi\n        /* \"MultiSigWalletWithDailyLimit_flat.sol\":8969:8970  1 */\n      0x1\n        /* \"MultiSigWalletWithDailyLimit_flat.sol\":8960:8970  count += 1 */\n      dup3\n      add\n      swap2\n      pop\n        /* \"MultiSigWalletWithDailyLimit_flat.sol\":8899:8970  if (confirmations[transactionId][owners[i]])... */\n    tag_157:\n        /* \"MultiSigWalletWithDailyLimit_flat.sol\":8997:9005  required */\n      sload(0x4)\n        /* \"MultiSigWalletWithDailyLimit_flat.sol\":8988:8993  count */\n      dup3\n        /* \"MultiSigWalletWithDailyLimit_flat.sol\":8988:9005  count == required */\n      eq\n        /* \"MultiSigWalletWithDailyLimit_flat.sol\":8984:9034  if (count == required)... */\n      iszero\n      tag_158\n      jumpi\n        /* \"MultiSigWalletWithDailyLimit_flat.sol\":9030:9034  true */\n      0x1\n        /* \"MultiSigWalletWithDailyLimit_flat.sol\":9023:9034  return true */\n      swap3\n      pop\n      jump(tag_153)\n        /* \"MultiSigWalletWithDailyLimit_flat.sol\":8984:9034  if (count == required)... */\n    tag_158:\n        /* \"MultiSigWalletWithDailyLimit_flat.sol\":8880:8883  i++ */\n      0x1\n      add\n        /* \"MultiSigWalletWithDailyLimit_flat.sol\":8848:9045  for (uint i=0; i<owners.length; i++) {... */\n      jump(tag_152)\n    tag_153:\n        /* \"MultiSigWalletWithDailyLimit_flat.sol\":8714:9051  function isConfirmed(uint transactionId)... */\n      pop\n      pop\n      swap2\n      swap1\n      pop\n      jump\t// out\n        /* \"MultiSigWalletWithDailyLimit_flat.sol\":10032:10284  function getConfirmationCount(uint transactionId)... */\n    tag_52:\n        /* \"MultiSigWalletWithDailyLimit_flat.sol\":10131:10141  uint count */\n      0x0\n      dup1\n        /* \"MultiSigWalletWithDailyLimit_flat.sol\":10157:10277  for (uint i=0; i<owners.length; i++)... */\n    tag_160:\n        /* \"MultiSigWalletWithDailyLimit_flat.sol\":10174:10180  owners */\n      0x3\n        /* \"MultiSigWalletWithDailyLimit_flat.sol\":10174:10187  owners.length */\n      sload\n        /* \"MultiSigWalletWithDailyLimit_flat.sol\":10172:10187  i<owners.length */\n      dup2\n      lt\n        /* \"MultiSigWalletWithDailyLimit_flat.sol\":10157:10277  for (uint i=0; i<owners.length; i++)... */\n      iszero\n      tag_161\n      jumpi\n        /* \"MultiSigWalletWithDailyLimit_flat.sol\":10210:10238  confirmations[transactionId] */\n      0x0\n      dup4\n      dup2\n      mstore\n        /* \"MultiSigWalletWithDailyLimit_flat.sol\":10210:10223  confirmations */\n      0x1\n        /* \"MultiSigWalletWithDailyLimit_flat.sol\":10210:10238  confirmations[transactionId] */\n      0x20\n      mstore\n      0x40\n      dup2\n      keccak256\n        /* \"MultiSigWalletWithDailyLimit_flat.sol\":10239:10245  owners */\n      0x3\n        /* \"MultiSigWalletWithDailyLimit_flat.sol\":10239:10248  owners[i] */\n      dup1\n      sload\n        /* \"MultiSigWalletWithDailyLimit_flat.sol\":10210:10238  confirmations[transactionId] */\n      swap2\n      swap3\n      swap2\n        /* \"MultiSigWalletWithDailyLimit_flat.sol\":10246:10247  i */\n      dup5\n      swap1\n        /* \"MultiSigWalletWithDailyLimit_flat.sol\":10239:10248  owners[i] */\n      dup2\n      lt\n      tag_163\n      jumpi\n      invalid\n    tag_163:\n      0x0\n      swap2\n      dup3\n      mstore\n      0x20\n      dup1\n      dup4\n      keccak256\n      swap1\n      swap2\n      add\n      sload\n      sub(exp(0x2, 0xa0), 0x1)\n      and\n        /* \"MultiSigWalletWithDailyLimit_flat.sol\":10210:10249  confirmations[transactionId][owners[i]] */\n      dup4\n      mstore\n      dup3\n      add\n      swap3\n      swap1\n      swap3\n      mstore\n      0x40\n      add\n      swap1\n      keccak256\n      sload\n      0xff\n      and\n        /* \"MultiSigWalletWithDailyLimit_flat.sol\":10206:10277  if (confirmations[transactionId][owners[i]])... */\n      iszero\n      tag_165\n      jumpi\n        /* \"MultiSigWalletWithDailyLimit_flat.sol\":10276:10277  1 */\n      0x1\n        /* \"MultiSigWalletWithDailyLimit_flat.sol\":10267:10277  count += 1 */\n      dup3\n      add\n      swap2\n      pop\n        /* \"MultiSigWalletWithDailyLimit_flat.sol\":10206:10277  if (confirmations[transactionId][owners[i]])... */\n    tag_165:\n        /* \"MultiSigWalletWithDailyLimit_flat.sol\":10189:10192  i++ */\n      0x1\n      add\n        /* \"MultiSigWalletWithDailyLimit_flat.sol\":10157:10277  for (uint i=0; i<owners.length; i++)... */\n      jump(tag_160)\n    tag_161:\n        /* \"MultiSigWalletWithDailyLimit_flat.sol\":10032:10284  function getConfirmationCount(uint transactionId)... */\n      pop\n      swap2\n      swap1\n      pop\n      jump\t// out\n        /* \"MultiSigWalletWithDailyLimit_flat.sol\":890:939  mapping (uint => Transaction) public transactions */\n    tag_55:\n      0x0\n      0x20\n      dup2\n      dup2\n      mstore\n      swap2\n      dup2\n      mstore\n      0x40\n      swap1\n      dup2\n      swap1\n      keccak256\n      dup1\n      sload\n      0x1\n      dup1\n      dup4\n      add\n      sload\n      0x2\n      dup1\n      dup6\n      add\n      dup1\n      sload\n      dup8\n      mload\n      0x100\n      swap6\n      dup3\n      and\n      iszero\n      swap6\n      swap1\n      swap6\n      mul\n      not(0x0)\n      add\n      and\n      swap2\n      swap1\n      swap2\n      div\n      0x1f\n      dup2\n      add\n      dup9\n      swap1\n      div\n      dup9\n      mul\n      dup5\n      add\n      dup9\n      add\n      swap1\n      swap7\n      mstore\n      dup6\n      dup4\n      mstore\n      sub(exp(0x2, 0xa0), 0x1)\n      swap1\n      swap4\n      and\n      swap6\n      swap1\n      swap5\n      swap2\n      swap3\n      swap2\n      swap1\n      dup4\n      add\n      dup3\n      dup3\n      dup1\n      iszero\n      tag_166\n      jumpi\n      dup1\n      0x1f\n      lt\n      tag_167\n      jumpi\n      0x100\n      dup1\n      dup4\n      sload\n      div\n      mul\n      dup4\n      mstore\n      swap2\n      0x20\n      add\n      swap2\n      jump(tag_166)\n    tag_167:\n      dup3\n      add\n      swap2\n      swap1\n      0x0\n      mstore\n      keccak256(0x0, 0x20)\n      swap1\n    tag_168:\n      dup2\n      sload\n      dup2\n      mstore\n      swap1\n      0x1\n      add\n      swap1\n      0x20\n      add\n      dup1\n      dup4\n      gt\n      tag_168\n      jumpi\n      dup3\n      swap1\n      sub\n      0x1f\n      and\n      dup3\n      add\n      swap2\n    tag_166:\n      pop\n      pop\n      pop\n      0x3\n      swap1\n      swap4\n      add\n      sload\n      swap2\n      swap3\n      pop\n      pop\n      0xff\n      and\n      dup5\n      jump\t// out\n        /* \"MultiSigWalletWithDailyLimit_flat.sol\":10949:11064  function getOwners()... */\n    tag_62:\n        /* \"MultiSigWalletWithDailyLimit_flat.sol\":11019:11028  address[] */\n      0x60\n        /* \"MultiSigWalletWithDailyLimit_flat.sol\":11051:11057  owners */\n      0x3\n        /* \"MultiSigWalletWithDailyLimit_flat.sol\":11044:11057  return owners */\n      dup1\n      sload\n      dup1\n      0x20\n      mul\n      0x20\n      add\n      mload(0x40)\n      swap1\n      dup2\n      add\n      0x40\n      mstore\n      dup1\n      swap3\n      swap2\n      swap1\n      dup2\n      dup2\n      mstore\n      0x20\n      add\n      dup3\n      dup1\n      sload\n      dup1\n      iszero\n      tag_170\n      jumpi\n      0x20\n      mul\n      dup3\n      add\n      swap2\n      swap1\n      0x0\n      mstore\n      keccak256(0x0, 0x20)\n      swap1\n    tag_171:\n      dup2\n      sload\n      sub(exp(0x2, 0xa0), 0x1)\n      and\n      dup2\n      mstore\n      0x1\n      swap1\n      swap2\n      add\n      swap1\n      0x20\n      add\n      dup1\n      dup4\n      gt\n      tag_171\n      jumpi\n    tag_170:\n      pop\n      pop\n      pop\n      pop\n      pop\n      swap1\n      pop\n        /* \"MultiSigWalletWithDailyLimit_flat.sol\":10949:11064  function getOwners()... */\n    tag_169:\n      swap1\n      jump\t// out\n        /* \"MultiSigWalletWithDailyLimit_flat.sol\":12167:12843  function getTransactionIds(uint from, uint to, bool pending, bool executed)... */\n    tag_68:\n        /* \"MultiSigWalletWithDailyLimit_flat.sol\":12292:12314  uint[] _transactionIds */\n      0x60\n        /* \"MultiSigWalletWithDailyLimit_flat.sol\":12330:12362  uint[] memory transactionIdsTemp */\n      dup1\n        /* \"MultiSigWalletWithDailyLimit_flat.sol\":12403:12413  uint count */\n      0x0\n        /* \"MultiSigWalletWithDailyLimit_flat.sol\":12427:12433  uint i */\n      dup1\n        /* \"MultiSigWalletWithDailyLimit_flat.sol\":12376:12392  transactionCount */\n      sload(0x5)\n        /* \"MultiSigWalletWithDailyLimit_flat.sol\":12365:12393  new uint[](transactionCount) */\n      mload(0x40)\n      swap1\n      dup1\n      dup3\n      mstore\n      dup1\n      0x20\n      mul\n      0x20\n      add\n      dup3\n      add\n      0x40\n      mstore\n      dup1\n      iszero\n      tag_173\n      jumpi\n      dup2\n      0x20\n      add\n        /* \"--CODEGEN--\":29:31   */\n      0x20\n        /* \"--CODEGEN--\":21:27   */\n      dup3\n        /* \"--CODEGEN--\":17:32   */\n      mul\n        /* \"--CODEGEN--\":117:121   */\n      dup1\n        /* \"--CODEGEN--\":105:115   */\n      codesize\n        /* \"--CODEGEN--\":97:103   */\n      dup4\n        /* \"--CODEGEN--\":88:122   */\n      codecopy\n        /* \"--CODEGEN--\":136:153   */\n      add\n      swap1\n      pop\n        /* \"MultiSigWalletWithDailyLimit_flat.sol\":12365:12393  new uint[](transactionCount) */\n    tag_173:\n      pop\n        /* \"MultiSigWalletWithDailyLimit_flat.sol\":12330:12393  uint[] memory transactionIdsTemp = new uint[](transactionCount) */\n      swap3\n      pop\n        /* \"MultiSigWalletWithDailyLimit_flat.sol\":12416:12417  0 */\n      0x0\n        /* \"MultiSigWalletWithDailyLimit_flat.sol\":12403:12417  uint count = 0 */\n      swap2\n      pop\n        /* \"MultiSigWalletWithDailyLimit_flat.sol\":12450:12451  0 */\n      0x0\n        /* \"MultiSigWalletWithDailyLimit_flat.sol\":12448:12451  i=0 */\n      swap1\n      pop\n        /* \"MultiSigWalletWithDailyLimit_flat.sol\":12443:12693  for (i=0; i<transactionCount; i++)... */\n    tag_174:\n        /* \"MultiSigWalletWithDailyLimit_flat.sol\":12455:12471  transactionCount */\n      sload(0x5)\n        /* \"MultiSigWalletWithDailyLimit_flat.sol\":12453:12454  i */\n      dup2\n        /* \"MultiSigWalletWithDailyLimit_flat.sol\":12453:12471  i<transactionCount */\n      lt\n        /* \"MultiSigWalletWithDailyLimit_flat.sol\":12443:12693  for (i=0; i<transactionCount; i++)... */\n      iszero\n      tag_175\n      jumpi\n        /* \"MultiSigWalletWithDailyLimit_flat.sol\":12497:12504  pending */\n      dup6\n        /* \"MultiSigWalletWithDailyLimit_flat.sol\":12497:12533  pending && !transactions[i].executed */\n      dup1\n      iszero\n      tag_177\n      jumpi\n      pop\n        /* \"MultiSigWalletWithDailyLimit_flat.sol\":12509:12521  transactions */\n      0x0\n        /* \"MultiSigWalletWithDailyLimit_flat.sol\":12509:12524  transactions[i] */\n      dup2\n      dup2\n      mstore\n      0x20\n      dup2\n      swap1\n      mstore\n      0x40\n      swap1\n      keccak256\n        /* \"MultiSigWalletWithDailyLimit_flat.sol\":12509:12533  transactions[i].executed */\n      0x3\n      add\n      sload\n      0xff\n      and\n        /* \"MultiSigWalletWithDailyLimit_flat.sol\":12508:12533  !transactions[i].executed */\n      iszero\n        /* \"MultiSigWalletWithDailyLimit_flat.sol\":12497:12533  pending && !transactions[i].executed */\n    tag_177:\n        /* \"MultiSigWalletWithDailyLimit_flat.sol\":12497:12589  pending && !transactions[i].executed... */\n      dup1\n      tag_179\n      jumpi\n      pop\n        /* \"MultiSigWalletWithDailyLimit_flat.sol\":12553:12561  executed */\n      dup5\n        /* \"MultiSigWalletWithDailyLimit_flat.sol\":12553:12589  executed && transactions[i].executed */\n      dup1\n      iszero\n      tag_179\n      jumpi\n      pop\n        /* \"MultiSigWalletWithDailyLimit_flat.sol\":12565:12577  transactions */\n      0x0\n        /* \"MultiSigWalletWithDailyLimit_flat.sol\":12565:12580  transactions[i] */\n      dup2\n      dup2\n      mstore\n      0x20\n      dup2\n      swap1\n      mstore\n      0x40\n      swap1\n      keccak256\n        /* \"MultiSigWalletWithDailyLimit_flat.sol\":12565:12589  transactions[i].executed */\n      0x3\n      add\n      sload\n      0xff\n      and\n        /* \"MultiSigWalletWithDailyLimit_flat.sol\":12553:12589  executed && transactions[i].executed */\n    tag_179:\n        /* \"MultiSigWalletWithDailyLimit_flat.sol\":12490:12693  if (   pending && !transactions[i].executed... */\n      iszero\n      tag_180\n      jumpi\n        /* \"MultiSigWalletWithDailyLimit_flat.sol\":12649:12650  i */\n      dup1\n        /* \"MultiSigWalletWithDailyLimit_flat.sol\":12621:12639  transactionIdsTemp */\n      dup4\n        /* \"MultiSigWalletWithDailyLimit_flat.sol\":12640:12645  count */\n      dup4\n        /* \"MultiSigWalletWithDailyLimit_flat.sol\":12621:12646  transactionIdsTemp[count] */\n      dup2\n      mload\n      dup2\n      lt\n      iszero\n      iszero\n      tag_181\n      jumpi\n      invalid\n    tag_181:\n      0x20\n      swap1\n      dup2\n      mul\n      swap1\n      swap2\n      add\n      add\n        /* \"MultiSigWalletWithDailyLimit_flat.sol\":12621:12650  transactionIdsTemp[count] = i */\n      mstore\n        /* \"MultiSigWalletWithDailyLimit_flat.sol\":12677:12678  1 */\n      0x1\n        /* \"MultiSigWalletWithDailyLimit_flat.sol\":12668:12678  count += 1 */\n      swap2\n      swap1\n      swap2\n      add\n      swap1\n        /* \"MultiSigWalletWithDailyLimit_flat.sol\":12490:12693  if (   pending && !transactions[i].executed... */\n    tag_180:\n        /* \"MultiSigWalletWithDailyLimit_flat.sol\":12473:12476  i++ */\n      0x1\n      add\n        /* \"MultiSigWalletWithDailyLimit_flat.sol\":12443:12693  for (i=0; i<transactionCount; i++)... */\n      jump(tag_174)\n    tag_175:\n        /* \"MultiSigWalletWithDailyLimit_flat.sol\":12736:12740  from */\n      dup8\n        /* \"MultiSigWalletWithDailyLimit_flat.sol\":12731:12733  to */\n      dup8\n        /* \"MultiSigWalletWithDailyLimit_flat.sol\":12731:12740  to - from */\n      sub\n        /* \"MultiSigWalletWithDailyLimit_flat.sol\":12720:12741  new uint[](to - from) */\n      mload(0x40)\n      swap1\n      dup1\n      dup3\n      mstore\n      dup1\n      0x20\n      mul\n      0x20\n      add\n      dup3\n      add\n      0x40\n      mstore\n      dup1\n      iszero\n      tag_182\n      jumpi\n      dup2\n      0x20\n      add\n        /* \"--CODEGEN--\":29:31   */\n      0x20\n        /* \"--CODEGEN--\":21:27   */\n      dup3\n        /* \"--CODEGEN--\":17:32   */\n      mul\n        /* \"--CODEGEN--\":117:121   */\n      dup1\n        /* \"--CODEGEN--\":105:115   */\n      codesize\n        /* \"--CODEGEN--\":97:103   */\n      dup4\n        /* \"--CODEGEN--\":88:122   */\n      codecopy\n        /* \"--CODEGEN--\":136:153   */\n      add\n      swap1\n      pop\n        /* \"MultiSigWalletWithDailyLimit_flat.sol\":12720:12741  new uint[](to - from) */\n    tag_182:\n      pop\n        /* \"MultiSigWalletWithDailyLimit_flat.sol\":12702:12741  _transactionIds = new uint[](to - from) */\n      swap4\n      pop\n        /* \"MultiSigWalletWithDailyLimit_flat.sol\":12758:12762  from */\n      dup8\n        /* \"MultiSigWalletWithDailyLimit_flat.sol\":12756:12762  i=from */\n      swap1\n      pop\n        /* \"MultiSigWalletWithDailyLimit_flat.sol\":12751:12836  for (i=from; i<to; i++)... */\n    tag_183:\n        /* \"MultiSigWalletWithDailyLimit_flat.sol\":12766:12768  to */\n      dup7\n        /* \"MultiSigWalletWithDailyLimit_flat.sol\":12764:12765  i */\n      dup2\n        /* \"MultiSigWalletWithDailyLimit_flat.sol\":12764:12768  i<to */\n      lt\n        /* \"MultiSigWalletWithDailyLimit_flat.sol\":12751:12836  for (i=from; i<to; i++)... */\n      iszero\n      tag_184\n      jumpi\n        /* \"MultiSigWalletWithDailyLimit_flat.sol\":12815:12833  transactionIdsTemp */\n      dup3\n        /* \"MultiSigWalletWithDailyLimit_flat.sol\":12834:12835  i */\n      dup2\n        /* \"MultiSigWalletWithDailyLimit_flat.sol\":12815:12836  transactionIdsTemp[i] */\n      dup2\n      mload\n      dup2\n      lt\n      iszero\n      iszero\n      tag_186\n      jumpi\n      invalid\n    tag_186:\n      swap1\n      0x20\n      add\n      swap1\n      0x20\n      mul\n      add\n      mload\n        /* \"MultiSigWalletWithDailyLimit_flat.sol\":12787:12802  _transactionIds */\n      dup5\n        /* \"MultiSigWalletWithDailyLimit_flat.sol\":12807:12811  from */\n      dup10\n        /* \"MultiSigWalletWithDailyLimit_flat.sol\":12803:12804  i */\n      dup4\n        /* \"MultiSigWalletWithDailyLimit_flat.sol\":12803:12811  i - from */\n      sub\n        /* \"MultiSigWalletWithDailyLimit_flat.sol\":12787:12812  _transactionIds[i - from] */\n      dup2\n      mload\n      dup2\n      lt\n      iszero\n      iszero\n      tag_187\n      jumpi\n      invalid\n    tag_187:\n      0x20\n      swap1\n      dup2\n      mul\n      swap1\n      swap2\n      add\n      add\n        /* \"MultiSigWalletWithDailyLimit_flat.sol\":12787:12836  _transactionIds[i - from] = transactionIdsTemp[i] */\n      mstore\n        /* \"MultiSigWalletWithDailyLimit_flat.sol\":12770:12773  i++ */\n      0x1\n      add\n        /* \"MultiSigWalletWithDailyLimit_flat.sol\":12751:12836  for (i=from; i<to; i++)... */\n      jump(tag_183)\n    tag_184:\n        /* \"MultiSigWalletWithDailyLimit_flat.sol\":12167:12843  function getTransactionIds(uint from, uint to, bool pending, bool executed)... */\n      pop\n      pop\n      pop\n      swap5\n      swap4\n      pop\n      pop\n      pop\n      pop\n      jump\t// out\n        /* \"MultiSigWalletWithDailyLimit_flat.sol\":11243:11818  function getConfirmations(uint transactionId)... */\n    tag_74:\n        /* \"MultiSigWalletWithDailyLimit_flat.sol\":11338:11362  address[] _confirmations */\n      0x60\n        /* \"MultiSigWalletWithDailyLimit_flat.sol\":11378:11412  address[] memory confirmationsTemp */\n      dup1\n        /* \"MultiSigWalletWithDailyLimit_flat.sol\":11453:11463  uint count */\n      0x0\n        /* \"MultiSigWalletWithDailyLimit_flat.sol\":11477:11483  uint i */\n      dup1\n        /* \"MultiSigWalletWithDailyLimit_flat.sol\":11429:11435  owners */\n      0x3\n        /* \"MultiSigWalletWithDailyLimit_flat.sol\":11429:11442  owners.length */\n      dup1\n      sload\n      swap1\n      pop\n        /* \"MultiSigWalletWithDailyLimit_flat.sol\":11415:11443  new address[](owners.length) */\n      mload(0x40)\n      swap1\n      dup1\n      dup3\n      mstore\n      dup1\n      0x20\n      mul\n      0x20\n      add\n      dup3\n      add\n      0x40\n      mstore\n      dup1\n      iszero\n      tag_189\n      jumpi\n      dup2\n      0x20\n      add\n        /* \"--CODEGEN--\":29:31   */\n      0x20\n        /* \"--CODEGEN--\":21:27   */\n      dup3\n        /* \"--CODEGEN--\":17:32   */\n      mul\n        /* \"--CODEGEN--\":117:121   */\n      dup1\n        /* \"--CODEGEN--\":105:115   */\n      codesize\n        /* \"--CODEGEN--\":97:103   */\n      dup4\n        /* \"--CODEGEN--\":88:122   */\n      codecopy\n        /* \"--CODEGEN--\":136:153   */\n      add\n      swap1\n      pop\n        /* \"MultiSigWalletWithDailyLimit_flat.sol\":11415:11443  new address[](owners.length) */\n    tag_189:\n      pop\n        /* \"MultiSigWalletWithDailyLimit_flat.sol\":11378:11443  address[] memory confirmationsTemp = new address[](owners.length) */\n      swap3\n      pop\n        /* \"MultiSigWalletWithDailyLimit_flat.sol\":11466:11467  0 */\n      0x0\n        /* \"MultiSigWalletWithDailyLimit_flat.sol\":11453:11467  uint count = 0 */\n      swap2\n      pop\n        /* \"MultiSigWalletWithDailyLimit_flat.sol\":11500:11501  0 */\n      0x0\n        /* \"MultiSigWalletWithDailyLimit_flat.sol\":11498:11501  i=0 */\n      swap1\n      pop\n        /* \"MultiSigWalletWithDailyLimit_flat.sol\":11493:11679  for (i=0; i<owners.length; i++)... */\n    tag_190:\n        /* \"MultiSigWalletWithDailyLimit_flat.sol\":11505:11511  owners */\n      0x3\n        /* \"MultiSigWalletWithDailyLimit_flat.sol\":11505:11518  owners.length */\n      sload\n        /* \"MultiSigWalletWithDailyLimit_flat.sol\":11503:11518  i<owners.length */\n      dup2\n      lt\n        /* \"MultiSigWalletWithDailyLimit_flat.sol\":11493:11679  for (i=0; i<owners.length; i++)... */\n      iszero\n      tag_191\n      jumpi\n        /* \"MultiSigWalletWithDailyLimit_flat.sol\":11541:11569  confirmations[transactionId] */\n      0x0\n      dup6\n      dup2\n      mstore\n        /* \"MultiSigWalletWithDailyLimit_flat.sol\":11541:11554  confirmations */\n      0x1\n        /* \"MultiSigWalletWithDailyLimit_flat.sol\":11541:11569  confirmations[transactionId] */\n      0x20\n      mstore\n      0x40\n      dup2\n      keccak256\n        /* \"MultiSigWalletWithDailyLimit_flat.sol\":11570:11576  owners */\n      0x3\n        /* \"MultiSigWalletWithDailyLimit_flat.sol\":11570:11579  owners[i] */\n      dup1\n      sload\n        /* \"MultiSigWalletWithDailyLimit_flat.sol\":11541:11569  confirmations[transactionId] */\n      swap2\n      swap3\n      swap2\n        /* \"MultiSigWalletWithDailyLimit_flat.sol\":11577:11578  i */\n      dup5\n      swap1\n        /* \"MultiSigWalletWithDailyLimit_flat.sol\":11570:11579  owners[i] */\n      dup2\n      lt\n      tag_193\n      jumpi\n      invalid\n    tag_193:\n      0x0\n      swap2\n      dup3\n      mstore\n      0x20\n      dup1\n      dup4\n      keccak256\n      swap1\n      swap2\n      add\n      sload\n      sub(exp(0x2, 0xa0), 0x1)\n      and\n        /* \"MultiSigWalletWithDailyLimit_flat.sol\":11541:11580  confirmations[transactionId][owners[i]] */\n      dup4\n      mstore\n      dup3\n      add\n      swap3\n      swap1\n      swap3\n      mstore\n      0x40\n      add\n      swap1\n      keccak256\n      sload\n      0xff\n      and\n        /* \"MultiSigWalletWithDailyLimit_flat.sol\":11537:11679  if (confirmations[transactionId][owners[i]]) {... */\n      iszero\n      tag_195\n      jumpi\n        /* \"MultiSigWalletWithDailyLimit_flat.sol\":11627:11633  owners */\n      0x3\n        /* \"MultiSigWalletWithDailyLimit_flat.sol\":11627:11636  owners[i] */\n      dup1\n      sload\n        /* \"MultiSigWalletWithDailyLimit_flat.sol\":11634:11635  i */\n      dup3\n      swap1\n        /* \"MultiSigWalletWithDailyLimit_flat.sol\":11627:11636  owners[i] */\n      dup2\n      lt\n      tag_196\n      jumpi\n      invalid\n    tag_196:\n      0x0\n      swap2\n      dup3\n      mstore\n      0x20\n      swap1\n      swap2\n      keccak256\n      add\n      sload\n        /* \"MultiSigWalletWithDailyLimit_flat.sol\":11600:11624  confirmationsTemp[count] */\n      dup4\n      mload\n      sub(exp(0x2, 0xa0), 0x1)\n        /* \"MultiSigWalletWithDailyLimit_flat.sol\":11627:11636  owners[i] */\n      swap1\n      swap2\n      and\n      swap1\n        /* \"MultiSigWalletWithDailyLimit_flat.sol\":11600:11617  confirmationsTemp */\n      dup5\n      swap1\n        /* \"MultiSigWalletWithDailyLimit_flat.sol\":11618:11623  count */\n      dup5\n      swap1\n        /* \"MultiSigWalletWithDailyLimit_flat.sol\":11600:11624  confirmationsTemp[count] */\n      dup2\n      lt\n      tag_198\n      jumpi\n      invalid\n    tag_198:\n      sub(exp(0x2, 0xa0), 0x1)\n        /* \"MultiSigWalletWithDailyLimit_flat.sol\":11600:11636  confirmationsTemp[count] = owners[i] */\n      swap1\n      swap3\n      and\n        /* \"MultiSigWalletWithDailyLimit_flat.sol\":11600:11624  confirmationsTemp[count] */\n      0x20\n      swap3\n      dup4\n      mul\n      swap1\n      swap2\n      add\n      swap1\n      swap2\n      add\n        /* \"MultiSigWalletWithDailyLimit_flat.sol\":11600:11636  confirmationsTemp[count] = owners[i] */\n      mstore\n        /* \"MultiSigWalletWithDailyLimit_flat.sol\":11663:11664  1 */\n      0x1\n        /* \"MultiSigWalletWithDailyLimit_flat.sol\":11654:11664  count += 1 */\n      swap2\n      swap1\n      swap2\n      add\n      swap1\n        /* \"MultiSigWalletWithDailyLimit_flat.sol\":11537:11679  if (confirmations[transactionId][owners[i]]) {... */\n    tag_195:\n        /* \"MultiSigWalletWithDailyLimit_flat.sol\":11520:11523  i++ */\n      0x1\n      add\n        /* \"MultiSigWalletWithDailyLimit_flat.sol\":11493:11679  for (i=0; i<owners.length; i++)... */\n      jump(tag_190)\n    tag_191:\n        /* \"MultiSigWalletWithDailyLimit_flat.sol\":11719:11724  count */\n      dup2\n        /* \"MultiSigWalletWithDailyLimit_flat.sol\":11705:11725  new address[](count) */\n      mload(0x40)\n      swap1\n      dup1\n      dup3\n      mstore\n      dup1\n      0x20\n      mul\n      0x20\n      add\n      dup3\n      add\n      0x40\n      mstore\n      dup1\n      iszero\n      tag_199\n      jumpi\n      dup2\n      0x20\n      add\n        /* \"--CODEGEN--\":29:31   */\n      0x20\n        /* \"--CODEGEN--\":21:27   */\n      dup3\n        /* \"--CODEGEN--\":17:32   */\n      mul\n        /* \"--CODEGEN--\":117:121   */\n      dup1\n        /* \"--CODEGEN--\":105:115   */\n      codesize\n        /* \"--CODEGEN--\":97:103   */\n      dup4\n        /* \"--CODEGEN--\":88:122   */\n      codecopy\n        /* \"--CODEGEN--\":136:153   */\n      add\n      swap1\n      pop\n        /* \"MultiSigWalletWithDailyLimit_flat.sol\":11705:11725  new address[](count) */\n    tag_199:\n      pop\n        /* \"MultiSigWalletWithDailyLimit_flat.sol\":11688:11725  _confirmations = new address[](count) */\n      swap4\n      pop\n        /* \"MultiSigWalletWithDailyLimit_flat.sol\":11742:11743  0 */\n      0x0\n        /* \"MultiSigWalletWithDailyLimit_flat.sol\":11740:11743  i=0 */\n      swap1\n      pop\n        /* \"MultiSigWalletWithDailyLimit_flat.sol\":11735:11811  for (i=0; i<count; i++)... */\n    tag_200:\n        /* \"MultiSigWalletWithDailyLimit_flat.sol\":11747:11752  count */\n      dup2\n        /* \"MultiSigWalletWithDailyLimit_flat.sol\":11745:11746  i */\n      dup2\n        /* \"MultiSigWalletWithDailyLimit_flat.sol\":11745:11752  i<count */\n      lt\n        /* \"MultiSigWalletWithDailyLimit_flat.sol\":11735:11811  for (i=0; i<count; i++)... */\n      iszero\n      tag_201\n      jumpi\n        /* \"MultiSigWalletWithDailyLimit_flat.sol\":11791:11808  confirmationsTemp */\n      dup3\n        /* \"MultiSigWalletWithDailyLimit_flat.sol\":11809:11810  i */\n      dup2\n        /* \"MultiSigWalletWithDailyLimit_flat.sol\":11791:11811  confirmationsTemp[i] */\n      dup2\n      mload\n      dup2\n      lt\n      iszero\n      iszero\n      tag_203\n      jumpi\n      invalid\n    tag_203:\n      swap1\n      0x20\n      add\n      swap1\n      0x20\n      mul\n      add\n      mload\n        /* \"MultiSigWalletWithDailyLimit_flat.sol\":11771:11785  _confirmations */\n      dup5\n        /* \"MultiSigWalletWithDailyLimit_flat.sol\":11786:11787  i */\n      dup3\n        /* \"MultiSigWalletWithDailyLimit_flat.sol\":11771:11788  _confirmations[i] */\n      dup2\n      mload\n      dup2\n      lt\n      iszero\n      iszero\n      tag_204\n      jumpi\n      invalid\n    tag_204:\n      sub(exp(0x2, 0xa0), 0x1)\n        /* \"MultiSigWalletWithDailyLimit_flat.sol\":11771:11811  _confirmations[i] = confirmationsTemp[i] */\n      swap1\n      swap3\n      and\n        /* \"MultiSigWalletWithDailyLimit_flat.sol\":11771:11788  _confirmations[i] */\n      0x20\n      swap3\n      dup4\n      mul\n      swap1\n      swap2\n      add\n      swap1\n      swap2\n      add\n        /* \"MultiSigWalletWithDailyLimit_flat.sol\":11771:11811  _confirmations[i] = confirmationsTemp[i] */\n      mstore\n        /* \"MultiSigWalletWithDailyLimit_flat.sol\":11754:11757  i++ */\n      0x1\n      add\n        /* \"MultiSigWalletWithDailyLimit_flat.sol\":11735:11811  for (i=0; i<count; i++)... */\n      jump(tag_200)\n    tag_201:\n        /* \"MultiSigWalletWithDailyLimit_flat.sol\":11243:11818  function getConfirmations(uint transactionId)... */\n      pop\n      pop\n      pop\n      swap2\n      swap1\n      pop\n      jump\t// out\n        /* \"MultiSigWalletWithDailyLimit_flat.sol\":1116:1144  uint public transactionCount */\n    tag_80:\n      sload(0x5)\n      dup2\n      jump\t// out\n        /* \"MultiSigWalletWithDailyLimit_flat.sol\":5008:5215  function changeRequirement(uint _required)... */\n    tag_83:\n        /* \"MultiSigWalletWithDailyLimit_flat.sol\":1348:1358  msg.sender */\n      caller\n        /* \"MultiSigWalletWithDailyLimit_flat.sol\":1370:1374  this */\n      address\n        /* \"MultiSigWalletWithDailyLimit_flat.sol\":1348:1375  msg.sender == address(this) */\n      eq\n        /* \"MultiSigWalletWithDailyLimit_flat.sol\":1340:1376  require(msg.sender == address(this)) */\n      tag_206\n      jumpi\n      0x0\n      dup1\n      revert\n    tag_206:\n        /* \"MultiSigWalletWithDailyLimit_flat.sol\":5110:5116  owners */\n      0x3\n        /* \"MultiSigWalletWithDailyLimit_flat.sol\":5110:5123  owners.length */\n      sload\n        /* \"MultiSigWalletWithDailyLimit_flat.sol\":5125:5134  _required */\n      dup2\n        /* \"MultiSigWalletWithDailyLimit_flat.sol\":850:852  50 */\n      0x32\n        /* \"MultiSigWalletWithDailyLimit_flat.sol\":2284:2313  ownerCount <= MAX_OWNER_COUNT */\n      dup3\n      gt\n      dup1\n      iszero\n      swap1\n        /* \"MultiSigWalletWithDailyLimit_flat.sol\":2284:2352  ownerCount <= MAX_OWNER_COUNT... */\n      tag_208\n      jumpi\n      pop\n        /* \"MultiSigWalletWithDailyLimit_flat.sol\":2342:2352  ownerCount */\n      dup2\n        /* \"MultiSigWalletWithDailyLimit_flat.sol\":2329:2338  _required */\n      dup2\n        /* \"MultiSigWalletWithDailyLimit_flat.sol\":2329:2352  _required <= ownerCount */\n      gt\n      iszero\n        /* \"MultiSigWalletWithDailyLimit_flat.sol\":2284:2352  ownerCount <= MAX_OWNER_COUNT... */\n    tag_208:\n        /* \"MultiSigWalletWithDailyLimit_flat.sol\":2284:2382  ownerCount <= MAX_OWNER_COUNT... */\n      dup1\n      iszero\n      tag_209\n      jumpi\n      pop\n        /* \"MultiSigWalletWithDailyLimit_flat.sol\":2368:2382  _required != 0 */\n      dup1\n      iszero\n      iszero\n        /* \"MultiSigWalletWithDailyLimit_flat.sol\":2284:2382  ownerCount <= MAX_OWNER_COUNT... */\n    tag_209:\n        /* \"MultiSigWalletWithDailyLimit_flat.sol\":2284:2413  ownerCount <= MAX_OWNER_COUNT... */\n      dup1\n      iszero\n      tag_210\n      jumpi\n      pop\n        /* \"MultiSigWalletWithDailyLimit_flat.sol\":2398:2413  ownerCount != 0 */\n      dup2\n      iszero\n      iszero\n        /* \"MultiSigWalletWithDailyLimit_flat.sol\":2284:2413  ownerCount <= MAX_OWNER_COUNT... */\n    tag_210:\n        /* \"MultiSigWalletWithDailyLimit_flat.sol\":2276:2414  require(ownerCount <= MAX_OWNER_COUNT... */\n      iszero\n      iszero\n      tag_211\n      jumpi\n      0x0\n      dup1\n      revert\n    tag_211:\n        /* \"MultiSigWalletWithDailyLimit_flat.sol\":5150:5158  required */\n      0x4\n        /* \"MultiSigWalletWithDailyLimit_flat.sol\":5150:5170  required = _required */\n      dup4\n      swap1\n      sstore\n        /* \"MultiSigWalletWithDailyLimit_flat.sol\":5180:5208  RequirementChange(_required) */\n      0x40\n      dup1\n      mload\n      dup5\n      dup2\n      mstore\n      swap1\n      mload\n      0xa3f1ee9126a074d9326c682f561767f710e927faa811f7a99829d49dc421797a\n      swap2\n      dup2\n      swap1\n      sub\n      0x20\n      add\n      swap1\n      log1\n        /* \"MultiSigWalletWithDailyLimit_flat.sol\":1386:1387  _ */\n      pop\n      pop\n        /* \"MultiSigWalletWithDailyLimit_flat.sol\":5008:5215  function changeRequirement(uint _required)... */\n      pop\n      jump\t// out\n        /* \"MultiSigWalletWithDailyLimit_flat.sol\":5824:6168  function confirmTransaction(uint transactionId)... */\n    tag_86:\n        /* \"MultiSigWalletWithDailyLimit_flat.sol\":5907:5917  msg.sender */\n      caller\n        /* \"MultiSigWalletWithDailyLimit_flat.sol\":1554:1568  isOwner[owner] */\n      0x0\n      dup2\n      dup2\n      mstore\n        /* \"MultiSigWalletWithDailyLimit_flat.sol\":1554:1561  isOwner */\n      0x2\n        /* \"MultiSigWalletWithDailyLimit_flat.sol\":1554:1568  isOwner[owner] */\n      0x20\n      mstore\n      0x40\n      swap1\n      keccak256\n      sload\n      0xff\n      and\n        /* \"MultiSigWalletWithDailyLimit_flat.sol\":1546:1569  require(isOwner[owner]) */\n      iszero\n      iszero\n      tag_214\n      jumpi\n      0x0\n      dup1\n      revert\n    tag_214:\n        /* \"MultiSigWalletWithDailyLimit_flat.sol\":1658:1670  transactions */\n      0x0\n        /* \"MultiSigWalletWithDailyLimit_flat.sol\":1658:1685  transactions[transactionId] */\n      dup3\n      dup2\n      mstore\n      0x20\n      dup2\n      swap1\n      mstore\n      0x40\n      swap1\n      keccak256\n        /* \"MultiSigWalletWithDailyLimit_flat.sol\":1658:1697  transactions[transactionId].destination */\n      sload\n        /* \"MultiSigWalletWithDailyLimit_flat.sol\":5945:5958  transactionId */\n      dup3\n      swap1\n      sub(exp(0x2, 0xa0), 0x1)\n        /* \"MultiSigWalletWithDailyLimit_flat.sol\":1658:1697  transactions[transactionId].destination */\n      and\n        /* \"MultiSigWalletWithDailyLimit_flat.sol\":1658:1702  transactions[transactionId].destination != 0 */\n      iszero\n      iszero\n        /* \"MultiSigWalletWithDailyLimit_flat.sol\":1650:1703  require(transactions[transactionId].destination != 0) */\n      tag_216\n      jumpi\n      0x0\n      dup1\n      revert\n    tag_216:\n        /* \"MultiSigWalletWithDailyLimit_flat.sol\":1935:1963  confirmations[transactionId] */\n      0x0\n      dup4\n      dup2\n      mstore\n        /* \"MultiSigWalletWithDailyLimit_flat.sol\":1935:1948  confirmations */\n      0x1\n        /* \"MultiSigWalletWithDailyLimit_flat.sol\":1935:1963  confirmations[transactionId] */\n      0x20\n      swap1\n      dup2\n      mstore\n      0x40\n      dup1\n      dup4\n      keccak256\n        /* \"MultiSigWalletWithDailyLimit_flat.sol\":5996:6006  msg.sender */\n      caller\n        /* \"MultiSigWalletWithDailyLimit_flat.sol\":1935:1970  confirmations[transactionId][owner] */\n      dup1\n      dup6\n      mstore\n      swap3\n      mstore\n      swap1\n      swap2\n      keccak256\n      sload\n        /* \"MultiSigWalletWithDailyLimit_flat.sol\":5981:5994  transactionId */\n      dup5\n      swap2\n        /* \"MultiSigWalletWithDailyLimit_flat.sol\":5996:6006  msg.sender */\n      swap1\n        /* \"MultiSigWalletWithDailyLimit_flat.sol\":1935:1970  confirmations[transactionId][owner] */\n      0xff\n      and\n        /* \"MultiSigWalletWithDailyLimit_flat.sol\":1934:1970  !confirmations[transactionId][owner] */\n      iszero\n        /* \"MultiSigWalletWithDailyLimit_flat.sol\":1926:1971  require(!confirmations[transactionId][owner]) */\n      tag_218\n      jumpi\n      0x0\n      dup1\n      revert\n    tag_218:\n        /* \"MultiSigWalletWithDailyLimit_flat.sol\":6022:6050  confirmations[transactionId] */\n      0x0\n      dup6\n      dup2\n      mstore\n        /* \"MultiSigWalletWithDailyLimit_flat.sol\":6065:6069  true */\n      0x1\n        /* \"MultiSigWalletWithDailyLimit_flat.sol\":6022:6050  confirmations[transactionId] */\n      0x20\n      dup2\n      dup2\n      mstore\n      0x40\n      dup1\n      dup5\n      keccak256\n        /* \"MultiSigWalletWithDailyLimit_flat.sol\":6051:6061  msg.sender */\n      caller\n        /* \"MultiSigWalletWithDailyLimit_flat.sol\":6022:6062  confirmations[transactionId][msg.sender] */\n      dup1\n      dup7\n      mstore\n      swap3\n      mstore\n      dup1\n      dup5\n      keccak256\n        /* \"MultiSigWalletWithDailyLimit_flat.sol\":6022:6069  confirmations[transactionId][msg.sender] = true */\n      dup1\n      sload\n      not(0xff)\n      and\n      swap1\n      swap4\n      or\n      swap1\n      swap3\n      sstore\n        /* \"MultiSigWalletWithDailyLimit_flat.sol\":6079:6118  Confirmation(msg.sender, transactionId) */\n      swap1\n      mload\n        /* \"MultiSigWalletWithDailyLimit_flat.sol\":6036:6049  transactionId */\n      dup8\n      swap3\n        /* \"MultiSigWalletWithDailyLimit_flat.sol\":6079:6118  Confirmation(msg.sender, transactionId) */\n      0x4a504a94899432a9846e1aa406dceb1bcfd538bb839071d49d1e5e23f5be30ef\n      swap2\n      log3\n        /* \"MultiSigWalletWithDailyLimit_flat.sol\":6128:6161  executeTransaction(transactionId) */\n      tag_220\n        /* \"MultiSigWalletWithDailyLimit_flat.sol\":6147:6160  transactionId */\n      dup6\n        /* \"MultiSigWalletWithDailyLimit_flat.sol\":6128:6146  executeTransaction */\n      tag_101\n        /* \"MultiSigWalletWithDailyLimit_flat.sol\":6128:6161  executeTransaction(transactionId) */\n      jump\t// in\n    tag_220:\n        /* \"MultiSigWalletWithDailyLimit_flat.sol\":1713:1714  _ */\n      pop\n      pop\n        /* \"MultiSigWalletWithDailyLimit_flat.sol\":1579:1580  _ */\n      pop\n        /* \"MultiSigWalletWithDailyLimit_flat.sol\":5824:6168  function confirmTransaction(uint transactionId)... */\n      pop\n      pop\n      jump\t// out\n        /* \"MultiSigWalletWithDailyLimit_flat.sol\":5474:5718  function submitTransaction(address destination, uint value, bytes data)... */\n    tag_89:\n        /* \"MultiSigWalletWithDailyLimit_flat.sol\":5578:5596  uint transactionId */\n      0x0\n        /* \"MultiSigWalletWithDailyLimit_flat.sol\":5628:5668  addTransaction(destination, value, data) */\n      tag_222\n        /* \"MultiSigWalletWithDailyLimit_flat.sol\":5643:5654  destination */\n      dup5\n        /* \"MultiSigWalletWithDailyLimit_flat.sol\":5656:5661  value */\n      dup5\n        /* \"MultiSigWalletWithDailyLimit_flat.sol\":5663:5667  data */\n      dup5\n        /* \"MultiSigWalletWithDailyLimit_flat.sol\":5628:5642  addTransaction */\n      tag_223\n        /* \"MultiSigWalletWithDailyLimit_flat.sol\":5628:5668  addTransaction(destination, value, data) */\n      jump\t// in\n    tag_222:\n        /* \"MultiSigWalletWithDailyLimit_flat.sol\":5612:5668  transactionId = addTransaction(destination, value, data) */\n      swap1\n      pop\n        /* \"MultiSigWalletWithDailyLimit_flat.sol\":5678:5711  confirmTransaction(transactionId) */\n      tag_224\n        /* \"MultiSigWalletWithDailyLimit_flat.sol\":5697:5710  transactionId */\n      dup2\n        /* \"MultiSigWalletWithDailyLimit_flat.sol\":5678:5696  confirmTransaction */\n      tag_86\n        /* \"MultiSigWalletWithDailyLimit_flat.sol\":5678:5711  confirmTransaction(transactionId) */\n      jump\t// in\n    tag_224:\n        /* \"MultiSigWalletWithDailyLimit_flat.sol\":5474:5718  function submitTransaction(address destination, uint value, bytes data)... */\n      swap4\n      swap3\n      pop\n      pop\n      pop\n      jump\t// out\n        /* \"MultiSigWalletWithDailyLimit_flat.sol\":811:852  uint constant public MAX_OWNER_COUNT = 50 */\n    tag_92:\n        /* \"MultiSigWalletWithDailyLimit_flat.sol\":850:852  50 */\n      0x32\n        /* \"MultiSigWalletWithDailyLimit_flat.sol\":811:852  uint constant public MAX_OWNER_COUNT = 50 */\n      dup2\n      jump\t// out\n        /* \"MultiSigWalletWithDailyLimit_flat.sol\":1090:1110  uint public required */\n    tag_95:\n      sload(0x4)\n      dup2\n      jump\t// out\n        /* \"MultiSigWalletWithDailyLimit_flat.sol\":4388:4837  function replaceOwner(address owner, address newOwner)... */\n    tag_98:\n        /* \"MultiSigWalletWithDailyLimit_flat.sol\":4559:4565  uint i */\n      0x0\n        /* \"MultiSigWalletWithDailyLimit_flat.sol\":1348:1358  msg.sender */\n      caller\n        /* \"MultiSigWalletWithDailyLimit_flat.sol\":1370:1374  this */\n      address\n        /* \"MultiSigWalletWithDailyLimit_flat.sol\":1348:1375  msg.sender == address(this) */\n      eq\n        /* \"MultiSigWalletWithDailyLimit_flat.sol\":1340:1376  require(msg.sender == address(this)) */\n      tag_226\n      jumpi\n      0x0\n      dup1\n      revert\n    tag_226:\n      sub(exp(0x2, 0xa0), 0x1)\n        /* \"MultiSigWalletWithDailyLimit_flat.sol\":1554:1568  isOwner[owner] */\n      dup4\n      and\n      0x0\n      swap1\n      dup2\n      mstore\n        /* \"MultiSigWalletWithDailyLimit_flat.sol\":1554:1561  isOwner */\n      0x2\n        /* \"MultiSigWalletWithDailyLimit_flat.sol\":1554:1568  isOwner[owner] */\n      0x20\n      mstore\n      0x40\n      swap1\n      keccak256\n      sload\n        /* \"MultiSigWalletWithDailyLimit_flat.sol\":4497:4502  owner */\n      dup4\n      swap1\n        /* \"MultiSigWalletWithDailyLimit_flat.sol\":1554:1568  isOwner[owner] */\n      0xff\n      and\n        /* \"MultiSigWalletWithDailyLimit_flat.sol\":1546:1569  require(isOwner[owner]) */\n      iszero\n      iszero\n      tag_228\n      jumpi\n      0x0\n      dup1\n      revert\n    tag_228:\n      sub(exp(0x2, 0xa0), 0x1)\n        /* \"MultiSigWalletWithDailyLimit_flat.sol\":1461:1475  isOwner[owner] */\n      dup4\n      and\n      0x0\n      swap1\n      dup2\n      mstore\n        /* \"MultiSigWalletWithDailyLimit_flat.sol\":1461:1468  isOwner */\n      0x2\n        /* \"MultiSigWalletWithDailyLimit_flat.sol\":1461:1475  isOwner[owner] */\n      0x20\n      mstore\n      0x40\n      swap1\n      keccak256\n      sload\n        /* \"MultiSigWalletWithDailyLimit_flat.sol\":4530:4538  newOwner */\n      dup4\n      swap1\n        /* \"MultiSigWalletWithDailyLimit_flat.sol\":1461:1475  isOwner[owner] */\n      0xff\n      and\n        /* \"MultiSigWalletWithDailyLimit_flat.sol\":1460:1475  !isOwner[owner] */\n      iszero\n        /* \"MultiSigWalletWithDailyLimit_flat.sol\":1452:1476  require(!isOwner[owner]) */\n      tag_230\n      jumpi\n      0x0\n      dup1\n      revert\n    tag_230:\n        /* \"MultiSigWalletWithDailyLimit_flat.sol\":4566:4567  0 */\n      0x0\n        /* \"MultiSigWalletWithDailyLimit_flat.sol\":4559:4567  uint i=0 */\n      swap3\n      pop\n        /* \"MultiSigWalletWithDailyLimit_flat.sol\":4554:4703  for (uint i=0; i<owners.length; i++)... */\n    tag_232:\n        /* \"MultiSigWalletWithDailyLimit_flat.sol\":4571:4577  owners */\n      0x3\n        /* \"MultiSigWalletWithDailyLimit_flat.sol\":4571:4584  owners.length */\n      sload\n        /* \"MultiSigWalletWithDailyLimit_flat.sol\":4569:4584  i<owners.length */\n      dup4\n      lt\n        /* \"MultiSigWalletWithDailyLimit_flat.sol\":4554:4703  for (uint i=0; i<owners.length; i++)... */\n      iszero\n      tag_233\n      jumpi\n        /* \"MultiSigWalletWithDailyLimit_flat.sol\":4620:4625  owner */\n      dup5\n      sub(exp(0x2, 0xa0), 0x1)\n        /* \"MultiSigWalletWithDailyLimit_flat.sol\":4607:4625  owners[i] == owner */\n      and\n        /* \"MultiSigWalletWithDailyLimit_flat.sol\":4607:4613  owners */\n      0x3\n        /* \"MultiSigWalletWithDailyLimit_flat.sol\":4614:4615  i */\n      dup5\n        /* \"MultiSigWalletWithDailyLimit_flat.sol\":4607:4616  owners[i] */\n      dup2\n      sload\n      dup2\n      lt\n      iszero\n      iszero\n      tag_235\n      jumpi\n      invalid\n    tag_235:\n      0x0\n      swap2\n      dup3\n      mstore\n      0x20\n      swap1\n      swap2\n      keccak256\n      add\n      sload\n      sub(exp(0x2, 0xa0), 0x1)\n      and\n        /* \"MultiSigWalletWithDailyLimit_flat.sol\":4607:4625  owners[i] == owner */\n      eq\n        /* \"MultiSigWalletWithDailyLimit_flat.sol\":4603:4703  if (owners[i] == owner) {... */\n      iszero\n      tag_237\n      jumpi\n        /* \"MultiSigWalletWithDailyLimit_flat.sol\":4657:4665  newOwner */\n      dup4\n        /* \"MultiSigWalletWithDailyLimit_flat.sol\":4645:4651  owners */\n      0x3\n        /* \"MultiSigWalletWithDailyLimit_flat.sol\":4652:4653  i */\n      dup5\n        /* \"MultiSigWalletWithDailyLimit_flat.sol\":4645:4654  owners[i] */\n      dup2\n      sload\n      dup2\n      lt\n      iszero\n      iszero\n      tag_238\n      jumpi\n      invalid\n    tag_238:\n      swap1\n      0x0\n      mstore\n      keccak256(0x0, 0x20)\n      add\n      0x0\n        /* \"MultiSigWalletWithDailyLimit_flat.sol\":4645:4665  owners[i] = newOwner */\n      0x100\n      exp\n      dup2\n      sload\n      dup2\n      sub(exp(0x2, 0xa0), 0x1)\n      mul\n      not\n      and\n      swap1\n      dup4\n      sub(exp(0x2, 0xa0), 0x1)\n      and\n      mul\n      or\n      swap1\n      sstore\n      pop\n        /* \"MultiSigWalletWithDailyLimit_flat.sol\":4683:4688  break */\n      jump(tag_233)\n        /* \"MultiSigWalletWithDailyLimit_flat.sol\":4603:4703  if (owners[i] == owner) {... */\n    tag_237:\n        /* \"MultiSigWalletWithDailyLimit_flat.sol\":4586:4589  i++ */\n      0x1\n      swap1\n      swap3\n      add\n      swap2\n        /* \"MultiSigWalletWithDailyLimit_flat.sol\":4554:4703  for (uint i=0; i<owners.length; i++)... */\n      jump(tag_232)\n    tag_233:\n      sub(exp(0x2, 0xa0), 0x1)\n        /* \"MultiSigWalletWithDailyLimit_flat.sol\":4712:4726  isOwner[owner] */\n      dup1\n      dup7\n      and\n        /* \"MultiSigWalletWithDailyLimit_flat.sol\":4729:4734  false */\n      0x0\n        /* \"MultiSigWalletWithDailyLimit_flat.sol\":4712:4726  isOwner[owner] */\n      dup2\n      dup2\n      mstore\n        /* \"MultiSigWalletWithDailyLimit_flat.sol\":4712:4719  isOwner */\n      0x2\n        /* \"MultiSigWalletWithDailyLimit_flat.sol\":4712:4726  isOwner[owner] */\n      0x20\n      mstore\n      0x40\n      dup1\n      dup3\n      keccak256\n        /* \"MultiSigWalletWithDailyLimit_flat.sol\":4712:4734  isOwner[owner] = false */\n      dup1\n      sload\n      not(0xff)\n      swap1\n      dup2\n      and\n      swap1\n      swap2\n      sstore\n        /* \"MultiSigWalletWithDailyLimit_flat.sol\":4744:4761  isOwner[newOwner] */\n      swap4\n      dup9\n      and\n      dup3\n      mstore\n      dup1\n      dup3\n      keccak256\n        /* \"MultiSigWalletWithDailyLimit_flat.sol\":4744:4768  isOwner[newOwner] = true */\n      dup1\n      sload\n      swap1\n      swap5\n      and\n        /* \"MultiSigWalletWithDailyLimit_flat.sol\":4712:4734  isOwner[owner] = false */\n      0x1\n        /* \"MultiSigWalletWithDailyLimit_flat.sol\":4744:4768  isOwner[newOwner] = true */\n      or\n      swap1\n      swap4\n      sstore\n        /* \"MultiSigWalletWithDailyLimit_flat.sol\":4778:4797  OwnerRemoval(owner) */\n      swap2\n      mload\n        /* \"MultiSigWalletWithDailyLimit_flat.sol\":4712:4726  isOwner[owner] */\n      swap1\n      swap2\n        /* \"MultiSigWalletWithDailyLimit_flat.sol\":4778:4797  OwnerRemoval(owner) */\n      0x8001553a916ef2f495d26a907cc54d96ed840d7bda71e73194bf5a9df7a76b90\n      swap2\n      log2\n        /* \"MultiSigWalletWithDailyLimit_flat.sol\":4807:4830  OwnerAddition(newOwner) */\n      mload(0x40)\n      sub(exp(0x2, 0xa0), 0x1)\n      dup6\n      and\n      swap1\n      0xf39e6e1eb0edcf53c221607b54b00cd28f3196fed0a24994dc308b8f611b682d\n      swap1\n      0x0\n      swap1\n      log2\n        /* \"MultiSigWalletWithDailyLimit_flat.sol\":1579:1580  _ */\n      pop\n        /* \"MultiSigWalletWithDailyLimit_flat.sol\":1386:1387  _ */\n      pop\n        /* \"MultiSigWalletWithDailyLimit_flat.sol\":4388:4837  function replaceOwner(address owner, address newOwner)... */\n      pop\n      pop\n      pop\n      jump\t// out\n        /* \"MultiSigWalletWithDailyLimit_flat.sol\":6697:7283  function executeTransaction(uint transactionId)... */\n    tag_101:\n        /* \"MultiSigWalletWithDailyLimit_flat.sol\":6780:6790  msg.sender */\n      caller\n        /* \"MultiSigWalletWithDailyLimit_flat.sol\":6932:6955  Transaction storage txn */\n      0x0\n        /* \"MultiSigWalletWithDailyLimit_flat.sol\":1554:1568  isOwner[owner] */\n      dup2\n      dup2\n      mstore\n        /* \"MultiSigWalletWithDailyLimit_flat.sol\":1554:1561  isOwner */\n      0x2\n        /* \"MultiSigWalletWithDailyLimit_flat.sol\":1554:1568  isOwner[owner] */\n      0x20\n      mstore\n      0x40\n      dup2\n      keccak256\n      sload\n        /* \"MultiSigWalletWithDailyLimit_flat.sol\":6932:6955  Transaction storage txn */\n      swap1\n      swap2\n        /* \"MultiSigWalletWithDailyLimit_flat.sol\":6780:6790  msg.sender */\n      swap1\n        /* \"MultiSigWalletWithDailyLimit_flat.sol\":1554:1568  isOwner[owner] */\n      0xff\n      and\n        /* \"MultiSigWalletWithDailyLimit_flat.sol\":1546:1569  require(isOwner[owner]) */\n      iszero\n      iszero\n      tag_241\n      jumpi\n      0x0\n      dup1\n      revert\n    tag_241:\n        /* \"MultiSigWalletWithDailyLimit_flat.sol\":1799:1827  confirmations[transactionId] */\n      0x0\n      dup4\n      dup2\n      mstore\n        /* \"MultiSigWalletWithDailyLimit_flat.sol\":1799:1812  confirmations */\n      0x1\n        /* \"MultiSigWalletWithDailyLimit_flat.sol\":1799:1827  confirmations[transactionId] */\n      0x20\n      swap1\n      dup2\n      mstore\n      0x40\n      dup1\n      dup4\n      keccak256\n        /* \"MultiSigWalletWithDailyLimit_flat.sol\":6825:6835  msg.sender */\n      caller\n        /* \"MultiSigWalletWithDailyLimit_flat.sol\":1799:1834  confirmations[transactionId][owner] */\n      dup1\n      dup6\n      mstore\n      swap3\n      mstore\n      swap1\n      swap2\n      keccak256\n      sload\n        /* \"MultiSigWalletWithDailyLimit_flat.sol\":6810:6823  transactionId */\n      dup5\n      swap2\n        /* \"MultiSigWalletWithDailyLimit_flat.sol\":6825:6835  msg.sender */\n      swap1\n        /* \"MultiSigWalletWithDailyLimit_flat.sol\":1799:1834  confirmations[transactionId][owner] */\n      0xff\n      and\n        /* \"MultiSigWalletWithDailyLimit_flat.sol\":1791:1835  require(confirmations[transactionId][owner]) */\n      iszero\n      iszero\n      tag_243\n      jumpi\n      0x0\n      dup1\n      revert\n    tag_243:\n        /* \"MultiSigWalletWithDailyLimit_flat.sol\":2055:2067  transactions */\n      0x0\n        /* \"MultiSigWalletWithDailyLimit_flat.sol\":2055:2082  transactions[transactionId] */\n      dup6\n      dup2\n      mstore\n      0x20\n      dup2\n      swap1\n      mstore\n      0x40\n      swap1\n      keccak256\n        /* \"MultiSigWalletWithDailyLimit_flat.sol\":2055:2091  transactions[transactionId].executed */\n      0x3\n      add\n      sload\n        /* \"MultiSigWalletWithDailyLimit_flat.sol\":6857:6870  transactionId */\n      dup6\n      swap1\n        /* \"MultiSigWalletWithDailyLimit_flat.sol\":2055:2091  transactions[transactionId].executed */\n      0xff\n      and\n        /* \"MultiSigWalletWithDailyLimit_flat.sol\":2054:2091  !transactions[transactionId].executed */\n      iszero\n        /* \"MultiSigWalletWithDailyLimit_flat.sol\":2046:2092  require(!transactions[transactionId].executed) */\n      tag_245\n      jumpi\n      0x0\n      dup1\n      revert\n    tag_245:\n        /* \"MultiSigWalletWithDailyLimit_flat.sol\":6890:6916  isConfirmed(transactionId) */\n      tag_247\n        /* \"MultiSigWalletWithDailyLimit_flat.sol\":6902:6915  transactionId */\n      dup7\n        /* \"MultiSigWalletWithDailyLimit_flat.sol\":6890:6901  isConfirmed */\n      tag_49\n        /* \"MultiSigWalletWithDailyLimit_flat.sol\":6890:6916  isConfirmed(transactionId) */\n      jump\t// in\n    tag_247:\n        /* \"MultiSigWalletWithDailyLimit_flat.sol\":6886:7277  if (isConfirmed(transactionId)) {... */\n      iszero\n      tag_255\n      jumpi\n        /* \"MultiSigWalletWithDailyLimit_flat.sol\":6958:6970  transactions */\n      0x0\n        /* \"MultiSigWalletWithDailyLimit_flat.sol\":6958:6985  transactions[transactionId] */\n      dup7\n      dup2\n      mstore\n      0x20\n      dup2\n      dup2\n      mstore\n      0x40\n      swap2\n      dup3\n      swap1\n      keccak256\n        /* \"MultiSigWalletWithDailyLimit_flat.sol\":6999:7011  txn.executed */\n      0x3\n      dup2\n      add\n        /* \"MultiSigWalletWithDailyLimit_flat.sol\":6999:7018  txn.executed = true */\n      dup1\n      sload\n      not(0xff)\n      and\n        /* \"MultiSigWalletWithDailyLimit_flat.sol\":7014:7018  true */\n      0x1\n        /* \"MultiSigWalletWithDailyLimit_flat.sol\":6999:7018  txn.executed = true */\n      swap1\n      dup2\n      or\n      swap1\n      swap2\n      sstore\n        /* \"MultiSigWalletWithDailyLimit_flat.sol\":7050:7065  txn.destination */\n      dup2\n      sload\n        /* \"MultiSigWalletWithDailyLimit_flat.sol\":7067:7076  txn.value */\n      dup2\n      dup4\n      add\n      sload\n        /* \"MultiSigWalletWithDailyLimit_flat.sol\":7078:7086  txn.data */\n      0x2\n      dup1\n      dup6\n      add\n        /* \"MultiSigWalletWithDailyLimit_flat.sol\":7078:7093  txn.data.length */\n      dup1\n      sload\n        /* \"MultiSigWalletWithDailyLimit_flat.sol\":7036:7104  external_call(txn.destination, txn.value, txn.data.length, txn.data) */\n      dup9\n      mload\n      0x1f\n      not(0x0)\n        /* \"MultiSigWalletWithDailyLimit_flat.sol\":7078:7093  txn.data.length */\n      swap8\n      dup4\n      and\n      iszero\n        /* \"MultiSigWalletWithDailyLimit_flat.sol\":6999:7018  txn.executed = true */\n      0x100\n        /* \"MultiSigWalletWithDailyLimit_flat.sol\":7078:7093  txn.data.length */\n      mul\n      swap8\n      swap1\n      swap8\n      add\n      swap1\n      swap2\n      and\n      swap3\n      swap1\n      swap3\n      div\n        /* \"MultiSigWalletWithDailyLimit_flat.sol\":7036:7104  external_call(txn.destination, txn.value, txn.data.length, txn.data) */\n      swap5\n      dup6\n      add\n      dup8\n      swap1\n      div\n      dup8\n      mul\n      dup3\n      add\n      dup8\n      add\n      swap1\n      swap8\n      mstore\n      dup4\n      dup2\n      mstore\n        /* \"MultiSigWalletWithDailyLimit_flat.sol\":6958:6985  transactions[transactionId] */\n      swap4\n      swap11\n      pop\n        /* \"MultiSigWalletWithDailyLimit_flat.sol\":7036:7104  external_call(txn.destination, txn.value, txn.data.length, txn.data) */\n      tag_249\n      swap6\n      sub(exp(0x2, 0xa0), 0x1)\n        /* \"MultiSigWalletWithDailyLimit_flat.sol\":7050:7065  txn.destination */\n      swap1\n      swap3\n      and\n      swap5\n        /* \"MultiSigWalletWithDailyLimit_flat.sol\":7067:7076  txn.value */\n      swap1\n      swap4\n        /* \"MultiSigWalletWithDailyLimit_flat.sol\":7036:7104  external_call(txn.destination, txn.value, txn.data.length, txn.data) */\n      swap2\n        /* \"MultiSigWalletWithDailyLimit_flat.sol\":7078:7086  txn.data */\n      swap1\n        /* \"MultiSigWalletWithDailyLimit_flat.sol\":7078:7093  txn.data.length */\n      dup4\n      swap1\n        /* \"MultiSigWalletWithDailyLimit_flat.sol\":7036:7104  external_call(txn.destination, txn.value, txn.data.length, txn.data) */\n      dup4\n      add\n        /* \"MultiSigWalletWithDailyLimit_flat.sol\":7078:7086  txn.data */\n      dup3\n        /* \"MultiSigWalletWithDailyLimit_flat.sol\":7078:7093  txn.data.length */\n      dup3\n        /* \"MultiSigWalletWithDailyLimit_flat.sol\":7036:7104  external_call(txn.destination, txn.value, txn.data.length, txn.data) */\n      dup1\n      iszero\n      tag_250\n      jumpi\n      dup1\n      0x1f\n      lt\n      tag_251\n      jumpi\n      0x100\n      dup1\n      dup4\n      sload\n      div\n      mul\n      dup4\n      mstore\n      swap2\n      0x20\n      add\n      swap2\n      jump(tag_250)\n    tag_251:\n      dup3\n      add\n      swap2\n      swap1\n      0x0\n      mstore\n      keccak256(0x0, 0x20)\n      swap1\n    tag_252:\n      dup2\n      sload\n      dup2\n      mstore\n      swap1\n      0x1\n      add\n      swap1\n      0x20\n      add\n      dup1\n      dup4\n      gt\n      tag_252\n      jumpi\n      dup3\n      swap1\n      sub\n      0x1f\n      and\n      dup3\n      add\n      swap2\n    tag_250:\n      pop\n      pop\n      pop\n      pop\n      pop\n        /* \"MultiSigWalletWithDailyLimit_flat.sol\":7036:7049  external_call */\n      tag_253\n        /* \"MultiSigWalletWithDailyLimit_flat.sol\":7036:7104  external_call(txn.destination, txn.value, txn.data.length, txn.data) */\n      jump\t// in\n    tag_249:\n        /* \"MultiSigWalletWithDailyLimit_flat.sol\":7032:7267  if (external_call(txn.destination, txn.value, txn.data.length, txn.data))... */\n      iszero\n      tag_254\n      jumpi\n        /* \"MultiSigWalletWithDailyLimit_flat.sol\":7122:7146  Execution(transactionId) */\n      mload(0x40)\n        /* \"MultiSigWalletWithDailyLimit_flat.sol\":7132:7145  transactionId */\n      dup7\n      swap1\n        /* \"MultiSigWalletWithDailyLimit_flat.sol\":7122:7146  Execution(transactionId) */\n      0x33e13ecb54c3076d8e8bb8c2881800a4d972b792045ffae98fdf46df365fed75\n      swap1\n      0x0\n      swap1\n      log2\n        /* \"MultiSigWalletWithDailyLimit_flat.sol\":7032:7267  if (external_call(txn.destination, txn.value, txn.data.length, txn.data))... */\n      jump(tag_255)\n    tag_254:\n        /* \"MultiSigWalletWithDailyLimit_flat.sol\":7183:7214  ExecutionFailure(transactionId) */\n      mload(0x40)\n        /* \"MultiSigWalletWithDailyLimit_flat.sol\":7200:7213  transactionId */\n      dup7\n      swap1\n        /* \"MultiSigWalletWithDailyLimit_flat.sol\":7183:7214  ExecutionFailure(transactionId) */\n      0x526441bb6c1aba3c9a4a6ca1d6545da9c2333c8c48343ef398eb858d72b79236\n      swap1\n      0x0\n      swap1\n      log2\n        /* \"MultiSigWalletWithDailyLimit_flat.sol\":7232:7244  txn.executed */\n      0x3\n      dup6\n      add\n        /* \"MultiSigWalletWithDailyLimit_flat.sol\":7232:7252  txn.executed = false */\n      dup1\n      sload\n      not(0xff)\n      and\n      swap1\n      sstore\n        /* \"MultiSigWalletWithDailyLimit_flat.sol\":7032:7267  if (external_call(txn.destination, txn.value, txn.data.length, txn.data))... */\n    tag_255:\n        /* \"MultiSigWalletWithDailyLimit_flat.sol\":1845:1846  _ */\n      pop\n        /* \"MultiSigWalletWithDailyLimit_flat.sol\":1579:1580  _ */\n      pop\n      pop\n        /* \"MultiSigWalletWithDailyLimit_flat.sol\":6697:7283  function executeTransaction(uint transactionId)... */\n      pop\n      pop\n      pop\n      jump\t// out\n        /* \"MultiSigWalletWithDailyLimit_flat.sol\":9384:9835  function addTransaction(address destination, uint value, bytes data)... */\n    tag_223:\n        /* \"MultiSigWalletWithDailyLimit_flat.sol\":9516:9534  uint transactionId */\n      0x0\n        /* \"MultiSigWalletWithDailyLimit_flat.sol\":9486:9497  destination */\n      dup4\n      sub(exp(0x2, 0xa0), 0x1)\n        /* \"MultiSigWalletWithDailyLimit_flat.sol\":2169:2182  _address != 0 */\n      dup2\n      and\n      iszero\n      iszero\n        /* \"MultiSigWalletWithDailyLimit_flat.sol\":2161:2183  require(_address != 0) */\n      tag_257\n      jumpi\n      0x0\n      dup1\n      revert\n    tag_257:\n        /* \"MultiSigWalletWithDailyLimit_flat.sol\":9566:9582  transactionCount */\n      sload(0x5)\n        /* \"MultiSigWalletWithDailyLimit_flat.sol\":9622:9762  Transaction({... */\n      0x40\n      dup1\n      mload\n      0x80\n      dup2\n      add\n      dup3\n      mstore\n      sub(exp(0x2, 0xa0), 0x1)\n      dup9\n      dup2\n      and\n      dup3\n      mstore\n      0x20\n      dup1\n      dup4\n      add\n      dup10\n      dup2\n      mstore\n      dup4\n      dup6\n      add\n      dup10\n      dup2\n      mstore\n      0x0\n      0x60\n      dup7\n      add\n      dup2\n      swap1\n      mstore\n        /* \"MultiSigWalletWithDailyLimit_flat.sol\":9592:9619  transactions[transactionId] */\n      dup8\n      dup2\n      mstore\n      dup1\n      dup5\n      mstore\n      swap6\n      swap1\n      swap6\n      keccak256\n        /* \"MultiSigWalletWithDailyLimit_flat.sol\":9592:9762  transactions[transactionId] = Transaction({... */\n      dup5\n      mload\n      dup2\n      sload\n      not(0xffffffffffffffffffffffffffffffffffffffff)\n      and\n      swap5\n      and\n      swap4\n      swap1\n      swap4\n      or\n      dup4\n      sstore\n      mload\n      0x1\n      dup4\n      add\n      sstore\n      swap3\n      mload\n      dup1\n      mload\n        /* \"MultiSigWalletWithDailyLimit_flat.sol\":9566:9582  transactionCount */\n      swap5\n      swap7\n      pop\n        /* \"MultiSigWalletWithDailyLimit_flat.sol\":9622:9762  Transaction({... */\n      swap2\n      swap4\n        /* \"MultiSigWalletWithDailyLimit_flat.sol\":9592:9619  transactions[transactionId] */\n      swap1\n      swap3\n        /* \"MultiSigWalletWithDailyLimit_flat.sol\":9592:9762  transactions[transactionId] = Transaction({... */\n      tag_259\n      swap3\n      0x2\n      dup6\n      add\n      swap3\n      swap2\n      add\n      swap1\n      jump\t// in(tag_260)\n    tag_259:\n      pop\n      0x60\n      swap2\n      swap1\n      swap2\n      add\n      mload\n      0x3\n      swap1\n      swap2\n      add\n      dup1\n      sload\n      not(0xff)\n      and\n      swap2\n      iszero\n      iszero\n      swap2\n      swap1\n      swap2\n      or\n      swap1\n      sstore\n        /* \"MultiSigWalletWithDailyLimit_flat.sol\":9772:9788  transactionCount */\n      0x5\n        /* \"MultiSigWalletWithDailyLimit_flat.sol\":9772:9793  transactionCount += 1 */\n      dup1\n      sload\n      0x1\n      add\n      swap1\n      sstore\n        /* \"MultiSigWalletWithDailyLimit_flat.sol\":9803:9828  Submission(transactionId) */\n      mload(0x40)\n        /* \"MultiSigWalletWithDailyLimit_flat.sol\":9814:9827  transactionId */\n      dup3\n      swap1\n        /* \"MultiSigWalletWithDailyLimit_flat.sol\":9803:9828  Submission(transactionId) */\n      0xc0ba8fe4b176c1714197d43b9cc6bcf797a4a7461c5fe8d0ef6e184ae7601e51\n      swap1\n      0x0\n      swap1\n      log2\n        /* \"MultiSigWalletWithDailyLimit_flat.sol\":9384:9835  function addTransaction(address destination, uint value, bytes data)... */\n      pop\n      swap4\n      swap3\n      pop\n      pop\n      pop\n      jump\t// out\n        /* \"MultiSigWalletWithDailyLimit_flat.sol\":7460:8563  function external_call(address destination, uint value, uint dataLength, bytes data) internal returns (bool) {... */\n    tag_253:\n        /* \"MultiSigWalletWithDailyLimit_flat.sol\":7563:7567  bool */\n      0x0\n        /* \"MultiSigWalletWithDailyLimit_flat.sol\":7579:7590  bool result */\n      dup1\n        /* \"MultiSigWalletWithDailyLimit_flat.sol\":7638:7642  0x40 */\n      0x40\n        /* \"MultiSigWalletWithDailyLimit_flat.sol\":7632:7643  mload(0x40) */\n      mload\n        /* \"MultiSigWalletWithDailyLimit_flat.sol\":7771:7773  32 */\n      0x20\n        /* \"MultiSigWalletWithDailyLimit_flat.sol\":7765:7769  data */\n      dup5\n        /* \"MultiSigWalletWithDailyLimit_flat.sol\":7761:7774  add(data, 32) */\n      add\n        /* \"MultiSigWalletWithDailyLimit_flat.sol\":8436:8437  0 */\n      0x0\n        /* \"MultiSigWalletWithDailyLimit_flat.sol\":8417:8418  x */\n      dup3\n        /* \"MultiSigWalletWithDailyLimit_flat.sol\":8309:8319  dataLength */\n      dup8\n        /* \"MultiSigWalletWithDailyLimit_flat.sol\":8290:8291  d */\n      dup4\n        /* \"MultiSigWalletWithDailyLimit_flat.sol\":8267:8272  value */\n      dup11\n        /* \"MultiSigWalletWithDailyLimit_flat.sol\":8238:8249  destination */\n      dup13\n        /* \"MultiSigWalletWithDailyLimit_flat.sol\":7893:7898  34710 */\n      0x8796\n        /* \"MultiSigWalletWithDailyLimit_flat.sol\":7888:7891  gas */\n      gas\n        /* \"MultiSigWalletWithDailyLimit_flat.sol\":7884:7899  sub(gas, 34710) */\n      sub\n        /* \"MultiSigWalletWithDailyLimit_flat.sol\":7862:8524  call(... */\n      call\n        /* \"MultiSigWalletWithDailyLimit_flat.sol\":7852:8524  result := call(... */\n      swap9\n        /* \"MultiSigWalletWithDailyLimit_flat.sol\":7460:8563  function external_call(address destination, uint value, uint dataLength, bytes data) internal returns (bool) {... */\n      swap8\n      pop\n      pop\n      pop\n      pop\n      pop\n      pop\n      pop\n      pop\n      jump\t// out\n        /* \"MultiSigWalletWithDailyLimit_flat.sol\":217:12845  contract MultiSigWallet {... */\n    tag_120:\n      dup2\n      sload\n      dup2\n      dup4\n      sstore\n      dup2\n      dup2\n      gt\n      iszero\n      tag_263\n      jumpi\n      0x0\n      dup4\n      dup2\n      mstore\n      0x20\n      swap1\n      keccak256\n      tag_263\n      swap2\n      dup2\n      add\n      swap1\n      dup4\n      add\n      jump\t// in(tag_264)\n    tag_263:\n      pop\n      pop\n      pop\n      jump\t// out\n    tag_260:\n      dup3\n      dup1\n      sload\n      0x1\n      dup2\n      0x1\n      and\n      iszero\n      0x100\n      mul\n      sub\n      and\n      0x2\n      swap1\n      div\n      swap1\n      0x0\n      mstore\n      keccak256(0x0, 0x20)\n      swap1\n      0x1f\n      add\n      0x20\n      swap1\n      div\n      dup2\n      add\n      swap3\n      dup3\n      0x1f\n      lt\n      tag_266\n      jumpi\n      dup1\n      mload\n      not(0xff)\n      and\n      dup4\n      dup1\n      add\n      or\n      dup6\n      sstore\n      jump(tag_268)\n    tag_266:\n      dup3\n      dup1\n      add\n      0x1\n      add\n      dup6\n      sstore\n      dup3\n      iszero\n      tag_268\n      jumpi\n      swap2\n      dup3\n      add\n    tag_267:\n      dup3\n      dup2\n      gt\n      iszero\n      tag_268\n      jumpi\n      dup3\n      mload\n      dup3\n      sstore\n      swap2\n      0x20\n      add\n      swap2\n      swap1\n      0x1\n      add\n      swap1\n      jump(tag_267)\n    tag_268:\n      pop\n      tag_269\n      swap3\n      swap2\n      pop\n      jump\t// in(tag_264)\n    tag_269:\n      pop\n      swap1\n      jump\t// out\n    tag_264:\n      tag_169\n      swap2\n      swap1\n    tag_271:\n      dup1\n      dup3\n      gt\n      iszero\n      tag_269\n      jumpi\n      0x0\n      dup2\n      sstore\n      0x1\n      add\n      jump(tag_271)\n\n    auxdata: 0xa165627a7a72305820732c3445503adb3f3931ca510425305f459bba86f3cc3e30f915636909d1a2500029\n}\n",
				"bytecode": {
					"linkReferences": {},
					"object": "60806040523480156200001157600080fd5b50604051620016d5380380620016d583398101604052805160208201519101805190919060009082603282118015906200004b5750818111155b80156200005757508015155b80156200006357508115155b15156200006f57600080fd5b600092505b845183101562000147576002600086858151811015156200009157fe5b6020908102909101810151600160a060020a031682528101919091526040016000205460ff16158015620000e757508483815181101515620000cf57fe5b90602001906020020151600160a060020a0316600014155b1515620000f357600080fd5b60016002600087868151811015156200010857fe5b602090810291909101810151600160a060020a03168252810191909152604001600020805460ff19169115159190911790556001929092019162000074565b84516200015c9060039060208801906200016e565b50505060049190915550620002029050565b828054828255906000526020600020908101928215620001c6579160200282015b82811115620001c65782518254600160a060020a031916600160a060020a039091161782556020909201916001909101906200018f565b50620001d4929150620001d8565b5090565b620001ff91905b80821115620001d4578054600160a060020a0319168155600101620001df565b90565b6114c380620002126000396000f30060806040526004361061011c5763ffffffff7c0100000000000000000000000000000000000000000000000000000000600035041663025e7c27811461015e578063173825d91461019257806320ea8d86146101b35780632f54bf6e146101cb5780633411c81c1461020057806354741525146102245780637065cb4814610255578063784547a7146102765780638b51d13f1461028e5780639ace38c2146102a6578063a0e67e2b14610361578063a8abe69a146103c6578063b5dc40c3146103eb578063b77bf60014610403578063ba51a6df14610418578063c01a8c8414610430578063c642747414610448578063d74f8edd146104b1578063dc8452cd146104c6578063e20056e6146104db578063ee22610b14610502575b600034111561015c5760408051348152905133917fe1fffcc4923d04b559f4d29a8bfc6cda04eb5b0d3c460751c2402c5c5cc9109c919081900360200190a25b005b34801561016a57600080fd5b5061017660043561051a565b60408051600160a060020a039092168252519081900360200190f35b34801561019e57600080fd5b5061015c600160a060020a0360043516610542565b3480156101bf57600080fd5b5061015c6004356106b9565b3480156101d757600080fd5b506101ec600160a060020a0360043516610773565b604080519115158252519081900360200190f35b34801561020c57600080fd5b506101ec600435600160a060020a0360243516610788565b34801561023057600080fd5b50610243600435151560243515156107a8565b60408051918252519081900360200190f35b34801561026157600080fd5b5061015c600160a060020a0360043516610814565b34801561028257600080fd5b506101ec600435610939565b34801561029a57600080fd5b506102436004356109bd565b3480156102b257600080fd5b506102be600435610a2c565b6040518085600160a060020a0316600160a060020a031681526020018481526020018060200183151515158152602001828103825284818151815260200191508051906020019080838360005b8381101561032357818101518382015260200161030b565b50505050905090810190601f1680156103505780820380516001836020036101000a031916815260200191505b509550505050505060405180910390f35b34801561036d57600080fd5b50610376610aea565b60408051602080825283518183015283519192839290830191858101910280838360005b838110156103b257818101518382015260200161039a565b505050509050019250505060405180910390f35b3480156103d257600080fd5b5061037660043560243560443515156064351515610b4d565b3480156103f757600080fd5b50610376600435610c86565b34801561040f57600080fd5b50610243610dff565b34801561042457600080fd5b5061015c600435610e05565b34801561043c57600080fd5b5061015c600435610e84565b34801561045457600080fd5b50604080516020600460443581810135601f8101849004840285018401909552848452610243948235600160a060020a0316946024803595369594606494920191908190840183828082843750949750610f4f9650505050505050565b3480156104bd57600080fd5b50610243610f6e565b3480156104d257600080fd5b50610243610f73565b3480156104e757600080fd5b5061015c600160a060020a0360043581169060243516610f79565b34801561050e57600080fd5b5061015c600435611103565b600380548290811061052857fe5b600091825260209091200154600160a060020a0316905081565b600033301461055057600080fd5b600160a060020a038216600090815260026020526040902054829060ff16151561057957600080fd5b600160a060020a0383166000908152600260205260408120805460ff1916905591505b600354600019018210156106545782600160a060020a03166003838154811015156105c357fe5b600091825260209091200154600160a060020a03161415610649576003805460001981019081106105f057fe5b60009182526020909120015460038054600160a060020a03909216918490811061061657fe5b9060005260206000200160006101000a815481600160a060020a030219169083600160a060020a03160217905550610654565b60019091019061059c565b60038054600019019061066790826113d6565b5060035460045411156106805760035461068090610e05565b604051600160a060020a038416907f8001553a916ef2f495d26a907cc54d96ed840d7bda71e73194bf5a9df7a76b9090600090a2505050565b3360008181526002602052604090205460ff1615156106d757600080fd5b60008281526001602090815260408083203380855292529091205483919060ff16151561070357600080fd5b600084815260208190526040902060030154849060ff161561072457600080fd5b6000858152600160209081526040808320338085529252808320805460ff191690555187927ff6a317157440607f36269043eb55f1287a5a19ba2216afeab88cd46cbcfb88e991a35050505050565b60026020526000908152604090205460ff1681565b600160209081526000928352604080842090915290825290205460ff1681565b6000805b60055481101561080d578380156107d5575060008181526020819052604090206003015460ff16155b806107f957508280156107f9575060008181526020819052604090206003015460ff165b15610805576001820191505b6001016107ac565b5092915050565b33301461082057600080fd5b600160a060020a038116600090815260026020526040902054819060ff161561084857600080fd5b81600160a060020a038116151561085e57600080fd5b6003805490506001016004546032821115801561087b5750818111155b801561088657508015155b801561089157508115155b151561089c57600080fd5b600160a060020a038516600081815260026020526040808220805460ff1916600190811790915560038054918201815583527fc2575a0e9e593c00f959f8c92f12db2869c3395a3b0502d05e2516446f71f85b01805473ffffffffffffffffffffffffffffffffffffffff191684179055517ff39e6e1eb0edcf53c221607b54b00cd28f3196fed0a24994dc308b8f611b682d9190a25050505050565b600080805b6003548110156109b6576000848152600160205260408120600380549192918490811061096757fe5b6000918252602080832090910154600160a060020a0316835282019290925260400190205460ff161561099b576001820191505b6004548214156109ae57600192506109b6565b60010161093e565b5050919050565b6000805b600354811015610a2657600083815260016020526040812060038054919291849081106109ea57fe5b6000918252602080832090910154600160a060020a0316835282019290925260400190205460ff1615610a1e576001820191505b6001016109c1565b50919050565b6000602081815291815260409081902080546001808301546002808501805487516101009582161595909502600019011691909104601f8101889004880284018801909652858352600160a060020a0390931695909491929190830182828015610ad75780601f10610aac57610100808354040283529160200191610ad7565b820191906000526020600020905b815481529060010190602001808311610aba57829003601f168201915b5050506003909301549192505060ff1684565b60606003805480602002602001604051908101604052809291908181526020018280548015610b4257602002820191906000526020600020905b8154600160a060020a03168152600190910190602001808311610b24575b505050505090505b90565b606080600080600554604051908082528060200260200182016040528015610b7f578160200160208202803883390190505b50925060009150600090505b600554811015610c0657858015610bb4575060008181526020819052604090206003015460ff16155b80610bd85750848015610bd8575060008181526020819052604090206003015460ff165b15610bfe57808383815181101515610bec57fe5b60209081029091010152600191909101905b600101610b8b565b878703604051908082528060200260200182016040528015610c32578160200160208202803883390190505b5093508790505b86811015610c7b578281815181101515610c4f57fe5b9060200190602002015184898303815181101515610c6957fe5b60209081029091010152600101610c39565b505050949350505050565b606080600080600380549050604051908082528060200260200182016040528015610cbb578160200160208202803883390190505b50925060009150600090505b600354811015610d785760008581526001602052604081206003805491929184908110610cf057fe5b6000918252602080832090910154600160a060020a0316835282019290925260400190205460ff1615610d70576003805482908110610d2b57fe5b6000918252602090912001548351600160a060020a0390911690849084908110610d5157fe5b600160a060020a03909216602092830290910190910152600191909101905b600101610cc7565b81604051908082528060200260200182016040528015610da2578160200160208202803883390190505b509350600090505b81811015610df7578281815181101515610dc057fe5b906020019060200201518482815181101515610dd857fe5b600160a060020a03909216602092830290910190910152600101610daa565b505050919050565b60055481565b333014610e1157600080fd5b6003548160328211801590610e265750818111155b8015610e3157508015155b8015610e3c57508115155b1515610e4757600080fd5b60048390556040805184815290517fa3f1ee9126a074d9326c682f561767f710e927faa811f7a99829d49dc421797a9181900360200190a1505050565b3360008181526002602052604090205460ff161515610ea257600080fd5b6000828152602081905260409020548290600160a060020a03161515610ec757600080fd5b60008381526001602090815260408083203380855292529091205484919060ff1615610ef257600080fd5b6000858152600160208181526040808420338086529252808420805460ff1916909317909255905187927f4a504a94899432a9846e1aa406dceb1bcfd538bb839071d49d1e5e23f5be30ef91a3610f4885611103565b5050505050565b6000610f5c8484846112c3565b9050610f6781610e84565b9392505050565b603281565b60045481565b6000333014610f8757600080fd5b600160a060020a038316600090815260026020526040902054839060ff161515610fb057600080fd5b600160a060020a038316600090815260026020526040902054839060ff1615610fd857600080fd5b600092505b6003548310156110695784600160a060020a031660038481548110151561100057fe5b600091825260209091200154600160a060020a0316141561105e578360038481548110151561102b57fe5b9060005260206000200160006101000a815481600160a060020a030219169083600160a060020a03160217905550611069565b600190920191610fdd565b600160a060020a03808616600081815260026020526040808220805460ff1990811690915593881682528082208054909416600117909355915190917f8001553a916ef2f495d26a907cc54d96ed840d7bda71e73194bf5a9df7a76b9091a2604051600160a060020a038516907ff39e6e1eb0edcf53c221607b54b00cd28f3196fed0a24994dc308b8f611b682d90600090a25050505050565b3360008181526002602052604081205490919060ff16151561112457600080fd5b60008381526001602090815260408083203380855292529091205484919060ff16151561115057600080fd5b600085815260208190526040902060030154859060ff161561117157600080fd5b61117a86610939565b156112bb576000868152602081815260409182902060038101805460ff19166001908117909155815481830154600280850180548851601f60001997831615610100029790970190911692909204948501879004870282018701909752838152939a5061124e95600160a060020a03909216949093919083908301828280156112445780601f1061121957610100808354040283529160200191611244565b820191906000526020600020905b81548152906001019060200180831161122757829003601f168201915b50505050506113b3565b156112835760405186907f33e13ecb54c3076d8e8bb8c2881800a4d972b792045ffae98fdf46df365fed7590600090a26112bb565b60405186907f526441bb6c1aba3c9a4a6ca1d6545da9c2333c8c48343ef398eb858d72b7923690600090a260038501805460ff191690555b505050505050565b600083600160a060020a03811615156112db57600080fd5b60055460408051608081018252600160a060020a0388811682526020808301898152838501898152600060608601819052878152808452959095208451815473ffffffffffffffffffffffffffffffffffffffff19169416939093178355516001830155925180519496509193909261135b9260028501929101906113ff565b50606091909101516003909101805460ff191691151591909117905560058054600101905560405182907fc0ba8fe4b176c1714197d43b9cc6bcf797a4a7461c5fe8d0ef6e184ae7601e5190600090a2509392505050565b6000806040516020840160008287838a8c6187965a03f198975050505050505050565b8154818355818111156113fa576000838152602090206113fa91810190830161147d565b505050565b828054600181600116156101000203166002900490600052602060002090601f016020900481019282601f1061144057805160ff191683800117855561146d565b8280016001018555821561146d579182015b8281111561146d578251825591602001919060010190611452565b5061147992915061147d565b5090565b610b4a91905b8082111561147957600081556001016114835600a165627a7a72305820732c3445503adb3f3931ca510425305f459bba86f3cc3e30f915636909d1a2500029",
					"opcodes": "PUSH1 0x80 PUSH1 0x40 MSTORE CALLVALUE DUP1 ISZERO PUSH3 0x11 JUMPI PUSH1 0x0 DUP1 REVERT JUMPDEST POP PUSH1 0x40 MLOAD PUSH3 0x16D5 CODESIZE SUB DUP1 PUSH3 0x16D5 DUP4 CODECOPY DUP2 ADD PUSH1 0x40 MSTORE DUP1 MLOAD PUSH1 0x20 DUP3 ADD MLOAD SWAP2 ADD DUP1 MLOAD SWAP1 SWAP2 SWAP1 PUSH1 0x0 SWAP1 DUP3 PUSH1 0x32 DUP3 GT DUP1 ISZERO SWAP1 PUSH3 0x4B JUMPI POP DUP2 DUP2 GT ISZERO JUMPDEST DUP1 ISZERO PUSH3 0x57 JUMPI POP DUP1 ISZERO ISZERO JUMPDEST DUP1 ISZERO PUSH3 0x63 JUMPI POP DUP2 ISZERO ISZERO JUMPDEST ISZERO ISZERO PUSH3 0x6F JUMPI PUSH1 0x0 DUP1 REVERT JUMPDEST PUSH1 0x0 SWAP3 POP JUMPDEST DUP5 MLOAD DUP4 LT ISZERO PUSH3 0x147 JUMPI PUSH1 0x2 PUSH1 0x0 DUP7 DUP6 DUP2 MLOAD DUP2 LT ISZERO ISZERO PUSH3 0x91 JUMPI INVALID JUMPDEST PUSH1 0x20 SWAP1 DUP2 MUL SWAP1 SWAP2 ADD DUP2 ADD MLOAD PUSH1 0x1 PUSH1 0xA0 PUSH1 0x2 EXP SUB AND DUP3 MSTORE DUP2 ADD SWAP2 SWAP1 SWAP2 MSTORE PUSH1 0x40 ADD PUSH1 0x0 KECCAK256 SLOAD PUSH1 0xFF AND ISZERO DUP1 ISZERO PUSH3 0xE7 JUMPI POP DUP5 DUP4 DUP2 MLOAD DUP2 LT ISZERO ISZERO PUSH3 0xCF JUMPI INVALID JUMPDEST SWAP1 PUSH1 0x20 ADD SWAP1 PUSH1 0x20 MUL ADD MLOAD PUSH1 0x1 PUSH1 0xA0 PUSH1 0x2 EXP SUB AND PUSH1 0x0 EQ ISZERO JUMPDEST ISZERO ISZERO PUSH3 0xF3 JUMPI PUSH1 0x0 DUP1 REVERT JUMPDEST PUSH1 0x1 PUSH1 0x2 PUSH1 0x0 DUP8 DUP7 DUP2 MLOAD DUP2 LT ISZERO ISZERO PUSH3 0x108 JUMPI INVALID JUMPDEST PUSH1 0x20 SWAP1 DUP2 MUL SWAP2 SWAP1 SWAP2 ADD DUP2 ADD MLOAD PUSH1 0x1 PUSH1 0xA0 PUSH1 0x2 EXP SUB AND DUP3 MSTORE DUP2 ADD SWAP2 SWAP1 SWAP2 MSTORE PUSH1 0x40 ADD PUSH1 0x0 KECCAK256 DUP1 SLOAD PUSH1 0xFF NOT AND SWAP2 ISZERO ISZERO SWAP2 SWAP1 SWAP2 OR SWAP1 SSTORE PUSH1 0x1 SWAP3 SWAP1 SWAP3 ADD SWAP2 PUSH3 0x74 JUMP JUMPDEST DUP5 MLOAD PUSH3 0x15C SWAP1 PUSH1 0x3 SWAP1 PUSH1 0x20 DUP9 ADD SWAP1 PUSH3 0x16E JUMP JUMPDEST POP POP POP PUSH1 0x4 SWAP2 SWAP1 SWAP2 SSTORE POP PUSH3 0x202 SWAP1 POP JUMP JUMPDEST DUP3 DUP1 SLOAD DUP3 DUP3 SSTORE SWAP1 PUSH1 0x0 MSTORE PUSH1 0x20 PUSH1 0x0 KECCAK256 SWAP1 DUP2 ADD SWAP3 DUP3 ISZERO PUSH3 0x1C6 JUMPI SWAP2 PUSH1 0x20 MUL DUP3 ADD JUMPDEST DUP3 DUP2 GT ISZERO PUSH3 0x1C6 JUMPI DUP3 MLOAD DUP3 SLOAD PUSH1 0x1 PUSH1 0xA0 PUSH1 0x2 EXP SUB NOT AND PUSH1 0x1 PUSH1 0xA0 PUSH1 0x2 EXP SUB SWAP1 SWAP2 AND OR DUP3 SSTORE PUSH1 0x20 SWAP1 SWAP3 ADD SWAP2 PUSH1 0x1 SWAP1 SWAP2 ADD SWAP1 PUSH3 0x18F JUMP JUMPDEST POP PUSH3 0x1D4 SWAP3 SWAP2 POP PUSH3 0x1D8 JUMP JUMPDEST POP SWAP1 JUMP JUMPDEST PUSH3 0x1FF SWAP2 SWAP1 JUMPDEST DUP1 DUP3 GT ISZERO PUSH3 0x1D4 JUMPI DUP1 SLOAD PUSH1 0x1 PUSH1 0xA0 PUSH1 0x2 EXP SUB NOT AND DUP2 SSTORE PUSH1 0x1 ADD PUSH3 0x1DF JUMP JUMPDEST SWAP1 JUMP JUMPDEST PUSH2 0x14C3 DUP1 PUSH3 0x212 PUSH1 0x0 CODECOPY PUSH1 0x0 RETURN STOP PUSH1 0x80 PUSH1 0x40 MSTORE PUSH1 0x4 CALLDATASIZE LT PUSH2 0x11C JUMPI PUSH4 0xFFFFFFFF PUSH29 0x100000000000000000000000000000000000000000000000000000000 PUSH1 0x0 CALLDATALOAD DIV AND PUSH4 0x25E7C27 DUP2 EQ PUSH2 0x15E JUMPI DUP1 PUSH4 0x173825D9 EQ PUSH2 0x192 JUMPI DUP1 PUSH4 0x20EA8D86 EQ PUSH2 0x1B3 JUMPI DUP1 PUSH4 0x2F54BF6E EQ PUSH2 0x1CB JUMPI DUP1 PUSH4 0x3411C81C EQ PUSH2 0x200 JUMPI DUP1 PUSH4 0x54741525 EQ PUSH2 0x224 JUMPI DUP1 PUSH4 0x7065CB48 EQ PUSH2 0x255 JUMPI DUP1 PUSH4 0x784547A7 EQ PUSH2 0x276 JUMPI DUP1 PUSH4 0x8B51D13F EQ PUSH2 0x28E JUMPI DUP1 PUSH4 0x9ACE38C2 EQ PUSH2 0x2A6 JUMPI DUP1 PUSH4 0xA0E67E2B EQ PUSH2 0x361 JUMPI DUP1 PUSH4 0xA8ABE69A EQ PUSH2 0x3C6 JUMPI DUP1 PUSH4 0xB5DC40C3 EQ PUSH2 0x3EB JUMPI DUP1 PUSH4 0xB77BF600 EQ PUSH2 0x403 JUMPI DUP1 PUSH4 0xBA51A6DF EQ PUSH2 0x418 JUMPI DUP1 PUSH4 0xC01A8C84 EQ PUSH2 0x430 JUMPI DUP1 PUSH4 0xC6427474 EQ PUSH2 0x448 JUMPI DUP1 PUSH4 0xD74F8EDD EQ PUSH2 0x4B1 JUMPI DUP1 PUSH4 0xDC8452CD EQ PUSH2 0x4C6 JUMPI DUP1 PUSH4 0xE20056E6 EQ PUSH2 0x4DB JUMPI DUP1 PUSH4 0xEE22610B EQ PUSH2 0x502 JUMPI JUMPDEST PUSH1 0x0 CALLVALUE GT ISZERO PUSH2 0x15C JUMPI PUSH1 0x40 DUP1 MLOAD CALLVALUE DUP2 MSTORE SWAP1 MLOAD CALLER SWAP2 PUSH32 0xE1FFFCC4923D04B559F4D29A8BFC6CDA04EB5B0D3C460751C2402C5C5CC9109C SWAP2 SWAP1 DUP2 SWAP1 SUB PUSH1 0x20 ADD SWAP1 LOG2 JUMPDEST STOP JUMPDEST CALLVALUE DUP1 ISZERO PUSH2 0x16A JUMPI PUSH1 0x0 DUP1 REVERT JUMPDEST POP PUSH2 0x176 PUSH1 0x4 CALLDATALOAD PUSH2 0x51A JUMP JUMPDEST PUSH1 0x40 DUP1 MLOAD PUSH1 0x1 PUSH1 0xA0 PUSH1 0x2 EXP SUB SWAP1 SWAP3 AND DUP3 MSTORE MLOAD SWAP1 DUP2 SWAP1 SUB PUSH1 0x20 ADD SWAP1 RETURN JUMPDEST CALLVALUE DUP1 ISZERO PUSH2 0x19E JUMPI PUSH1 0x0 DUP1 REVERT JUMPDEST POP PUSH2 0x15C PUSH1 0x1 PUSH1 0xA0 PUSH1 0x2 EXP SUB PUSH1 0x4 CALLDATALOAD AND PUSH2 0x542 JUMP JUMPDEST CALLVALUE DUP1 ISZERO PUSH2 0x1BF JUMPI PUSH1 0x0 DUP1 REVERT JUMPDEST POP PUSH2 0x15C PUSH1 0x4 CALLDATALOAD PUSH2 0x6B9 JUMP JUMPDEST CALLVALUE DUP1 ISZERO PUSH2 0x1D7 JUMPI PUSH1 0x0 DUP1 REVERT JUMPDEST POP PUSH2 0x1EC PUSH1 0x1 PUSH1 0xA0 PUSH1 0x2 EXP SUB PUSH1 0x4 CALLDATALOAD AND PUSH2 0x773 JUMP JUMPDEST PUSH1 0x40 DUP1 MLOAD SWAP2 ISZERO ISZERO DUP3 MSTORE MLOAD SWAP1 DUP2 SWAP1 SUB PUSH1 0x20 ADD SWAP1 RETURN JUMPDEST CALLVALUE DUP1 ISZERO PUSH2 0x20C JUMPI PUSH1 0x0 DUP1 REVERT JUMPDEST POP PUSH2 0x1EC PUSH1 0x4 CALLDATALOAD PUSH1 0x1 PUSH1 0xA0 PUSH1 0x2 EXP SUB PUSH1 0x24 CALLDATALOAD AND PUSH2 0x788 JUMP JUMPDEST CALLVALUE DUP1 ISZERO PUSH2 0x230 JUMPI PUSH1 0x0 DUP1 REVERT JUMPDEST POP PUSH2 0x243 PUSH1 0x4 CALLDATALOAD ISZERO ISZERO PUSH1 0x24 CALLDATALOAD ISZERO ISZERO PUSH2 0x7A8 JUMP JUMPDEST PUSH1 0x40 DUP1 MLOAD SWAP2 DUP3 MSTORE MLOAD SWAP1 DUP2 SWAP1 SUB PUSH1 0x20 ADD SWAP1 RETURN JUMPDEST CALLVALUE DUP1 ISZERO PUSH2 0x261 JUMPI PUSH1 0x0 DUP1 REVERT JUMPDEST POP PUSH2 0x15C PUSH1 0x1 PUSH1 0xA0 PUSH1 0x2 EXP SUB PUSH1 0x4 CALLDATALOAD AND PUSH2 0x814 JUMP JUMPDEST CALLVALUE DUP1 ISZERO PUSH2 0x282 JUMPI PUSH1 0x0 DUP1 REVERT JUMPDEST POP PUSH2 0x1EC PUSH1 0x4 CALLDATALOAD PUSH2 0x939 JUMP JUMPDEST CALLVALUE DUP1 ISZERO PUSH2 0x29A JUMPI PUSH1 0x0 DUP1 REVERT JUMPDEST POP PUSH2 0x243 PUSH1 0x4 CALLDATALOAD PUSH2 0x9BD JUMP JUMPDEST CALLVALUE DUP1 ISZERO PUSH2 0x2B2 JUMPI PUSH1 0x0 DUP1 REVERT JUMPDEST POP PUSH2 0x2BE PUSH1 0x4 CALLDATALOAD PUSH2 0xA2C JUMP JUMPDEST PUSH1 0x40 MLOAD DUP1 DUP6 PUSH1 0x1 PUSH1 0xA0 PUSH1 0x2 EXP SUB AND PUSH1 0x1 PUSH1 0xA0 PUSH1 0x2 EXP SUB AND DUP2 MSTORE PUSH1 0x20 ADD DUP5 DUP2 MSTORE PUSH1 0x20 ADD DUP1 PUSH1 0x20 ADD DUP4 ISZERO ISZERO ISZERO ISZERO DUP2 MSTORE PUSH1 0x20 ADD DUP3 DUP2 SUB DUP3 MSTORE DUP5 DUP2 DUP2 MLOAD DUP2 MSTORE PUSH1 0x20 ADD SWAP2 POP DUP1 MLOAD SWAP1 PUSH1 0x20 ADD SWAP1 DUP1 DUP4 DUP4 PUSH1 0x0 JUMPDEST DUP4 DUP2 LT ISZERO PUSH2 0x323 JUMPI DUP2 DUP2 ADD MLOAD DUP4 DUP3 ADD MSTORE PUSH1 0x20 ADD PUSH2 0x30B JUMP JUMPDEST POP POP POP POP SWAP1 POP SWAP1 DUP2 ADD SWAP1 PUSH1 0x1F AND DUP1 ISZERO PUSH2 0x350 JUMPI DUP1 DUP3 SUB DUP1 MLOAD PUSH1 0x1 DUP4 PUSH1 0x20 SUB PUSH2 0x100 EXP SUB NOT AND DUP2 MSTORE PUSH1 0x20 ADD SWAP2 POP JUMPDEST POP SWAP6 POP POP POP POP POP POP PUSH1 0x40 MLOAD DUP1 SWAP2 SUB SWAP1 RETURN JUMPDEST CALLVALUE DUP1 ISZERO PUSH2 0x36D JUMPI PUSH1 0x0 DUP1 REVERT JUMPDEST POP PUSH2 0x376 PUSH2 0xAEA JUMP JUMPDEST PUSH1 0x40 DUP1 MLOAD PUSH1 0x20 DUP1 DUP3 MSTORE DUP4 MLOAD DUP2 DUP4 ADD MSTORE DUP4 MLOAD SWAP2 SWAP3 DUP4 SWAP3 SWAP1 DUP4 ADD SWAP2 DUP6 DUP2 ADD SWAP2 MUL DUP1 DUP4 DUP4 PUSH1 0x0 JUMPDEST DUP4 DUP2 LT ISZERO PUSH2 0x3B2 JUMPI DUP2 DUP2 ADD MLOAD DUP4 DUP3 ADD MSTORE PUSH1 0x20 ADD PUSH2 0x39A JUMP JUMPDEST POP POP POP POP SWAP1 POP ADD SWAP3 POP POP POP PUSH1 0x40 MLOAD DUP1 SWAP2 SUB SWAP1 RETURN JUMPDEST CALLVALUE DUP1 ISZERO PUSH2 0x3D2 JUMPI PUSH1 0x0 DUP1 REVERT JUMPDEST POP PUSH2 0x376 PUSH1 0x4 CALLDATALOAD PUSH1 0x24 CALLDATALOAD PUSH1 0x44 CALLDATALOAD ISZERO ISZERO PUSH1 0x64 CALLDATALOAD ISZERO ISZERO PUSH2 0xB4D JUMP JUMPDEST CALLVALUE DUP1 ISZERO PUSH2 0x3F7 JUMPI PUSH1 0x0 DUP1 REVERT JUMPDEST POP PUSH2 0x376 PUSH1 0x4 CALLDATALOAD PUSH2 0xC86 JUMP JUMPDEST CALLVALUE DUP1 ISZERO PUSH2 0x40F JUMPI PUSH1 0x0 DUP1 REVERT JUMPDEST POP PUSH2 0x243 PUSH2 0xDFF JUMP JUMPDEST CALLVALUE DUP1 ISZERO PUSH2 0x424 JUMPI PUSH1 0x0 DUP1 REVERT JUMPDEST POP PUSH2 0x15C PUSH1 0x4 CALLDATALOAD PUSH2 0xE05 JUMP JUMPDEST CALLVALUE DUP1 ISZERO PUSH2 0x43C JUMPI PUSH1 0x0 DUP1 REVERT JUMPDEST POP PUSH2 0x15C PUSH1 0x4 CALLDATALOAD PUSH2 0xE84 JUMP JUMPDEST CALLVALUE DUP1 ISZERO PUSH2 0x454 JUMPI PUSH1 0x0 DUP1 REVERT JUMPDEST POP PUSH1 0x40 DUP1 MLOAD PUSH1 0x20 PUSH1 0x4 PUSH1 0x44 CALLDATALOAD DUP2 DUP2 ADD CALLDATALOAD PUSH1 0x1F DUP2 ADD DUP5 SWAP1 DIV DUP5 MUL DUP6 ADD DUP5 ADD SWAP1 SWAP6 MSTORE DUP5 DUP5 MSTORE PUSH2 0x243 SWAP5 DUP3 CALLDATALOAD PUSH1 0x1 PUSH1 0xA0 PUSH1 0x2 EXP SUB AND SWAP5 PUSH1 0x24 DUP1 CALLDATALOAD SWAP6 CALLDATASIZE SWAP6 SWAP5 PUSH1 0x64 SWAP5 SWAP3 ADD SWAP2 SWAP1 DUP2 SWAP1 DUP5 ADD DUP4 DUP3 DUP1 DUP3 DUP5 CALLDATACOPY POP SWAP5 SWAP8 POP PUSH2 0xF4F SWAP7 POP POP POP POP POP POP POP JUMP JUMPDEST CALLVALUE DUP1 ISZERO PUSH2 0x4BD JUMPI PUSH1 0x0 DUP1 REVERT JUMPDEST POP PUSH2 0x243 PUSH2 0xF6E JUMP JUMPDEST CALLVALUE DUP1 ISZERO PUSH2 0x4D2 JUMPI PUSH1 0x0 DUP1 REVERT JUMPDEST POP PUSH2 0x243 PUSH2 0xF73 JUMP JUMPDEST CALLVALUE DUP1 ISZERO PUSH2 0x4E7 JUMPI PUSH1 0x0 DUP1 REVERT JUMPDEST POP PUSH2 0x15C PUSH1 0x1 PUSH1 0xA0 PUSH1 0x2 EXP SUB PUSH1 0x4 CALLDATALOAD DUP2 AND SWAP1 PUSH1 0x24 CALLDATALOAD AND PUSH2 0xF79 JUMP JUMPDEST CALLVALUE DUP1 ISZERO PUSH2 0x50E JUMPI PUSH1 0x0 DUP1 REVERT JUMPDEST POP PUSH2 0x15C PUSH1 0x4 CALLDATALOAD PUSH2 0x1103 JUMP JUMPDEST PUSH1 0x3 DUP1 SLOAD DUP3 SWAP1 DUP2 LT PUSH2 0x528 JUMPI INVALID JUMPDEST PUSH1 0x0 SWAP2 DUP3 MSTORE PUSH1 0x20 SWAP1 SWAP2 KECCAK256 ADD SLOAD PUSH1 0x1 PUSH1 0xA0 PUSH1 0x2 EXP SUB AND SWAP1 POP DUP2 JUMP JUMPDEST PUSH1 0x0 CALLER ADDRESS EQ PUSH2 0x550 JUMPI PUSH1 0x0 DUP1 REVERT JUMPDEST PUSH1 0x1 PUSH1 0xA0 PUSH1 0x2 EXP SUB DUP3 AND PUSH1 0x0 SWAP1 DUP2 MSTORE PUSH1 0x2 PUSH1 0x20 MSTORE PUSH1 0x40 SWAP1 KECCAK256 SLOAD DUP3 SWAP1 PUSH1 0xFF AND ISZERO ISZERO PUSH2 0x579 JUMPI PUSH1 0x0 DUP1 REVERT JUMPDEST PUSH1 0x1 PUSH1 0xA0 PUSH1 0x2 EXP SUB DUP4 AND PUSH1 0x0 SWAP1 DUP2 MSTORE PUSH1 0x2 PUSH1 0x20 MSTORE PUSH1 0x40 DUP2 KECCAK256 DUP1 SLOAD PUSH1 0xFF NOT AND SWAP1 SSTORE SWAP2 POP JUMPDEST PUSH1 0x3 SLOAD PUSH1 0x0 NOT ADD DUP3 LT ISZERO PUSH2 0x654 JUMPI DUP3 PUSH1 0x1 PUSH1 0xA0 PUSH1 0x2 EXP SUB AND PUSH1 0x3 DUP4 DUP2 SLOAD DUP2 LT ISZERO ISZERO PUSH2 0x5C3 JUMPI INVALID JUMPDEST PUSH1 0x0 SWAP2 DUP3 MSTORE PUSH1 0x20 SWAP1 SWAP2 KECCAK256 ADD SLOAD PUSH1 0x1 PUSH1 0xA0 PUSH1 0x2 EXP SUB AND EQ ISZERO PUSH2 0x649 JUMPI PUSH1 0x3 DUP1 SLOAD PUSH1 0x0 NOT DUP2 ADD SWAP1 DUP2 LT PUSH2 0x5F0 JUMPI INVALID JUMPDEST PUSH1 0x0 SWAP2 DUP3 MSTORE PUSH1 0x20 SWAP1 SWAP2 KECCAK256 ADD SLOAD PUSH1 0x3 DUP1 SLOAD PUSH1 0x1 PUSH1 0xA0 PUSH1 0x2 EXP SUB SWAP1 SWAP3 AND SWAP2 DUP5 SWAP1 DUP2 LT PUSH2 0x616 JUMPI INVALID JUMPDEST SWAP1 PUSH1 0x0 MSTORE PUSH1 0x20 PUSH1 0x0 KECCAK256 ADD PUSH1 0x0 PUSH2 0x100 EXP DUP2 SLOAD DUP2 PUSH1 0x1 PUSH1 0xA0 PUSH1 0x2 EXP SUB MUL NOT AND SWAP1 DUP4 PUSH1 0x1 PUSH1 0xA0 PUSH1 0x2 EXP SUB AND MUL OR SWAP1 SSTORE POP PUSH2 0x654 JUMP JUMPDEST PUSH1 0x1 SWAP1 SWAP2 ADD SWAP1 PUSH2 0x59C JUMP JUMPDEST PUSH1 0x3 DUP1 SLOAD PUSH1 0x0 NOT ADD SWAP1 PUSH2 0x667 SWAP1 DUP3 PUSH2 0x13D6 JUMP JUMPDEST POP PUSH1 0x3 SLOAD PUSH1 0x4 SLOAD GT ISZERO PUSH2 0x680 JUMPI PUSH1 0x3 SLOAD PUSH2 0x680 SWAP1 PUSH2 0xE05 JUMP JUMPDEST PUSH1 0x40 MLOAD PUSH1 0x1 PUSH1 0xA0 PUSH1 0x2 EXP SUB DUP5 AND SWAP1 PUSH32 0x8001553A916EF2F495D26A907CC54D96ED840D7BDA71E73194BF5A9DF7A76B90 SWAP1 PUSH1 0x0 SWAP1 LOG2 POP POP POP JUMP JUMPDEST CALLER PUSH1 0x0 DUP2 DUP2 MSTORE PUSH1 0x2 PUSH1 0x20 MSTORE PUSH1 0x40 SWAP1 KECCAK256 SLOAD PUSH1 0xFF AND ISZERO ISZERO PUSH2 0x6D7 JUMPI PUSH1 0x0 DUP1 REVERT JUMPDEST PUSH1 0x0 DUP3 DUP2 MSTORE PUSH1 0x1 PUSH1 0x20 SWAP1 DUP2 MSTORE PUSH1 0x40 DUP1 DUP4 KECCAK256 CALLER DUP1 DUP6 MSTORE SWAP3 MSTORE SWAP1 SWAP2 KECCAK256 SLOAD DUP4 SWAP2 SWAP1 PUSH1 0xFF AND ISZERO ISZERO PUSH2 0x703 JUMPI PUSH1 0x0 DUP1 REVERT JUMPDEST PUSH1 0x0 DUP5 DUP2 MSTORE PUSH1 0x20 DUP2 SWAP1 MSTORE PUSH1 0x40 SWAP1 KECCAK256 PUSH1 0x3 ADD SLOAD DUP5 SWAP1 PUSH1 0xFF AND ISZERO PUSH2 0x724 JUMPI PUSH1 0x0 DUP1 REVERT JUMPDEST PUSH1 0x0 DUP6 DUP2 MSTORE PUSH1 0x1 PUSH1 0x20 SWAP1 DUP2 MSTORE PUSH1 0x40 DUP1 DUP4 KECCAK256 CALLER DUP1 DUP6 MSTORE SWAP3 MSTORE DUP1 DUP4 KECCAK256 DUP1 SLOAD PUSH1 0xFF NOT AND SWAP1 SSTORE MLOAD DUP8 SWAP3 PUSH32 0xF6A317157440607F36269043EB55F1287A5A19BA2216AFEAB88CD46CBCFB88E9 SWAP2 LOG3 POP POP POP POP POP JUMP JUMPDEST PUSH1 0x2 PUSH1 0x20 MSTORE PUSH1 0x0 SWAP1 DUP2 MSTORE PUSH1 0x40 SWAP1 KECCAK256 SLOAD PUSH1 0xFF AND DUP2 JUMP JUMPDEST PUSH1 0x1 PUSH1 0x20 SWAP1 DUP2 MSTORE PUSH1 0x0 SWAP3 DUP4 MSTORE PUSH1 0x40 DUP1 DUP5 KECCAK256 SWAP1 SWAP2 MSTORE SWAP1 DUP3 MSTORE SWAP1 KECCAK256 SLOAD PUSH1 0xFF AND DUP2 JUMP JUMPDEST PUSH1 0x0 DUP1 JUMPDEST PUSH1 0x5 SLOAD DUP2 LT ISZERO PUSH2 0x80D JUMPI DUP4 DUP1 ISZERO PUSH2 0x7D5 JUMPI POP PUSH1 0x0 DUP2 DUP2 MSTORE PUSH1 0x20 DUP2 SWAP1 MSTORE PUSH1 0x40 SWAP1 KECCAK256 PUSH1 0x3 ADD SLOAD PUSH1 0xFF AND ISZERO JUMPDEST DUP1 PUSH2 0x7F9 JUMPI POP DUP3 DUP1 ISZERO PUSH2 0x7F9 JUMPI POP PUSH1 0x0 DUP2 DUP2 MSTORE PUSH1 0x20 DUP2 SWAP1 MSTORE PUSH1 0x40 SWAP1 KECCAK256 PUSH1 0x3 ADD SLOAD PUSH1 0xFF AND JUMPDEST ISZERO PUSH2 0x805 JUMPI PUSH1 0x1 DUP3 ADD SWAP2 POP JUMPDEST PUSH1 0x1 ADD PUSH2 0x7AC JUMP JUMPDEST POP SWAP3 SWAP2 POP POP JUMP JUMPDEST CALLER ADDRESS EQ PUSH2 0x820 JUMPI PUSH1 0x0 DUP1 REVERT JUMPDEST PUSH1 0x1 PUSH1 0xA0 PUSH1 0x2 EXP SUB DUP2 AND PUSH1 0x0 SWAP1 DUP2 MSTORE PUSH1 0x2 PUSH1 0x20 MSTORE PUSH1 0x40 SWAP1 KECCAK256 SLOAD DUP2 SWAP1 PUSH1 0xFF AND ISZERO PUSH2 0x848 JUMPI PUSH1 0x0 DUP1 REVERT JUMPDEST DUP2 PUSH1 0x1 PUSH1 0xA0 PUSH1 0x2 EXP SUB DUP2 AND ISZERO ISZERO PUSH2 0x85E JUMPI PUSH1 0x0 DUP1 REVERT JUMPDEST PUSH1 0x3 DUP1 SLOAD SWAP1 POP PUSH1 0x1 ADD PUSH1 0x4 SLOAD PUSH1 0x32 DUP3 GT ISZERO DUP1 ISZERO PUSH2 0x87B JUMPI POP DUP2 DUP2 GT ISZERO JUMPDEST DUP1 ISZERO PUSH2 0x886 JUMPI POP DUP1 ISZERO ISZERO JUMPDEST DUP1 ISZERO PUSH2 0x891 JUMPI POP DUP2 ISZERO ISZERO JUMPDEST ISZERO ISZERO PUSH2 0x89C JUMPI PUSH1 0x0 DUP1 REVERT JUMPDEST PUSH1 0x1 PUSH1 0xA0 PUSH1 0x2 EXP SUB DUP6 AND PUSH1 0x0 DUP2 DUP2 MSTORE PUSH1 0x2 PUSH1 0x20 MSTORE PUSH1 0x40 DUP1 DUP3 KECCAK256 DUP1 SLOAD PUSH1 0xFF NOT AND PUSH1 0x1 SWAP1 DUP2 OR SWAP1 SWAP2 SSTORE PUSH1 0x3 DUP1 SLOAD SWAP2 DUP3 ADD DUP2 SSTORE DUP4 MSTORE PUSH32 0xC2575A0E9E593C00F959F8C92F12DB2869C3395A3B0502D05E2516446F71F85B ADD DUP1 SLOAD PUSH20 0xFFFFFFFFFFFFFFFFFFFFFFFFFFFFFFFFFFFFFFFF NOT AND DUP5 OR SWAP1 SSTORE MLOAD PUSH32 0xF39E6E1EB0EDCF53C221607B54B00CD28F3196FED0A24994DC308B8F611B682D SWAP2 SWAP1 LOG2 POP POP POP POP POP JUMP JUMPDEST PUSH1 0x0 DUP1 DUP1 JUMPDEST PUSH1 0x3 SLOAD DUP2 LT ISZERO PUSH2 0x9B6 JUMPI PUSH1 0x0 DUP5 DUP2 MSTORE PUSH1 0x1 PUSH1 0x20 MSTORE PUSH1 0x40 DUP2 KECCAK256 PUSH1 0x3 DUP1 SLOAD SWAP2 SWAP3 SWAP2 DUP5 SWAP1 DUP2 LT PUSH2 0x967 JUMPI INVALID JUMPDEST PUSH1 0x0 SWAP2 DUP3 MSTORE PUSH1 0x20 DUP1 DUP4 KECCAK256 SWAP1 SWAP2 ADD SLOAD PUSH1 0x1 PUSH1 0xA0 PUSH1 0x2 EXP SUB AND DUP4 MSTORE DUP3 ADD SWAP3 SWAP1 SWAP3 MSTORE PUSH1 0x40 ADD SWAP1 KECCAK256 SLOAD PUSH1 0xFF AND ISZERO PUSH2 0x99B JUMPI PUSH1 0x1 DUP3 ADD SWAP2 POP JUMPDEST PUSH1 0x4 SLOAD DUP3 EQ ISZERO PUSH2 0x9AE JUMPI PUSH1 0x1 SWAP3 POP PUSH2 0x9B6 JUMP JUMPDEST PUSH1 0x1 ADD PUSH2 0x93E JUMP JUMPDEST POP POP SWAP2 SWAP1 POP JUMP JUMPDEST PUSH1 0x0 DUP1 JUMPDEST PUSH1 0x3 SLOAD DUP2 LT ISZERO PUSH2 0xA26 JUMPI PUSH1 0x0 DUP4 DUP2 MSTORE PUSH1 0x1 PUSH1 0x20 MSTORE PUSH1 0x40 DUP2 KECCAK256 PUSH1 0x3 DUP1 SLOAD SWAP2 SWAP3 SWAP2 DUP5 SWAP1 DUP2 LT PUSH2 0x9EA JUMPI INVALID JUMPDEST PUSH1 0x0 SWAP2 DUP3 MSTORE PUSH1 0x20 DUP1 DUP4 KECCAK256 SWAP1 SWAP2 ADD SLOAD PUSH1 0x1 PUSH1 0xA0 PUSH1 0x2 EXP SUB AND DUP4 MSTORE DUP3 ADD SWAP3 SWAP1 SWAP3 MSTORE PUSH1 0x40 ADD SWAP1 KECCAK256 SLOAD PUSH1 0xFF AND ISZERO PUSH2 0xA1E JUMPI PUSH1 0x1 DUP3 ADD SWAP2 POP JUMPDEST PUSH1 0x1 ADD PUSH2 0x9C1 JUMP JUMPDEST POP SWAP2 SWAP1 POP JUMP JUMPDEST PUSH1 0x0 PUSH1 0x20 DUP2 DUP2 MSTORE SWAP2 DUP2 MSTORE PUSH1 0x40 SWAP1 DUP2 SWAP1 KECCAK256 DUP1 SLOAD PUSH1 0x1 DUP1 DUP4 ADD SLOAD PUSH1 0x2 DUP1 DUP6 ADD DUP1 SLOAD DUP8 MLOAD PUSH2 0x100 SWAP6 DUP3 AND ISZERO SWAP6 SWAP1 SWAP6 MUL PUSH1 0x0 NOT ADD AND SWAP2 SWAP1 SWAP2 DIV PUSH1 0x1F DUP2 ADD DUP9 SWAP1 DIV DUP9 MUL DUP5 ADD DUP9 ADD SWAP1 SWAP7 MSTORE DUP6 DUP4 MSTORE PUSH1 0x1 PUSH1 0xA0 PUSH1 0x2 EXP SUB SWAP1 SWAP4 AND SWAP6 SWAP1 SWAP5 SWAP2 SWAP3 SWAP2 SWAP1 DUP4 ADD DUP3 DUP3 DUP1 ISZERO PUSH2 0xAD7 JUMPI DUP1 PUSH1 0x1F LT PUSH2 0xAAC JUMPI PUSH2 0x100 DUP1 DUP4 SLOAD DIV MUL DUP4 MSTORE SWAP2 PUSH1 0x20 ADD SWAP2 PUSH2 0xAD7 JUMP JUMPDEST DUP3 ADD SWAP2 SWAP1 PUSH1 0x0 MSTORE PUSH1 0x20 PUSH1 0x0 KECCAK256 SWAP1 JUMPDEST DUP2 SLOAD DUP2 MSTORE SWAP1 PUSH1 0x1 ADD SWAP1 PUSH1 0x20 ADD DUP1 DUP4 GT PUSH2 0xABA JUMPI DUP3 SWAP1 SUB PUSH1 0x1F AND DUP3 ADD SWAP2 JUMPDEST POP POP POP PUSH1 0x3 SWAP1 SWAP4 ADD SLOAD SWAP2 SWAP3 POP POP PUSH1 0xFF AND DUP5 JUMP JUMPDEST PUSH1 0x60 PUSH1 0x3 DUP1 SLOAD DUP1 PUSH1 0x20 MUL PUSH1 0x20 ADD PUSH1 0x40 MLOAD SWAP1 DUP2 ADD PUSH1 0x40 MSTORE DUP1 SWAP3 SWAP2 SWAP1 DUP2 DUP2 MSTORE PUSH1 0x20 ADD DUP3 DUP1 SLOAD DUP1 ISZERO PUSH2 0xB42 JUMPI PUSH1 0x20 MUL DUP3 ADD SWAP2 SWAP1 PUSH1 0x0 MSTORE PUSH1 0x20 PUSH1 0x0 KECCAK256 SWAP1 JUMPDEST DUP2 SLOAD PUSH1 0x1 PUSH1 0xA0 PUSH1 0x2 EXP SUB AND DUP2 MSTORE PUSH1 0x1 SWAP1 SWAP2 ADD SWAP1 PUSH1 0x20 ADD DUP1 DUP4 GT PUSH2 0xB24 JUMPI JUMPDEST POP POP POP POP POP SWAP1 POP JUMPDEST SWAP1 JUMP JUMPDEST PUSH1 0x60 DUP1 PUSH1 0x0 DUP1 PUSH1 0x5 SLOAD PUSH1 0x40 MLOAD SWAP1 DUP1 DUP3 MSTORE DUP1 PUSH1 0x20 MUL PUSH1 0x20 ADD DUP3 ADD PUSH1 0x40 MSTORE DUP1 ISZERO PUSH2 0xB7F JUMPI DUP2 PUSH1 0x20 ADD PUSH1 0x20 DUP3 MUL DUP1 CODESIZE DUP4 CODECOPY ADD SWAP1 POP JUMPDEST POP SWAP3 POP PUSH1 0x0 SWAP2 POP PUSH1 0x0 SWAP1 POP JUMPDEST PUSH1 0x5 SLOAD DUP2 LT ISZERO PUSH2 0xC06 JUMPI DUP6 DUP1 ISZERO PUSH2 0xBB4 JUMPI POP PUSH1 0x0 DUP2 DUP2 MSTORE PUSH1 0x20 DUP2 SWAP1 MSTORE PUSH1 0x40 SWAP1 KECCAK256 PUSH1 0x3 ADD SLOAD PUSH1 0xFF AND ISZERO JUMPDEST DUP1 PUSH2 0xBD8 JUMPI POP DUP5 DUP1 ISZERO PUSH2 0xBD8 JUMPI POP PUSH1 0x0 DUP2 DUP2 MSTORE PUSH1 0x20 DUP2 SWAP1 MSTORE PUSH1 0x40 SWAP1 KECCAK256 PUSH1 0x3 ADD SLOAD PUSH1 0xFF AND JUMPDEST ISZERO PUSH2 0xBFE JUMPI DUP1 DUP4 DUP4 DUP2 MLOAD DUP2 LT ISZERO ISZERO PUSH2 0xBEC JUMPI INVALID JUMPDEST PUSH1 0x20 SWAP1 DUP2 MUL SWAP1 SWAP2 ADD ADD MSTORE PUSH1 0x1 SWAP2 SWAP1 SWAP2 ADD SWAP1 JUMPDEST PUSH1 0x1 ADD PUSH2 0xB8B JUMP JUMPDEST DUP8 DUP8 SUB PUSH1 0x40 MLOAD SWAP1 DUP1 DUP3 MSTORE DUP1 PUSH1 0x20 MUL PUSH1 0x20 ADD DUP3 ADD PUSH1 0x40 MSTORE DUP1 ISZERO PUSH2 0xC32 JUMPI DUP2 PUSH1 0x20 ADD PUSH1 0x20 DUP3 MUL DUP1 CODESIZE DUP4 CODECOPY ADD SWAP1 POP JUMPDEST POP SWAP4 POP DUP8 SWAP1 POP JUMPDEST DUP7 DUP2 LT ISZERO PUSH2 0xC7B JUMPI DUP3 DUP2 DUP2 MLOAD DUP2 LT ISZERO ISZERO PUSH2 0xC4F JUMPI INVALID JUMPDEST SWAP1 PUSH1 0x20 ADD SWAP1 PUSH1 0x20 MUL ADD MLOAD DUP5 DUP10 DUP4 SUB DUP2 MLOAD DUP2 LT ISZERO ISZERO PUSH2 0xC69 JUMPI INVALID JUMPDEST PUSH1 0x20 SWAP1 DUP2 MUL SWAP1 SWAP2 ADD ADD MSTORE PUSH1 0x1 ADD PUSH2 0xC39 JUMP JUMPDEST POP POP POP SWAP5 SWAP4 POP POP POP POP JUMP JUMPDEST PUSH1 0x60 DUP1 PUSH1 0x0 DUP1 PUSH1 0x3 DUP1 SLOAD SWAP1 POP PUSH1 0x40 MLOAD SWAP1 DUP1 DUP3 MSTORE DUP1 PUSH1 0x20 MUL PUSH1 0x20 ADD DUP3 ADD PUSH1 0x40 MSTORE DUP1 ISZERO PUSH2 0xCBB JUMPI DUP2 PUSH1 0x20 ADD PUSH1 0x20 DUP3 MUL DUP1 CODESIZE DUP4 CODECOPY ADD SWAP1 POP JUMPDEST POP SWAP3 POP PUSH1 0x0 SWAP2 POP PUSH1 0x0 SWAP1 POP JUMPDEST PUSH1 0x3 SLOAD DUP2 LT ISZERO PUSH2 0xD78 JUMPI PUSH1 0x0 DUP6 DUP2 MSTORE PUSH1 0x1 PUSH1 0x20 MSTORE PUSH1 0x40 DUP2 KECCAK256 PUSH1 0x3 DUP1 SLOAD SWAP2 SWAP3 SWAP2 DUP5 SWAP1 DUP2 LT PUSH2 0xCF0 JUMPI INVALID JUMPDEST PUSH1 0x0 SWAP2 DUP3 MSTORE PUSH1 0x20 DUP1 DUP4 KECCAK256 SWAP1 SWAP2 ADD SLOAD PUSH1 0x1 PUSH1 0xA0 PUSH1 0x2 EXP SUB AND DUP4 MSTORE DUP3 ADD SWAP3 SWAP1 SWAP3 MSTORE PUSH1 0x40 ADD SWAP1 KECCAK256 SLOAD PUSH1 0xFF AND ISZERO PUSH2 0xD70 JUMPI PUSH1 0x3 DUP1 SLOAD DUP3 SWAP1 DUP2 LT PUSH2 0xD2B JUMPI INVALID JUMPDEST PUSH1 0x0 SWAP2 DUP3 MSTORE PUSH1 0x20 SWAP1 SWAP2 KECCAK256 ADD SLOAD DUP4 MLOAD PUSH1 0x1 PUSH1 0xA0 PUSH1 0x2 EXP SUB SWAP1 SWAP2 AND SWAP1 DUP5 SWAP1 DUP5 SWAP1 DUP2 LT PUSH2 0xD51 JUMPI INVALID JUMPDEST PUSH1 0x1 PUSH1 0xA0 PUSH1 0x2 EXP SUB SWAP1 SWAP3 AND PUSH1 0x20 SWAP3 DUP4 MUL SWAP1 SWAP2 ADD SWAP1 SWAP2 ADD MSTORE PUSH1 0x1 SWAP2 SWAP1 SWAP2 ADD SWAP1 JUMPDEST PUSH1 0x1 ADD PUSH2 0xCC7 JUMP JUMPDEST DUP2 PUSH1 0x40 MLOAD SWAP1 DUP1 DUP3 MSTORE DUP1 PUSH1 0x20 MUL PUSH1 0x20 ADD DUP3 ADD PUSH1 0x40 MSTORE DUP1 ISZERO PUSH2 0xDA2 JUMPI DUP2 PUSH1 0x20 ADD PUSH1 0x20 DUP3 MUL DUP1 CODESIZE DUP4 CODECOPY ADD SWAP1 POP JUMPDEST POP SWAP4 POP PUSH1 0x0 SWAP1 POP JUMPDEST DUP2 DUP2 LT ISZERO PUSH2 0xDF7 JUMPI DUP3 DUP2 DUP2 MLOAD DUP2 LT ISZERO ISZERO PUSH2 0xDC0 JUMPI INVALID JUMPDEST SWAP1 PUSH1 0x20 ADD SWAP1 PUSH1 0x20 MUL ADD MLOAD DUP5 DUP3 DUP2 MLOAD DUP2 LT ISZERO ISZERO PUSH2 0xDD8 JUMPI INVALID JUMPDEST PUSH1 0x1 PUSH1 0xA0 PUSH1 0x2 EXP SUB SWAP1 SWAP3 AND PUSH1 0x20 SWAP3 DUP4 MUL SWAP1 SWAP2 ADD SWAP1 SWAP2 ADD MSTORE PUSH1 0x1 ADD PUSH2 0xDAA JUMP JUMPDEST POP POP POP SWAP2 SWAP1 POP JUMP JUMPDEST PUSH1 0x5 SLOAD DUP2 JUMP JUMPDEST CALLER ADDRESS EQ PUSH2 0xE11 JUMPI PUSH1 0x0 DUP1 REVERT JUMPDEST PUSH1 0x3 SLOAD DUP2 PUSH1 0x32 DUP3 GT DUP1 ISZERO SWAP1 PUSH2 0xE26 JUMPI POP DUP2 DUP2 GT ISZERO JUMPDEST DUP1 ISZERO PUSH2 0xE31 JUMPI POP DUP1 ISZERO ISZERO JUMPDEST DUP1 ISZERO PUSH2 0xE3C JUMPI POP DUP2 ISZERO ISZERO JUMPDEST ISZERO ISZERO PUSH2 0xE47 JUMPI PUSH1 0x0 DUP1 REVERT JUMPDEST PUSH1 0x4 DUP4 SWAP1 SSTORE PUSH1 0x40 DUP1 MLOAD DUP5 DUP2 MSTORE SWAP1 MLOAD PUSH32 0xA3F1EE9126A074D9326C682F561767F710E927FAA811F7A99829D49DC421797A SWAP2 DUP2 SWAP1 SUB PUSH1 0x20 ADD SWAP1 LOG1 POP POP POP JUMP JUMPDEST CALLER PUSH1 0x0 DUP2 DUP2 MSTORE PUSH1 0x2 PUSH1 0x20 MSTORE PUSH1 0x40 SWAP1 KECCAK256 SLOAD PUSH1 0xFF AND ISZERO ISZERO PUSH2 0xEA2 JUMPI PUSH1 0x0 DUP1 REVERT JUMPDEST PUSH1 0x0 DUP3 DUP2 MSTORE PUSH1 0x20 DUP2 SWAP1 MSTORE PUSH1 0x40 SWAP1 KECCAK256 SLOAD DUP3 SWAP1 PUSH1 0x1 PUSH1 0xA0 PUSH1 0x2 EXP SUB AND ISZERO ISZERO PUSH2 0xEC7 JUMPI PUSH1 0x0 DUP1 REVERT JUMPDEST PUSH1 0x0 DUP4 DUP2 MSTORE PUSH1 0x1 PUSH1 0x20 SWAP1 DUP2 MSTORE PUSH1 0x40 DUP1 DUP4 KECCAK256 CALLER DUP1 DUP6 MSTORE SWAP3 MSTORE SWAP1 SWAP2 KECCAK256 SLOAD DUP5 SWAP2 SWAP1 PUSH1 0xFF AND ISZERO PUSH2 0xEF2 JUMPI PUSH1 0x0 DUP1 REVERT JUMPDEST PUSH1 0x0 DUP6 DUP2 MSTORE PUSH1 0x1 PUSH1 0x20 DUP2 DUP2 MSTORE PUSH1 0x40 DUP1 DUP5 KECCAK256 CALLER DUP1 DUP7 MSTORE SWAP3 MSTORE DUP1 DUP5 KECCAK256 DUP1 SLOAD PUSH1 0xFF NOT AND SWAP1 SWAP4 OR SWAP1 SWAP3 SSTORE SWAP1 MLOAD DUP8 SWAP3 PUSH32 0x4A504A94899432A9846E1AA406DCEB1BCFD538BB839071D49D1E5E23F5BE30EF SWAP2 LOG3 PUSH2 0xF48 DUP6 PUSH2 0x1103 JUMP JUMPDEST POP POP POP POP POP JUMP JUMPDEST PUSH1 0x0 PUSH2 0xF5C DUP5 DUP5 DUP5 PUSH2 0x12C3 JUMP JUMPDEST SWAP1 POP PUSH2 0xF67 DUP2 PUSH2 0xE84 JUMP JUMPDEST SWAP4 SWAP3 POP POP POP JUMP JUMPDEST PUSH1 0x32 DUP2 JUMP JUMPDEST PUSH1 0x4 SLOAD DUP2 JUMP JUMPDEST PUSH1 0x0 CALLER ADDRESS EQ PUSH2 0xF87 JUMPI PUSH1 0x0 DUP1 REVERT JUMPDEST PUSH1 0x1 PUSH1 0xA0 PUSH1 0x2 EXP SUB DUP4 AND PUSH1 0x0 SWAP1 DUP2 MSTORE PUSH1 0x2 PUSH1 0x20 MSTORE PUSH1 0x40 SWAP1 KECCAK256 SLOAD DUP4 SWAP1 PUSH1 0xFF AND ISZERO ISZERO PUSH2 0xFB0 JUMPI PUSH1 0x0 DUP1 REVERT JUMPDEST PUSH1 0x1 PUSH1 0xA0 PUSH1 0x2 EXP SUB DUP4 AND PUSH1 0x0 SWAP1 DUP2 MSTORE PUSH1 0x2 PUSH1 0x20 MSTORE PUSH1 0x40 SWAP1 KECCAK256 SLOAD DUP4 SWAP1 PUSH1 0xFF AND ISZERO PUSH2 0xFD8 JUMPI PUSH1 0x0 DUP1 REVERT JUMPDEST PUSH1 0x0 SWAP3 POP JUMPDEST PUSH1 0x3 SLOAD DUP4 LT ISZERO PUSH2 0x1069 JUMPI DUP5 PUSH1 0x1 PUSH1 0xA0 PUSH1 0x2 EXP SUB AND PUSH1 0x3 DUP5 DUP2 SLOAD DUP2 LT ISZERO ISZERO PUSH2 0x1000 JUMPI INVALID JUMPDEST PUSH1 0x0 SWAP2 DUP3 MSTORE PUSH1 0x20 SWAP1 SWAP2 KECCAK256 ADD SLOAD PUSH1 0x1 PUSH1 0xA0 PUSH1 0x2 EXP SUB AND EQ ISZERO PUSH2 0x105E JUMPI DUP4 PUSH1 0x3 DUP5 DUP2 SLOAD DUP2 LT ISZERO ISZERO PUSH2 0x102B JUMPI INVALID JUMPDEST SWAP1 PUSH1 0x0 MSTORE PUSH1 0x20 PUSH1 0x0 KECCAK256 ADD PUSH1 0x0 PUSH2 0x100 EXP DUP2 SLOAD DUP2 PUSH1 0x1 PUSH1 0xA0 PUSH1 0x2 EXP SUB MUL NOT AND SWAP1 DUP4 PUSH1 0x1 PUSH1 0xA0 PUSH1 0x2 EXP SUB AND MUL OR SWAP1 SSTORE POP PUSH2 0x1069 JUMP JUMPDEST PUSH1 0x1 SWAP1 SWAP3 ADD SWAP2 PUSH2 0xFDD JUMP JUMPDEST PUSH1 0x1 PUSH1 0xA0 PUSH1 0x2 EXP SUB DUP1 DUP7 AND PUSH1 0x0 DUP2 DUP2 MSTORE PUSH1 0x2 PUSH1 0x20 MSTORE PUSH1 0x40 DUP1 DUP3 KECCAK256 DUP1 SLOAD PUSH1 0xFF NOT SWAP1 DUP2 AND SWAP1 SWAP2 SSTORE SWAP4 DUP9 AND DUP3 MSTORE DUP1 DUP3 KECCAK256 DUP1 SLOAD SWAP1 SWAP5 AND PUSH1 0x1 OR SWAP1 SWAP4 SSTORE SWAP2 MLOAD SWAP1 SWAP2 PUSH32 0x8001553A916EF2F495D26A907CC54D96ED840D7BDA71E73194BF5A9DF7A76B90 SWAP2 LOG2 PUSH1 0x40 MLOAD PUSH1 0x1 PUSH1 0xA0 PUSH1 0x2 EXP SUB DUP6 AND SWAP1 PUSH32 0xF39E6E1EB0EDCF53C221607B54B00CD28F3196FED0A24994DC308B8F611B682D SWAP1 PUSH1 0x0 SWAP1 LOG2 POP POP POP POP POP JUMP JUMPDEST CALLER PUSH1 0x0 DUP2 DUP2 MSTORE PUSH1 0x2 PUSH1 0x20 MSTORE PUSH1 0x40 DUP2 KECCAK256 SLOAD SWAP1 SWAP2 SWAP1 PUSH1 0xFF AND ISZERO ISZERO PUSH2 0x1124 JUMPI PUSH1 0x0 DUP1 REVERT JUMPDEST PUSH1 0x0 DUP4 DUP2 MSTORE PUSH1 0x1 PUSH1 0x20 SWAP1 DUP2 MSTORE PUSH1 0x40 DUP1 DUP4 KECCAK256 CALLER DUP1 DUP6 MSTORE SWAP3 MSTORE SWAP1 SWAP2 KECCAK256 SLOAD DUP5 SWAP2 SWAP1 PUSH1 0xFF AND ISZERO ISZERO PUSH2 0x1150 JUMPI PUSH1 0x0 DUP1 REVERT JUMPDEST PUSH1 0x0 DUP6 DUP2 MSTORE PUSH1 0x20 DUP2 SWAP1 MSTORE PUSH1 0x40 SWAP1 KECCAK256 PUSH1 0x3 ADD SLOAD DUP6 SWAP1 PUSH1 0xFF AND ISZERO PUSH2 0x1171 JUMPI PUSH1 0x0 DUP1 REVERT JUMPDEST PUSH2 0x117A DUP7 PUSH2 0x939 JUMP JUMPDEST ISZERO PUSH2 0x12BB JUMPI PUSH1 0x0 DUP7 DUP2 MSTORE PUSH1 0x20 DUP2 DUP2 MSTORE PUSH1 0x40 SWAP2 DUP3 SWAP1 KECCAK256 PUSH1 0x3 DUP2 ADD DUP1 SLOAD PUSH1 0xFF NOT AND PUSH1 0x1 SWAP1 DUP2 OR SWAP1 SWAP2 SSTORE DUP2 SLOAD DUP2 DUP4 ADD SLOAD PUSH1 0x2 DUP1 DUP6 ADD DUP1 SLOAD DUP9 MLOAD PUSH1 0x1F PUSH1 0x0 NOT SWAP8 DUP4 AND ISZERO PUSH2 0x100 MUL SWAP8 SWAP1 SWAP8 ADD SWAP1 SWAP2 AND SWAP3 SWAP1 SWAP3 DIV SWAP5 DUP6 ADD DUP8 SWAP1 DIV DUP8 MUL DUP3 ADD DUP8 ADD SWAP1 SWAP8 MSTORE DUP4 DUP2 MSTORE SWAP4 SWAP11 POP PUSH2 0x124E SWAP6 PUSH1 0x1 PUSH1 0xA0 PUSH1 0x2 EXP SUB SWAP1 SWAP3 AND SWAP5 SWAP1 SWAP4 SWAP2 SWAP1 DUP4 SWAP1 DUP4 ADD DUP3 DUP3 DUP1 ISZERO PUSH2 0x1244 JUMPI DUP1 PUSH1 0x1F LT PUSH2 0x1219 JUMPI PUSH2 0x100 DUP1 DUP4 SLOAD DIV MUL DUP4 MSTORE SWAP2 PUSH1 0x20 ADD SWAP2 PUSH2 0x1244 JUMP JUMPDEST DUP3 ADD SWAP2 SWAP1 PUSH1 0x0 MSTORE PUSH1 0x20 PUSH1 0x0 KECCAK256 SWAP1 JUMPDEST DUP2 SLOAD DUP2 MSTORE SWAP1 PUSH1 0x1 ADD SWAP1 PUSH1 0x20 ADD DUP1 DUP4 GT PUSH2 0x1227 JUMPI DUP3 SWAP1 SUB PUSH1 0x1F AND DUP3 ADD SWAP2 JUMPDEST POP POP POP POP POP PUSH2 0x13B3 JUMP JUMPDEST ISZERO PUSH2 0x1283 JUMPI PUSH1 0x40 MLOAD DUP7 SWAP1 PUSH32 0x33E13ECB54C3076D8E8BB8C2881800A4D972B792045FFAE98FDF46DF365FED75 SWAP1 PUSH1 0x0 SWAP1 LOG2 PUSH2 0x12BB JUMP JUMPDEST PUSH1 0x40 MLOAD DUP7 SWAP1 PUSH32 0x526441BB6C1ABA3C9A4A6CA1D6545DA9C2333C8C48343EF398EB858D72B79236 SWAP1 PUSH1 0x0 SWAP1 LOG2 PUSH1 0x3 DUP6 ADD DUP1 SLOAD PUSH1 0xFF NOT AND SWAP1 SSTORE JUMPDEST POP POP POP POP POP POP JUMP JUMPDEST PUSH1 0x0 DUP4 PUSH1 0x1 PUSH1 0xA0 PUSH1 0x2 EXP SUB DUP2 AND ISZERO ISZERO PUSH2 0x12DB JUMPI PUSH1 0x0 DUP1 REVERT JUMPDEST PUSH1 0x5 SLOAD PUSH1 0x40 DUP1 MLOAD PUSH1 0x80 DUP2 ADD DUP3 MSTORE PUSH1 0x1 PUSH1 0xA0 PUSH1 0x2 EXP SUB DUP9 DUP2 AND DUP3 MSTORE PUSH1 0x20 DUP1 DUP4 ADD DUP10 DUP2 MSTORE DUP4 DUP6 ADD DUP10 DUP2 MSTORE PUSH1 0x0 PUSH1 0x60 DUP7 ADD DUP2 SWAP1 MSTORE DUP8 DUP2 MSTORE DUP1 DUP5 MSTORE SWAP6 SWAP1 SWAP6 KECCAK256 DUP5 MLOAD DUP2 SLOAD PUSH20 0xFFFFFFFFFFFFFFFFFFFFFFFFFFFFFFFFFFFFFFFF NOT AND SWAP5 AND SWAP4 SWAP1 SWAP4 OR DUP4 SSTORE MLOAD PUSH1 0x1 DUP4 ADD SSTORE SWAP3 MLOAD DUP1 MLOAD SWAP5 SWAP7 POP SWAP2 SWAP4 SWAP1 SWAP3 PUSH2 0x135B SWAP3 PUSH1 0x2 DUP6 ADD SWAP3 SWAP2 ADD SWAP1 PUSH2 0x13FF JUMP JUMPDEST POP PUSH1 0x60 SWAP2 SWAP1 SWAP2 ADD MLOAD PUSH1 0x3 SWAP1 SWAP2 ADD DUP1 SLOAD PUSH1 0xFF NOT AND SWAP2 ISZERO ISZERO SWAP2 SWAP1 SWAP2 OR SWAP1 SSTORE PUSH1 0x5 DUP1 SLOAD PUSH1 0x1 ADD SWAP1 SSTORE PUSH1 0x40 MLOAD DUP3 SWAP1 PUSH32 0xC0BA8FE4B176C1714197D43B9CC6BCF797A4A7461C5FE8D0EF6E184AE7601E51 SWAP1 PUSH1 0x0 SWAP1 LOG2 POP SWAP4 SWAP3 POP POP POP JUMP JUMPDEST PUSH1 0x0 DUP1 PUSH1 0x40 MLOAD PUSH1 0x20 DUP5 ADD PUSH1 0x0 DUP3 DUP8 DUP4 DUP11 DUP13 PUSH2 0x8796 GAS SUB CALL SWAP9 SWAP8 POP POP POP POP POP POP POP POP JUMP JUMPDEST DUP2 SLOAD DUP2 DUP4 SSTORE DUP2 DUP2 GT ISZERO PUSH2 0x13FA JUMPI PUSH1 0x0 DUP4 DUP2 MSTORE PUSH1 0x20 SWAP1 KECCAK256 PUSH2 0x13FA SWAP2 DUP2 ADD SWAP1 DUP4 ADD PUSH2 0x147D JUMP JUMPDEST POP POP POP JUMP JUMPDEST DUP3 DUP1 SLOAD PUSH1 0x1 DUP2 PUSH1 0x1 AND ISZERO PUSH2 0x100 MUL SUB AND PUSH1 0x2 SWAP1 DIV SWAP1 PUSH1 0x0 MSTORE PUSH1 0x20 PUSH1 0x0 KECCAK256 SWAP1 PUSH1 0x1F ADD PUSH1 0x20 SWAP1 DIV DUP2 ADD SWAP3 DUP3 PUSH1 0x1F LT PUSH2 0x1440 JUMPI DUP1 MLOAD PUSH1 0xFF NOT AND DUP4 DUP1 ADD OR DUP6 SSTORE PUSH2 0x146D JUMP JUMPDEST DUP3 DUP1 ADD PUSH1 0x1 ADD DUP6 SSTORE DUP3 ISZERO PUSH2 0x146D JUMPI SWAP2 DUP3 ADD JUMPDEST DUP3 DUP2 GT ISZERO PUSH2 0x146D JUMPI DUP3 MLOAD DUP3 SSTORE SWAP2 PUSH1 0x20 ADD SWAP2 SWAP1 PUSH1 0x1 ADD SWAP1 PUSH2 0x1452 JUMP JUMPDEST POP PUSH2 0x1479 SWAP3 SWAP2 POP PUSH2 0x147D JUMP JUMPDEST POP SWAP1 JUMP JUMPDEST PUSH2 0xB4A SWAP2 SWAP1 JUMPDEST DUP1 DUP3 GT ISZERO PUSH2 0x1479 JUMPI PUSH1 0x0 DUP2 SSTORE PUSH1 0x1 ADD PUSH2 0x1483 JUMP STOP LOG1 PUSH6 0x627A7A723058 KECCAK256 PUSH20 0x2C3445503ADB3F3931CA510425305F459BBA86F3 0xcc RETURNDATACOPY ADDRESS 0xf9 ISZERO PUSH4 0x6909D1A2 POP STOP 0x29 "
				},
				"gasEstimates": {
					"creation": {
						"codeDepositCost": "1063000",
						"executionCost": "infinite",
						"totalCost": "infinite"
					},
					"external": {
						"": "1989",
						"MAX_OWNER_COUNT()": "558",
						"addOwner(address)": "63367",
						"changeRequirement(uint256)": "21874",
						"confirmTransaction(uint256)": "infinite",
						"confirmations(uint256,address)": "709",
						"executeTransaction(uint256)": "infinite",
						"getConfirmationCount(uint256)": "infinite",
						"getConfirmations(uint256)": "infinite",
						"getOwners()": "infinite",
						"getTransactionCount(bool,bool)": "infinite",
						"getTransactionIds(uint256,uint256,bool,bool)": "infinite",
						"isConfirmed(uint256)": "infinite",
						"isOwner(address)": "609",
						"owners(uint256)": "837",
						"removeOwner(address)": "infinite",
						"replaceOwner(address,address)": "infinite",
						"required()": "780",
						"revokeConfirmation(uint256)": "23045",
						"submitTransaction(address,uint256,bytes)": "infinite",
						"transactionCount()": "670",
						"transactions(uint256)": "infinite"
					},
					"internal": {
						"addTransaction(address,uint256,bytes memory)": "infinite",
						"external_call(address,uint256,uint256,bytes memory)": "infinite"
					}
				},
				"methodIdentifiers": {
					"MAX_OWNER_COUNT()": "d74f8edd",
					"addOwner(address)": "7065cb48",
					"changeRequirement(uint256)": "ba51a6df",
					"confirmTransaction(uint256)": "c01a8c84",
					"confirmations(uint256,address)": "3411c81c",
					"executeTransaction(uint256)": "ee22610b",
					"getConfirmationCount(uint256)": "8b51d13f",
					"getConfirmations(uint256)": "b5dc40c3",
					"getOwners()": "a0e67e2b",
					"getTransactionCount(bool,bool)": "54741525",
					"getTransactionIds(uint256,uint256,bool,bool)": "a8abe69a",
					"isConfirmed(uint256)": "784547a7",
					"isOwner(address)": "2f54bf6e",
					"owners(uint256)": "025e7c27",
					"removeOwner(address)": "173825d9",
					"replaceOwner(address,address)": "e20056e6",
					"required()": "dc8452cd",
					"revokeConfirmation(uint256)": "20ea8d86",
					"submitTransaction(address,uint256,bytes)": "c6427474",
					"transactionCount()": "b77bf600",
					"transactions(uint256)": "9ace38c2"
				}
			},
			"userdoc": {
				"methods": {}
			}
		}
	}
}