{
	"MultiSigWalletWithDailyLimit.sol": {
		"MultiSigWalletWithDailyLimit": {
			"abi": [
				{
					"constant": true,
					"inputs": [
						{
							"name": "",
							"type": "uint256"
						}
					],
					"name": "owners",
					"outputs": [
						{
							"name": "",
							"type": "address"
						}
					],
					"payable": false,
					"stateMutability": "view",
					"type": "function"
				},
				{
					"constant": false,
					"inputs": [
						{
							"name": "owner",
							"type": "address"
						}
					],
					"name": "removeOwner",
					"outputs": [],
					"payable": false,
					"stateMutability": "nonpayable",
					"type": "function"
				},
				{
					"constant": false,
					"inputs": [
						{
							"name": "transactionId",
							"type": "uint256"
						}
					],
					"name": "revokeConfirmation",
					"outputs": [],
					"payable": false,
					"stateMutability": "nonpayable",
					"type": "function"
				},
				{
					"constant": true,
					"inputs": [
						{
							"name": "",
							"type": "address"
						}
					],
					"name": "isOwner",
					"outputs": [
						{
							"name": "",
							"type": "bool"
						}
					],
					"payable": false,
					"stateMutability": "view",
					"type": "function"
				},
				{
					"constant": true,
					"inputs": [
						{
							"name": "",
							"type": "uint256"
						},
						{
							"name": "",
							"type": "address"
						}
					],
					"name": "confirmations",
					"outputs": [
						{
							"name": "",
							"type": "bool"
						}
					],
					"payable": false,
					"stateMutability": "view",
					"type": "function"
				},
				{
					"constant": true,
					"inputs": [],
					"name": "calcMaxWithdraw",
					"outputs": [
						{
							"name": "",
							"type": "uint256"
						}
					],
					"payable": false,
					"stateMutability": "view",
					"type": "function"
				},
				{
					"constant": true,
					"inputs": [
						{
							"name": "pending",
							"type": "bool"
						},
						{
							"name": "executed",
							"type": "bool"
						}
					],
					"name": "getTransactionCount",
					"outputs": [
						{
							"name": "count",
							"type": "uint256"
						}
					],
					"payable": false,
					"stateMutability": "view",
					"type": "function"
				},
				{
					"constant": true,
					"inputs": [],
					"name": "dailyLimit",
					"outputs": [
						{
							"name": "",
							"type": "uint256"
						}
					],
					"payable": false,
					"stateMutability": "view",
					"type": "function"
				},
				{
					"constant": true,
					"inputs": [],
					"name": "lastDay",
					"outputs": [
						{
							"name": "",
							"type": "uint256"
						}
					],
					"payable": false,
					"stateMutability": "view",
					"type": "function"
				},
				{
					"constant": false,
					"inputs": [
						{
							"name": "owner",
							"type": "address"
						}
					],
					"name": "addOwner",
					"outputs": [],
					"payable": false,
					"stateMutability": "nonpayable",
					"type": "function"
				},
				{
					"constant": true,
					"inputs": [
						{
							"name": "transactionId",
							"type": "uint256"
						}
					],
					"name": "isConfirmed",
					"outputs": [
						{
							"name": "",
							"type": "bool"
						}
					],
					"payable": false,
					"stateMutability": "view",
					"type": "function"
				},
				{
					"constant": true,
					"inputs": [
						{
							"name": "transactionId",
							"type": "uint256"
						}
					],
					"name": "getConfirmationCount",
					"outputs": [
						{
							"name": "count",
							"type": "uint256"
						}
					],
					"payable": false,
					"stateMutability": "view",
					"type": "function"
				},
				{
					"constant": true,
					"inputs": [
						{
							"name": "",
							"type": "uint256"
						}
					],
					"name": "transactions",
					"outputs": [
						{
							"name": "destination",
							"type": "address"
						},
						{
							"name": "value",
							"type": "uint256"
						},
						{
							"name": "data",
							"type": "bytes"
						},
						{
							"name": "executed",
							"type": "bool"
						}
					],
					"payable": false,
					"stateMutability": "view",
					"type": "function"
				},
				{
					"constant": true,
					"inputs": [],
					"name": "getOwners",
					"outputs": [
						{
							"name": "",
							"type": "address[]"
						}
					],
					"payable": false,
					"stateMutability": "view",
					"type": "function"
				},
				{
					"constant": true,
					"inputs": [
						{
							"name": "from",
							"type": "uint256"
						},
						{
							"name": "to",
							"type": "uint256"
						},
						{
							"name": "pending",
							"type": "bool"
						},
						{
							"name": "executed",
							"type": "bool"
						}
					],
					"name": "getTransactionIds",
					"outputs": [
						{
							"name": "_transactionIds",
							"type": "uint256[]"
						}
					],
					"payable": false,
					"stateMutability": "view",
					"type": "function"
				},
				{
					"constant": true,
					"inputs": [
						{
							"name": "transactionId",
							"type": "uint256"
						}
					],
					"name": "getConfirmations",
					"outputs": [
						{
							"name": "_confirmations",
							"type": "address[]"
						}
					],
					"payable": false,
					"stateMutability": "view",
					"type": "function"
				},
				{
					"constant": true,
					"inputs": [],
					"name": "transactionCount",
					"outputs": [
						{
							"name": "",
							"type": "uint256"
						}
					],
					"payable": false,
					"stateMutability": "view",
					"type": "function"
				},
				{
					"constant": false,
					"inputs": [
						{
							"name": "_required",
							"type": "uint256"
						}
					],
					"name": "changeRequirement",
					"outputs": [],
					"payable": false,
					"stateMutability": "nonpayable",
					"type": "function"
				},
				{
					"constant": false,
					"inputs": [
						{
							"name": "transactionId",
							"type": "uint256"
						}
					],
					"name": "confirmTransaction",
					"outputs": [],
					"payable": false,
					"stateMutability": "nonpayable",
					"type": "function"
				},
				{
					"constant": false,
					"inputs": [
						{
							"name": "destination",
							"type": "address"
						},
						{
							"name": "value",
							"type": "uint256"
						},
						{
							"name": "data",
							"type": "bytes"
						}
					],
					"name": "submitTransaction",
					"outputs": [
						{
							"name": "transactionId",
							"type": "uint256"
						}
					],
					"payable": false,
					"stateMutability": "nonpayable",
					"type": "function"
				},
				{
					"constant": false,
					"inputs": [
						{
							"name": "_dailyLimit",
							"type": "uint256"
						}
					],
					"name": "changeDailyLimit",
					"outputs": [],
					"payable": false,
					"stateMutability": "nonpayable",
					"type": "function"
				},
				{
					"constant": true,
					"inputs": [],
					"name": "MAX_OWNER_COUNT",
					"outputs": [
						{
							"name": "",
							"type": "uint256"
						}
					],
					"payable": false,
					"stateMutability": "view",
					"type": "function"
				},
				{
					"constant": true,
					"inputs": [],
					"name": "required",
					"outputs": [
						{
							"name": "",
							"type": "uint256"
						}
					],
					"payable": false,
					"stateMutability": "view",
					"type": "function"
				},
				{
					"constant": false,
					"inputs": [
						{
							"name": "owner",
							"type": "address"
						},
						{
							"name": "newOwner",
							"type": "address"
						}
					],
					"name": "replaceOwner",
					"outputs": [],
					"payable": false,
					"stateMutability": "nonpayable",
					"type": "function"
				},
				{
					"constant": false,
					"inputs": [
						{
							"name": "transactionId",
							"type": "uint256"
						}
					],
					"name": "executeTransaction",
					"outputs": [],
					"payable": false,
					"stateMutability": "nonpayable",
					"type": "function"
				},
				{
					"constant": true,
					"inputs": [],
					"name": "spentToday",
					"outputs": [
						{
							"name": "",
							"type": "uint256"
						}
					],
					"payable": false,
					"stateMutability": "view",
					"type": "function"
				},
				{
					"inputs": [
						{
							"name": "_owners",
							"type": "address[]"
						},
						{
							"name": "_required",
							"type": "uint256"
						},
						{
							"name": "_dailyLimit",
							"type": "uint256"
						}
					],
					"payable": false,
					"stateMutability": "nonpayable",
					"type": "constructor"
				},
				{
					"payable": true,
					"stateMutability": "payable",
					"type": "fallback"
				},
				{
					"anonymous": false,
					"inputs": [
						{
							"indexed": false,
							"name": "dailyLimit",
							"type": "uint256"
						}
					],
					"name": "DailyLimitChange",
					"type": "event"
				},
				{
					"anonymous": false,
					"inputs": [
						{
							"indexed": true,
							"name": "sender",
							"type": "address"
						},
						{
							"indexed": true,
							"name": "transactionId",
							"type": "uint256"
						}
					],
					"name": "Confirmation",
					"type": "event"
				},
				{
					"anonymous": false,
					"inputs": [
						{
							"indexed": true,
							"name": "sender",
							"type": "address"
						},
						{
							"indexed": true,
							"name": "transactionId",
							"type": "uint256"
						}
					],
					"name": "Revocation",
					"type": "event"
				},
				{
					"anonymous": false,
					"inputs": [
						{
							"indexed": true,
							"name": "transactionId",
							"type": "uint256"
						}
					],
					"name": "Submission",
					"type": "event"
				},
				{
					"anonymous": false,
					"inputs": [
						{
							"indexed": true,
							"name": "transactionId",
							"type": "uint256"
						}
					],
					"name": "Execution",
					"type": "event"
				},
				{
					"anonymous": false,
					"inputs": [
						{
							"indexed": true,
							"name": "transactionId",
							"type": "uint256"
						}
					],
					"name": "ExecutionFailure",
					"type": "event"
				},
				{
					"anonymous": false,
					"inputs": [
						{
							"indexed": true,
							"name": "sender",
							"type": "address"
						},
						{
							"indexed": false,
							"name": "value",
							"type": "uint256"
						}
					],
					"name": "Deposit",
					"type": "event"
				},
				{
					"anonymous": false,
					"inputs": [
						{
							"indexed": true,
							"name": "owner",
							"type": "address"
						}
					],
					"name": "OwnerAddition",
					"type": "event"
				},
				{
					"anonymous": false,
					"inputs": [
						{
							"indexed": true,
							"name": "owner",
							"type": "address"
						}
					],
					"name": "OwnerRemoval",
					"type": "event"
				},
				{
					"anonymous": false,
					"inputs": [
						{
							"indexed": false,
							"name": "required",
							"type": "uint256"
						}
					],
					"name": "RequirementChange",
					"type": "event"
				}
			],
			"devdoc": {
				"author": "Stefan George - <stefan.george@consensys.net>",
				"methods": {
					"addOwner(address)": {
						"details": "Allows to add a new owner. Transaction has to be sent by wallet.",
						"params": {
							"owner": "Address of new owner."
						}
					},
					"calcMaxWithdraw()": {
						"details": "Returns maximum withdraw amount.",
						"return": "Returns amount."
					},
					"changeDailyLimit(uint256)": {
						"details": "Allows to change the daily limit. Transaction has to be sent by wallet.",
						"params": {
							"_dailyLimit": "Amount in wei."
						}
					},
					"changeRequirement(uint256)": {
						"details": "Allows to change the number of required confirmations. Transaction has to be sent by wallet.",
						"params": {
							"_required": "Number of required confirmations."
						}
					},
					"confirmTransaction(uint256)": {
						"details": "Allows an owner to confirm a transaction.",
						"params": {
							"transactionId": "Transaction ID."
						}
					},
					"executeTransaction(uint256)": {
						"details": "Allows anyone to execute a confirmed transaction or ether withdraws until daily limit is reached.",
						"params": {
							"transactionId": "Transaction ID."
						}
					},
					"getConfirmationCount(uint256)": {
						"details": "Returns number of confirmations of a transaction.",
						"params": {
							"transactionId": "Transaction ID."
						},
						"return": "Number of confirmations."
					},
					"getConfirmations(uint256)": {
						"details": "Returns array with owner addresses, which confirmed transaction.",
						"params": {
							"transactionId": "Transaction ID."
						},
						"return": "Returns array of owner addresses."
					},
					"getOwners()": {
						"details": "Returns list of owners.",
						"return": "List of owner addresses."
					},
					"getTransactionCount(bool,bool)": {
						"details": "Returns total number of transactions after filers are applied.",
						"params": {
							"executed": "Include executed transactions.",
							"pending": "Include pending transactions."
						},
						"return": "Total number of transactions after filters are applied."
					},
					"getTransactionIds(uint256,uint256,bool,bool)": {
						"details": "Returns list of transaction IDs in defined range.",
						"params": {
							"executed": "Include executed transactions.",
							"from": "Index start position of transaction array.",
							"pending": "Include pending transactions.",
							"to": "Index end position of transaction array."
						},
						"return": "Returns array of transaction IDs."
					},
					"isConfirmed(uint256)": {
						"details": "Returns the confirmation status of a transaction.",
						"params": {
							"transactionId": "Transaction ID."
						},
						"return": "Confirmation status."
					},
					"removeOwner(address)": {
						"details": "Allows to remove an owner. Transaction has to be sent by wallet.",
						"params": {
							"owner": "Address of owner."
						}
					},
					"replaceOwner(address,address)": {
						"details": "Allows to replace an owner with a new owner. Transaction has to be sent by wallet.",
						"params": {
							"newOwner": "Address of new owner.",
							"owner": "Address of owner to be replaced."
						}
					},
					"revokeConfirmation(uint256)": {
						"details": "Allows an owner to revoke a confirmation for a transaction.",
						"params": {
							"transactionId": "Transaction ID."
						}
					},
					"submitTransaction(address,uint256,bytes)": {
						"details": "Allows an owner to submit and confirm a transaction.",
						"params": {
							"data": "Transaction data payload.",
							"destination": "Transaction target address.",
							"value": "Transaction ether value."
						},
						"return": "Returns transaction ID."
					}
				},
				"title": "Multisignature wallet with daily limit - Allows an owner to withdraw a daily limit without multisig."
			},
			"evm": {
				"assembly": "    /* \"MultiSigWalletWithDailyLimit.sol\":228:3258  contract MultiSigWalletWithDailyLimit is MultiSigWallet {... */\n  mstore(0x40, 0x80)\n    /* \"MultiSigWalletWithDailyLimit.sol\":844:1038  function MultiSigWalletWithDailyLimit(address[] _owners, uint _required, uint _dailyLimit)... */\n  callvalue\n    /* \"--CODEGEN--\":8:17   */\n  dup1\n    /* \"--CODEGEN--\":5:7   */\n  iszero\n  tag_1\n  jumpi\n    /* \"--CODEGEN--\":30:31   */\n  0x0\n    /* \"--CODEGEN--\":27:28   */\n  dup1\n    /* \"--CODEGEN--\":20:32   */\n  revert\n    /* \"--CODEGEN--\":5:7   */\ntag_1:\n    /* \"MultiSigWalletWithDailyLimit.sol\":844:1038  function MultiSigWalletWithDailyLimit(address[] _owners, uint _required, uint _dailyLimit)... */\n  pop\n  mload(0x40)\n  sub(codesize, bytecodeSize)\n  dup1\n  bytecodeSize\n  dup4\n  codecopy\n  dup2\n  add\n  0x40\n  swap1\n  dup2\n  mstore\n  dup2\n  mload\n  0x20\n  dup4\n  add\n  mload\n  swap2\n  dup4\n  add\n  mload\n  swap3\n  add\n    /* \"MultiSigWallet.sol\":2915:2929  _owners.length */\n  dup1\n  mload\n    /* \"MultiSigWalletWithDailyLimit.sol\":844:1038  function MultiSigWalletWithDailyLimit(address[] _owners, uint _required, uint _dailyLimit)... */\n  swap1\n  swap3\n  swap1\n  dup4\n  swap1\n  dup4\n  swap1\n    /* \"MultiSigWallet.sol\":2961:2967  uint i */\n  0x0\n  swap1\n    /* \"MultiSigWalletWithDailyLimit.sol\":844:1038  function MultiSigWalletWithDailyLimit(address[] _owners, uint _required, uint _dailyLimit)... */\n  dup3\n    /* \"MultiSigWallet.sol\":820:822  50 */\n  0x32\n    /* \"MultiSigWallet.sol\":2254:2283  ownerCount <= MAX_OWNER_COUNT */\n  dup3\n  gt\n  dup1\n  iszero\n  swap1\n    /* \"MultiSigWallet.sol\":2254:2322  ownerCount <= MAX_OWNER_COUNT... */\n  tag_5\n  jumpi\n  pop\n    /* \"MultiSigWallet.sol\":2312:2322  ownerCount */\n  dup2\n    /* \"MultiSigWallet.sol\":2299:2308  _required */\n  dup2\n    /* \"MultiSigWallet.sol\":2299:2322  _required <= ownerCount */\n  gt\n  iszero\n    /* \"MultiSigWallet.sol\":2254:2322  ownerCount <= MAX_OWNER_COUNT... */\ntag_5:\n    /* \"MultiSigWallet.sol\":2254:2352  ownerCount <= MAX_OWNER_COUNT... */\n  dup1\n  iszero\n  tag_6\n  jumpi\n  pop\n    /* \"MultiSigWallet.sol\":2338:2352  _required != 0 */\n  dup1\n  iszero\n  iszero\n    /* \"MultiSigWallet.sol\":2254:2352  ownerCount <= MAX_OWNER_COUNT... */\ntag_6:\n    /* \"MultiSigWallet.sol\":2254:2383  ownerCount <= MAX_OWNER_COUNT... */\n  dup1\n  iszero\n  tag_7\n  jumpi\n  pop\n    /* \"MultiSigWallet.sol\":2368:2383  ownerCount != 0 */\n  dup2\n  iszero\n  iszero\n    /* \"MultiSigWallet.sol\":2254:2383  ownerCount <= MAX_OWNER_COUNT... */\ntag_7:\n    /* \"MultiSigWallet.sol\":2246:2384  require(ownerCount <= MAX_OWNER_COUNT... */\n  iszero\n  iszero\n  tag_8\n  jumpi\n  0x0\n  dup1\n  revert\ntag_8:\n    /* \"MultiSigWallet.sol\":2968:2969  0 */\n  0x0\n    /* \"MultiSigWallet.sol\":2961:2969  uint i=0 */\n  swap3\n  pop\n    /* \"MultiSigWallet.sol\":2956:3107  for (uint i=0; i<_owners.length; i++) {... */\ntag_10:\n    /* \"MultiSigWallet.sol\":2973:2980  _owners */\n  dup5\n    /* \"MultiSigWallet.sol\":2973:2987  _owners.length */\n  mload\n    /* \"MultiSigWallet.sol\":2971:2972  i */\n  dup4\n    /* \"MultiSigWallet.sol\":2971:2987  i<_owners.length */\n  lt\n    /* \"MultiSigWallet.sol\":2956:3107  for (uint i=0; i<_owners.length; i++) {... */\n  iszero\n  tag_11\n  jumpi\n    /* \"MultiSigWallet.sol\":3017:3024  isOwner */\n  0x2\n    /* \"MultiSigWallet.sol\":3017:3036  isOwner[_owners[i]] */\n  0x0\n    /* \"MultiSigWallet.sol\":3025:3032  _owners */\n  dup7\n    /* \"MultiSigWallet.sol\":3033:3034  i */\n  dup6\n    /* \"MultiSigWallet.sol\":3025:3035  _owners[i] */\n  dup2\n  mload\n  dup2\n  lt\n  iszero\n  iszero\n  tag_13\n  jumpi\n  invalid\ntag_13:\n  0x20\n  swap1\n  dup2\n  mul\n  swap1\n  swap2\n  add\n  dup2\n  add\n  mload\n  sub(exp(0x2, 0xa0), 0x1)\n    /* \"MultiSigWallet.sol\":3017:3036  isOwner[_owners[i]] */\n  and\n  dup3\n  mstore\n  dup2\n  add\n  swap2\n  swap1\n  swap2\n  mstore\n  0x40\n  add\n  0x0\n  keccak256\n  sload\n  0xff\n  and\n    /* \"MultiSigWallet.sol\":3016:3036  !isOwner[_owners[i]] */\n  iszero\n    /* \"MultiSigWallet.sol\":3016:3055  !isOwner[_owners[i]] && _owners[i] != 0 */\n  dup1\n  iszero\n  tag_14\n  jumpi\n  pop\n    /* \"MultiSigWallet.sol\":3040:3047  _owners */\n  dup5\n    /* \"MultiSigWallet.sol\":3048:3049  i */\n  dup4\n    /* \"MultiSigWallet.sol\":3040:3050  _owners[i] */\n  dup2\n  mload\n  dup2\n  lt\n  iszero\n  iszero\n  tag_15\n  jumpi\n  invalid\ntag_15:\n  swap1\n  0x20\n  add\n  swap1\n  0x20\n  mul\n  add\n  mload\n  sub(exp(0x2, 0xa0), 0x1)\n    /* \"MultiSigWallet.sol\":3040:3055  _owners[i] != 0 */\n  and\n    /* \"MultiSigWallet.sol\":3054:3055  0 */\n  0x0\n    /* \"MultiSigWallet.sol\":3040:3055  _owners[i] != 0 */\n  eq\n  iszero\n    /* \"MultiSigWallet.sol\":3016:3055  !isOwner[_owners[i]] && _owners[i] != 0 */\ntag_14:\n    /* \"MultiSigWallet.sol\":3008:3056  require(!isOwner[_owners[i]] && _owners[i] != 0) */\n  iszero\n  iszero\n  tag_16\n  jumpi\n  0x0\n  dup1\n  revert\ntag_16:\n    /* \"MultiSigWallet.sol\":3092:3096  true */\n  0x1\n    /* \"MultiSigWallet.sol\":3070:3077  isOwner */\n  0x2\n    /* \"MultiSigWallet.sol\":3070:3089  isOwner[_owners[i]] */\n  0x0\n    /* \"MultiSigWallet.sol\":3078:3085  _owners */\n  dup8\n    /* \"MultiSigWallet.sol\":3086:3087  i */\n  dup7\n    /* \"MultiSigWallet.sol\":3078:3088  _owners[i] */\n  dup2\n  mload\n  dup2\n  lt\n  iszero\n  iszero\n  tag_17\n  jumpi\n  invalid\ntag_17:\n  0x20\n  swap1\n  dup2\n  mul\n  swap2\n  swap1\n  swap2\n  add\n  dup2\n  add\n  mload\n  sub(exp(0x2, 0xa0), 0x1)\n    /* \"MultiSigWallet.sol\":3070:3089  isOwner[_owners[i]] */\n  and\n  dup3\n  mstore\n  dup2\n  add\n  swap2\n  swap1\n  swap2\n  mstore\n  0x40\n  add\n  0x0\n  keccak256\n    /* \"MultiSigWallet.sol\":3070:3096  isOwner[_owners[i]] = true */\n  dup1\n  sload\n  not(0xff)\n  and\n  swap2\n  iszero\n  iszero\n  swap2\n  swap1\n  swap2\n  or\n  swap1\n  sstore\n  0x1\n    /* \"MultiSigWallet.sol\":2989:2992  i++ */\n  swap3\n  swap1\n  swap3\n  add\n  swap2\n    /* \"MultiSigWallet.sol\":2956:3107  for (uint i=0; i<_owners.length; i++) {... */\n  jump(tag_10)\ntag_11:\n    /* \"MultiSigWallet.sol\":3116:3132  owners = _owners */\n  dup5\n  mload\n  tag_18\n  swap1\n    /* \"MultiSigWallet.sol\":3116:3122  owners */\n  0x3\n  swap1\n    /* \"MultiSigWallet.sol\":3116:3132  owners = _owners */\n  0x20\n  dup9\n  add\n  swap1\n  jump\t// in(tag_19)\ntag_18:\n  pop\n  pop\n  pop\n    /* \"MultiSigWallet.sol\":3142:3150  required */\n  0x4\n    /* \"MultiSigWallet.sol\":3142:3162  required = _required */\n  swap2\n  swap1\n  swap2\n  sstore\n  pop\n  pop\n    /* \"MultiSigWalletWithDailyLimit.sol\":1007:1017  dailyLimit */\n  0x6\n    /* \"MultiSigWalletWithDailyLimit.sol\":1007:1031  dailyLimit = _dailyLimit */\n  sstore\n  pop\n    /* \"MultiSigWalletWithDailyLimit.sol\":228:3258  contract MultiSigWalletWithDailyLimit is MultiSigWallet {... */\n  tag_21\n  swap1\n  pop\n  jump\ntag_19:\n  dup3\n  dup1\n  sload\n  dup3\n  dup3\n  sstore\n  swap1\n  0x0\n  mstore\n  keccak256(0x0, 0x20)\n  swap1\n  dup2\n  add\n  swap3\n  dup3\n  iszero\n  tag_24\n  jumpi\n  swap2\n  0x20\n  mul\n  dup3\n  add\ntag_23:\n  dup3\n  dup2\n  gt\n  iszero\n  tag_24\n  jumpi\n  dup3\n  mload\n  dup3\n  sload\n  not(sub(exp(0x2, 0xa0), 0x1))\n  and\n  sub(exp(0x2, 0xa0), 0x1)\n  swap1\n  swap2\n  and\n  or\n  dup3\n  sstore\n  0x20\n  swap1\n  swap3\n  add\n  swap2\n  0x1\n  swap1\n  swap2\n  add\n  swap1\n  jump(tag_23)\ntag_24:\n  pop\n  tag_25\n  swap3\n  swap2\n  pop\n  jump\t// in(tag_26)\ntag_25:\n  pop\n  swap1\n  jump\t// out\ntag_26:\n  tag_27\n  swap2\n  swap1\ntag_28:\n  dup1\n  dup3\n  gt\n  iszero\n  tag_25\n  jumpi\n  dup1\n  sload\n  not(sub(exp(0x2, 0xa0), 0x1))\n  and\n  dup2\n  sstore\n  0x1\n  add\n  jump(tag_28)\ntag_27:\n  swap1\n  jump\t// out\ntag_21:\n  dataSize(sub_0)\n  dup1\n  dataOffset(sub_0)\n  0x0\n  codecopy\n  0x0\n  return\nstop\n\nsub_0: assembly {\n        /* \"MultiSigWalletWithDailyLimit.sol\":228:3258  contract MultiSigWalletWithDailyLimit is MultiSigWallet {... */\n      mstore(0x40, 0x80)\n      jumpi(tag_1, lt(calldatasize, 0x4))\n      and(div(calldataload(0x0), 0x100000000000000000000000000000000000000000000000000000000), 0xffffffff)\n      0x25e7c27\n      dup2\n      eq\n      tag_2\n      jumpi\n      dup1\n      0x173825d9\n      eq\n      tag_3\n      jumpi\n      dup1\n      0x20ea8d86\n      eq\n      tag_4\n      jumpi\n      dup1\n      0x2f54bf6e\n      eq\n      tag_5\n      jumpi\n      dup1\n      0x3411c81c\n      eq\n      tag_6\n      jumpi\n      dup1\n      0x4bc9fdc2\n      eq\n      tag_7\n      jumpi\n      dup1\n      0x54741525\n      eq\n      tag_8\n      jumpi\n      dup1\n      0x67eeba0c\n      eq\n      tag_9\n      jumpi\n      dup1\n      0x6b0c932d\n      eq\n      tag_10\n      jumpi\n      dup1\n      0x7065cb48\n      eq\n      tag_11\n      jumpi\n      dup1\n      0x784547a7\n      eq\n      tag_12\n      jumpi\n      dup1\n      0x8b51d13f\n      eq\n      tag_13\n      jumpi\n      dup1\n      0x9ace38c2\n      eq\n      tag_14\n      jumpi\n      dup1\n      0xa0e67e2b\n      eq\n      tag_15\n      jumpi\n      dup1\n      0xa8abe69a\n      eq\n      tag_16\n      jumpi\n      dup1\n      0xb5dc40c3\n      eq\n      tag_17\n      jumpi\n      dup1\n      0xb77bf600\n      eq\n      tag_18\n      jumpi\n      dup1\n      0xba51a6df\n      eq\n      tag_19\n      jumpi\n      dup1\n      0xc01a8c84\n      eq\n      tag_20\n      jumpi\n      dup1\n      0xc6427474\n      eq\n      tag_21\n      jumpi\n      dup1\n      0xcea08621\n      eq\n      tag_22\n      jumpi\n      dup1\n      0xd74f8edd\n      eq\n      tag_23\n      jumpi\n      dup1\n      0xdc8452cd\n      eq\n      tag_24\n      jumpi\n      dup1\n      0xe20056e6\n      eq\n      tag_25\n      jumpi\n      dup1\n      0xee22610b\n      eq\n      tag_26\n      jumpi\n      dup1\n      0xf059cf2b\n      eq\n      tag_27\n      jumpi\n    tag_1:\n        /* \"MultiSigWallet.sol\":2521:2522  0 */\n      0x0\n        /* \"MultiSigWallet.sol\":2509:2518  msg.value */\n      callvalue\n        /* \"MultiSigWallet.sol\":2509:2522  msg.value > 0 */\n      gt\n        /* \"MultiSigWallet.sol\":2505:2566  if (msg.value > 0)... */\n      iszero\n      tag_30\n      jumpi\n        /* \"MultiSigWallet.sol\":2536:2566  Deposit(msg.sender, msg.value) */\n      0x40\n      dup1\n      mload\n        /* \"MultiSigWallet.sol\":2556:2565  msg.value */\n      callvalue\n        /* \"MultiSigWallet.sol\":2536:2566  Deposit(msg.sender, msg.value) */\n      dup2\n      mstore\n      swap1\n      mload\n        /* \"MultiSigWallet.sol\":2544:2554  msg.sender */\n      caller\n      swap2\n        /* \"MultiSigWallet.sol\":2536:2566  Deposit(msg.sender, msg.value) */\n      0xe1fffcc4923d04b559f4d29a8bfc6cda04eb5b0d3c460751c2402c5c5cc9109c\n      swap2\n      swap1\n      dup2\n      swap1\n      sub\n      0x20\n      add\n      swap1\n      log2\n        /* \"MultiSigWallet.sol\":2505:2566  if (msg.value > 0)... */\n    tag_30:\n        /* \"MultiSigWalletWithDailyLimit.sol\":228:3258  contract MultiSigWalletWithDailyLimit is MultiSigWallet {... */\n      stop\n        /* \"MultiSigWallet.sol\":1031:1054  address[] public owners */\n    tag_2:\n      callvalue\n        /* \"--CODEGEN--\":8:17   */\n      dup1\n        /* \"--CODEGEN--\":5:7   */\n      iszero\n      tag_31\n      jumpi\n        /* \"--CODEGEN--\":30:31   */\n      0x0\n        /* \"--CODEGEN--\":27:28   */\n      dup1\n        /* \"--CODEGEN--\":20:32   */\n      revert\n        /* \"--CODEGEN--\":5:7   */\n    tag_31:\n      pop\n        /* \"MultiSigWallet.sol\":1031:1054  address[] public owners */\n      tag_32\n      calldataload(0x4)\n      jump(tag_33)\n    tag_32:\n      0x40\n      dup1\n      mload\n      sub(exp(0x2, 0xa0), 0x1)\n      swap1\n      swap3\n      and\n      dup3\n      mstore\n      mload\n      swap1\n      dup2\n      swap1\n      sub\n      0x20\n      add\n      swap1\n      return\n        /* \"MultiSigWallet.sol\":3696:4156  function removeOwner(address owner)... */\n    tag_3:\n      callvalue\n        /* \"--CODEGEN--\":8:17   */\n      dup1\n        /* \"--CODEGEN--\":5:7   */\n      iszero\n      tag_34\n      jumpi\n        /* \"--CODEGEN--\":30:31   */\n      0x0\n        /* \"--CODEGEN--\":27:28   */\n      dup1\n        /* \"--CODEGEN--\":20:32   */\n      revert\n        /* \"--CODEGEN--\":5:7   */\n    tag_34:\n      pop\n        /* \"MultiSigWallet.sol\":3696:4156  function removeOwner(address owner)... */\n      tag_30\n      and(calldataload(0x4), sub(exp(0x2, 0xa0), 0x1))\n      jump(tag_36)\n        /* \"MultiSigWallet.sol\":6262:6553  function revokeConfirmation(uint transactionId)... */\n    tag_4:\n      callvalue\n        /* \"--CODEGEN--\":8:17   */\n      dup1\n        /* \"--CODEGEN--\":5:7   */\n      iszero\n      tag_37\n      jumpi\n        /* \"--CODEGEN--\":30:31   */\n      0x0\n        /* \"--CODEGEN--\":27:28   */\n      dup1\n        /* \"--CODEGEN--\":20:32   */\n      revert\n        /* \"--CODEGEN--\":5:7   */\n    tag_37:\n      pop\n        /* \"MultiSigWallet.sol\":6262:6553  function revokeConfirmation(uint transactionId)... */\n      tag_30\n      calldataload(0x4)\n      jump(tag_39)\n        /* \"MultiSigWallet.sol\":985:1025  mapping (address => bool) public isOwner */\n    tag_5:\n      callvalue\n        /* \"--CODEGEN--\":8:17   */\n      dup1\n        /* \"--CODEGEN--\":5:7   */\n      iszero\n      tag_40\n      jumpi\n        /* \"--CODEGEN--\":30:31   */\n      0x0\n        /* \"--CODEGEN--\":27:28   */\n      dup1\n        /* \"--CODEGEN--\":20:32   */\n      revert\n        /* \"--CODEGEN--\":5:7   */\n    tag_40:\n      pop\n        /* \"MultiSigWallet.sol\":985:1025  mapping (address => bool) public isOwner */\n      tag_41\n      and(calldataload(0x4), sub(exp(0x2, 0xa0), 0x1))\n      jump(tag_42)\n    tag_41:\n      0x40\n      dup1\n      mload\n      swap2\n      iszero\n      iszero\n      dup3\n      mstore\n      mload\n      swap1\n      dup2\n      swap1\n      sub\n      0x20\n      add\n      swap1\n      return\n        /* \"MultiSigWallet.sol\":915:979  mapping (uint => mapping (address => bool)) public confirmations */\n    tag_6:\n      callvalue\n        /* \"--CODEGEN--\":8:17   */\n      dup1\n        /* \"--CODEGEN--\":5:7   */\n      iszero\n      tag_43\n      jumpi\n        /* \"--CODEGEN--\":30:31   */\n      0x0\n        /* \"--CODEGEN--\":27:28   */\n      dup1\n        /* \"--CODEGEN--\":20:32   */\n      revert\n        /* \"--CODEGEN--\":5:7   */\n    tag_43:\n      pop\n        /* \"MultiSigWallet.sol\":915:979  mapping (uint => mapping (address => bool)) public confirmations */\n      tag_41\n      calldataload(0x4)\n      and(calldataload(0x24), sub(exp(0x2, 0xa0), 0x1))\n      jump(tag_45)\n        /* \"MultiSigWalletWithDailyLimit.sol\":2995:3256  function calcMaxWithdraw()... */\n    tag_7:\n      callvalue\n        /* \"--CODEGEN--\":8:17   */\n      dup1\n        /* \"--CODEGEN--\":5:7   */\n      iszero\n      tag_46\n      jumpi\n        /* \"--CODEGEN--\":30:31   */\n      0x0\n        /* \"--CODEGEN--\":27:28   */\n      dup1\n        /* \"--CODEGEN--\":20:32   */\n      revert\n        /* \"--CODEGEN--\":5:7   */\n    tag_46:\n        /* \"MultiSigWalletWithDailyLimit.sol\":2995:3256  function calcMaxWithdraw()... */\n      pop\n      tag_47\n      jump(tag_48)\n    tag_47:\n      0x40\n      dup1\n      mload\n      swap2\n      dup3\n      mstore\n      mload\n      swap1\n      dup2\n      swap1\n      sub\n      0x20\n      add\n      swap1\n      return\n        /* \"MultiSigWallet.sol\":10516:10835  function getTransactionCount(bool pending, bool executed)... */\n    tag_8:\n      callvalue\n        /* \"--CODEGEN--\":8:17   */\n      dup1\n        /* \"--CODEGEN--\":5:7   */\n      iszero\n      tag_49\n      jumpi\n        /* \"--CODEGEN--\":30:31   */\n      0x0\n        /* \"--CODEGEN--\":27:28   */\n      dup1\n        /* \"--CODEGEN--\":20:32   */\n      revert\n        /* \"--CODEGEN--\":5:7   */\n    tag_49:\n      pop\n        /* \"MultiSigWallet.sol\":10516:10835  function getTransactionCount(bool pending, bool executed)... */\n      tag_47\n      iszero(iszero(calldataload(0x4)))\n      iszero(iszero(calldataload(0x24)))\n      jump(tag_51)\n        /* \"MultiSigWalletWithDailyLimit.sol\":398:420  uint public dailyLimit */\n    tag_9:\n      callvalue\n        /* \"--CODEGEN--\":8:17   */\n      dup1\n        /* \"--CODEGEN--\":5:7   */\n      iszero\n      tag_52\n      jumpi\n        /* \"--CODEGEN--\":30:31   */\n      0x0\n        /* \"--CODEGEN--\":27:28   */\n      dup1\n        /* \"--CODEGEN--\":20:32   */\n      revert\n        /* \"--CODEGEN--\":5:7   */\n    tag_52:\n        /* \"MultiSigWalletWithDailyLimit.sol\":398:420  uint public dailyLimit */\n      pop\n      tag_47\n      jump(tag_54)\n        /* \"MultiSigWalletWithDailyLimit.sol\":426:445  uint public lastDay */\n    tag_10:\n      callvalue\n        /* \"--CODEGEN--\":8:17   */\n      dup1\n        /* \"--CODEGEN--\":5:7   */\n      iszero\n      tag_55\n      jumpi\n        /* \"--CODEGEN--\":30:31   */\n      0x0\n        /* \"--CODEGEN--\":27:28   */\n      dup1\n        /* \"--CODEGEN--\":20:32   */\n      revert\n        /* \"--CODEGEN--\":5:7   */\n    tag_55:\n        /* \"MultiSigWalletWithDailyLimit.sol\":426:445  uint public lastDay */\n      pop\n      tag_47\n      jump(tag_57)\n        /* \"MultiSigWallet.sol\":3296:3573  function addOwner(address owner)... */\n    tag_11:\n      callvalue\n        /* \"--CODEGEN--\":8:17   */\n      dup1\n        /* \"--CODEGEN--\":5:7   */\n      iszero\n      tag_58\n      jumpi\n        /* \"--CODEGEN--\":30:31   */\n      0x0\n        /* \"--CODEGEN--\":27:28   */\n      dup1\n        /* \"--CODEGEN--\":20:32   */\n      revert\n        /* \"--CODEGEN--\":5:7   */\n    tag_58:\n      pop\n        /* \"MultiSigWallet.sol\":3296:3573  function addOwner(address owner)... */\n      tag_30\n      and(calldataload(0x4), sub(exp(0x2, 0xa0), 0x1))\n      jump(tag_60)\n        /* \"MultiSigWallet.sol\":8684:9021  function isConfirmed(uint transactionId)... */\n    tag_12:\n      callvalue\n        /* \"--CODEGEN--\":8:17   */\n      dup1\n        /* \"--CODEGEN--\":5:7   */\n      iszero\n      tag_61\n      jumpi\n        /* \"--CODEGEN--\":30:31   */\n      0x0\n        /* \"--CODEGEN--\":27:28   */\n      dup1\n        /* \"--CODEGEN--\":20:32   */\n      revert\n        /* \"--CODEGEN--\":5:7   */\n    tag_61:\n      pop\n        /* \"MultiSigWallet.sol\":8684:9021  function isConfirmed(uint transactionId)... */\n      tag_41\n      calldataload(0x4)\n      jump(tag_63)\n        /* \"MultiSigWallet.sol\":10002:10254  function getConfirmationCount(uint transactionId)... */\n    tag_13:\n      callvalue\n        /* \"--CODEGEN--\":8:17   */\n      dup1\n        /* \"--CODEGEN--\":5:7   */\n      iszero\n      tag_64\n      jumpi\n        /* \"--CODEGEN--\":30:31   */\n      0x0\n        /* \"--CODEGEN--\":27:28   */\n      dup1\n        /* \"--CODEGEN--\":20:32   */\n      revert\n        /* \"--CODEGEN--\":5:7   */\n    tag_64:\n      pop\n        /* \"MultiSigWallet.sol\":10002:10254  function getConfirmationCount(uint transactionId)... */\n      tag_47\n      calldataload(0x4)\n      jump(tag_66)\n        /* \"MultiSigWallet.sol\":860:909  mapping (uint => Transaction) public transactions */\n    tag_14:\n      callvalue\n        /* \"--CODEGEN--\":8:17   */\n      dup1\n        /* \"--CODEGEN--\":5:7   */\n      iszero\n      tag_67\n      jumpi\n        /* \"--CODEGEN--\":30:31   */\n      0x0\n        /* \"--CODEGEN--\":27:28   */\n      dup1\n        /* \"--CODEGEN--\":20:32   */\n      revert\n        /* \"--CODEGEN--\":5:7   */\n    tag_67:\n      pop\n        /* \"MultiSigWallet.sol\":860:909  mapping (uint => Transaction) public transactions */\n      tag_68\n      calldataload(0x4)\n      jump(tag_69)\n    tag_68:\n      mload(0x40)\n      dup1\n      dup6\n      sub(exp(0x2, 0xa0), 0x1)\n      and\n      sub(exp(0x2, 0xa0), 0x1)\n      and\n      dup2\n      mstore\n      0x20\n      add\n      dup5\n      dup2\n      mstore\n      0x20\n      add\n      dup1\n      0x20\n      add\n      dup4\n      iszero\n      iszero\n      iszero\n      iszero\n      dup2\n      mstore\n      0x20\n      add\n      dup3\n      dup2\n      sub\n      dup3\n      mstore\n      dup5\n      dup2\n      dup2\n      mload\n      dup2\n      mstore\n      0x20\n      add\n      swap2\n      pop\n      dup1\n      mload\n      swap1\n      0x20\n      add\n      swap1\n      dup1\n      dup4\n      dup4\n        /* \"--CODEGEN--\":23:24   */\n      0x0\n        /* \"--CODEGEN--\":8:108   */\n    tag_70:\n        /* \"--CODEGEN--\":33:36   */\n      dup4\n        /* \"--CODEGEN--\":30:31   */\n      dup2\n        /* \"--CODEGEN--\":27:37   */\n      lt\n        /* \"--CODEGEN--\":8:108   */\n      iszero\n      tag_71\n      jumpi\n        /* \"--CODEGEN--\":90:101   */\n      dup2\n      dup2\n      add\n        /* \"--CODEGEN--\":84:102   */\n      mload\n        /* \"--CODEGEN--\":71:82   */\n      dup4\n      dup3\n      add\n        /* \"--CODEGEN--\":64:103   */\n      mstore\n        /* \"--CODEGEN--\":52:54   */\n      0x20\n        /* \"--CODEGEN--\":45:55   */\n      add\n        /* \"--CODEGEN--\":8:108   */\n      jump(tag_70)\n    tag_71:\n        /* \"--CODEGEN--\":12:26   */\n      pop\n        /* \"MultiSigWallet.sol\":860:909  mapping (uint => Transaction) public transactions */\n      pop\n      pop\n      pop\n      swap1\n      pop\n      swap1\n      dup2\n      add\n      swap1\n      0x1f\n      and\n      dup1\n      iszero\n      tag_73\n      jumpi\n      dup1\n      dup3\n      sub\n      dup1\n      mload\n      0x1\n      dup4\n      0x20\n      sub\n      0x100\n      exp\n      sub\n      not\n      and\n      dup2\n      mstore\n      0x20\n      add\n      swap2\n      pop\n    tag_73:\n      pop\n      swap6\n      pop\n      pop\n      pop\n      pop\n      pop\n      pop\n      mload(0x40)\n      dup1\n      swap2\n      sub\n      swap1\n      return\n        /* \"MultiSigWallet.sol\":10919:11034  function getOwners()... */\n    tag_15:\n      callvalue\n        /* \"--CODEGEN--\":8:17   */\n      dup1\n        /* \"--CODEGEN--\":5:7   */\n      iszero\n      tag_74\n      jumpi\n        /* \"--CODEGEN--\":30:31   */\n      0x0\n        /* \"--CODEGEN--\":27:28   */\n      dup1\n        /* \"--CODEGEN--\":20:32   */\n      revert\n        /* \"--CODEGEN--\":5:7   */\n    tag_74:\n        /* \"MultiSigWallet.sol\":10919:11034  function getOwners()... */\n      pop\n      tag_75\n      jump(tag_76)\n    tag_75:\n      0x40\n      dup1\n      mload\n      0x20\n      dup1\n      dup3\n      mstore\n      dup4\n      mload\n      dup2\n      dup4\n      add\n      mstore\n      dup4\n      mload\n      swap2\n      swap3\n      dup4\n      swap3\n      swap1\n      dup4\n      add\n      swap2\n      dup6\n      dup2\n      add\n      swap2\n      mul\n      dup1\n      dup4\n      dup4\n      0x0\n        /* \"--CODEGEN--\":8:108   */\n    tag_77:\n        /* \"--CODEGEN--\":33:36   */\n      dup4\n        /* \"--CODEGEN--\":30:31   */\n      dup2\n        /* \"--CODEGEN--\":27:37   */\n      lt\n        /* \"--CODEGEN--\":8:108   */\n      iszero\n      tag_78\n      jumpi\n        /* \"--CODEGEN--\":90:101   */\n      dup2\n      dup2\n      add\n        /* \"--CODEGEN--\":84:102   */\n      mload\n        /* \"--CODEGEN--\":71:82   */\n      dup4\n      dup3\n      add\n        /* \"--CODEGEN--\":64:103   */\n      mstore\n        /* \"--CODEGEN--\":52:54   */\n      0x20\n        /* \"--CODEGEN--\":45:55   */\n      add\n        /* \"--CODEGEN--\":8:108   */\n      jump(tag_77)\n    tag_78:\n        /* \"--CODEGEN--\":12:26   */\n      pop\n        /* \"MultiSigWallet.sol\":10919:11034  function getOwners()... */\n      pop\n      pop\n      pop\n      swap1\n      pop\n      add\n      swap3\n      pop\n      pop\n      pop\n      mload(0x40)\n      dup1\n      swap2\n      sub\n      swap1\n      return\n        /* \"MultiSigWallet.sol\":12137:12813  function getTransactionIds(uint from, uint to, bool pending, bool executed)... */\n    tag_16:\n      callvalue\n        /* \"--CODEGEN--\":8:17   */\n      dup1\n        /* \"--CODEGEN--\":5:7   */\n      iszero\n      tag_80\n      jumpi\n        /* \"--CODEGEN--\":30:31   */\n      0x0\n        /* \"--CODEGEN--\":27:28   */\n      dup1\n        /* \"--CODEGEN--\":20:32   */\n      revert\n        /* \"--CODEGEN--\":5:7   */\n    tag_80:\n      pop\n        /* \"MultiSigWallet.sol\":12137:12813  function getTransactionIds(uint from, uint to, bool pending, bool executed)... */\n      tag_75\n      calldataload(0x4)\n      calldataload(0x24)\n      iszero(iszero(calldataload(0x44)))\n      iszero(iszero(calldataload(0x64)))\n      jump(tag_82)\n        /* \"MultiSigWallet.sol\":11213:11788  function getConfirmations(uint transactionId)... */\n    tag_17:\n      callvalue\n        /* \"--CODEGEN--\":8:17   */\n      dup1\n        /* \"--CODEGEN--\":5:7   */\n      iszero\n      tag_86\n      jumpi\n        /* \"--CODEGEN--\":30:31   */\n      0x0\n        /* \"--CODEGEN--\":27:28   */\n      dup1\n        /* \"--CODEGEN--\":20:32   */\n      revert\n        /* \"--CODEGEN--\":5:7   */\n    tag_86:\n      pop\n        /* \"MultiSigWallet.sol\":11213:11788  function getConfirmations(uint transactionId)... */\n      tag_75\n      calldataload(0x4)\n      jump(tag_88)\n        /* \"MultiSigWallet.sol\":1086:1114  uint public transactionCount */\n    tag_18:\n      callvalue\n        /* \"--CODEGEN--\":8:17   */\n      dup1\n        /* \"--CODEGEN--\":5:7   */\n      iszero\n      tag_92\n      jumpi\n        /* \"--CODEGEN--\":30:31   */\n      0x0\n        /* \"--CODEGEN--\":27:28   */\n      dup1\n        /* \"--CODEGEN--\":20:32   */\n      revert\n        /* \"--CODEGEN--\":5:7   */\n    tag_92:\n        /* \"MultiSigWallet.sol\":1086:1114  uint public transactionCount */\n      pop\n      tag_47\n      jump(tag_94)\n        /* \"MultiSigWallet.sol\":4978:5185  function changeRequirement(uint _required)... */\n    tag_19:\n      callvalue\n        /* \"--CODEGEN--\":8:17   */\n      dup1\n        /* \"--CODEGEN--\":5:7   */\n      iszero\n      tag_95\n      jumpi\n        /* \"--CODEGEN--\":30:31   */\n      0x0\n        /* \"--CODEGEN--\":27:28   */\n      dup1\n        /* \"--CODEGEN--\":20:32   */\n      revert\n        /* \"--CODEGEN--\":5:7   */\n    tag_95:\n      pop\n        /* \"MultiSigWallet.sol\":4978:5185  function changeRequirement(uint _required)... */\n      tag_30\n      calldataload(0x4)\n      jump(tag_97)\n        /* \"MultiSigWallet.sol\":5794:6138  function confirmTransaction(uint transactionId)... */\n    tag_20:\n      callvalue\n        /* \"--CODEGEN--\":8:17   */\n      dup1\n        /* \"--CODEGEN--\":5:7   */\n      iszero\n      tag_98\n      jumpi\n        /* \"--CODEGEN--\":30:31   */\n      0x0\n        /* \"--CODEGEN--\":27:28   */\n      dup1\n        /* \"--CODEGEN--\":20:32   */\n      revert\n        /* \"--CODEGEN--\":5:7   */\n    tag_98:\n      pop\n        /* \"MultiSigWallet.sol\":5794:6138  function confirmTransaction(uint transactionId)... */\n      tag_30\n      calldataload(0x4)\n      jump(tag_100)\n        /* \"MultiSigWallet.sol\":5444:5688  function submitTransaction(address destination, uint value, bytes data)... */\n    tag_21:\n      callvalue\n        /* \"--CODEGEN--\":8:17   */\n      dup1\n        /* \"--CODEGEN--\":5:7   */\n      iszero\n      tag_101\n      jumpi\n        /* \"--CODEGEN--\":30:31   */\n      0x0\n        /* \"--CODEGEN--\":27:28   */\n      dup1\n        /* \"--CODEGEN--\":20:32   */\n      revert\n        /* \"--CODEGEN--\":5:7   */\n    tag_101:\n      pop\n        /* \"MultiSigWallet.sol\":5444:5688  function submitTransaction(address destination, uint value, bytes data)... */\n      0x40\n      dup1\n      mload\n      0x20\n      0x4\n      calldataload(0x44)\n      dup2\n      dup2\n      add\n      calldataload\n      0x1f\n      dup2\n      add\n      dup5\n      swap1\n      div\n      dup5\n      mul\n      dup6\n      add\n      dup5\n      add\n      swap1\n      swap6\n      mstore\n      dup5\n      dup5\n      mstore\n      tag_47\n      swap5\n      dup3\n      calldataload\n      sub(exp(0x2, 0xa0), 0x1)\n      and\n      swap5\n      0x24\n      dup1\n      calldataload\n      swap6\n      calldatasize\n      swap6\n      swap5\n      0x64\n      swap5\n      swap3\n      add\n      swap2\n      swap1\n      dup2\n      swap1\n      dup5\n      add\n      dup4\n      dup3\n      dup1\n      dup3\n      dup5\n      calldatacopy\n      pop\n      swap5\n      swap8\n      pop\n      tag_103\n      swap7\n      pop\n      pop\n      pop\n      pop\n      pop\n      pop\n      pop\n      jump\n        /* \"MultiSigWalletWithDailyLimit.sol\":1171:1333  function changeDailyLimit(uint _dailyLimit)... */\n    tag_22:\n      callvalue\n        /* \"--CODEGEN--\":8:17   */\n      dup1\n        /* \"--CODEGEN--\":5:7   */\n      iszero\n      tag_104\n      jumpi\n        /* \"--CODEGEN--\":30:31   */\n      0x0\n        /* \"--CODEGEN--\":27:28   */\n      dup1\n        /* \"--CODEGEN--\":20:32   */\n      revert\n        /* \"--CODEGEN--\":5:7   */\n    tag_104:\n      pop\n        /* \"MultiSigWalletWithDailyLimit.sol\":1171:1333  function changeDailyLimit(uint _dailyLimit)... */\n      tag_30\n      calldataload(0x4)\n      jump(tag_106)\n        /* \"MultiSigWallet.sol\":781:822  uint constant public MAX_OWNER_COUNT = 50 */\n    tag_23:\n      callvalue\n        /* \"--CODEGEN--\":8:17   */\n      dup1\n        /* \"--CODEGEN--\":5:7   */\n      iszero\n      tag_107\n      jumpi\n        /* \"--CODEGEN--\":30:31   */\n      0x0\n        /* \"--CODEGEN--\":27:28   */\n      dup1\n        /* \"--CODEGEN--\":20:32   */\n      revert\n        /* \"--CODEGEN--\":5:7   */\n    tag_107:\n        /* \"MultiSigWallet.sol\":781:822  uint constant public MAX_OWNER_COUNT = 50 */\n      pop\n      tag_47\n      jump(tag_109)\n        /* \"MultiSigWallet.sol\":1060:1080  uint public required */\n    tag_24:\n      callvalue\n        /* \"--CODEGEN--\":8:17   */\n      dup1\n        /* \"--CODEGEN--\":5:7   */\n      iszero\n      tag_110\n      jumpi\n        /* \"--CODEGEN--\":30:31   */\n      0x0\n        /* \"--CODEGEN--\":27:28   */\n      dup1\n        /* \"--CODEGEN--\":20:32   */\n      revert\n        /* \"--CODEGEN--\":5:7   */\n    tag_110:\n        /* \"MultiSigWallet.sol\":1060:1080  uint public required */\n      pop\n      tag_47\n      jump(tag_112)\n        /* \"MultiSigWallet.sol\":4358:4807  function replaceOwner(address owner, address newOwner)... */\n    tag_25:\n      callvalue\n        /* \"--CODEGEN--\":8:17   */\n      dup1\n        /* \"--CODEGEN--\":5:7   */\n      iszero\n      tag_113\n      jumpi\n        /* \"--CODEGEN--\":30:31   */\n      0x0\n        /* \"--CODEGEN--\":27:28   */\n      dup1\n        /* \"--CODEGEN--\":20:32   */\n      revert\n        /* \"--CODEGEN--\":5:7   */\n    tag_113:\n      pop\n        /* \"MultiSigWallet.sol\":4358:4807  function replaceOwner(address owner, address newOwner)... */\n      tag_30\n      sub(exp(0x2, 0xa0), 0x1)\n      calldataload(0x4)\n      dup2\n      and\n      swap1\n      calldataload(0x24)\n      and\n      jump(tag_115)\n        /* \"MultiSigWalletWithDailyLimit.sol\":1495:2314  function executeTransaction(uint transactionId)... */\n    tag_26:\n      callvalue\n        /* \"--CODEGEN--\":8:17   */\n      dup1\n        /* \"--CODEGEN--\":5:7   */\n      iszero\n      tag_116\n      jumpi\n        /* \"--CODEGEN--\":30:31   */\n      0x0\n        /* \"--CODEGEN--\":27:28   */\n      dup1\n        /* \"--CODEGEN--\":20:32   */\n      revert\n        /* \"--CODEGEN--\":5:7   */\n    tag_116:\n      pop\n        /* \"MultiSigWalletWithDailyLimit.sol\":1495:2314  function executeTransaction(uint transactionId)... */\n      tag_30\n      calldataload(0x4)\n      jump(tag_118)\n        /* \"MultiSigWalletWithDailyLimit.sol\":451:473  uint public spentToday */\n    tag_27:\n      callvalue\n        /* \"--CODEGEN--\":8:17   */\n      dup1\n        /* \"--CODEGEN--\":5:7   */\n      iszero\n      tag_119\n      jumpi\n        /* \"--CODEGEN--\":30:31   */\n      0x0\n        /* \"--CODEGEN--\":27:28   */\n      dup1\n        /* \"--CODEGEN--\":20:32   */\n      revert\n        /* \"--CODEGEN--\":5:7   */\n    tag_119:\n        /* \"MultiSigWalletWithDailyLimit.sol\":451:473  uint public spentToday */\n      pop\n      tag_47\n      jump(tag_121)\n        /* \"MultiSigWallet.sol\":1031:1054  address[] public owners */\n    tag_33:\n      0x3\n      dup1\n      sload\n      dup3\n      swap1\n      dup2\n      lt\n      tag_122\n      jumpi\n      invalid\n    tag_122:\n      0x0\n      swap2\n      dup3\n      mstore\n      0x20\n      swap1\n      swap2\n      keccak256\n      add\n      sload\n      sub(exp(0x2, 0xa0), 0x1)\n      and\n      swap1\n      pop\n      dup2\n      jump\t// out\n        /* \"MultiSigWallet.sol\":3696:4156  function removeOwner(address owner)... */\n    tag_36:\n        /* \"MultiSigWallet.sol\":3844:3850  uint i */\n      0x0\n        /* \"MultiSigWallet.sol\":1318:1328  msg.sender */\n      caller\n        /* \"MultiSigWallet.sol\":1340:1344  this */\n      address\n        /* \"MultiSigWallet.sol\":1318:1345  msg.sender == address(this) */\n      eq\n        /* \"MultiSigWallet.sol\":1310:1346  require(msg.sender == address(this)) */\n      tag_125\n      jumpi\n      0x0\n      dup1\n      revert\n    tag_125:\n      sub(exp(0x2, 0xa0), 0x1)\n        /* \"MultiSigWallet.sol\":1524:1538  isOwner[owner] */\n      dup3\n      and\n      0x0\n      swap1\n      dup2\n      mstore\n        /* \"MultiSigWallet.sol\":1524:1531  isOwner */\n      0x2\n        /* \"MultiSigWallet.sol\":1524:1538  isOwner[owner] */\n      0x20\n      mstore\n      0x40\n      swap1\n      keccak256\n      sload\n        /* \"MultiSigWallet.sol\":3786:3791  owner */\n      dup3\n      swap1\n        /* \"MultiSigWallet.sol\":1524:1538  isOwner[owner] */\n      0xff\n      and\n        /* \"MultiSigWallet.sol\":1516:1539  require(isOwner[owner]) */\n      iszero\n      iszero\n      tag_127\n      jumpi\n      0x0\n      dup1\n      revert\n    tag_127:\n      sub(exp(0x2, 0xa0), 0x1)\n        /* \"MultiSigWallet.sol\":3807:3821  isOwner[owner] */\n      dup4\n      and\n        /* \"MultiSigWallet.sol\":3824:3829  false */\n      0x0\n        /* \"MultiSigWallet.sol\":3807:3821  isOwner[owner] */\n      swap1\n      dup2\n      mstore\n        /* \"MultiSigWallet.sol\":3807:3814  isOwner */\n      0x2\n        /* \"MultiSigWallet.sol\":3807:3821  isOwner[owner] */\n      0x20\n      mstore\n      0x40\n      dup2\n      keccak256\n        /* \"MultiSigWallet.sol\":3807:3829  isOwner[owner] = false */\n      dup1\n      sload\n      not(0xff)\n      and\n      swap1\n      sstore\n        /* \"MultiSigWallet.sol\":3824:3829  false */\n      swap2\n      pop\n        /* \"MultiSigWallet.sol\":3839:4009  for (uint i=0; i<owners.length - 1; i++)... */\n    tag_129:\n        /* \"MultiSigWallet.sol\":3856:3862  owners */\n      0x3\n        /* \"MultiSigWallet.sol\":3856:3869  owners.length */\n      sload\n      not(0x0)\n        /* \"MultiSigWallet.sol\":3856:3873  owners.length - 1 */\n      add\n        /* \"MultiSigWallet.sol\":3854:3873  i<owners.length - 1 */\n      dup3\n      lt\n        /* \"MultiSigWallet.sol\":3839:4009  for (uint i=0; i<owners.length - 1; i++)... */\n      iszero\n      tag_130\n      jumpi\n        /* \"MultiSigWallet.sol\":3909:3914  owner */\n      dup3\n      sub(exp(0x2, 0xa0), 0x1)\n        /* \"MultiSigWallet.sol\":3896:3914  owners[i] == owner */\n      and\n        /* \"MultiSigWallet.sol\":3896:3902  owners */\n      0x3\n        /* \"MultiSigWallet.sol\":3903:3904  i */\n      dup4\n        /* \"MultiSigWallet.sol\":3896:3905  owners[i] */\n      dup2\n      sload\n      dup2\n      lt\n      iszero\n      iszero\n      tag_132\n      jumpi\n      invalid\n    tag_132:\n      0x0\n      swap2\n      dup3\n      mstore\n      0x20\n      swap1\n      swap2\n      keccak256\n      add\n      sload\n      sub(exp(0x2, 0xa0), 0x1)\n      and\n        /* \"MultiSigWallet.sol\":3896:3914  owners[i] == owner */\n      eq\n        /* \"MultiSigWallet.sol\":3892:4009  if (owners[i] == owner) {... */\n      iszero\n      tag_134\n      jumpi\n        /* \"MultiSigWallet.sol\":3946:3952  owners */\n      0x3\n        /* \"MultiSigWallet.sol\":3953:3966  owners.length */\n      dup1\n      sload\n      not(0x0)\n        /* \"MultiSigWallet.sol\":3953:3970  owners.length - 1 */\n      dup2\n      add\n      swap1\n        /* \"MultiSigWallet.sol\":3946:3971  owners[owners.length - 1] */\n      dup2\n      lt\n      tag_135\n      jumpi\n      invalid\n    tag_135:\n      0x0\n      swap2\n      dup3\n      mstore\n      0x20\n      swap1\n      swap2\n      keccak256\n      add\n      sload\n        /* \"MultiSigWallet.sol\":3934:3940  owners */\n      0x3\n        /* \"MultiSigWallet.sol\":3934:3943  owners[i] */\n      dup1\n      sload\n      sub(exp(0x2, 0xa0), 0x1)\n        /* \"MultiSigWallet.sol\":3946:3971  owners[owners.length - 1] */\n      swap1\n      swap3\n      and\n      swap2\n        /* \"MultiSigWallet.sol\":3941:3942  i */\n      dup5\n      swap1\n        /* \"MultiSigWallet.sol\":3934:3943  owners[i] */\n      dup2\n      lt\n      tag_137\n      jumpi\n      invalid\n    tag_137:\n      swap1\n      0x0\n      mstore\n      keccak256(0x0, 0x20)\n      add\n      0x0\n        /* \"MultiSigWallet.sol\":3934:3971  owners[i] = owners[owners.length - 1] */\n      0x100\n      exp\n      dup2\n      sload\n      dup2\n      sub(exp(0x2, 0xa0), 0x1)\n      mul\n      not\n      and\n      swap1\n      dup4\n      sub(exp(0x2, 0xa0), 0x1)\n      and\n      mul\n      or\n      swap1\n      sstore\n      pop\n        /* \"MultiSigWallet.sol\":3989:3994  break */\n      jump(tag_130)\n        /* \"MultiSigWallet.sol\":3892:4009  if (owners[i] == owner) {... */\n    tag_134:\n        /* \"MultiSigWallet.sol\":3875:3878  i++ */\n      0x1\n      swap1\n      swap2\n      add\n      swap1\n        /* \"MultiSigWallet.sol\":3839:4009  for (uint i=0; i<owners.length - 1; i++)... */\n      jump(tag_129)\n    tag_130:\n        /* \"MultiSigWallet.sol\":4018:4024  owners */\n      0x3\n        /* \"MultiSigWallet.sol\":4018:4036  owners.length -= 1 */\n      dup1\n      sload\n      not(0x0)\n      add\n      swap1\n      tag_139\n      swap1\n      dup3\n      jump\t// in(tag_140)\n    tag_139:\n      pop\n        /* \"MultiSigWallet.sol\":4061:4067  owners */\n      0x3\n        /* \"MultiSigWallet.sol\":4061:4074  owners.length */\n      sload\n        /* \"MultiSigWallet.sol\":4050:4058  required */\n      sload(0x4)\n        /* \"MultiSigWallet.sol\":4050:4074  required > owners.length */\n      gt\n        /* \"MultiSigWallet.sol\":4046:4120  if (required > owners.length)... */\n      iszero\n      tag_142\n      jumpi\n        /* \"MultiSigWallet.sol\":4106:4112  owners */\n      0x3\n        /* \"MultiSigWallet.sol\":4106:4119  owners.length */\n      sload\n        /* \"MultiSigWallet.sol\":4088:4120  changeRequirement(owners.length) */\n      tag_142\n      swap1\n        /* \"MultiSigWallet.sol\":4088:4105  changeRequirement */\n      tag_97\n        /* \"MultiSigWallet.sol\":4088:4120  changeRequirement(owners.length) */\n      jump\t// in\n    tag_142:\n        /* \"MultiSigWallet.sol\":4130:4149  OwnerRemoval(owner) */\n      mload(0x40)\n      sub(exp(0x2, 0xa0), 0x1)\n      dup5\n      and\n      swap1\n      0x8001553a916ef2f495d26a907cc54d96ed840d7bda71e73194bf5a9df7a76b90\n      swap1\n      0x0\n      swap1\n      log2\n        /* \"MultiSigWallet.sol\":1356:1357  _ */\n      pop\n        /* \"MultiSigWallet.sol\":3696:4156  function removeOwner(address owner)... */\n      pop\n      pop\n      jump\t// out\n        /* \"MultiSigWallet.sol\":6262:6553  function revokeConfirmation(uint transactionId)... */\n    tag_39:\n        /* \"MultiSigWallet.sol\":6345:6355  msg.sender */\n      caller\n        /* \"MultiSigWallet.sol\":1524:1538  isOwner[owner] */\n      0x0\n      dup2\n      dup2\n      mstore\n        /* \"MultiSigWallet.sol\":1524:1531  isOwner */\n      0x2\n        /* \"MultiSigWallet.sol\":1524:1538  isOwner[owner] */\n      0x20\n      mstore\n      0x40\n      swap1\n      keccak256\n      sload\n      0xff\n      and\n        /* \"MultiSigWallet.sol\":1516:1539  require(isOwner[owner]) */\n      iszero\n      iszero\n      tag_144\n      jumpi\n      0x0\n      dup1\n      revert\n    tag_144:\n        /* \"MultiSigWallet.sol\":1769:1797  confirmations[transactionId] */\n      0x0\n      dup3\n      dup2\n      mstore\n        /* \"MultiSigWallet.sol\":1769:1782  confirmations */\n      0x1\n        /* \"MultiSigWallet.sol\":1769:1797  confirmations[transactionId] */\n      0x20\n      swap1\n      dup2\n      mstore\n      0x40\n      dup1\n      dup4\n      keccak256\n        /* \"MultiSigWallet.sol\":6390:6400  msg.sender */\n      caller\n        /* \"MultiSigWallet.sol\":1769:1804  confirmations[transactionId][owner] */\n      dup1\n      dup6\n      mstore\n      swap3\n      mstore\n      swap1\n      swap2\n      keccak256\n      sload\n        /* \"MultiSigWallet.sol\":6375:6388  transactionId */\n      dup4\n      swap2\n        /* \"MultiSigWallet.sol\":6390:6400  msg.sender */\n      swap1\n        /* \"MultiSigWallet.sol\":1769:1804  confirmations[transactionId][owner] */\n      0xff\n      and\n        /* \"MultiSigWallet.sol\":1761:1805  require(confirmations[transactionId][owner]) */\n      iszero\n      iszero\n      tag_146\n      jumpi\n      0x0\n      dup1\n      revert\n    tag_146:\n        /* \"MultiSigWallet.sol\":2025:2037  transactions */\n      0x0\n        /* \"MultiSigWallet.sol\":2025:2052  transactions[transactionId] */\n      dup5\n      dup2\n      mstore\n      0x20\n      dup2\n      swap1\n      mstore\n      0x40\n      swap1\n      keccak256\n        /* \"MultiSigWallet.sol\":2025:2061  transactions[transactionId].executed */\n      0x3\n      add\n      sload\n        /* \"MultiSigWallet.sol\":6422:6435  transactionId */\n      dup5\n      swap1\n        /* \"MultiSigWallet.sol\":2025:2061  transactions[transactionId].executed */\n      0xff\n      and\n        /* \"MultiSigWallet.sol\":2024:2061  !transactions[transactionId].executed */\n      iszero\n        /* \"MultiSigWallet.sol\":2016:2062  require(!transactions[transactionId].executed) */\n      tag_148\n      jumpi\n      0x0\n      dup1\n      revert\n    tag_148:\n        /* \"MultiSigWallet.sol\":6494:6499  false */\n      0x0\n        /* \"MultiSigWallet.sol\":6451:6479  confirmations[transactionId] */\n      dup6\n      dup2\n      mstore\n        /* \"MultiSigWallet.sol\":6451:6464  confirmations */\n      0x1\n        /* \"MultiSigWallet.sol\":6451:6479  confirmations[transactionId] */\n      0x20\n      swap1\n      dup2\n      mstore\n      0x40\n      dup1\n      dup4\n      keccak256\n        /* \"MultiSigWallet.sol\":6480:6490  msg.sender */\n      caller\n        /* \"MultiSigWallet.sol\":6451:6491  confirmations[transactionId][msg.sender] */\n      dup1\n      dup6\n      mstore\n      swap3\n      mstore\n      dup1\n      dup4\n      keccak256\n        /* \"MultiSigWallet.sol\":6451:6499  confirmations[transactionId][msg.sender] = false */\n      dup1\n      sload\n      not(0xff)\n      and\n      swap1\n      sstore\n        /* \"MultiSigWallet.sol\":6509:6546  Revocation(msg.sender, transactionId) */\n      mload\n        /* \"MultiSigWallet.sol\":6465:6478  transactionId */\n      dup8\n      swap3\n        /* \"MultiSigWallet.sol\":6509:6546  Revocation(msg.sender, transactionId) */\n      0xf6a317157440607f36269043eb55f1287a5a19ba2216afeab88cd46cbcfb88e9\n      swap2\n      log3\n        /* \"MultiSigWallet.sol\":1815:1816  _ */\n      pop\n        /* \"MultiSigWallet.sol\":1549:1550  _ */\n      pop\n      pop\n        /* \"MultiSigWallet.sol\":6262:6553  function revokeConfirmation(uint transactionId)... */\n      pop\n      pop\n      jump\t// out\n        /* \"MultiSigWallet.sol\":985:1025  mapping (address => bool) public isOwner */\n    tag_42:\n      mstore(0x20, 0x2)\n      0x0\n      swap1\n      dup2\n      mstore\n      0x40\n      swap1\n      keccak256\n      sload\n      0xff\n      and\n      dup2\n      jump\t// out\n        /* \"MultiSigWallet.sol\":915:979  mapping (uint => mapping (address => bool)) public confirmations */\n    tag_45:\n      0x1\n      0x20\n      swap1\n      dup2\n      mstore\n      0x0\n      swap3\n      dup4\n      mstore\n      0x40\n      dup1\n      dup5\n      keccak256\n      swap1\n      swap2\n      mstore\n      swap1\n      dup3\n      mstore\n      swap1\n      keccak256\n      sload\n      0xff\n      and\n      dup2\n      jump\t// out\n        /* \"MultiSigWalletWithDailyLimit.sol\":2995:3256  function calcMaxWithdraw()... */\n    tag_48:\n        /* \"MultiSigWalletWithDailyLimit.sol\":3071:3075  uint */\n      0x0\n        /* \"MultiSigWalletWithDailyLimit.sol\":3101:3108  lastDay */\n      sload(0x7)\n        /* \"MultiSigWalletWithDailyLimit.sol\":3111:3119  24 hours */\n      0x15180\n        /* \"MultiSigWalletWithDailyLimit.sol\":3101:3119  lastDay + 24 hours */\n      add\n        /* \"MultiSigWalletWithDailyLimit.sol\":3095:3098  now */\n      timestamp\n        /* \"MultiSigWalletWithDailyLimit.sol\":3095:3119  now > lastDay + 24 hours */\n      gt\n        /* \"MultiSigWalletWithDailyLimit.sol\":3091:3150  if (now > lastDay + 24 hours)... */\n      iszero\n      tag_151\n      jumpi\n      pop\n        /* \"MultiSigWalletWithDailyLimit.sol\":3140:3150  dailyLimit */\n      sload(0x6)\n        /* \"MultiSigWalletWithDailyLimit.sol\":3133:3150  return dailyLimit */\n      jump(tag_150)\n        /* \"MultiSigWalletWithDailyLimit.sol\":3091:3150  if (now > lastDay + 24 hours)... */\n    tag_151:\n        /* \"MultiSigWalletWithDailyLimit.sol\":3177:3187  spentToday */\n      sload(0x8)\n        /* \"MultiSigWalletWithDailyLimit.sol\":3164:3174  dailyLimit */\n      sload(0x6)\n        /* \"MultiSigWalletWithDailyLimit.sol\":3164:3187  dailyLimit < spentToday */\n      lt\n        /* \"MultiSigWalletWithDailyLimit.sol\":3160:3209  if (dailyLimit < spentToday)... */\n      iszero\n      tag_152\n      jumpi\n      pop\n        /* \"MultiSigWalletWithDailyLimit.sol\":3208:3209  0 */\n      0x0\n        /* \"MultiSigWalletWithDailyLimit.sol\":3201:3209  return 0 */\n      jump(tag_150)\n        /* \"MultiSigWalletWithDailyLimit.sol\":3160:3209  if (dailyLimit < spentToday)... */\n    tag_152:\n      pop\n        /* \"MultiSigWalletWithDailyLimit.sol\":3239:3249  spentToday */\n      sload(0x8)\n        /* \"MultiSigWalletWithDailyLimit.sol\":3226:3236  dailyLimit */\n      sload(0x6)\n        /* \"MultiSigWalletWithDailyLimit.sol\":3226:3249  dailyLimit - spentToday */\n      sub\n        /* \"MultiSigWalletWithDailyLimit.sol\":2995:3256  function calcMaxWithdraw()... */\n    tag_150:\n      swap1\n      jump\t// out\n        /* \"MultiSigWallet.sol\":10516:10835  function getTransactionCount(bool pending, bool executed)... */\n    tag_51:\n        /* \"MultiSigWallet.sol\":10623:10633  uint count */\n      0x0\n      dup1\n        /* \"MultiSigWallet.sol\":10649:10828  for (uint i=0; i<transactionCount; i++)... */\n    tag_154:\n        /* \"MultiSigWallet.sol\":10666:10682  transactionCount */\n      sload(0x5)\n        /* \"MultiSigWallet.sol\":10664:10665  i */\n      dup2\n        /* \"MultiSigWallet.sol\":10664:10682  i<transactionCount */\n      lt\n        /* \"MultiSigWallet.sol\":10649:10828  for (uint i=0; i<transactionCount; i++)... */\n      iszero\n      tag_155\n      jumpi\n        /* \"MultiSigWallet.sol\":10708:10715  pending */\n      dup4\n        /* \"MultiSigWallet.sol\":10708:10744  pending && !transactions[i].executed */\n      dup1\n      iszero\n      tag_157\n      jumpi\n      pop\n        /* \"MultiSigWallet.sol\":10720:10732  transactions */\n      0x0\n        /* \"MultiSigWallet.sol\":10720:10735  transactions[i] */\n      dup2\n      dup2\n      mstore\n      0x20\n      dup2\n      swap1\n      mstore\n      0x40\n      swap1\n      keccak256\n        /* \"MultiSigWallet.sol\":10720:10744  transactions[i].executed */\n      0x3\n      add\n      sload\n      0xff\n      and\n        /* \"MultiSigWallet.sol\":10719:10744  !transactions[i].executed */\n      iszero\n        /* \"MultiSigWallet.sol\":10708:10744  pending && !transactions[i].executed */\n    tag_157:\n        /* \"MultiSigWallet.sol\":10708:10800  pending && !transactions[i].executed... */\n      dup1\n      tag_159\n      jumpi\n      pop\n        /* \"MultiSigWallet.sol\":10764:10772  executed */\n      dup3\n        /* \"MultiSigWallet.sol\":10764:10800  executed && transactions[i].executed */\n      dup1\n      iszero\n      tag_159\n      jumpi\n      pop\n        /* \"MultiSigWallet.sol\":10776:10788  transactions */\n      0x0\n        /* \"MultiSigWallet.sol\":10776:10791  transactions[i] */\n      dup2\n      dup2\n      mstore\n      0x20\n      dup2\n      swap1\n      mstore\n      0x40\n      swap1\n      keccak256\n        /* \"MultiSigWallet.sol\":10776:10800  transactions[i].executed */\n      0x3\n      add\n      sload\n      0xff\n      and\n        /* \"MultiSigWallet.sol\":10764:10800  executed && transactions[i].executed */\n    tag_159:\n        /* \"MultiSigWallet.sol\":10701:10828  if (   pending && !transactions[i].executed... */\n      iszero\n      tag_160\n      jumpi\n        /* \"MultiSigWallet.sol\":10827:10828  1 */\n      0x1\n        /* \"MultiSigWallet.sol\":10818:10828  count += 1 */\n      dup3\n      add\n      swap2\n      pop\n        /* \"MultiSigWallet.sol\":10701:10828  if (   pending && !transactions[i].executed... */\n    tag_160:\n        /* \"MultiSigWallet.sol\":10684:10687  i++ */\n      0x1\n      add\n        /* \"MultiSigWallet.sol\":10649:10828  for (uint i=0; i<transactionCount; i++)... */\n      jump(tag_154)\n    tag_155:\n        /* \"MultiSigWallet.sol\":10516:10835  function getTransactionCount(bool pending, bool executed)... */\n      pop\n      swap3\n      swap2\n      pop\n      pop\n      jump\t// out\n        /* \"MultiSigWalletWithDailyLimit.sol\":398:420  uint public dailyLimit */\n    tag_54:\n      sload(0x6)\n      dup2\n      jump\t// out\n        /* \"MultiSigWalletWithDailyLimit.sol\":426:445  uint public lastDay */\n    tag_57:\n      sload(0x7)\n      dup2\n      jump\t// out\n        /* \"MultiSigWallet.sol\":3296:3573  function addOwner(address owner)... */\n    tag_60:\n        /* \"MultiSigWallet.sol\":1318:1328  msg.sender */\n      caller\n        /* \"MultiSigWallet.sol\":1340:1344  this */\n      address\n        /* \"MultiSigWallet.sol\":1318:1345  msg.sender == address(this) */\n      eq\n        /* \"MultiSigWallet.sol\":1310:1346  require(msg.sender == address(this)) */\n      tag_162\n      jumpi\n      0x0\n      dup1\n      revert\n    tag_162:\n      sub(exp(0x2, 0xa0), 0x1)\n        /* \"MultiSigWallet.sol\":1431:1445  isOwner[owner] */\n      dup2\n      and\n      0x0\n      swap1\n      dup2\n      mstore\n        /* \"MultiSigWallet.sol\":1431:1438  isOwner */\n      0x2\n        /* \"MultiSigWallet.sol\":1431:1445  isOwner[owner] */\n      0x20\n      mstore\n      0x40\n      swap1\n      keccak256\n      sload\n        /* \"MultiSigWallet.sol\":3389:3394  owner */\n      dup2\n      swap1\n        /* \"MultiSigWallet.sol\":1431:1445  isOwner[owner] */\n      0xff\n      and\n        /* \"MultiSigWallet.sol\":1430:1445  !isOwner[owner] */\n      iszero\n        /* \"MultiSigWallet.sol\":1422:1446  require(!isOwner[owner]) */\n      tag_164\n      jumpi\n      0x0\n      dup1\n      revert\n    tag_164:\n        /* \"MultiSigWallet.sol\":3412:3417  owner */\n      dup2\n      sub(exp(0x2, 0xa0), 0x1)\n        /* \"MultiSigWallet.sol\":2139:2152  _address != 0 */\n      dup2\n      and\n      iszero\n      iszero\n        /* \"MultiSigWallet.sol\":2131:2153  require(_address != 0) */\n      tag_166\n      jumpi\n      0x0\n      dup1\n      revert\n    tag_166:\n        /* \"MultiSigWallet.sol\":3444:3450  owners */\n      0x3\n        /* \"MultiSigWallet.sol\":3444:3457  owners.length */\n      dup1\n      sload\n      swap1\n      pop\n        /* \"MultiSigWallet.sol\":3460:3461  1 */\n      0x1\n        /* \"MultiSigWallet.sol\":3444:3461  owners.length + 1 */\n      add\n        /* \"MultiSigWallet.sol\":3463:3471  required */\n      sload(0x4)\n        /* \"MultiSigWallet.sol\":820:822  50 */\n      0x32\n        /* \"MultiSigWallet.sol\":2254:2264  ownerCount */\n      dup3\n        /* \"MultiSigWallet.sol\":2254:2283  ownerCount <= MAX_OWNER_COUNT */\n      gt\n      iszero\n        /* \"MultiSigWallet.sol\":2254:2322  ownerCount <= MAX_OWNER_COUNT... */\n      dup1\n      iszero\n      tag_168\n      jumpi\n      pop\n        /* \"MultiSigWallet.sol\":2312:2322  ownerCount */\n      dup2\n        /* \"MultiSigWallet.sol\":2299:2308  _required */\n      dup2\n        /* \"MultiSigWallet.sol\":2299:2322  _required <= ownerCount */\n      gt\n      iszero\n        /* \"MultiSigWallet.sol\":2254:2322  ownerCount <= MAX_OWNER_COUNT... */\n    tag_168:\n        /* \"MultiSigWallet.sol\":2254:2352  ownerCount <= MAX_OWNER_COUNT... */\n      dup1\n      iszero\n      tag_169\n      jumpi\n      pop\n        /* \"MultiSigWallet.sol\":2338:2352  _required != 0 */\n      dup1\n      iszero\n      iszero\n        /* \"MultiSigWallet.sol\":2254:2352  ownerCount <= MAX_OWNER_COUNT... */\n    tag_169:\n        /* \"MultiSigWallet.sol\":2254:2383  ownerCount <= MAX_OWNER_COUNT... */\n      dup1\n      iszero\n      tag_170\n      jumpi\n      pop\n        /* \"MultiSigWallet.sol\":2368:2383  ownerCount != 0 */\n      dup2\n      iszero\n      iszero\n        /* \"MultiSigWallet.sol\":2254:2383  ownerCount <= MAX_OWNER_COUNT... */\n    tag_170:\n        /* \"MultiSigWallet.sol\":2246:2384  require(ownerCount <= MAX_OWNER_COUNT... */\n      iszero\n      iszero\n      tag_171\n      jumpi\n      0x0\n      dup1\n      revert\n    tag_171:\n      sub(exp(0x2, 0xa0), 0x1)\n        /* \"MultiSigWallet.sol\":3487:3501  isOwner[owner] */\n      dup6\n      and\n      0x0\n      dup2\n      dup2\n      mstore\n        /* \"MultiSigWallet.sol\":3487:3494  isOwner */\n      0x2\n        /* \"MultiSigWallet.sol\":3487:3501  isOwner[owner] */\n      0x20\n      mstore\n      0x40\n      dup1\n      dup3\n      keccak256\n        /* \"MultiSigWallet.sol\":3487:3508  isOwner[owner] = true */\n      dup1\n      sload\n      not(0xff)\n      and\n        /* \"MultiSigWallet.sol\":3504:3508  true */\n      0x1\n        /* \"MultiSigWallet.sol\":3487:3508  isOwner[owner] = true */\n      swap1\n      dup2\n      or\n      swap1\n      swap2\n      sstore\n        /* \"MultiSigWallet.sol\":3518:3524  owners */\n      0x3\n        /* \"--CODEGEN--\":27:37   */\n      dup1\n      sload\n        /* \"--CODEGEN--\":23:41   */\n      swap2\n      dup3\n      add\n        /* \"--CODEGEN--\":45:68   */\n      dup2\n      sstore\n        /* \"MultiSigWallet.sol\":3518:3536  owners.push(owner) */\n      dup4\n      mstore\n      0xc2575a0e9e593c00f959f8c92f12db2869c3395a3b0502d05e2516446f71f85b\n      add\n      dup1\n      sload\n      not(0xffffffffffffffffffffffffffffffffffffffff)\n      and\n      dup5\n      or\n      swap1\n      sstore\n        /* \"MultiSigWallet.sol\":3546:3566  OwnerAddition(owner) */\n      mload\n      0xf39e6e1eb0edcf53c221607b54b00cd28f3196fed0a24994dc308b8f611b682d\n      swap2\n        /* \"MultiSigWallet.sol\":3487:3501  isOwner[owner] */\n      swap1\n        /* \"MultiSigWallet.sol\":3546:3566  OwnerAddition(owner) */\n      log2\n        /* \"MultiSigWallet.sol\":2163:2164  _ */\n      pop\n      pop\n        /* \"MultiSigWallet.sol\":1456:1457  _ */\n      pop\n        /* \"MultiSigWallet.sol\":1356:1357  _ */\n      pop\n        /* \"MultiSigWallet.sol\":3296:3573  function addOwner(address owner)... */\n      pop\n      jump\t// out\n        /* \"MultiSigWallet.sol\":8684:9021  function isConfirmed(uint transactionId)... */\n    tag_63:\n        /* \"MultiSigWallet.sol\":8774:8778  bool */\n      0x0\n      dup1\n      dup1\n        /* \"MultiSigWallet.sol\":8818:9015  for (uint i=0; i<owners.length; i++) {... */\n    tag_175:\n        /* \"MultiSigWallet.sol\":8835:8841  owners */\n      0x3\n        /* \"MultiSigWallet.sol\":8835:8848  owners.length */\n      sload\n        /* \"MultiSigWallet.sol\":8833:8848  i<owners.length */\n      dup2\n      lt\n        /* \"MultiSigWallet.sol\":8818:9015  for (uint i=0; i<owners.length; i++) {... */\n      iszero\n      tag_176\n      jumpi\n        /* \"MultiSigWallet.sol\":8873:8901  confirmations[transactionId] */\n      0x0\n      dup5\n      dup2\n      mstore\n        /* \"MultiSigWallet.sol\":8873:8886  confirmations */\n      0x1\n        /* \"MultiSigWallet.sol\":8873:8901  confirmations[transactionId] */\n      0x20\n      mstore\n      0x40\n      dup2\n      keccak256\n        /* \"MultiSigWallet.sol\":8902:8908  owners */\n      0x3\n        /* \"MultiSigWallet.sol\":8902:8911  owners[i] */\n      dup1\n      sload\n        /* \"MultiSigWallet.sol\":8873:8901  confirmations[transactionId] */\n      swap2\n      swap3\n      swap2\n        /* \"MultiSigWallet.sol\":8909:8910  i */\n      dup5\n      swap1\n        /* \"MultiSigWallet.sol\":8902:8911  owners[i] */\n      dup2\n      lt\n      tag_178\n      jumpi\n      invalid\n    tag_178:\n      0x0\n      swap2\n      dup3\n      mstore\n      0x20\n      dup1\n      dup4\n      keccak256\n      swap1\n      swap2\n      add\n      sload\n      sub(exp(0x2, 0xa0), 0x1)\n      and\n        /* \"MultiSigWallet.sol\":8873:8912  confirmations[transactionId][owners[i]] */\n      dup4\n      mstore\n      dup3\n      add\n      swap3\n      swap1\n      swap3\n      mstore\n      0x40\n      add\n      swap1\n      keccak256\n      sload\n      0xff\n      and\n        /* \"MultiSigWallet.sol\":8869:8940  if (confirmations[transactionId][owners[i]])... */\n      iszero\n      tag_180\n      jumpi\n        /* \"MultiSigWallet.sol\":8939:8940  1 */\n      0x1\n        /* \"MultiSigWallet.sol\":8930:8940  count += 1 */\n      dup3\n      add\n      swap2\n      pop\n        /* \"MultiSigWallet.sol\":8869:8940  if (confirmations[transactionId][owners[i]])... */\n    tag_180:\n        /* \"MultiSigWallet.sol\":8967:8975  required */\n      sload(0x4)\n        /* \"MultiSigWallet.sol\":8958:8963  count */\n      dup3\n        /* \"MultiSigWallet.sol\":8958:8975  count == required */\n      eq\n        /* \"MultiSigWallet.sol\":8954:9004  if (count == required)... */\n      iszero\n      tag_181\n      jumpi\n        /* \"MultiSigWallet.sol\":9000:9004  true */\n      0x1\n        /* \"MultiSigWallet.sol\":8993:9004  return true */\n      swap3\n      pop\n      jump(tag_176)\n        /* \"MultiSigWallet.sol\":8954:9004  if (count == required)... */\n    tag_181:\n        /* \"MultiSigWallet.sol\":8850:8853  i++ */\n      0x1\n      add\n        /* \"MultiSigWallet.sol\":8818:9015  for (uint i=0; i<owners.length; i++) {... */\n      jump(tag_175)\n    tag_176:\n        /* \"MultiSigWallet.sol\":8684:9021  function isConfirmed(uint transactionId)... */\n      pop\n      pop\n      swap2\n      swap1\n      pop\n      jump\t// out\n        /* \"MultiSigWallet.sol\":10002:10254  function getConfirmationCount(uint transactionId)... */\n    tag_66:\n        /* \"MultiSigWallet.sol\":10101:10111  uint count */\n      0x0\n      dup1\n        /* \"MultiSigWallet.sol\":10127:10247  for (uint i=0; i<owners.length; i++)... */\n    tag_183:\n        /* \"MultiSigWallet.sol\":10144:10150  owners */\n      0x3\n        /* \"MultiSigWallet.sol\":10144:10157  owners.length */\n      sload\n        /* \"MultiSigWallet.sol\":10142:10157  i<owners.length */\n      dup2\n      lt\n        /* \"MultiSigWallet.sol\":10127:10247  for (uint i=0; i<owners.length; i++)... */\n      iszero\n      tag_184\n      jumpi\n        /* \"MultiSigWallet.sol\":10180:10208  confirmations[transactionId] */\n      0x0\n      dup4\n      dup2\n      mstore\n        /* \"MultiSigWallet.sol\":10180:10193  confirmations */\n      0x1\n        /* \"MultiSigWallet.sol\":10180:10208  confirmations[transactionId] */\n      0x20\n      mstore\n      0x40\n      dup2\n      keccak256\n        /* \"MultiSigWallet.sol\":10209:10215  owners */\n      0x3\n        /* \"MultiSigWallet.sol\":10209:10218  owners[i] */\n      dup1\n      sload\n        /* \"MultiSigWallet.sol\":10180:10208  confirmations[transactionId] */\n      swap2\n      swap3\n      swap2\n        /* \"MultiSigWallet.sol\":10216:10217  i */\n      dup5\n      swap1\n        /* \"MultiSigWallet.sol\":10209:10218  owners[i] */\n      dup2\n      lt\n      tag_186\n      jumpi\n      invalid\n    tag_186:\n      0x0\n      swap2\n      dup3\n      mstore\n      0x20\n      dup1\n      dup4\n      keccak256\n      swap1\n      swap2\n      add\n      sload\n      sub(exp(0x2, 0xa0), 0x1)\n      and\n        /* \"MultiSigWallet.sol\":10180:10219  confirmations[transactionId][owners[i]] */\n      dup4\n      mstore\n      dup3\n      add\n      swap3\n      swap1\n      swap3\n      mstore\n      0x40\n      add\n      swap1\n      keccak256\n      sload\n      0xff\n      and\n        /* \"MultiSigWallet.sol\":10176:10247  if (confirmations[transactionId][owners[i]])... */\n      iszero\n      tag_188\n      jumpi\n        /* \"MultiSigWallet.sol\":10246:10247  1 */\n      0x1\n        /* \"MultiSigWallet.sol\":10237:10247  count += 1 */\n      dup3\n      add\n      swap2\n      pop\n        /* \"MultiSigWallet.sol\":10176:10247  if (confirmations[transactionId][owners[i]])... */\n    tag_188:\n        /* \"MultiSigWallet.sol\":10159:10162  i++ */\n      0x1\n      add\n        /* \"MultiSigWallet.sol\":10127:10247  for (uint i=0; i<owners.length; i++)... */\n      jump(tag_183)\n    tag_184:\n        /* \"MultiSigWallet.sol\":10002:10254  function getConfirmationCount(uint transactionId)... */\n      pop\n      swap2\n      swap1\n      pop\n      jump\t// out\n        /* \"MultiSigWallet.sol\":860:909  mapping (uint => Transaction) public transactions */\n    tag_69:\n      0x0\n      0x20\n      dup2\n      dup2\n      mstore\n      swap2\n      dup2\n      mstore\n      0x40\n      swap1\n      dup2\n      swap1\n      keccak256\n      dup1\n      sload\n      0x1\n      dup1\n      dup4\n      add\n      sload\n      0x2\n      dup1\n      dup6\n      add\n      dup1\n      sload\n      dup8\n      mload\n      0x100\n      swap6\n      dup3\n      and\n      iszero\n      swap6\n      swap1\n      swap6\n      mul\n      not(0x0)\n      add\n      and\n      swap2\n      swap1\n      swap2\n      div\n      0x1f\n      dup2\n      add\n      dup9\n      swap1\n      div\n      dup9\n      mul\n      dup5\n      add\n      dup9\n      add\n      swap1\n      swap7\n      mstore\n      dup6\n      dup4\n      mstore\n      sub(exp(0x2, 0xa0), 0x1)\n      swap1\n      swap4\n      and\n      swap6\n      swap1\n      swap5\n      swap2\n      swap3\n      swap2\n      swap1\n      dup4\n      add\n      dup3\n      dup3\n      dup1\n      iszero\n      tag_189\n      jumpi\n      dup1\n      0x1f\n      lt\n      tag_190\n      jumpi\n      0x100\n      dup1\n      dup4\n      sload\n      div\n      mul\n      dup4\n      mstore\n      swap2\n      0x20\n      add\n      swap2\n      jump(tag_189)\n    tag_190:\n      dup3\n      add\n      swap2\n      swap1\n      0x0\n      mstore\n      keccak256(0x0, 0x20)\n      swap1\n    tag_191:\n      dup2\n      sload\n      dup2\n      mstore\n      swap1\n      0x1\n      add\n      swap1\n      0x20\n      add\n      dup1\n      dup4\n      gt\n      tag_191\n      jumpi\n      dup3\n      swap1\n      sub\n      0x1f\n      and\n      dup3\n      add\n      swap2\n    tag_189:\n      pop\n      pop\n      pop\n      0x3\n      swap1\n      swap4\n      add\n      sload\n      swap2\n      swap3\n      pop\n      pop\n      0xff\n      and\n      dup5\n      jump\t// out\n        /* \"MultiSigWallet.sol\":10919:11034  function getOwners()... */\n    tag_76:\n        /* \"MultiSigWallet.sol\":10989:10998  address[] */\n      0x60\n        /* \"MultiSigWallet.sol\":11021:11027  owners */\n      0x3\n        /* \"MultiSigWallet.sol\":11014:11027  return owners */\n      dup1\n      sload\n      dup1\n      0x20\n      mul\n      0x20\n      add\n      mload(0x40)\n      swap1\n      dup2\n      add\n      0x40\n      mstore\n      dup1\n      swap3\n      swap2\n      swap1\n      dup2\n      dup2\n      mstore\n      0x20\n      add\n      dup3\n      dup1\n      sload\n      dup1\n      iszero\n      tag_193\n      jumpi\n      0x20\n      mul\n      dup3\n      add\n      swap2\n      swap1\n      0x0\n      mstore\n      keccak256(0x0, 0x20)\n      swap1\n    tag_194:\n      dup2\n      sload\n      sub(exp(0x2, 0xa0), 0x1)\n      and\n      dup2\n      mstore\n      0x1\n      swap1\n      swap2\n      add\n      swap1\n      0x20\n      add\n      dup1\n      dup4\n      gt\n      tag_194\n      jumpi\n    tag_193:\n      pop\n      pop\n      pop\n      pop\n      pop\n      swap1\n      pop\n        /* \"MultiSigWallet.sol\":10919:11034  function getOwners()... */\n      swap1\n      jump\t// out\n        /* \"MultiSigWallet.sol\":12137:12813  function getTransactionIds(uint from, uint to, bool pending, bool executed)... */\n    tag_82:\n        /* \"MultiSigWallet.sol\":12262:12284  uint[] _transactionIds */\n      0x60\n        /* \"MultiSigWallet.sol\":12300:12332  uint[] memory transactionIdsTemp */\n      dup1\n        /* \"MultiSigWallet.sol\":12373:12383  uint count */\n      0x0\n        /* \"MultiSigWallet.sol\":12397:12403  uint i */\n      dup1\n        /* \"MultiSigWallet.sol\":12346:12362  transactionCount */\n      sload(0x5)\n        /* \"MultiSigWallet.sol\":12335:12363  new uint[](transactionCount) */\n      mload(0x40)\n      swap1\n      dup1\n      dup3\n      mstore\n      dup1\n      0x20\n      mul\n      0x20\n      add\n      dup3\n      add\n      0x40\n      mstore\n      dup1\n      iszero\n      tag_196\n      jumpi\n      dup2\n      0x20\n      add\n        /* \"--CODEGEN--\":29:31   */\n      0x20\n        /* \"--CODEGEN--\":21:27   */\n      dup3\n        /* \"--CODEGEN--\":17:32   */\n      mul\n        /* \"--CODEGEN--\":117:121   */\n      dup1\n        /* \"--CODEGEN--\":105:115   */\n      codesize\n        /* \"--CODEGEN--\":97:103   */\n      dup4\n        /* \"--CODEGEN--\":88:122   */\n      codecopy\n        /* \"--CODEGEN--\":136:153   */\n      add\n      swap1\n      pop\n        /* \"MultiSigWallet.sol\":12335:12363  new uint[](transactionCount) */\n    tag_196:\n      pop\n        /* \"MultiSigWallet.sol\":12300:12363  uint[] memory transactionIdsTemp = new uint[](transactionCount) */\n      swap3\n      pop\n        /* \"MultiSigWallet.sol\":12386:12387  0 */\n      0x0\n        /* \"MultiSigWallet.sol\":12373:12387  uint count = 0 */\n      swap2\n      pop\n        /* \"MultiSigWallet.sol\":12420:12421  0 */\n      0x0\n        /* \"MultiSigWallet.sol\":12418:12421  i=0 */\n      swap1\n      pop\n        /* \"MultiSigWallet.sol\":12413:12663  for (i=0; i<transactionCount; i++)... */\n    tag_197:\n        /* \"MultiSigWallet.sol\":12425:12441  transactionCount */\n      sload(0x5)\n        /* \"MultiSigWallet.sol\":12423:12424  i */\n      dup2\n        /* \"MultiSigWallet.sol\":12423:12441  i<transactionCount */\n      lt\n        /* \"MultiSigWallet.sol\":12413:12663  for (i=0; i<transactionCount; i++)... */\n      iszero\n      tag_198\n      jumpi\n        /* \"MultiSigWallet.sol\":12467:12474  pending */\n      dup6\n        /* \"MultiSigWallet.sol\":12467:12503  pending && !transactions[i].executed */\n      dup1\n      iszero\n      tag_200\n      jumpi\n      pop\n        /* \"MultiSigWallet.sol\":12479:12491  transactions */\n      0x0\n        /* \"MultiSigWallet.sol\":12479:12494  transactions[i] */\n      dup2\n      dup2\n      mstore\n      0x20\n      dup2\n      swap1\n      mstore\n      0x40\n      swap1\n      keccak256\n        /* \"MultiSigWallet.sol\":12479:12503  transactions[i].executed */\n      0x3\n      add\n      sload\n      0xff\n      and\n        /* \"MultiSigWallet.sol\":12478:12503  !transactions[i].executed */\n      iszero\n        /* \"MultiSigWallet.sol\":12467:12503  pending && !transactions[i].executed */\n    tag_200:\n        /* \"MultiSigWallet.sol\":12467:12559  pending && !transactions[i].executed... */\n      dup1\n      tag_202\n      jumpi\n      pop\n        /* \"MultiSigWallet.sol\":12523:12531  executed */\n      dup5\n        /* \"MultiSigWallet.sol\":12523:12559  executed && transactions[i].executed */\n      dup1\n      iszero\n      tag_202\n      jumpi\n      pop\n        /* \"MultiSigWallet.sol\":12535:12547  transactions */\n      0x0\n        /* \"MultiSigWallet.sol\":12535:12550  transactions[i] */\n      dup2\n      dup2\n      mstore\n      0x20\n      dup2\n      swap1\n      mstore\n      0x40\n      swap1\n      keccak256\n        /* \"MultiSigWallet.sol\":12535:12559  transactions[i].executed */\n      0x3\n      add\n      sload\n      0xff\n      and\n        /* \"MultiSigWallet.sol\":12523:12559  executed && transactions[i].executed */\n    tag_202:\n        /* \"MultiSigWallet.sol\":12460:12663  if (   pending && !transactions[i].executed... */\n      iszero\n      tag_203\n      jumpi\n        /* \"MultiSigWallet.sol\":12619:12620  i */\n      dup1\n        /* \"MultiSigWallet.sol\":12591:12609  transactionIdsTemp */\n      dup4\n        /* \"MultiSigWallet.sol\":12610:12615  count */\n      dup4\n        /* \"MultiSigWallet.sol\":12591:12616  transactionIdsTemp[count] */\n      dup2\n      mload\n      dup2\n      lt\n      iszero\n      iszero\n      tag_204\n      jumpi\n      invalid\n    tag_204:\n      0x20\n      swap1\n      dup2\n      mul\n      swap1\n      swap2\n      add\n      add\n        /* \"MultiSigWallet.sol\":12591:12620  transactionIdsTemp[count] = i */\n      mstore\n        /* \"MultiSigWallet.sol\":12647:12648  1 */\n      0x1\n        /* \"MultiSigWallet.sol\":12638:12648  count += 1 */\n      swap2\n      swap1\n      swap2\n      add\n      swap1\n        /* \"MultiSigWallet.sol\":12460:12663  if (   pending && !transactions[i].executed... */\n    tag_203:\n        /* \"MultiSigWallet.sol\":12443:12446  i++ */\n      0x1\n      add\n        /* \"MultiSigWallet.sol\":12413:12663  for (i=0; i<transactionCount; i++)... */\n      jump(tag_197)\n    tag_198:\n        /* \"MultiSigWallet.sol\":12706:12710  from */\n      dup8\n        /* \"MultiSigWallet.sol\":12701:12703  to */\n      dup8\n        /* \"MultiSigWallet.sol\":12701:12710  to - from */\n      sub\n        /* \"MultiSigWallet.sol\":12690:12711  new uint[](to - from) */\n      mload(0x40)\n      swap1\n      dup1\n      dup3\n      mstore\n      dup1\n      0x20\n      mul\n      0x20\n      add\n      dup3\n      add\n      0x40\n      mstore\n      dup1\n      iszero\n      tag_205\n      jumpi\n      dup2\n      0x20\n      add\n        /* \"--CODEGEN--\":29:31   */\n      0x20\n        /* \"--CODEGEN--\":21:27   */\n      dup3\n        /* \"--CODEGEN--\":17:32   */\n      mul\n        /* \"--CODEGEN--\":117:121   */\n      dup1\n        /* \"--CODEGEN--\":105:115   */\n      codesize\n        /* \"--CODEGEN--\":97:103   */\n      dup4\n        /* \"--CODEGEN--\":88:122   */\n      codecopy\n        /* \"--CODEGEN--\":136:153   */\n      add\n      swap1\n      pop\n        /* \"MultiSigWallet.sol\":12690:12711  new uint[](to - from) */\n    tag_205:\n      pop\n        /* \"MultiSigWallet.sol\":12672:12711  _transactionIds = new uint[](to - from) */\n      swap4\n      pop\n        /* \"MultiSigWallet.sol\":12728:12732  from */\n      dup8\n        /* \"MultiSigWallet.sol\":12726:12732  i=from */\n      swap1\n      pop\n        /* \"MultiSigWallet.sol\":12721:12806  for (i=from; i<to; i++)... */\n    tag_206:\n        /* \"MultiSigWallet.sol\":12736:12738  to */\n      dup7\n        /* \"MultiSigWallet.sol\":12734:12735  i */\n      dup2\n        /* \"MultiSigWallet.sol\":12734:12738  i<to */\n      lt\n        /* \"MultiSigWallet.sol\":12721:12806  for (i=from; i<to; i++)... */\n      iszero\n      tag_207\n      jumpi\n        /* \"MultiSigWallet.sol\":12785:12803  transactionIdsTemp */\n      dup3\n        /* \"MultiSigWallet.sol\":12804:12805  i */\n      dup2\n        /* \"MultiSigWallet.sol\":12785:12806  transactionIdsTemp[i] */\n      dup2\n      mload\n      dup2\n      lt\n      iszero\n      iszero\n      tag_209\n      jumpi\n      invalid\n    tag_209:\n      swap1\n      0x20\n      add\n      swap1\n      0x20\n      mul\n      add\n      mload\n        /* \"MultiSigWallet.sol\":12757:12772  _transactionIds */\n      dup5\n        /* \"MultiSigWallet.sol\":12777:12781  from */\n      dup10\n        /* \"MultiSigWallet.sol\":12773:12774  i */\n      dup4\n        /* \"MultiSigWallet.sol\":12773:12781  i - from */\n      sub\n        /* \"MultiSigWallet.sol\":12757:12782  _transactionIds[i - from] */\n      dup2\n      mload\n      dup2\n      lt\n      iszero\n      iszero\n      tag_210\n      jumpi\n      invalid\n    tag_210:\n      0x20\n      swap1\n      dup2\n      mul\n      swap1\n      swap2\n      add\n      add\n        /* \"MultiSigWallet.sol\":12757:12806  _transactionIds[i - from] = transactionIdsTemp[i] */\n      mstore\n        /* \"MultiSigWallet.sol\":12740:12743  i++ */\n      0x1\n      add\n        /* \"MultiSigWallet.sol\":12721:12806  for (i=from; i<to; i++)... */\n      jump(tag_206)\n    tag_207:\n        /* \"MultiSigWallet.sol\":12137:12813  function getTransactionIds(uint from, uint to, bool pending, bool executed)... */\n      pop\n      pop\n      pop\n      swap5\n      swap4\n      pop\n      pop\n      pop\n      pop\n      jump\t// out\n        /* \"MultiSigWallet.sol\":11213:11788  function getConfirmations(uint transactionId)... */\n    tag_88:\n        /* \"MultiSigWallet.sol\":11308:11332  address[] _confirmations */\n      0x60\n        /* \"MultiSigWallet.sol\":11348:11382  address[] memory confirmationsTemp */\n      dup1\n        /* \"MultiSigWallet.sol\":11423:11433  uint count */\n      0x0\n        /* \"MultiSigWallet.sol\":11447:11453  uint i */\n      dup1\n        /* \"MultiSigWallet.sol\":11399:11405  owners */\n      0x3\n        /* \"MultiSigWallet.sol\":11399:11412  owners.length */\n      dup1\n      sload\n      swap1\n      pop\n        /* \"MultiSigWallet.sol\":11385:11413  new address[](owners.length) */\n      mload(0x40)\n      swap1\n      dup1\n      dup3\n      mstore\n      dup1\n      0x20\n      mul\n      0x20\n      add\n      dup3\n      add\n      0x40\n      mstore\n      dup1\n      iszero\n      tag_212\n      jumpi\n      dup2\n      0x20\n      add\n        /* \"--CODEGEN--\":29:31   */\n      0x20\n        /* \"--CODEGEN--\":21:27   */\n      dup3\n        /* \"--CODEGEN--\":17:32   */\n      mul\n        /* \"--CODEGEN--\":117:121   */\n      dup1\n        /* \"--CODEGEN--\":105:115   */\n      codesize\n        /* \"--CODEGEN--\":97:103   */\n      dup4\n        /* \"--CODEGEN--\":88:122   */\n      codecopy\n        /* \"--CODEGEN--\":136:153   */\n      add\n      swap1\n      pop\n        /* \"MultiSigWallet.sol\":11385:11413  new address[](owners.length) */\n    tag_212:\n      pop\n        /* \"MultiSigWallet.sol\":11348:11413  address[] memory confirmationsTemp = new address[](owners.length) */\n      swap3\n      pop\n        /* \"MultiSigWallet.sol\":11436:11437  0 */\n      0x0\n        /* \"MultiSigWallet.sol\":11423:11437  uint count = 0 */\n      swap2\n      pop\n        /* \"MultiSigWallet.sol\":11470:11471  0 */\n      0x0\n        /* \"MultiSigWallet.sol\":11468:11471  i=0 */\n      swap1\n      pop\n        /* \"MultiSigWallet.sol\":11463:11649  for (i=0; i<owners.length; i++)... */\n    tag_213:\n        /* \"MultiSigWallet.sol\":11475:11481  owners */\n      0x3\n        /* \"MultiSigWallet.sol\":11475:11488  owners.length */\n      sload\n        /* \"MultiSigWallet.sol\":11473:11488  i<owners.length */\n      dup2\n      lt\n        /* \"MultiSigWallet.sol\":11463:11649  for (i=0; i<owners.length; i++)... */\n      iszero\n      tag_214\n      jumpi\n        /* \"MultiSigWallet.sol\":11511:11539  confirmations[transactionId] */\n      0x0\n      dup6\n      dup2\n      mstore\n        /* \"MultiSigWallet.sol\":11511:11524  confirmations */\n      0x1\n        /* \"MultiSigWallet.sol\":11511:11539  confirmations[transactionId] */\n      0x20\n      mstore\n      0x40\n      dup2\n      keccak256\n        /* \"MultiSigWallet.sol\":11540:11546  owners */\n      0x3\n        /* \"MultiSigWallet.sol\":11540:11549  owners[i] */\n      dup1\n      sload\n        /* \"MultiSigWallet.sol\":11511:11539  confirmations[transactionId] */\n      swap2\n      swap3\n      swap2\n        /* \"MultiSigWallet.sol\":11547:11548  i */\n      dup5\n      swap1\n        /* \"MultiSigWallet.sol\":11540:11549  owners[i] */\n      dup2\n      lt\n      tag_216\n      jumpi\n      invalid\n    tag_216:\n      0x0\n      swap2\n      dup3\n      mstore\n      0x20\n      dup1\n      dup4\n      keccak256\n      swap1\n      swap2\n      add\n      sload\n      sub(exp(0x2, 0xa0), 0x1)\n      and\n        /* \"MultiSigWallet.sol\":11511:11550  confirmations[transactionId][owners[i]] */\n      dup4\n      mstore\n      dup3\n      add\n      swap3\n      swap1\n      swap3\n      mstore\n      0x40\n      add\n      swap1\n      keccak256\n      sload\n      0xff\n      and\n        /* \"MultiSigWallet.sol\":11507:11649  if (confirmations[transactionId][owners[i]]) {... */\n      iszero\n      tag_218\n      jumpi\n        /* \"MultiSigWallet.sol\":11597:11603  owners */\n      0x3\n        /* \"MultiSigWallet.sol\":11597:11606  owners[i] */\n      dup1\n      sload\n        /* \"MultiSigWallet.sol\":11604:11605  i */\n      dup3\n      swap1\n        /* \"MultiSigWallet.sol\":11597:11606  owners[i] */\n      dup2\n      lt\n      tag_219\n      jumpi\n      invalid\n    tag_219:\n      0x0\n      swap2\n      dup3\n      mstore\n      0x20\n      swap1\n      swap2\n      keccak256\n      add\n      sload\n        /* \"MultiSigWallet.sol\":11570:11594  confirmationsTemp[count] */\n      dup4\n      mload\n      sub(exp(0x2, 0xa0), 0x1)\n        /* \"MultiSigWallet.sol\":11597:11606  owners[i] */\n      swap1\n      swap2\n      and\n      swap1\n        /* \"MultiSigWallet.sol\":11570:11587  confirmationsTemp */\n      dup5\n      swap1\n        /* \"MultiSigWallet.sol\":11588:11593  count */\n      dup5\n      swap1\n        /* \"MultiSigWallet.sol\":11570:11594  confirmationsTemp[count] */\n      dup2\n      lt\n      tag_221\n      jumpi\n      invalid\n    tag_221:\n      sub(exp(0x2, 0xa0), 0x1)\n        /* \"MultiSigWallet.sol\":11570:11606  confirmationsTemp[count] = owners[i] */\n      swap1\n      swap3\n      and\n        /* \"MultiSigWallet.sol\":11570:11594  confirmationsTemp[count] */\n      0x20\n      swap3\n      dup4\n      mul\n      swap1\n      swap2\n      add\n      swap1\n      swap2\n      add\n        /* \"MultiSigWallet.sol\":11570:11606  confirmationsTemp[count] = owners[i] */\n      mstore\n        /* \"MultiSigWallet.sol\":11633:11634  1 */\n      0x1\n        /* \"MultiSigWallet.sol\":11624:11634  count += 1 */\n      swap2\n      swap1\n      swap2\n      add\n      swap1\n        /* \"MultiSigWallet.sol\":11507:11649  if (confirmations[transactionId][owners[i]]) {... */\n    tag_218:\n        /* \"MultiSigWallet.sol\":11490:11493  i++ */\n      0x1\n      add\n        /* \"MultiSigWallet.sol\":11463:11649  for (i=0; i<owners.length; i++)... */\n      jump(tag_213)\n    tag_214:\n        /* \"MultiSigWallet.sol\":11689:11694  count */\n      dup2\n        /* \"MultiSigWallet.sol\":11675:11695  new address[](count) */\n      mload(0x40)\n      swap1\n      dup1\n      dup3\n      mstore\n      dup1\n      0x20\n      mul\n      0x20\n      add\n      dup3\n      add\n      0x40\n      mstore\n      dup1\n      iszero\n      tag_222\n      jumpi\n      dup2\n      0x20\n      add\n        /* \"--CODEGEN--\":29:31   */\n      0x20\n        /* \"--CODEGEN--\":21:27   */\n      dup3\n        /* \"--CODEGEN--\":17:32   */\n      mul\n        /* \"--CODEGEN--\":117:121   */\n      dup1\n        /* \"--CODEGEN--\":105:115   */\n      codesize\n        /* \"--CODEGEN--\":97:103   */\n      dup4\n        /* \"--CODEGEN--\":88:122   */\n      codecopy\n        /* \"--CODEGEN--\":136:153   */\n      add\n      swap1\n      pop\n        /* \"MultiSigWallet.sol\":11675:11695  new address[](count) */\n    tag_222:\n      pop\n        /* \"MultiSigWallet.sol\":11658:11695  _confirmations = new address[](count) */\n      swap4\n      pop\n        /* \"MultiSigWallet.sol\":11712:11713  0 */\n      0x0\n        /* \"MultiSigWallet.sol\":11710:11713  i=0 */\n      swap1\n      pop\n        /* \"MultiSigWallet.sol\":11705:11781  for (i=0; i<count; i++)... */\n    tag_223:\n        /* \"MultiSigWallet.sol\":11717:11722  count */\n      dup2\n        /* \"MultiSigWallet.sol\":11715:11716  i */\n      dup2\n        /* \"MultiSigWallet.sol\":11715:11722  i<count */\n      lt\n        /* \"MultiSigWallet.sol\":11705:11781  for (i=0; i<count; i++)... */\n      iszero\n      tag_224\n      jumpi\n        /* \"MultiSigWallet.sol\":11761:11778  confirmationsTemp */\n      dup3\n        /* \"MultiSigWallet.sol\":11779:11780  i */\n      dup2\n        /* \"MultiSigWallet.sol\":11761:11781  confirmationsTemp[i] */\n      dup2\n      mload\n      dup2\n      lt\n      iszero\n      iszero\n      tag_226\n      jumpi\n      invalid\n    tag_226:\n      swap1\n      0x20\n      add\n      swap1\n      0x20\n      mul\n      add\n      mload\n        /* \"MultiSigWallet.sol\":11741:11755  _confirmations */\n      dup5\n        /* \"MultiSigWallet.sol\":11756:11757  i */\n      dup3\n        /* \"MultiSigWallet.sol\":11741:11758  _confirmations[i] */\n      dup2\n      mload\n      dup2\n      lt\n      iszero\n      iszero\n      tag_227\n      jumpi\n      invalid\n    tag_227:\n      sub(exp(0x2, 0xa0), 0x1)\n        /* \"MultiSigWallet.sol\":11741:11781  _confirmations[i] = confirmationsTemp[i] */\n      swap1\n      swap3\n      and\n        /* \"MultiSigWallet.sol\":11741:11758  _confirmations[i] */\n      0x20\n      swap3\n      dup4\n      mul\n      swap1\n      swap2\n      add\n      swap1\n      swap2\n      add\n        /* \"MultiSigWallet.sol\":11741:11781  _confirmations[i] = confirmationsTemp[i] */\n      mstore\n        /* \"MultiSigWallet.sol\":11724:11727  i++ */\n      0x1\n      add\n        /* \"MultiSigWallet.sol\":11705:11781  for (i=0; i<count; i++)... */\n      jump(tag_223)\n    tag_224:\n        /* \"MultiSigWallet.sol\":11213:11788  function getConfirmations(uint transactionId)... */\n      pop\n      pop\n      pop\n      swap2\n      swap1\n      pop\n      jump\t// out\n        /* \"MultiSigWallet.sol\":1086:1114  uint public transactionCount */\n    tag_94:\n      sload(0x5)\n      dup2\n      jump\t// out\n        /* \"MultiSigWallet.sol\":4978:5185  function changeRequirement(uint _required)... */\n    tag_97:\n        /* \"MultiSigWallet.sol\":1318:1328  msg.sender */\n      caller\n        /* \"MultiSigWallet.sol\":1340:1344  this */\n      address\n        /* \"MultiSigWallet.sol\":1318:1345  msg.sender == address(this) */\n      eq\n        /* \"MultiSigWallet.sol\":1310:1346  require(msg.sender == address(this)) */\n      tag_229\n      jumpi\n      0x0\n      dup1\n      revert\n    tag_229:\n        /* \"MultiSigWallet.sol\":5080:5086  owners */\n      0x3\n        /* \"MultiSigWallet.sol\":5080:5093  owners.length */\n      sload\n        /* \"MultiSigWallet.sol\":5095:5104  _required */\n      dup2\n        /* \"MultiSigWallet.sol\":820:822  50 */\n      0x32\n        /* \"MultiSigWallet.sol\":2254:2283  ownerCount <= MAX_OWNER_COUNT */\n      dup3\n      gt\n      dup1\n      iszero\n      swap1\n        /* \"MultiSigWallet.sol\":2254:2322  ownerCount <= MAX_OWNER_COUNT... */\n      tag_231\n      jumpi\n      pop\n        /* \"MultiSigWallet.sol\":2312:2322  ownerCount */\n      dup2\n        /* \"MultiSigWallet.sol\":2299:2308  _required */\n      dup2\n        /* \"MultiSigWallet.sol\":2299:2322  _required <= ownerCount */\n      gt\n      iszero\n        /* \"MultiSigWallet.sol\":2254:2322  ownerCount <= MAX_OWNER_COUNT... */\n    tag_231:\n        /* \"MultiSigWallet.sol\":2254:2352  ownerCount <= MAX_OWNER_COUNT... */\n      dup1\n      iszero\n      tag_232\n      jumpi\n      pop\n        /* \"MultiSigWallet.sol\":2338:2352  _required != 0 */\n      dup1\n      iszero\n      iszero\n        /* \"MultiSigWallet.sol\":2254:2352  ownerCount <= MAX_OWNER_COUNT... */\n    tag_232:\n        /* \"MultiSigWallet.sol\":2254:2383  ownerCount <= MAX_OWNER_COUNT... */\n      dup1\n      iszero\n      tag_233\n      jumpi\n      pop\n        /* \"MultiSigWallet.sol\":2368:2383  ownerCount != 0 */\n      dup2\n      iszero\n      iszero\n        /* \"MultiSigWallet.sol\":2254:2383  ownerCount <= MAX_OWNER_COUNT... */\n    tag_233:\n        /* \"MultiSigWallet.sol\":2246:2384  require(ownerCount <= MAX_OWNER_COUNT... */\n      iszero\n      iszero\n      tag_234\n      jumpi\n      0x0\n      dup1\n      revert\n    tag_234:\n        /* \"MultiSigWallet.sol\":5120:5128  required */\n      0x4\n        /* \"MultiSigWallet.sol\":5120:5140  required = _required */\n      dup4\n      swap1\n      sstore\n        /* \"MultiSigWallet.sol\":5150:5178  RequirementChange(_required) */\n      0x40\n      dup1\n      mload\n      dup5\n      dup2\n      mstore\n      swap1\n      mload\n      0xa3f1ee9126a074d9326c682f561767f710e927faa811f7a99829d49dc421797a\n      swap2\n      dup2\n      swap1\n      sub\n      0x20\n      add\n      swap1\n      log1\n        /* \"MultiSigWallet.sol\":1356:1357  _ */\n      pop\n      pop\n        /* \"MultiSigWallet.sol\":4978:5185  function changeRequirement(uint _required)... */\n      pop\n      jump\t// out\n        /* \"MultiSigWallet.sol\":5794:6138  function confirmTransaction(uint transactionId)... */\n    tag_100:\n        /* \"MultiSigWallet.sol\":5877:5887  msg.sender */\n      caller\n        /* \"MultiSigWallet.sol\":1524:1538  isOwner[owner] */\n      0x0\n      dup2\n      dup2\n      mstore\n        /* \"MultiSigWallet.sol\":1524:1531  isOwner */\n      0x2\n        /* \"MultiSigWallet.sol\":1524:1538  isOwner[owner] */\n      0x20\n      mstore\n      0x40\n      swap1\n      keccak256\n      sload\n      0xff\n      and\n        /* \"MultiSigWallet.sol\":1516:1539  require(isOwner[owner]) */\n      iszero\n      iszero\n      tag_237\n      jumpi\n      0x0\n      dup1\n      revert\n    tag_237:\n        /* \"MultiSigWallet.sol\":1628:1640  transactions */\n      0x0\n        /* \"MultiSigWallet.sol\":1628:1655  transactions[transactionId] */\n      dup3\n      dup2\n      mstore\n      0x20\n      dup2\n      swap1\n      mstore\n      0x40\n      swap1\n      keccak256\n        /* \"MultiSigWallet.sol\":1628:1667  transactions[transactionId].destination */\n      sload\n        /* \"MultiSigWallet.sol\":5915:5928  transactionId */\n      dup3\n      swap1\n      sub(exp(0x2, 0xa0), 0x1)\n        /* \"MultiSigWallet.sol\":1628:1667  transactions[transactionId].destination */\n      and\n        /* \"MultiSigWallet.sol\":1628:1672  transactions[transactionId].destination != 0 */\n      iszero\n      iszero\n        /* \"MultiSigWallet.sol\":1620:1673  require(transactions[transactionId].destination != 0) */\n      tag_239\n      jumpi\n      0x0\n      dup1\n      revert\n    tag_239:\n        /* \"MultiSigWallet.sol\":1905:1933  confirmations[transactionId] */\n      0x0\n      dup4\n      dup2\n      mstore\n        /* \"MultiSigWallet.sol\":1905:1918  confirmations */\n      0x1\n        /* \"MultiSigWallet.sol\":1905:1933  confirmations[transactionId] */\n      0x20\n      swap1\n      dup2\n      mstore\n      0x40\n      dup1\n      dup4\n      keccak256\n        /* \"MultiSigWallet.sol\":5966:5976  msg.sender */\n      caller\n        /* \"MultiSigWallet.sol\":1905:1940  confirmations[transactionId][owner] */\n      dup1\n      dup6\n      mstore\n      swap3\n      mstore\n      swap1\n      swap2\n      keccak256\n      sload\n        /* \"MultiSigWallet.sol\":5951:5964  transactionId */\n      dup5\n      swap2\n        /* \"MultiSigWallet.sol\":5966:5976  msg.sender */\n      swap1\n        /* \"MultiSigWallet.sol\":1905:1940  confirmations[transactionId][owner] */\n      0xff\n      and\n        /* \"MultiSigWallet.sol\":1904:1940  !confirmations[transactionId][owner] */\n      iszero\n        /* \"MultiSigWallet.sol\":1896:1941  require(!confirmations[transactionId][owner]) */\n      tag_241\n      jumpi\n      0x0\n      dup1\n      revert\n    tag_241:\n        /* \"MultiSigWallet.sol\":5992:6020  confirmations[transactionId] */\n      0x0\n      dup6\n      dup2\n      mstore\n        /* \"MultiSigWallet.sol\":6035:6039  true */\n      0x1\n        /* \"MultiSigWallet.sol\":5992:6020  confirmations[transactionId] */\n      0x20\n      dup2\n      dup2\n      mstore\n      0x40\n      dup1\n      dup5\n      keccak256\n        /* \"MultiSigWallet.sol\":6021:6031  msg.sender */\n      caller\n        /* \"MultiSigWallet.sol\":5992:6032  confirmations[transactionId][msg.sender] */\n      dup1\n      dup7\n      mstore\n      swap3\n      mstore\n      dup1\n      dup5\n      keccak256\n        /* \"MultiSigWallet.sol\":5992:6039  confirmations[transactionId][msg.sender] = true */\n      dup1\n      sload\n      not(0xff)\n      and\n      swap1\n      swap4\n      or\n      swap1\n      swap3\n      sstore\n        /* \"MultiSigWallet.sol\":6049:6088  Confirmation(msg.sender, transactionId) */\n      swap1\n      mload\n        /* \"MultiSigWallet.sol\":6006:6019  transactionId */\n      dup8\n      swap3\n        /* \"MultiSigWallet.sol\":6049:6088  Confirmation(msg.sender, transactionId) */\n      0x4a504a94899432a9846e1aa406dceb1bcfd538bb839071d49d1e5e23f5be30ef\n      swap2\n      log3\n        /* \"MultiSigWallet.sol\":6098:6131  executeTransaction(transactionId) */\n      tag_243\n        /* \"MultiSigWallet.sol\":6117:6130  transactionId */\n      dup6\n        /* \"MultiSigWallet.sol\":6098:6116  executeTransaction */\n      tag_118\n        /* \"MultiSigWallet.sol\":6098:6131  executeTransaction(transactionId) */\n      jump\t// in\n    tag_243:\n        /* \"MultiSigWallet.sol\":1683:1684  _ */\n      pop\n      pop\n        /* \"MultiSigWallet.sol\":1549:1550  _ */\n      pop\n        /* \"MultiSigWallet.sol\":5794:6138  function confirmTransaction(uint transactionId)... */\n      pop\n      pop\n      jump\t// out\n        /* \"MultiSigWallet.sol\":5444:5688  function submitTransaction(address destination, uint value, bytes data)... */\n    tag_103:\n        /* \"MultiSigWallet.sol\":5548:5566  uint transactionId */\n      0x0\n        /* \"MultiSigWallet.sol\":5598:5638  addTransaction(destination, value, data) */\n      tag_245\n        /* \"MultiSigWallet.sol\":5613:5624  destination */\n      dup5\n        /* \"MultiSigWallet.sol\":5626:5631  value */\n      dup5\n        /* \"MultiSigWallet.sol\":5633:5637  data */\n      dup5\n        /* \"MultiSigWallet.sol\":5598:5612  addTransaction */\n      tag_246\n        /* \"MultiSigWallet.sol\":5598:5638  addTransaction(destination, value, data) */\n      jump\t// in\n    tag_245:\n        /* \"MultiSigWallet.sol\":5582:5638  transactionId = addTransaction(destination, value, data) */\n      swap1\n      pop\n        /* \"MultiSigWallet.sol\":5648:5681  confirmTransaction(transactionId) */\n      tag_247\n        /* \"MultiSigWallet.sol\":5667:5680  transactionId */\n      dup2\n        /* \"MultiSigWallet.sol\":5648:5666  confirmTransaction */\n      tag_100\n        /* \"MultiSigWallet.sol\":5648:5681  confirmTransaction(transactionId) */\n      jump\t// in\n    tag_247:\n        /* \"MultiSigWallet.sol\":5444:5688  function submitTransaction(address destination, uint value, bytes data)... */\n      swap4\n      swap3\n      pop\n      pop\n      pop\n      jump\t// out\n        /* \"MultiSigWalletWithDailyLimit.sol\":1171:1333  function changeDailyLimit(uint _dailyLimit)... */\n    tag_106:\n        /* \"MultiSigWallet.sol\":1318:1328  msg.sender */\n      caller\n        /* \"MultiSigWallet.sol\":1340:1344  this */\n      address\n        /* \"MultiSigWallet.sol\":1318:1345  msg.sender == address(this) */\n      eq\n        /* \"MultiSigWallet.sol\":1310:1346  require(msg.sender == address(this)) */\n      tag_249\n      jumpi\n      0x0\n      dup1\n      revert\n    tag_249:\n        /* \"MultiSigWalletWithDailyLimit.sol\":1263:1273  dailyLimit */\n      0x6\n        /* \"MultiSigWalletWithDailyLimit.sol\":1263:1287  dailyLimit = _dailyLimit */\n      dup2\n      swap1\n      sstore\n        /* \"MultiSigWalletWithDailyLimit.sol\":1297:1326  DailyLimitChange(_dailyLimit) */\n      0x40\n      dup1\n      mload\n      dup3\n      dup2\n      mstore\n      swap1\n      mload\n      0xc71bdc6afaf9b1aa90a7078191d4fc1adf3bf680fca3183697df6b0dc226bca2\n      swap2\n      dup2\n      swap1\n      sub\n      0x20\n      add\n      swap1\n      log1\n        /* \"MultiSigWalletWithDailyLimit.sol\":1171:1333  function changeDailyLimit(uint _dailyLimit)... */\n      pop\n      jump\t// out\n        /* \"MultiSigWallet.sol\":781:822  uint constant public MAX_OWNER_COUNT = 50 */\n    tag_109:\n        /* \"MultiSigWallet.sol\":820:822  50 */\n      0x32\n        /* \"MultiSigWallet.sol\":781:822  uint constant public MAX_OWNER_COUNT = 50 */\n      dup2\n      jump\t// out\n        /* \"MultiSigWallet.sol\":1060:1080  uint public required */\n    tag_112:\n      sload(0x4)\n      dup2\n      jump\t// out\n        /* \"MultiSigWallet.sol\":4358:4807  function replaceOwner(address owner, address newOwner)... */\n    tag_115:\n        /* \"MultiSigWallet.sol\":4529:4535  uint i */\n      0x0\n        /* \"MultiSigWallet.sol\":1318:1328  msg.sender */\n      caller\n        /* \"MultiSigWallet.sol\":1340:1344  this */\n      address\n        /* \"MultiSigWallet.sol\":1318:1345  msg.sender == address(this) */\n      eq\n        /* \"MultiSigWallet.sol\":1310:1346  require(msg.sender == address(this)) */\n      tag_252\n      jumpi\n      0x0\n      dup1\n      revert\n    tag_252:\n      sub(exp(0x2, 0xa0), 0x1)\n        /* \"MultiSigWallet.sol\":1524:1538  isOwner[owner] */\n      dup4\n      and\n      0x0\n      swap1\n      dup2\n      mstore\n        /* \"MultiSigWallet.sol\":1524:1531  isOwner */\n      0x2\n        /* \"MultiSigWallet.sol\":1524:1538  isOwner[owner] */\n      0x20\n      mstore\n      0x40\n      swap1\n      keccak256\n      sload\n        /* \"MultiSigWallet.sol\":4467:4472  owner */\n      dup4\n      swap1\n        /* \"MultiSigWallet.sol\":1524:1538  isOwner[owner] */\n      0xff\n      and\n        /* \"MultiSigWallet.sol\":1516:1539  require(isOwner[owner]) */\n      iszero\n      iszero\n      tag_254\n      jumpi\n      0x0\n      dup1\n      revert\n    tag_254:\n      sub(exp(0x2, 0xa0), 0x1)\n        /* \"MultiSigWallet.sol\":1431:1445  isOwner[owner] */\n      dup4\n      and\n      0x0\n      swap1\n      dup2\n      mstore\n        /* \"MultiSigWallet.sol\":1431:1438  isOwner */\n      0x2\n        /* \"MultiSigWallet.sol\":1431:1445  isOwner[owner] */\n      0x20\n      mstore\n      0x40\n      swap1\n      keccak256\n      sload\n        /* \"MultiSigWallet.sol\":4500:4508  newOwner */\n      dup4\n      swap1\n        /* \"MultiSigWallet.sol\":1431:1445  isOwner[owner] */\n      0xff\n      and\n        /* \"MultiSigWallet.sol\":1430:1445  !isOwner[owner] */\n      iszero\n        /* \"MultiSigWallet.sol\":1422:1446  require(!isOwner[owner]) */\n      tag_256\n      jumpi\n      0x0\n      dup1\n      revert\n    tag_256:\n        /* \"MultiSigWallet.sol\":4536:4537  0 */\n      0x0\n        /* \"MultiSigWallet.sol\":4529:4537  uint i=0 */\n      swap3\n      pop\n        /* \"MultiSigWallet.sol\":4524:4673  for (uint i=0; i<owners.length; i++)... */\n    tag_258:\n        /* \"MultiSigWallet.sol\":4541:4547  owners */\n      0x3\n        /* \"MultiSigWallet.sol\":4541:4554  owners.length */\n      sload\n        /* \"MultiSigWallet.sol\":4539:4554  i<owners.length */\n      dup4\n      lt\n        /* \"MultiSigWallet.sol\":4524:4673  for (uint i=0; i<owners.length; i++)... */\n      iszero\n      tag_259\n      jumpi\n        /* \"MultiSigWallet.sol\":4590:4595  owner */\n      dup5\n      sub(exp(0x2, 0xa0), 0x1)\n        /* \"MultiSigWallet.sol\":4577:4595  owners[i] == owner */\n      and\n        /* \"MultiSigWallet.sol\":4577:4583  owners */\n      0x3\n        /* \"MultiSigWallet.sol\":4584:4585  i */\n      dup5\n        /* \"MultiSigWallet.sol\":4577:4586  owners[i] */\n      dup2\n      sload\n      dup2\n      lt\n      iszero\n      iszero\n      tag_261\n      jumpi\n      invalid\n    tag_261:\n      0x0\n      swap2\n      dup3\n      mstore\n      0x20\n      swap1\n      swap2\n      keccak256\n      add\n      sload\n      sub(exp(0x2, 0xa0), 0x1)\n      and\n        /* \"MultiSigWallet.sol\":4577:4595  owners[i] == owner */\n      eq\n        /* \"MultiSigWallet.sol\":4573:4673  if (owners[i] == owner) {... */\n      iszero\n      tag_263\n      jumpi\n        /* \"MultiSigWallet.sol\":4627:4635  newOwner */\n      dup4\n        /* \"MultiSigWallet.sol\":4615:4621  owners */\n      0x3\n        /* \"MultiSigWallet.sol\":4622:4623  i */\n      dup5\n        /* \"MultiSigWallet.sol\":4615:4624  owners[i] */\n      dup2\n      sload\n      dup2\n      lt\n      iszero\n      iszero\n      tag_264\n      jumpi\n      invalid\n    tag_264:\n      swap1\n      0x0\n      mstore\n      keccak256(0x0, 0x20)\n      add\n      0x0\n        /* \"MultiSigWallet.sol\":4615:4635  owners[i] = newOwner */\n      0x100\n      exp\n      dup2\n      sload\n      dup2\n      sub(exp(0x2, 0xa0), 0x1)\n      mul\n      not\n      and\n      swap1\n      dup4\n      sub(exp(0x2, 0xa0), 0x1)\n      and\n      mul\n      or\n      swap1\n      sstore\n      pop\n        /* \"MultiSigWallet.sol\":4653:4658  break */\n      jump(tag_259)\n        /* \"MultiSigWallet.sol\":4573:4673  if (owners[i] == owner) {... */\n    tag_263:\n        /* \"MultiSigWallet.sol\":4556:4559  i++ */\n      0x1\n      swap1\n      swap3\n      add\n      swap2\n        /* \"MultiSigWallet.sol\":4524:4673  for (uint i=0; i<owners.length; i++)... */\n      jump(tag_258)\n    tag_259:\n      sub(exp(0x2, 0xa0), 0x1)\n        /* \"MultiSigWallet.sol\":4682:4696  isOwner[owner] */\n      dup1\n      dup7\n      and\n        /* \"MultiSigWallet.sol\":4699:4704  false */\n      0x0\n        /* \"MultiSigWallet.sol\":4682:4696  isOwner[owner] */\n      dup2\n      dup2\n      mstore\n        /* \"MultiSigWallet.sol\":4682:4689  isOwner */\n      0x2\n        /* \"MultiSigWallet.sol\":4682:4696  isOwner[owner] */\n      0x20\n      mstore\n      0x40\n      dup1\n      dup3\n      keccak256\n        /* \"MultiSigWallet.sol\":4682:4704  isOwner[owner] = false */\n      dup1\n      sload\n      not(0xff)\n      swap1\n      dup2\n      and\n      swap1\n      swap2\n      sstore\n        /* \"MultiSigWallet.sol\":4714:4731  isOwner[newOwner] */\n      swap4\n      dup9\n      and\n      dup3\n      mstore\n      dup1\n      dup3\n      keccak256\n        /* \"MultiSigWallet.sol\":4714:4738  isOwner[newOwner] = true */\n      dup1\n      sload\n      swap1\n      swap5\n      and\n        /* \"MultiSigWallet.sol\":4682:4704  isOwner[owner] = false */\n      0x1\n        /* \"MultiSigWallet.sol\":4714:4738  isOwner[newOwner] = true */\n      or\n      swap1\n      swap4\n      sstore\n        /* \"MultiSigWallet.sol\":4748:4767  OwnerRemoval(owner) */\n      swap2\n      mload\n        /* \"MultiSigWallet.sol\":4682:4696  isOwner[owner] */\n      swap1\n      swap2\n        /* \"MultiSigWallet.sol\":4748:4767  OwnerRemoval(owner) */\n      0x8001553a916ef2f495d26a907cc54d96ed840d7bda71e73194bf5a9df7a76b90\n      swap2\n      log2\n        /* \"MultiSigWallet.sol\":4777:4800  OwnerAddition(newOwner) */\n      mload(0x40)\n      sub(exp(0x2, 0xa0), 0x1)\n      dup6\n      and\n      swap1\n      0xf39e6e1eb0edcf53c221607b54b00cd28f3196fed0a24994dc308b8f611b682d\n      swap1\n      0x0\n      swap1\n      log2\n        /* \"MultiSigWallet.sol\":1549:1550  _ */\n      pop\n        /* \"MultiSigWallet.sol\":1356:1357  _ */\n      pop\n        /* \"MultiSigWallet.sol\":4358:4807  function replaceOwner(address owner, address newOwner)... */\n      pop\n      pop\n      pop\n      jump\t// out\n        /* \"MultiSigWalletWithDailyLimit.sol\":1495:2314  function executeTransaction(uint transactionId)... */\n    tag_118:\n        /* \"MultiSigWalletWithDailyLimit.sol\":1578:1588  msg.sender */\n      caller\n        /* \"MultiSigWalletWithDailyLimit.sol\":1684:1707  Transaction storage txn */\n      0x0\n        /* \"MultiSigWallet.sol\":1524:1538  isOwner[owner] */\n      dup2\n      dup2\n      mstore\n        /* \"MultiSigWallet.sol\":1524:1531  isOwner */\n      0x2\n        /* \"MultiSigWallet.sol\":1524:1538  isOwner[owner] */\n      0x20\n      mstore\n      0x40\n      dup2\n      keccak256\n      sload\n        /* \"MultiSigWalletWithDailyLimit.sol\":1684:1707  Transaction storage txn */\n      swap1\n      swap2\n      dup3\n      swap2\n        /* \"MultiSigWallet.sol\":1524:1538  isOwner[owner] */\n      0xff\n      and\n        /* \"MultiSigWallet.sol\":1516:1539  require(isOwner[owner]) */\n      iszero\n      iszero\n      tag_267\n      jumpi\n      0x0\n      dup1\n      revert\n    tag_267:\n        /* \"MultiSigWallet.sol\":1769:1797  confirmations[transactionId] */\n      0x0\n      dup5\n      dup2\n      mstore\n        /* \"MultiSigWallet.sol\":1769:1782  confirmations */\n      0x1\n        /* \"MultiSigWallet.sol\":1769:1797  confirmations[transactionId] */\n      0x20\n      swap1\n      dup2\n      mstore\n      0x40\n      dup1\n      dup4\n      keccak256\n        /* \"MultiSigWalletWithDailyLimit.sol\":1623:1633  msg.sender */\n      caller\n        /* \"MultiSigWallet.sol\":1769:1804  confirmations[transactionId][owner] */\n      dup1\n      dup6\n      mstore\n      swap3\n      mstore\n      swap1\n      swap2\n      keccak256\n      sload\n        /* \"MultiSigWalletWithDailyLimit.sol\":1608:1621  transactionId */\n      dup6\n      swap2\n        /* \"MultiSigWalletWithDailyLimit.sol\":1623:1633  msg.sender */\n      swap1\n        /* \"MultiSigWallet.sol\":1769:1804  confirmations[transactionId][owner] */\n      0xff\n      and\n        /* \"MultiSigWallet.sol\":1761:1805  require(confirmations[transactionId][owner]) */\n      iszero\n      iszero\n      tag_269\n      jumpi\n      0x0\n      dup1\n      revert\n    tag_269:\n        /* \"MultiSigWallet.sol\":2025:2037  transactions */\n      0x0\n        /* \"MultiSigWallet.sol\":2025:2052  transactions[transactionId] */\n      dup7\n      dup2\n      mstore\n      0x20\n      dup2\n      swap1\n      mstore\n      0x40\n      swap1\n      keccak256\n        /* \"MultiSigWallet.sol\":2025:2061  transactions[transactionId].executed */\n      0x3\n      add\n      sload\n        /* \"MultiSigWalletWithDailyLimit.sol\":1655:1668  transactionId */\n      dup7\n      swap1\n        /* \"MultiSigWallet.sol\":2025:2061  transactions[transactionId].executed */\n      0xff\n      and\n        /* \"MultiSigWallet.sol\":2024:2061  !transactions[transactionId].executed */\n      iszero\n        /* \"MultiSigWallet.sol\":2016:2062  require(!transactions[transactionId].executed) */\n      tag_271\n      jumpi\n      0x0\n      dup1\n      revert\n    tag_271:\n        /* \"MultiSigWalletWithDailyLimit.sol\":1710:1722  transactions */\n      0x0\n        /* \"MultiSigWalletWithDailyLimit.sol\":1710:1737  transactions[transactionId] */\n      dup8\n      dup2\n      mstore\n      0x20\n      dup2\n      swap1\n      mstore\n      0x40\n      swap1\n      keccak256\n      swap6\n      pop\n        /* \"MultiSigWalletWithDailyLimit.sol\":1765:1791  isConfirmed(transactionId) */\n      tag_273\n        /* \"MultiSigWalletWithDailyLimit.sol\":1723:1736  transactionId */\n      dup8\n        /* \"MultiSigWalletWithDailyLimit.sol\":1765:1776  isConfirmed */\n      tag_63\n        /* \"MultiSigWalletWithDailyLimit.sol\":1765:1791  isConfirmed(transactionId) */\n      jump\t// in\n    tag_273:\n        /* \"MultiSigWalletWithDailyLimit.sol\":1747:1791  bool _confirmed = isConfirmed(transactionId) */\n      swap5\n      pop\n        /* \"MultiSigWalletWithDailyLimit.sol\":1805:1815  _confirmed */\n      dup5\n        /* \"MultiSigWalletWithDailyLimit.sol\":1805:1866  _confirmed || txn.data.length == 0 && isUnderLimit(txn.value) */\n      dup1\n      tag_276\n      jumpi\n      pop\n        /* \"MultiSigWalletWithDailyLimit.sol\":1819:1827  txn.data */\n      0x2\n      dup1\n      dup8\n      add\n        /* \"MultiSigWalletWithDailyLimit.sol\":1819:1834  txn.data.length */\n      sload\n      not(0x0)\n      0x100\n      0x1\n      dup4\n      and\n      iszero\n      mul\n      add\n      and\n      div\n        /* \"MultiSigWalletWithDailyLimit.sol\":1819:1839  txn.data.length == 0 */\n      iszero\n        /* \"MultiSigWalletWithDailyLimit.sol\":1819:1866  txn.data.length == 0 && isUnderLimit(txn.value) */\n      dup1\n      iszero\n      tag_276\n      jumpi\n      pop\n        /* \"MultiSigWalletWithDailyLimit.sol\":1843:1866  isUnderLimit(txn.value) */\n      tag_276\n        /* \"MultiSigWalletWithDailyLimit.sol\":1856:1859  txn */\n      dup7\n        /* \"MultiSigWalletWithDailyLimit.sol\":1856:1865  txn.value */\n      0x1\n      add\n      sload\n        /* \"MultiSigWalletWithDailyLimit.sol\":1843:1855  isUnderLimit */\n      tag_277\n        /* \"MultiSigWalletWithDailyLimit.sol\":1843:1866  isUnderLimit(txn.value) */\n      jump\t// in\n    tag_276:\n        /* \"MultiSigWalletWithDailyLimit.sol\":1801:2308  if (_confirmed || txn.data.length == 0 && isUnderLimit(txn.value)) {... */\n      iszero\n      tag_287\n      jumpi\n        /* \"MultiSigWalletWithDailyLimit.sol\":1882:1894  txn.executed */\n      0x3\n      dup7\n      add\n        /* \"MultiSigWalletWithDailyLimit.sol\":1882:1901  txn.executed = true */\n      dup1\n      sload\n      not(0xff)\n      and\n        /* \"MultiSigWalletWithDailyLimit.sol\":1897:1901  true */\n      0x1\n        /* \"MultiSigWalletWithDailyLimit.sol\":1882:1901  txn.executed = true */\n      or\n      swap1\n      sstore\n        /* \"MultiSigWalletWithDailyLimit.sol\":1919:1930  !_confirmed */\n      dup5\n      iszero\n        /* \"MultiSigWalletWithDailyLimit.sol\":1915:1971  if (!_confirmed)... */\n      iszero\n      tag_279\n      jumpi\n        /* \"MultiSigWalletWithDailyLimit.sol\":1962:1971  txn.value */\n      0x1\n      dup7\n      add\n      sload\n        /* \"MultiSigWalletWithDailyLimit.sol\":1948:1958  spentToday */\n      0x8\n        /* \"MultiSigWalletWithDailyLimit.sol\":1948:1971  spentToday += txn.value */\n      dup1\n      sload\n      swap1\n      swap2\n      add\n      swap1\n      sstore\n        /* \"MultiSigWalletWithDailyLimit.sol\":1915:1971  if (!_confirmed)... */\n    tag_279:\n        /* \"MultiSigWalletWithDailyLimit.sol\":2003:2018  txn.destination */\n      dup6\n      sload\n      0x1\n        /* \"MultiSigWalletWithDailyLimit.sol\":2020:2029  txn.value */\n      dup1\n      dup9\n      add\n      sload\n        /* \"MultiSigWalletWithDailyLimit.sol\":2031:2039  txn.data */\n      0x2\n      dup1\n      dup11\n      add\n        /* \"MultiSigWalletWithDailyLimit.sol\":2031:2046  txn.data.length */\n      dup1\n      sload\n        /* \"MultiSigWalletWithDailyLimit.sol\":1989:2057  external_call(txn.destination, txn.value, txn.data.length, txn.data) */\n      0x40\n      dup1\n      mload\n      0x20\n      0x1f\n      not(0x0)\n        /* \"MultiSigWalletWithDailyLimit.sol\":2031:2046  txn.data.length */\n      swap9\n      dup6\n      and\n      iszero\n        /* \"MultiSigWalletWithDailyLimit.sol\":2003:2018  txn.destination */\n      0x100\n        /* \"MultiSigWalletWithDailyLimit.sol\":2031:2046  txn.data.length */\n      mul\n      swap9\n      swap1\n      swap9\n      add\n      swap1\n      swap4\n      and\n      swap5\n      swap1\n      swap5\n      div\n        /* \"MultiSigWalletWithDailyLimit.sol\":1989:2057  external_call(txn.destination, txn.value, txn.data.length, txn.data) */\n      swap6\n      dup7\n      add\n      dup3\n      swap1\n      div\n      dup3\n      mul\n      dup5\n      add\n      dup3\n      add\n      swap1\n      mstore\n      dup5\n      dup4\n      mstore\n      tag_280\n      swap6\n      sub(exp(0x2, 0xa0), 0x1)\n        /* \"MultiSigWalletWithDailyLimit.sol\":2003:2018  txn.destination */\n      and\n      swap5\n        /* \"MultiSigWalletWithDailyLimit.sol\":2031:2046  txn.data.length */\n      swap3\n        /* \"MultiSigWalletWithDailyLimit.sol\":1989:2057  external_call(txn.destination, txn.value, txn.data.length, txn.data) */\n      swap2\n        /* \"MultiSigWalletWithDailyLimit.sol\":2031:2039  txn.data */\n      swap1\n        /* \"MultiSigWalletWithDailyLimit.sol\":2031:2046  txn.data.length */\n      dup4\n      swap1\n        /* \"MultiSigWalletWithDailyLimit.sol\":1989:2057  external_call(txn.destination, txn.value, txn.data.length, txn.data) */\n      dup4\n      add\n        /* \"MultiSigWalletWithDailyLimit.sol\":2031:2039  txn.data */\n      dup3\n        /* \"MultiSigWalletWithDailyLimit.sol\":2031:2046  txn.data.length */\n      dup3\n        /* \"MultiSigWalletWithDailyLimit.sol\":1989:2057  external_call(txn.destination, txn.value, txn.data.length, txn.data) */\n      dup1\n      iszero\n      tag_281\n      jumpi\n      dup1\n      0x1f\n      lt\n      tag_282\n      jumpi\n      0x100\n      dup1\n      dup4\n      sload\n      div\n      mul\n      dup4\n      mstore\n      swap2\n      0x20\n      add\n      swap2\n      jump(tag_281)\n    tag_282:\n      dup3\n      add\n      swap2\n      swap1\n      0x0\n      mstore\n      keccak256(0x0, 0x20)\n      swap1\n    tag_283:\n      dup2\n      sload\n      dup2\n      mstore\n      swap1\n      0x1\n      add\n      swap1\n      0x20\n      add\n      dup1\n      dup4\n      gt\n      tag_283\n      jumpi\n      dup3\n      swap1\n      sub\n      0x1f\n      and\n      dup3\n      add\n      swap2\n    tag_281:\n      pop\n      pop\n      pop\n      pop\n      pop\n        /* \"MultiSigWalletWithDailyLimit.sol\":1989:2002  external_call */\n      tag_284\n        /* \"MultiSigWalletWithDailyLimit.sol\":1989:2057  external_call(txn.destination, txn.value, txn.data.length, txn.data) */\n      jump\t// in\n    tag_280:\n        /* \"MultiSigWalletWithDailyLimit.sol\":1985:2298  if (external_call(txn.destination, txn.value, txn.data.length, txn.data))... */\n      iszero\n      tag_285\n      jumpi\n        /* \"MultiSigWalletWithDailyLimit.sol\":2075:2099  Execution(transactionId) */\n      mload(0x40)\n        /* \"MultiSigWalletWithDailyLimit.sol\":2085:2098  transactionId */\n      dup8\n      swap1\n        /* \"MultiSigWalletWithDailyLimit.sol\":2075:2099  Execution(transactionId) */\n      0x33e13ecb54c3076d8e8bb8c2881800a4d972b792045ffae98fdf46df365fed75\n      swap1\n      0x0\n      swap1\n      log2\n        /* \"MultiSigWalletWithDailyLimit.sol\":1985:2298  if (external_call(txn.destination, txn.value, txn.data.length, txn.data))... */\n      jump(tag_287)\n    tag_285:\n        /* \"MultiSigWalletWithDailyLimit.sol\":2136:2167  ExecutionFailure(transactionId) */\n      mload(0x40)\n        /* \"MultiSigWalletWithDailyLimit.sol\":2153:2166  transactionId */\n      dup8\n      swap1\n        /* \"MultiSigWalletWithDailyLimit.sol\":2136:2167  ExecutionFailure(transactionId) */\n      0x526441bb6c1aba3c9a4a6ca1d6545da9c2333c8c48343ef398eb858d72b79236\n      swap1\n      0x0\n      swap1\n      log2\n        /* \"MultiSigWalletWithDailyLimit.sol\":2185:2197  txn.executed */\n      0x3\n      dup7\n      add\n        /* \"MultiSigWalletWithDailyLimit.sol\":2185:2205  txn.executed = false */\n      dup1\n      sload\n      not(0xff)\n      and\n      swap1\n      sstore\n        /* \"MultiSigWalletWithDailyLimit.sol\":2227:2238  !_confirmed */\n      dup5\n      iszero\n        /* \"MultiSigWalletWithDailyLimit.sol\":2223:2283  if (!_confirmed)... */\n      iszero\n      tag_287\n      jumpi\n        /* \"MultiSigWalletWithDailyLimit.sol\":2274:2283  txn.value */\n      0x1\n      dup7\n      add\n      sload\n        /* \"MultiSigWalletWithDailyLimit.sol\":2260:2270  spentToday */\n      0x8\n        /* \"MultiSigWalletWithDailyLimit.sol\":2260:2283  spentToday -= txn.value */\n      dup1\n      sload\n      swap2\n      swap1\n      swap2\n      sub\n      swap1\n      sstore\n        /* \"MultiSigWalletWithDailyLimit.sol\":2223:2283  if (!_confirmed)... */\n    tag_287:\n        /* \"MultiSigWallet.sol\":1815:1816  _ */\n      pop\n        /* \"MultiSigWallet.sol\":1549:1550  _ */\n      pop\n      pop\n        /* \"MultiSigWalletWithDailyLimit.sol\":1495:2314  function executeTransaction(uint transactionId)... */\n      pop\n      pop\n      pop\n      pop\n      jump\t// out\n        /* \"MultiSigWalletWithDailyLimit.sol\":451:473  uint public spentToday */\n    tag_121:\n      sload(0x8)\n      dup2\n      jump\t// out\n        /* \"MultiSigWallet.sol\":9354:9805  function addTransaction(address destination, uint value, bytes data)... */\n    tag_246:\n        /* \"MultiSigWallet.sol\":9486:9504  uint transactionId */\n      0x0\n        /* \"MultiSigWallet.sol\":9456:9467  destination */\n      dup4\n      sub(exp(0x2, 0xa0), 0x1)\n        /* \"MultiSigWallet.sol\":2139:2152  _address != 0 */\n      dup2\n      and\n      iszero\n      iszero\n        /* \"MultiSigWallet.sol\":2131:2153  require(_address != 0) */\n      tag_289\n      jumpi\n      0x0\n      dup1\n      revert\n    tag_289:\n        /* \"MultiSigWallet.sol\":9536:9552  transactionCount */\n      sload(0x5)\n        /* \"MultiSigWallet.sol\":9592:9732  Transaction({... */\n      0x40\n      dup1\n      mload\n      0x80\n      dup2\n      add\n      dup3\n      mstore\n      sub(exp(0x2, 0xa0), 0x1)\n      dup9\n      dup2\n      and\n      dup3\n      mstore\n      0x20\n      dup1\n      dup4\n      add\n      dup10\n      dup2\n      mstore\n      dup4\n      dup6\n      add\n      dup10\n      dup2\n      mstore\n      0x0\n      0x60\n      dup7\n      add\n      dup2\n      swap1\n      mstore\n        /* \"MultiSigWallet.sol\":9562:9589  transactions[transactionId] */\n      dup8\n      dup2\n      mstore\n      dup1\n      dup5\n      mstore\n      swap6\n      swap1\n      swap6\n      keccak256\n        /* \"MultiSigWallet.sol\":9562:9732  transactions[transactionId] = Transaction({... */\n      dup5\n      mload\n      dup2\n      sload\n      not(0xffffffffffffffffffffffffffffffffffffffff)\n      and\n      swap5\n      and\n      swap4\n      swap1\n      swap4\n      or\n      dup4\n      sstore\n      mload\n      0x1\n      dup4\n      add\n      sstore\n      swap3\n      mload\n      dup1\n      mload\n        /* \"MultiSigWallet.sol\":9536:9552  transactionCount */\n      swap5\n      swap7\n      pop\n        /* \"MultiSigWallet.sol\":9592:9732  Transaction({... */\n      swap2\n      swap4\n        /* \"MultiSigWallet.sol\":9562:9589  transactions[transactionId] */\n      swap1\n      swap3\n        /* \"MultiSigWallet.sol\":9562:9732  transactions[transactionId] = Transaction({... */\n      tag_291\n      swap3\n      0x2\n      dup6\n      add\n      swap3\n      swap2\n      add\n      swap1\n      jump\t// in(tag_292)\n    tag_291:\n      pop\n      0x60\n      swap2\n      swap1\n      swap2\n      add\n      mload\n      0x3\n      swap1\n      swap2\n      add\n      dup1\n      sload\n      not(0xff)\n      and\n      swap2\n      iszero\n      iszero\n      swap2\n      swap1\n      swap2\n      or\n      swap1\n      sstore\n        /* \"MultiSigWallet.sol\":9742:9758  transactionCount */\n      0x5\n        /* \"MultiSigWallet.sol\":9742:9763  transactionCount += 1 */\n      dup1\n      sload\n      0x1\n      add\n      swap1\n      sstore\n        /* \"MultiSigWallet.sol\":9773:9798  Submission(transactionId) */\n      mload(0x40)\n        /* \"MultiSigWallet.sol\":9784:9797  transactionId */\n      dup3\n      swap1\n        /* \"MultiSigWallet.sol\":9773:9798  Submission(transactionId) */\n      0xc0ba8fe4b176c1714197d43b9cc6bcf797a4a7461c5fe8d0ef6e184ae7601e51\n      swap1\n      0x0\n      swap1\n      log2\n        /* \"MultiSigWallet.sol\":9354:9805  function addTransaction(address destination, uint value, bytes data)... */\n      pop\n      swap4\n      swap3\n      pop\n      pop\n      pop\n      jump\t// out\n        /* \"MultiSigWalletWithDailyLimit.sol\":2549:2869  function isUnderLimit(uint amount)... */\n    tag_277:\n        /* \"MultiSigWalletWithDailyLimit.sol\":2618:2622  bool */\n      0x0\n        /* \"MultiSigWalletWithDailyLimit.sol\":2648:2655  lastDay */\n      sload(0x7)\n        /* \"MultiSigWalletWithDailyLimit.sol\":2658:2666  24 hours */\n      0x15180\n        /* \"MultiSigWalletWithDailyLimit.sol\":2648:2666  lastDay + 24 hours */\n      add\n        /* \"MultiSigWalletWithDailyLimit.sol\":2642:2645  now */\n      timestamp\n        /* \"MultiSigWalletWithDailyLimit.sol\":2642:2666  now > lastDay + 24 hours */\n      gt\n        /* \"MultiSigWalletWithDailyLimit.sol\":2638:2734  if (now > lastDay + 24 hours) {... */\n      iszero\n      tag_294\n      jumpi\n        /* \"MultiSigWalletWithDailyLimit.sol\":2692:2695  now */\n      timestamp\n        /* \"MultiSigWalletWithDailyLimit.sol\":2682:2689  lastDay */\n      0x7\n        /* \"MultiSigWalletWithDailyLimit.sol\":2682:2695  lastDay = now */\n      sstore\n        /* \"MultiSigWalletWithDailyLimit.sol\":2722:2723  0 */\n      0x0\n        /* \"MultiSigWalletWithDailyLimit.sol\":2709:2719  spentToday */\n      0x8\n        /* \"MultiSigWalletWithDailyLimit.sol\":2709:2723  spentToday = 0 */\n      sstore\n        /* \"MultiSigWalletWithDailyLimit.sol\":2638:2734  if (now > lastDay + 24 hours) {... */\n    tag_294:\n        /* \"MultiSigWalletWithDailyLimit.sol\":2769:2779  dailyLimit */\n      sload(0x6)\n        /* \"MultiSigWalletWithDailyLimit.sol\":2760:2766  amount */\n      dup3\n        /* \"MultiSigWalletWithDailyLimit.sol\":2747:2757  spentToday */\n      sload(0x8)\n        /* \"MultiSigWalletWithDailyLimit.sol\":2747:2766  spentToday + amount */\n      add\n        /* \"MultiSigWalletWithDailyLimit.sol\":2747:2779  spentToday + amount > dailyLimit */\n      gt\n        /* \"MultiSigWalletWithDailyLimit.sol\":2747:2815  spentToday + amount > dailyLimit || spentToday + amount < spentToday */\n      dup1\n      tag_295\n      jumpi\n      pop\n        /* \"MultiSigWalletWithDailyLimit.sol\":2805:2815  spentToday */\n      sload(0x8)\n        /* \"MultiSigWalletWithDailyLimit.sol\":2783:2802  spentToday + amount */\n      dup3\n      dup2\n      add\n        /* \"MultiSigWalletWithDailyLimit.sol\":2783:2815  spentToday + amount < spentToday */\n      lt\n        /* \"MultiSigWalletWithDailyLimit.sol\":2747:2815  spentToday + amount > dailyLimit || spentToday + amount < spentToday */\n    tag_295:\n        /* \"MultiSigWalletWithDailyLimit.sol\":2743:2841  if (spentToday + amount > dailyLimit || spentToday + amount < spentToday)... */\n      iszero\n      tag_296\n      jumpi\n      pop\n        /* \"MultiSigWalletWithDailyLimit.sol\":2836:2841  false */\n      0x0\n        /* \"MultiSigWalletWithDailyLimit.sol\":2829:2841  return false */\n      jump(tag_293)\n        /* \"MultiSigWalletWithDailyLimit.sol\":2743:2841  if (spentToday + amount > dailyLimit || spentToday + amount < spentToday)... */\n    tag_296:\n      pop\n        /* \"MultiSigWalletWithDailyLimit.sol\":2858:2862  true */\n      0x1\n        /* \"MultiSigWalletWithDailyLimit.sol\":2549:2869  function isUnderLimit(uint amount)... */\n    tag_293:\n      swap2\n      swap1\n      pop\n      jump\t// out\n        /* \"MultiSigWallet.sol\":7430:8533  function external_call(address destination, uint value, uint dataLength, bytes data) internal returns (bool) {... */\n    tag_284:\n        /* \"MultiSigWallet.sol\":7533:7537  bool */\n      0x0\n        /* \"MultiSigWallet.sol\":7549:7560  bool result */\n      dup1\n        /* \"MultiSigWallet.sol\":7608:7612  0x40 */\n      0x40\n        /* \"MultiSigWallet.sol\":7602:7613  mload(0x40) */\n      mload\n        /* \"MultiSigWallet.sol\":7741:7743  32 */\n      0x20\n        /* \"MultiSigWallet.sol\":7735:7739  data */\n      dup5\n        /* \"MultiSigWallet.sol\":7731:7744  add(data, 32) */\n      add\n        /* \"MultiSigWallet.sol\":8406:8407  0 */\n      0x0\n        /* \"MultiSigWallet.sol\":8387:8388  x */\n      dup3\n        /* \"MultiSigWallet.sol\":8279:8289  dataLength */\n      dup8\n        /* \"MultiSigWallet.sol\":8260:8261  d */\n      dup4\n        /* \"MultiSigWallet.sol\":8237:8242  value */\n      dup11\n        /* \"MultiSigWallet.sol\":8208:8219  destination */\n      dup13\n        /* \"MultiSigWallet.sol\":7863:7868  34710 */\n      0x8796\n        /* \"MultiSigWallet.sol\":7858:7861  gas */\n      gas\n        /* \"MultiSigWallet.sol\":7854:7869  sub(gas, 34710) */\n      sub\n        /* \"MultiSigWallet.sol\":7832:8494  call(... */\n      call\n        /* \"MultiSigWallet.sol\":7822:8494  result := call(... */\n      swap9\n        /* \"MultiSigWallet.sol\":7430:8533  function external_call(address destination, uint value, uint dataLength, bytes data) internal returns (bool) {... */\n      swap8\n      pop\n      pop\n      pop\n      pop\n      pop\n      pop\n      pop\n      pop\n      jump\t// out\n        /* \"MultiSigWalletWithDailyLimit.sol\":228:3258  contract MultiSigWalletWithDailyLimit is MultiSigWallet {... */\n    tag_140:\n      dup2\n      sload\n      dup2\n      dup4\n      sstore\n      dup2\n      dup2\n      gt\n      iszero\n      tag_299\n      jumpi\n      0x0\n      dup4\n      dup2\n      mstore\n      0x20\n      swap1\n      keccak256\n      tag_299\n      swap2\n      dup2\n      add\n      swap1\n      dup4\n      add\n      jump\t// in(tag_300)\n    tag_299:\n      pop\n      pop\n      pop\n      jump\t// out\n    tag_292:\n      dup3\n      dup1\n      sload\n      0x1\n      dup2\n      0x1\n      and\n      iszero\n      0x100\n      mul\n      sub\n      and\n      0x2\n      swap1\n      div\n      swap1\n      0x0\n      mstore\n      keccak256(0x0, 0x20)\n      swap1\n      0x1f\n      add\n      0x20\n      swap1\n      div\n      dup2\n      add\n      swap3\n      dup3\n      0x1f\n      lt\n      tag_302\n      jumpi\n      dup1\n      mload\n      not(0xff)\n      and\n      dup4\n      dup1\n      add\n      or\n      dup6\n      sstore\n      jump(tag_304)\n    tag_302:\n      dup3\n      dup1\n      add\n      0x1\n      add\n      dup6\n      sstore\n      dup3\n      iszero\n      tag_304\n      jumpi\n      swap2\n      dup3\n      add\n    tag_303:\n      dup3\n      dup2\n      gt\n      iszero\n      tag_304\n      jumpi\n      dup3\n      mload\n      dup3\n      sstore\n      swap2\n      0x20\n      add\n      swap2\n      swap1\n      0x1\n      add\n      swap1\n      jump(tag_303)\n    tag_304:\n      pop\n      tag_305\n      swap3\n      swap2\n      pop\n      jump\t// in(tag_300)\n    tag_305:\n      pop\n      swap1\n      jump\t// out\n    tag_300:\n      tag_150\n      swap2\n      swap1\n    tag_307:\n      dup1\n      dup3\n      gt\n      iszero\n      tag_305\n      jumpi\n      0x0\n      dup2\n      sstore\n      0x1\n      add\n      jump(tag_307)\n\n    auxdata: 0xa165627a7a72305820659e7def074f9f23e3aae226040c6963e0ca51911a869f68980aa1461c9a5ad30029\n}\n",
				"bytecode": {
					"linkReferences": {},
					"object": "60806040523480156200001157600080fd5b50604051620018be380380620018be833981016040908152815160208301519183015192018051909290839083906000908260328211801590620000555750818111155b80156200006157508015155b80156200006d57508115155b15156200007957600080fd5b600092505b845183101562000151576002600086858151811015156200009b57fe5b6020908102909101810151600160a060020a031682528101919091526040016000205460ff16158015620000f157508483815181101515620000d957fe5b90602001906020020151600160a060020a0316600014155b1515620000fd57600080fd5b60016002600087868151811015156200011257fe5b602090810291909101810151600160a060020a03168252810191909152604001600020805460ff1916911515919091179055600192909201916200007e565b8451620001669060039060208801906200017d565b505050600491909155505060065550620002119050565b828054828255906000526020600020908101928215620001d5579160200282015b82811115620001d55782518254600160a060020a031916600160a060020a039091161782556020909201916001909101906200019e565b50620001e3929150620001e7565b5090565b6200020e91905b80821115620001e3578054600160a060020a0319168155600101620001ee565b90565b61169d80620002216000396000f3006080604052600436106101535763ffffffff7c0100000000000000000000000000000000000000000000000000000000600035041663025e7c278114610195578063173825d9146101c957806320ea8d86146101ea5780632f54bf6e146102025780633411c81c146102375780634bc9fdc21461025b578063547415251461028257806367eeba0c146102a15780636b0c932d146102b65780637065cb48146102cb578063784547a7146102ec5780638b51d13f146103045780639ace38c21461031c578063a0e67e2b146103d7578063a8abe69a1461043c578063b5dc40c314610461578063b77bf60014610479578063ba51a6df1461048e578063c01a8c84146104a6578063c6427474146104be578063cea0862114610527578063d74f8edd1461053f578063dc8452cd14610554578063e20056e614610569578063ee22610b14610590578063f059cf2b146105a8575b60003411156101935760408051348152905133917fe1fffcc4923d04b559f4d29a8bfc6cda04eb5b0d3c460751c2402c5c5cc9109c919081900360200190a25b005b3480156101a157600080fd5b506101ad6004356105bd565b60408051600160a060020a039092168252519081900360200190f35b3480156101d557600080fd5b50610193600160a060020a03600435166105e5565b3480156101f657600080fd5b5061019360043561075c565b34801561020e57600080fd5b50610223600160a060020a0360043516610816565b604080519115158252519081900360200190f35b34801561024357600080fd5b50610223600435600160a060020a036024351661082b565b34801561026757600080fd5b5061027061084b565b60408051918252519081900360200190f35b34801561028e57600080fd5b5061027060043515156024351515610885565b3480156102ad57600080fd5b506102706108f1565b3480156102c257600080fd5b506102706108f7565b3480156102d757600080fd5b50610193600160a060020a03600435166108fd565b3480156102f857600080fd5b50610223600435610a22565b34801561031057600080fd5b50610270600435610aa6565b34801561032857600080fd5b50610334600435610b15565b6040518085600160a060020a0316600160a060020a031681526020018481526020018060200183151515158152602001828103825284818151815260200191508051906020019080838360005b83811015610399578181015183820152602001610381565b50505050905090810190601f1680156103c65780820380516001836020036101000a031916815260200191505b509550505050505060405180910390f35b3480156103e357600080fd5b506103ec610bd3565b60408051602080825283518183015283519192839290830191858101910280838360005b83811015610428578181015183820152602001610410565b505050509050019250505060405180910390f35b34801561044857600080fd5b506103ec60043560243560443515156064351515610c35565b34801561046d57600080fd5b506103ec600435610d6e565b34801561048557600080fd5b50610270610ee7565b34801561049a57600080fd5b50610193600435610eed565b3480156104b257600080fd5b50610193600435610f6c565b3480156104ca57600080fd5b50604080516020600460443581810135601f8101849004840285018401909552848452610270948235600160a060020a03169460248035953695946064949201919081908401838280828437509497506110379650505050505050565b34801561053357600080fd5b50610193600435611056565b34801561054b57600080fd5b5061027061109d565b34801561056057600080fd5b506102706110a2565b34801561057557600080fd5b50610193600160a060020a03600435811690602435166110a8565b34801561059c57600080fd5b50610193600435611232565b3480156105b457600080fd5b5061027061144f565b60038054829081106105cb57fe5b600091825260209091200154600160a060020a0316905081565b60003330146105f357600080fd5b600160a060020a038216600090815260026020526040902054829060ff16151561061c57600080fd5b600160a060020a0383166000908152600260205260408120805460ff1916905591505b600354600019018210156106f75782600160a060020a031660038381548110151561066657fe5b600091825260209091200154600160a060020a031614156106ec5760038054600019810190811061069357fe5b60009182526020909120015460038054600160a060020a0390921691849081106106b957fe5b9060005260206000200160006101000a815481600160a060020a030219169083600160a060020a031602179055506106f7565b60019091019061063f565b60038054600019019061070a90826115b0565b5060035460045411156107235760035461072390610eed565b604051600160a060020a038416907f8001553a916ef2f495d26a907cc54d96ed840d7bda71e73194bf5a9df7a76b9090600090a2505050565b3360008181526002602052604090205460ff16151561077a57600080fd5b60008281526001602090815260408083203380855292529091205483919060ff1615156107a657600080fd5b600084815260208190526040902060030154849060ff16156107c757600080fd5b6000858152600160209081526040808320338085529252808320805460ff191690555187927ff6a317157440607f36269043eb55f1287a5a19ba2216afeab88cd46cbcfb88e991a35050505050565b60026020526000908152604090205460ff1681565b600160209081526000928352604080842090915290825290205460ff1681565b600060075462015180014211156108655750600654610882565b600854600654101561087957506000610882565b50600854600654035b90565b6000805b6005548110156108ea578380156108b2575060008181526020819052604090206003015460ff16155b806108d657508280156108d6575060008181526020819052604090206003015460ff165b156108e2576001820191505b600101610889565b5092915050565b60065481565b60075481565b33301461090957600080fd5b600160a060020a038116600090815260026020526040902054819060ff161561093157600080fd5b81600160a060020a038116151561094757600080fd5b600380549050600101600454603282111580156109645750818111155b801561096f57508015155b801561097a57508115155b151561098557600080fd5b600160a060020a038516600081815260026020526040808220805460ff1916600190811790915560038054918201815583527fc2575a0e9e593c00f959f8c92f12db2869c3395a3b0502d05e2516446f71f85b01805473ffffffffffffffffffffffffffffffffffffffff191684179055517ff39e6e1eb0edcf53c221607b54b00cd28f3196fed0a24994dc308b8f611b682d9190a25050505050565b600080805b600354811015610a9f5760008481526001602052604081206003805491929184908110610a5057fe5b6000918252602080832090910154600160a060020a0316835282019290925260400190205460ff1615610a84576001820191505b600454821415610a975760019250610a9f565b600101610a27565b5050919050565b6000805b600354811015610b0f5760008381526001602052604081206003805491929184908110610ad357fe5b6000918252602080832090910154600160a060020a0316835282019290925260400190205460ff1615610b07576001820191505b600101610aaa565b50919050565b6000602081815291815260409081902080546001808301546002808501805487516101009582161595909502600019011691909104601f8101889004880284018801909652858352600160a060020a0390931695909491929190830182828015610bc05780601f10610b9557610100808354040283529160200191610bc0565b820191906000526020600020905b815481529060010190602001808311610ba357829003601f168201915b5050506003909301549192505060ff1684565b60606003805480602002602001604051908101604052809291908181526020018280548015610c2b57602002820191906000526020600020905b8154600160a060020a03168152600190910190602001808311610c0d575b5050505050905090565b606080600080600554604051908082528060200260200182016040528015610c67578160200160208202803883390190505b50925060009150600090505b600554811015610cee57858015610c9c575060008181526020819052604090206003015460ff16155b80610cc05750848015610cc0575060008181526020819052604090206003015460ff165b15610ce657808383815181101515610cd457fe5b60209081029091010152600191909101905b600101610c73565b878703604051908082528060200260200182016040528015610d1a578160200160208202803883390190505b5093508790505b86811015610d63578281815181101515610d3757fe5b9060200190602002015184898303815181101515610d5157fe5b60209081029091010152600101610d21565b505050949350505050565b606080600080600380549050604051908082528060200260200182016040528015610da3578160200160208202803883390190505b50925060009150600090505b600354811015610e605760008581526001602052604081206003805491929184908110610dd857fe5b6000918252602080832090910154600160a060020a0316835282019290925260400190205460ff1615610e58576003805482908110610e1357fe5b6000918252602090912001548351600160a060020a0390911690849084908110610e3957fe5b600160a060020a03909216602092830290910190910152600191909101905b600101610daf565b81604051908082528060200260200182016040528015610e8a578160200160208202803883390190505b509350600090505b81811015610edf578281815181101515610ea857fe5b906020019060200201518482815181101515610ec057fe5b600160a060020a03909216602092830290910190910152600101610e92565b505050919050565b60055481565b333014610ef957600080fd5b6003548160328211801590610f0e5750818111155b8015610f1957508015155b8015610f2457508115155b1515610f2f57600080fd5b60048390556040805184815290517fa3f1ee9126a074d9326c682f561767f710e927faa811f7a99829d49dc421797a9181900360200190a1505050565b3360008181526002602052604090205460ff161515610f8a57600080fd5b6000828152602081905260409020548290600160a060020a03161515610faf57600080fd5b60008381526001602090815260408083203380855292529091205484919060ff1615610fda57600080fd5b6000858152600160208181526040808420338086529252808420805460ff1916909317909255905187927f4a504a94899432a9846e1aa406dceb1bcfd538bb839071d49d1e5e23f5be30ef91a361103085611232565b5050505050565b6000611044848484611455565b905061104f81610f6c565b9392505050565b33301461106257600080fd5b60068190556040805182815290517fc71bdc6afaf9b1aa90a7078191d4fc1adf3bf680fca3183697df6b0dc226bca29181900360200190a150565b603281565b60045481565b60003330146110b657600080fd5b600160a060020a038316600090815260026020526040902054839060ff1615156110df57600080fd5b600160a060020a038316600090815260026020526040902054839060ff161561110757600080fd5b600092505b6003548310156111985784600160a060020a031660038481548110151561112f57fe5b600091825260209091200154600160a060020a0316141561118d578360038481548110151561115a57fe5b9060005260206000200160006101000a815481600160a060020a030219169083600160a060020a03160217905550611198565b60019092019161110c565b600160a060020a03808616600081815260026020526040808220805460ff1990811690915593881682528082208054909416600117909355915190917f8001553a916ef2f495d26a907cc54d96ed840d7bda71e73194bf5a9df7a76b9091a2604051600160a060020a038516907ff39e6e1eb0edcf53c221607b54b00cd28f3196fed0a24994dc308b8f611b682d90600090a25050505050565b336000818152600260205260408120549091829160ff16151561125457600080fd5b60008481526001602090815260408083203380855292529091205485919060ff16151561128057600080fd5b600086815260208190526040902060030154869060ff16156112a157600080fd5b600087815260208190526040902095506112ba87610a22565b945084806112ed57506002808701546000196101006001831615020116041580156112ed57506112ed8660010154611545565b156114465760038601805460ff191660011790558415156113175760018601546008805490910190555b85546001808801546002808a018054604080516020601f6000199885161561010002989098019093169490940495860182900482028401820190528483526113c395600160a060020a03169492919083908301828280156113b95780601f1061138e576101008083540402835291602001916113b9565b820191906000526020600020905b81548152906001019060200180831161139c57829003601f168201915b505050505061158d565b156113f85760405187907f33e13ecb54c3076d8e8bb8c2881800a4d972b792045ffae98fdf46df365fed7590600090a2611446565b60405187907f526441bb6c1aba3c9a4a6ca1d6545da9c2333c8c48343ef398eb858d72b7923690600090a260038601805460ff19169055841515611446576001860154600880549190910390555b50505050505050565b60085481565b600083600160a060020a038116151561146d57600080fd5b60055460408051608081018252600160a060020a0388811682526020808301898152838501898152600060608601819052878152808452959095208451815473ffffffffffffffffffffffffffffffffffffffff1916941693909317835551600183015592518051949650919390926114ed9260028501929101906115d9565b50606091909101516003909101805460ff191691151591909117905560058054600101905560405182907fc0ba8fe4b176c1714197d43b9cc6bcf797a4a7461c5fe8d0ef6e184ae7601e5190600090a2509392505050565b60006007546201518001421115611560574260075560006008555b600654826008540111806115775750600854828101105b1561158457506000611588565b5060015b919050565b6000806040516020840160008287838a8c6187965a03f198975050505050505050565b8154818355818111156115d4576000838152602090206115d4918101908301611657565b505050565b828054600181600116156101000203166002900490600052602060002090601f016020900481019282601f1061161a57805160ff1916838001178555611647565b82800160010185558215611647579182015b8281111561164757825182559160200191906001019061162c565b50611653929150611657565b5090565b61088291905b80821115611653576000815560010161165d5600a165627a7a72305820659e7def074f9f23e3aae226040c6963e0ca51911a869f68980aa1461c9a5ad30029",
					"opcodes": "PUSH1 0x80 PUSH1 0x40 MSTORE CALLVALUE DUP1 ISZERO PUSH3 0x11 JUMPI PUSH1 0x0 DUP1 REVERT JUMPDEST POP PUSH1 0x40 MLOAD PUSH3 0x18BE CODESIZE SUB DUP1 PUSH3 0x18BE DUP4 CODECOPY DUP2 ADD PUSH1 0x40 SWAP1 DUP2 MSTORE DUP2 MLOAD PUSH1 0x20 DUP4 ADD MLOAD SWAP2 DUP4 ADD MLOAD SWAP3 ADD DUP1 MLOAD SWAP1 SWAP3 SWAP1 DUP4 SWAP1 DUP4 SWAP1 PUSH1 0x0 SWAP1 DUP3 PUSH1 0x32 DUP3 GT DUP1 ISZERO SWAP1 PUSH3 0x55 JUMPI POP DUP2 DUP2 GT ISZERO JUMPDEST DUP1 ISZERO PUSH3 0x61 JUMPI POP DUP1 ISZERO ISZERO JUMPDEST DUP1 ISZERO PUSH3 0x6D JUMPI POP DUP2 ISZERO ISZERO JUMPDEST ISZERO ISZERO PUSH3 0x79 JUMPI PUSH1 0x0 DUP1 REVERT JUMPDEST PUSH1 0x0 SWAP3 POP JUMPDEST DUP5 MLOAD DUP4 LT ISZERO PUSH3 0x151 JUMPI PUSH1 0x2 PUSH1 0x0 DUP7 DUP6 DUP2 MLOAD DUP2 LT ISZERO ISZERO PUSH3 0x9B JUMPI INVALID JUMPDEST PUSH1 0x20 SWAP1 DUP2 MUL SWAP1 SWAP2 ADD DUP2 ADD MLOAD PUSH1 0x1 PUSH1 0xA0 PUSH1 0x2 EXP SUB AND DUP3 MSTORE DUP2 ADD SWAP2 SWAP1 SWAP2 MSTORE PUSH1 0x40 ADD PUSH1 0x0 KECCAK256 SLOAD PUSH1 0xFF AND ISZERO DUP1 ISZERO PUSH3 0xF1 JUMPI POP DUP5 DUP4 DUP2 MLOAD DUP2 LT ISZERO ISZERO PUSH3 0xD9 JUMPI INVALID JUMPDEST SWAP1 PUSH1 0x20 ADD SWAP1 PUSH1 0x20 MUL ADD MLOAD PUSH1 0x1 PUSH1 0xA0 PUSH1 0x2 EXP SUB AND PUSH1 0x0 EQ ISZERO JUMPDEST ISZERO ISZERO PUSH3 0xFD JUMPI PUSH1 0x0 DUP1 REVERT JUMPDEST PUSH1 0x1 PUSH1 0x2 PUSH1 0x0 DUP8 DUP7 DUP2 MLOAD DUP2 LT ISZERO ISZERO PUSH3 0x112 JUMPI INVALID JUMPDEST PUSH1 0x20 SWAP1 DUP2 MUL SWAP2 SWAP1 SWAP2 ADD DUP2 ADD MLOAD PUSH1 0x1 PUSH1 0xA0 PUSH1 0x2 EXP SUB AND DUP3 MSTORE DUP2 ADD SWAP2 SWAP1 SWAP2 MSTORE PUSH1 0x40 ADD PUSH1 0x0 KECCAK256 DUP1 SLOAD PUSH1 0xFF NOT AND SWAP2 ISZERO ISZERO SWAP2 SWAP1 SWAP2 OR SWAP1 SSTORE PUSH1 0x1 SWAP3 SWAP1 SWAP3 ADD SWAP2 PUSH3 0x7E JUMP JUMPDEST DUP5 MLOAD PUSH3 0x166 SWAP1 PUSH1 0x3 SWAP1 PUSH1 0x20 DUP9 ADD SWAP1 PUSH3 0x17D JUMP JUMPDEST POP POP POP PUSH1 0x4 SWAP2 SWAP1 SWAP2 SSTORE POP POP PUSH1 0x6 SSTORE POP PUSH3 0x211 SWAP1 POP JUMP JUMPDEST DUP3 DUP1 SLOAD DUP3 DUP3 SSTORE SWAP1 PUSH1 0x0 MSTORE PUSH1 0x20 PUSH1 0x0 KECCAK256 SWAP1 DUP2 ADD SWAP3 DUP3 ISZERO PUSH3 0x1D5 JUMPI SWAP2 PUSH1 0x20 MUL DUP3 ADD JUMPDEST DUP3 DUP2 GT ISZERO PUSH3 0x1D5 JUMPI DUP3 MLOAD DUP3 SLOAD PUSH1 0x1 PUSH1 0xA0 PUSH1 0x2 EXP SUB NOT AND PUSH1 0x1 PUSH1 0xA0 PUSH1 0x2 EXP SUB SWAP1 SWAP2 AND OR DUP3 SSTORE PUSH1 0x20 SWAP1 SWAP3 ADD SWAP2 PUSH1 0x1 SWAP1 SWAP2 ADD SWAP1 PUSH3 0x19E JUMP JUMPDEST POP PUSH3 0x1E3 SWAP3 SWAP2 POP PUSH3 0x1E7 JUMP JUMPDEST POP SWAP1 JUMP JUMPDEST PUSH3 0x20E SWAP2 SWAP1 JUMPDEST DUP1 DUP3 GT ISZERO PUSH3 0x1E3 JUMPI DUP1 SLOAD PUSH1 0x1 PUSH1 0xA0 PUSH1 0x2 EXP SUB NOT AND DUP2 SSTORE PUSH1 0x1 ADD PUSH3 0x1EE JUMP JUMPDEST SWAP1 JUMP JUMPDEST PUSH2 0x169D DUP1 PUSH3 0x221 PUSH1 0x0 CODECOPY PUSH1 0x0 RETURN STOP PUSH1 0x80 PUSH1 0x40 MSTORE PUSH1 0x4 CALLDATASIZE LT PUSH2 0x153 JUMPI PUSH4 0xFFFFFFFF PUSH29 0x100000000000000000000000000000000000000000000000000000000 PUSH1 0x0 CALLDATALOAD DIV AND PUSH4 0x25E7C27 DUP2 EQ PUSH2 0x195 JUMPI DUP1 PUSH4 0x173825D9 EQ PUSH2 0x1C9 JUMPI DUP1 PUSH4 0x20EA8D86 EQ PUSH2 0x1EA JUMPI DUP1 PUSH4 0x2F54BF6E EQ PUSH2 0x202 JUMPI DUP1 PUSH4 0x3411C81C EQ PUSH2 0x237 JUMPI DUP1 PUSH4 0x4BC9FDC2 EQ PUSH2 0x25B JUMPI DUP1 PUSH4 0x54741525 EQ PUSH2 0x282 JUMPI DUP1 PUSH4 0x67EEBA0C EQ PUSH2 0x2A1 JUMPI DUP1 PUSH4 0x6B0C932D EQ PUSH2 0x2B6 JUMPI DUP1 PUSH4 0x7065CB48 EQ PUSH2 0x2CB JUMPI DUP1 PUSH4 0x784547A7 EQ PUSH2 0x2EC JUMPI DUP1 PUSH4 0x8B51D13F EQ PUSH2 0x304 JUMPI DUP1 PUSH4 0x9ACE38C2 EQ PUSH2 0x31C JUMPI DUP1 PUSH4 0xA0E67E2B EQ PUSH2 0x3D7 JUMPI DUP1 PUSH4 0xA8ABE69A EQ PUSH2 0x43C JUMPI DUP1 PUSH4 0xB5DC40C3 EQ PUSH2 0x461 JUMPI DUP1 PUSH4 0xB77BF600 EQ PUSH2 0x479 JUMPI DUP1 PUSH4 0xBA51A6DF EQ PUSH2 0x48E JUMPI DUP1 PUSH4 0xC01A8C84 EQ PUSH2 0x4A6 JUMPI DUP1 PUSH4 0xC6427474 EQ PUSH2 0x4BE JUMPI DUP1 PUSH4 0xCEA08621 EQ PUSH2 0x527 JUMPI DUP1 PUSH4 0xD74F8EDD EQ PUSH2 0x53F JUMPI DUP1 PUSH4 0xDC8452CD EQ PUSH2 0x554 JUMPI DUP1 PUSH4 0xE20056E6 EQ PUSH2 0x569 JUMPI DUP1 PUSH4 0xEE22610B EQ PUSH2 0x590 JUMPI DUP1 PUSH4 0xF059CF2B EQ PUSH2 0x5A8 JUMPI JUMPDEST PUSH1 0x0 CALLVALUE GT ISZERO PUSH2 0x193 JUMPI PUSH1 0x40 DUP1 MLOAD CALLVALUE DUP2 MSTORE SWAP1 MLOAD CALLER SWAP2 PUSH32 0xE1FFFCC4923D04B559F4D29A8BFC6CDA04EB5B0D3C460751C2402C5C5CC9109C SWAP2 SWAP1 DUP2 SWAP1 SUB PUSH1 0x20 ADD SWAP1 LOG2 JUMPDEST STOP JUMPDEST CALLVALUE DUP1 ISZERO PUSH2 0x1A1 JUMPI PUSH1 0x0 DUP1 REVERT JUMPDEST POP PUSH2 0x1AD PUSH1 0x4 CALLDATALOAD PUSH2 0x5BD JUMP JUMPDEST PUSH1 0x40 DUP1 MLOAD PUSH1 0x1 PUSH1 0xA0 PUSH1 0x2 EXP SUB SWAP1 SWAP3 AND DUP3 MSTORE MLOAD SWAP1 DUP2 SWAP1 SUB PUSH1 0x20 ADD SWAP1 RETURN JUMPDEST CALLVALUE DUP1 ISZERO PUSH2 0x1D5 JUMPI PUSH1 0x0 DUP1 REVERT JUMPDEST POP PUSH2 0x193 PUSH1 0x1 PUSH1 0xA0 PUSH1 0x2 EXP SUB PUSH1 0x4 CALLDATALOAD AND PUSH2 0x5E5 JUMP JUMPDEST CALLVALUE DUP1 ISZERO PUSH2 0x1F6 JUMPI PUSH1 0x0 DUP1 REVERT JUMPDEST POP PUSH2 0x193 PUSH1 0x4 CALLDATALOAD PUSH2 0x75C JUMP JUMPDEST CALLVALUE DUP1 ISZERO PUSH2 0x20E JUMPI PUSH1 0x0 DUP1 REVERT JUMPDEST POP PUSH2 0x223 PUSH1 0x1 PUSH1 0xA0 PUSH1 0x2 EXP SUB PUSH1 0x4 CALLDATALOAD AND PUSH2 0x816 JUMP JUMPDEST PUSH1 0x40 DUP1 MLOAD SWAP2 ISZERO ISZERO DUP3 MSTORE MLOAD SWAP1 DUP2 SWAP1 SUB PUSH1 0x20 ADD SWAP1 RETURN JUMPDEST CALLVALUE DUP1 ISZERO PUSH2 0x243 JUMPI PUSH1 0x0 DUP1 REVERT JUMPDEST POP PUSH2 0x223 PUSH1 0x4 CALLDATALOAD PUSH1 0x1 PUSH1 0xA0 PUSH1 0x2 EXP SUB PUSH1 0x24 CALLDATALOAD AND PUSH2 0x82B JUMP JUMPDEST CALLVALUE DUP1 ISZERO PUSH2 0x267 JUMPI PUSH1 0x0 DUP1 REVERT JUMPDEST POP PUSH2 0x270 PUSH2 0x84B JUMP JUMPDEST PUSH1 0x40 DUP1 MLOAD SWAP2 DUP3 MSTORE MLOAD SWAP1 DUP2 SWAP1 SUB PUSH1 0x20 ADD SWAP1 RETURN JUMPDEST CALLVALUE DUP1 ISZERO PUSH2 0x28E JUMPI PUSH1 0x0 DUP1 REVERT JUMPDEST POP PUSH2 0x270 PUSH1 0x4 CALLDATALOAD ISZERO ISZERO PUSH1 0x24 CALLDATALOAD ISZERO ISZERO PUSH2 0x885 JUMP JUMPDEST CALLVALUE DUP1 ISZERO PUSH2 0x2AD JUMPI PUSH1 0x0 DUP1 REVERT JUMPDEST POP PUSH2 0x270 PUSH2 0x8F1 JUMP JUMPDEST CALLVALUE DUP1 ISZERO PUSH2 0x2C2 JUMPI PUSH1 0x0 DUP1 REVERT JUMPDEST POP PUSH2 0x270 PUSH2 0x8F7 JUMP JUMPDEST CALLVALUE DUP1 ISZERO PUSH2 0x2D7 JUMPI PUSH1 0x0 DUP1 REVERT JUMPDEST POP PUSH2 0x193 PUSH1 0x1 PUSH1 0xA0 PUSH1 0x2 EXP SUB PUSH1 0x4 CALLDATALOAD AND PUSH2 0x8FD JUMP JUMPDEST CALLVALUE DUP1 ISZERO PUSH2 0x2F8 JUMPI PUSH1 0x0 DUP1 REVERT JUMPDEST POP PUSH2 0x223 PUSH1 0x4 CALLDATALOAD PUSH2 0xA22 JUMP JUMPDEST CALLVALUE DUP1 ISZERO PUSH2 0x310 JUMPI PUSH1 0x0 DUP1 REVERT JUMPDEST POP PUSH2 0x270 PUSH1 0x4 CALLDATALOAD PUSH2 0xAA6 JUMP JUMPDEST CALLVALUE DUP1 ISZERO PUSH2 0x328 JUMPI PUSH1 0x0 DUP1 REVERT JUMPDEST POP PUSH2 0x334 PUSH1 0x4 CALLDATALOAD PUSH2 0xB15 JUMP JUMPDEST PUSH1 0x40 MLOAD DUP1 DUP6 PUSH1 0x1 PUSH1 0xA0 PUSH1 0x2 EXP SUB AND PUSH1 0x1 PUSH1 0xA0 PUSH1 0x2 EXP SUB AND DUP2 MSTORE PUSH1 0x20 ADD DUP5 DUP2 MSTORE PUSH1 0x20 ADD DUP1 PUSH1 0x20 ADD DUP4 ISZERO ISZERO ISZERO ISZERO DUP2 MSTORE PUSH1 0x20 ADD DUP3 DUP2 SUB DUP3 MSTORE DUP5 DUP2 DUP2 MLOAD DUP2 MSTORE PUSH1 0x20 ADD SWAP2 POP DUP1 MLOAD SWAP1 PUSH1 0x20 ADD SWAP1 DUP1 DUP4 DUP4 PUSH1 0x0 JUMPDEST DUP4 DUP2 LT ISZERO PUSH2 0x399 JUMPI DUP2 DUP2 ADD MLOAD DUP4 DUP3 ADD MSTORE PUSH1 0x20 ADD PUSH2 0x381 JUMP JUMPDEST POP POP POP POP SWAP1 POP SWAP1 DUP2 ADD SWAP1 PUSH1 0x1F AND DUP1 ISZERO PUSH2 0x3C6 JUMPI DUP1 DUP3 SUB DUP1 MLOAD PUSH1 0x1 DUP4 PUSH1 0x20 SUB PUSH2 0x100 EXP SUB NOT AND DUP2 MSTORE PUSH1 0x20 ADD SWAP2 POP JUMPDEST POP SWAP6 POP POP POP POP POP POP PUSH1 0x40 MLOAD DUP1 SWAP2 SUB SWAP1 RETURN JUMPDEST CALLVALUE DUP1 ISZERO PUSH2 0x3E3 JUMPI PUSH1 0x0 DUP1 REVERT JUMPDEST POP PUSH2 0x3EC PUSH2 0xBD3 JUMP JUMPDEST PUSH1 0x40 DUP1 MLOAD PUSH1 0x20 DUP1 DUP3 MSTORE DUP4 MLOAD DUP2 DUP4 ADD MSTORE DUP4 MLOAD SWAP2 SWAP3 DUP4 SWAP3 SWAP1 DUP4 ADD SWAP2 DUP6 DUP2 ADD SWAP2 MUL DUP1 DUP4 DUP4 PUSH1 0x0 JUMPDEST DUP4 DUP2 LT ISZERO PUSH2 0x428 JUMPI DUP2 DUP2 ADD MLOAD DUP4 DUP3 ADD MSTORE PUSH1 0x20 ADD PUSH2 0x410 JUMP JUMPDEST POP POP POP POP SWAP1 POP ADD SWAP3 POP POP POP PUSH1 0x40 MLOAD DUP1 SWAP2 SUB SWAP1 RETURN JUMPDEST CALLVALUE DUP1 ISZERO PUSH2 0x448 JUMPI PUSH1 0x0 DUP1 REVERT JUMPDEST POP PUSH2 0x3EC PUSH1 0x4 CALLDATALOAD PUSH1 0x24 CALLDATALOAD PUSH1 0x44 CALLDATALOAD ISZERO ISZERO PUSH1 0x64 CALLDATALOAD ISZERO ISZERO PUSH2 0xC35 JUMP JUMPDEST CALLVALUE DUP1 ISZERO PUSH2 0x46D JUMPI PUSH1 0x0 DUP1 REVERT JUMPDEST POP PUSH2 0x3EC PUSH1 0x4 CALLDATALOAD PUSH2 0xD6E JUMP JUMPDEST CALLVALUE DUP1 ISZERO PUSH2 0x485 JUMPI PUSH1 0x0 DUP1 REVERT JUMPDEST POP PUSH2 0x270 PUSH2 0xEE7 JUMP JUMPDEST CALLVALUE DUP1 ISZERO PUSH2 0x49A JUMPI PUSH1 0x0 DUP1 REVERT JUMPDEST POP PUSH2 0x193 PUSH1 0x4 CALLDATALOAD PUSH2 0xEED JUMP JUMPDEST CALLVALUE DUP1 ISZERO PUSH2 0x4B2 JUMPI PUSH1 0x0 DUP1 REVERT JUMPDEST POP PUSH2 0x193 PUSH1 0x4 CALLDATALOAD PUSH2 0xF6C JUMP JUMPDEST CALLVALUE DUP1 ISZERO PUSH2 0x4CA JUMPI PUSH1 0x0 DUP1 REVERT JUMPDEST POP PUSH1 0x40 DUP1 MLOAD PUSH1 0x20 PUSH1 0x4 PUSH1 0x44 CALLDATALOAD DUP2 DUP2 ADD CALLDATALOAD PUSH1 0x1F DUP2 ADD DUP5 SWAP1 DIV DUP5 MUL DUP6 ADD DUP5 ADD SWAP1 SWAP6 MSTORE DUP5 DUP5 MSTORE PUSH2 0x270 SWAP5 DUP3 CALLDATALOAD PUSH1 0x1 PUSH1 0xA0 PUSH1 0x2 EXP SUB AND SWAP5 PUSH1 0x24 DUP1 CALLDATALOAD SWAP6 CALLDATASIZE SWAP6 SWAP5 PUSH1 0x64 SWAP5 SWAP3 ADD SWAP2 SWAP1 DUP2 SWAP1 DUP5 ADD DUP4 DUP3 DUP1 DUP3 DUP5 CALLDATACOPY POP SWAP5 SWAP8 POP PUSH2 0x1037 SWAP7 POP POP POP POP POP POP POP JUMP JUMPDEST CALLVALUE DUP1 ISZERO PUSH2 0x533 JUMPI PUSH1 0x0 DUP1 REVERT JUMPDEST POP PUSH2 0x193 PUSH1 0x4 CALLDATALOAD PUSH2 0x1056 JUMP JUMPDEST CALLVALUE DUP1 ISZERO PUSH2 0x54B JUMPI PUSH1 0x0 DUP1 REVERT JUMPDEST POP PUSH2 0x270 PUSH2 0x109D JUMP JUMPDEST CALLVALUE DUP1 ISZERO PUSH2 0x560 JUMPI PUSH1 0x0 DUP1 REVERT JUMPDEST POP PUSH2 0x270 PUSH2 0x10A2 JUMP JUMPDEST CALLVALUE DUP1 ISZERO PUSH2 0x575 JUMPI PUSH1 0x0 DUP1 REVERT JUMPDEST POP PUSH2 0x193 PUSH1 0x1 PUSH1 0xA0 PUSH1 0x2 EXP SUB PUSH1 0x4 CALLDATALOAD DUP2 AND SWAP1 PUSH1 0x24 CALLDATALOAD AND PUSH2 0x10A8 JUMP JUMPDEST CALLVALUE DUP1 ISZERO PUSH2 0x59C JUMPI PUSH1 0x0 DUP1 REVERT JUMPDEST POP PUSH2 0x193 PUSH1 0x4 CALLDATALOAD PUSH2 0x1232 JUMP JUMPDEST CALLVALUE DUP1 ISZERO PUSH2 0x5B4 JUMPI PUSH1 0x0 DUP1 REVERT JUMPDEST POP PUSH2 0x270 PUSH2 0x144F JUMP JUMPDEST PUSH1 0x3 DUP1 SLOAD DUP3 SWAP1 DUP2 LT PUSH2 0x5CB JUMPI INVALID JUMPDEST PUSH1 0x0 SWAP2 DUP3 MSTORE PUSH1 0x20 SWAP1 SWAP2 KECCAK256 ADD SLOAD PUSH1 0x1 PUSH1 0xA0 PUSH1 0x2 EXP SUB AND SWAP1 POP DUP2 JUMP JUMPDEST PUSH1 0x0 CALLER ADDRESS EQ PUSH2 0x5F3 JUMPI PUSH1 0x0 DUP1 REVERT JUMPDEST PUSH1 0x1 PUSH1 0xA0 PUSH1 0x2 EXP SUB DUP3 AND PUSH1 0x0 SWAP1 DUP2 MSTORE PUSH1 0x2 PUSH1 0x20 MSTORE PUSH1 0x40 SWAP1 KECCAK256 SLOAD DUP3 SWAP1 PUSH1 0xFF AND ISZERO ISZERO PUSH2 0x61C JUMPI PUSH1 0x0 DUP1 REVERT JUMPDEST PUSH1 0x1 PUSH1 0xA0 PUSH1 0x2 EXP SUB DUP4 AND PUSH1 0x0 SWAP1 DUP2 MSTORE PUSH1 0x2 PUSH1 0x20 MSTORE PUSH1 0x40 DUP2 KECCAK256 DUP1 SLOAD PUSH1 0xFF NOT AND SWAP1 SSTORE SWAP2 POP JUMPDEST PUSH1 0x3 SLOAD PUSH1 0x0 NOT ADD DUP3 LT ISZERO PUSH2 0x6F7 JUMPI DUP3 PUSH1 0x1 PUSH1 0xA0 PUSH1 0x2 EXP SUB AND PUSH1 0x3 DUP4 DUP2 SLOAD DUP2 LT ISZERO ISZERO PUSH2 0x666 JUMPI INVALID JUMPDEST PUSH1 0x0 SWAP2 DUP3 MSTORE PUSH1 0x20 SWAP1 SWAP2 KECCAK256 ADD SLOAD PUSH1 0x1 PUSH1 0xA0 PUSH1 0x2 EXP SUB AND EQ ISZERO PUSH2 0x6EC JUMPI PUSH1 0x3 DUP1 SLOAD PUSH1 0x0 NOT DUP2 ADD SWAP1 DUP2 LT PUSH2 0x693 JUMPI INVALID JUMPDEST PUSH1 0x0 SWAP2 DUP3 MSTORE PUSH1 0x20 SWAP1 SWAP2 KECCAK256 ADD SLOAD PUSH1 0x3 DUP1 SLOAD PUSH1 0x1 PUSH1 0xA0 PUSH1 0x2 EXP SUB SWAP1 SWAP3 AND SWAP2 DUP5 SWAP1 DUP2 LT PUSH2 0x6B9 JUMPI INVALID JUMPDEST SWAP1 PUSH1 0x0 MSTORE PUSH1 0x20 PUSH1 0x0 KECCAK256 ADD PUSH1 0x0 PUSH2 0x100 EXP DUP2 SLOAD DUP2 PUSH1 0x1 PUSH1 0xA0 PUSH1 0x2 EXP SUB MUL NOT AND SWAP1 DUP4 PUSH1 0x1 PUSH1 0xA0 PUSH1 0x2 EXP SUB AND MUL OR SWAP1 SSTORE POP PUSH2 0x6F7 JUMP JUMPDEST PUSH1 0x1 SWAP1 SWAP2 ADD SWAP1 PUSH2 0x63F JUMP JUMPDEST PUSH1 0x3 DUP1 SLOAD PUSH1 0x0 NOT ADD SWAP1 PUSH2 0x70A SWAP1 DUP3 PUSH2 0x15B0 JUMP JUMPDEST POP PUSH1 0x3 SLOAD PUSH1 0x4 SLOAD GT ISZERO PUSH2 0x723 JUMPI PUSH1 0x3 SLOAD PUSH2 0x723 SWAP1 PUSH2 0xEED JUMP JUMPDEST PUSH1 0x40 MLOAD PUSH1 0x1 PUSH1 0xA0 PUSH1 0x2 EXP SUB DUP5 AND SWAP1 PUSH32 0x8001553A916EF2F495D26A907CC54D96ED840D7BDA71E73194BF5A9DF7A76B90 SWAP1 PUSH1 0x0 SWAP1 LOG2 POP POP POP JUMP JUMPDEST CALLER PUSH1 0x0 DUP2 DUP2 MSTORE PUSH1 0x2 PUSH1 0x20 MSTORE PUSH1 0x40 SWAP1 KECCAK256 SLOAD PUSH1 0xFF AND ISZERO ISZERO PUSH2 0x77A JUMPI PUSH1 0x0 DUP1 REVERT JUMPDEST PUSH1 0x0 DUP3 DUP2 MSTORE PUSH1 0x1 PUSH1 0x20 SWAP1 DUP2 MSTORE PUSH1 0x40 DUP1 DUP4 KECCAK256 CALLER DUP1 DUP6 MSTORE SWAP3 MSTORE SWAP1 SWAP2 KECCAK256 SLOAD DUP4 SWAP2 SWAP1 PUSH1 0xFF AND ISZERO ISZERO PUSH2 0x7A6 JUMPI PUSH1 0x0 DUP1 REVERT JUMPDEST PUSH1 0x0 DUP5 DUP2 MSTORE PUSH1 0x20 DUP2 SWAP1 MSTORE PUSH1 0x40 SWAP1 KECCAK256 PUSH1 0x3 ADD SLOAD DUP5 SWAP1 PUSH1 0xFF AND ISZERO PUSH2 0x7C7 JUMPI PUSH1 0x0 DUP1 REVERT JUMPDEST PUSH1 0x0 DUP6 DUP2 MSTORE PUSH1 0x1 PUSH1 0x20 SWAP1 DUP2 MSTORE PUSH1 0x40 DUP1 DUP4 KECCAK256 CALLER DUP1 DUP6 MSTORE SWAP3 MSTORE DUP1 DUP4 KECCAK256 DUP1 SLOAD PUSH1 0xFF NOT AND SWAP1 SSTORE MLOAD DUP8 SWAP3 PUSH32 0xF6A317157440607F36269043EB55F1287A5A19BA2216AFEAB88CD46CBCFB88E9 SWAP2 LOG3 POP POP POP POP POP JUMP JUMPDEST PUSH1 0x2 PUSH1 0x20 MSTORE PUSH1 0x0 SWAP1 DUP2 MSTORE PUSH1 0x40 SWAP1 KECCAK256 SLOAD PUSH1 0xFF AND DUP2 JUMP JUMPDEST PUSH1 0x1 PUSH1 0x20 SWAP1 DUP2 MSTORE PUSH1 0x0 SWAP3 DUP4 MSTORE PUSH1 0x40 DUP1 DUP5 KECCAK256 SWAP1 SWAP2 MSTORE SWAP1 DUP3 MSTORE SWAP1 KECCAK256 SLOAD PUSH1 0xFF AND DUP2 JUMP JUMPDEST PUSH1 0x0 PUSH1 0x7 SLOAD PUSH3 0x15180 ADD TIMESTAMP GT ISZERO PUSH2 0x865 JUMPI POP PUSH1 0x6 SLOAD PUSH2 0x882 JUMP JUMPDEST PUSH1 0x8 SLOAD PUSH1 0x6 SLOAD LT ISZERO PUSH2 0x879 JUMPI POP PUSH1 0x0 PUSH2 0x882 JUMP JUMPDEST POP PUSH1 0x8 SLOAD PUSH1 0x6 SLOAD SUB JUMPDEST SWAP1 JUMP JUMPDEST PUSH1 0x0 DUP1 JUMPDEST PUSH1 0x5 SLOAD DUP2 LT ISZERO PUSH2 0x8EA JUMPI DUP4 DUP1 ISZERO PUSH2 0x8B2 JUMPI POP PUSH1 0x0 DUP2 DUP2 MSTORE PUSH1 0x20 DUP2 SWAP1 MSTORE PUSH1 0x40 SWAP1 KECCAK256 PUSH1 0x3 ADD SLOAD PUSH1 0xFF AND ISZERO JUMPDEST DUP1 PUSH2 0x8D6 JUMPI POP DUP3 DUP1 ISZERO PUSH2 0x8D6 JUMPI POP PUSH1 0x0 DUP2 DUP2 MSTORE PUSH1 0x20 DUP2 SWAP1 MSTORE PUSH1 0x40 SWAP1 KECCAK256 PUSH1 0x3 ADD SLOAD PUSH1 0xFF AND JUMPDEST ISZERO PUSH2 0x8E2 JUMPI PUSH1 0x1 DUP3 ADD SWAP2 POP JUMPDEST PUSH1 0x1 ADD PUSH2 0x889 JUMP JUMPDEST POP SWAP3 SWAP2 POP POP JUMP JUMPDEST PUSH1 0x6 SLOAD DUP2 JUMP JUMPDEST PUSH1 0x7 SLOAD DUP2 JUMP JUMPDEST CALLER ADDRESS EQ PUSH2 0x909 JUMPI PUSH1 0x0 DUP1 REVERT JUMPDEST PUSH1 0x1 PUSH1 0xA0 PUSH1 0x2 EXP SUB DUP2 AND PUSH1 0x0 SWAP1 DUP2 MSTORE PUSH1 0x2 PUSH1 0x20 MSTORE PUSH1 0x40 SWAP1 KECCAK256 SLOAD DUP2 SWAP1 PUSH1 0xFF AND ISZERO PUSH2 0x931 JUMPI PUSH1 0x0 DUP1 REVERT JUMPDEST DUP2 PUSH1 0x1 PUSH1 0xA0 PUSH1 0x2 EXP SUB DUP2 AND ISZERO ISZERO PUSH2 0x947 JUMPI PUSH1 0x0 DUP1 REVERT JUMPDEST PUSH1 0x3 DUP1 SLOAD SWAP1 POP PUSH1 0x1 ADD PUSH1 0x4 SLOAD PUSH1 0x32 DUP3 GT ISZERO DUP1 ISZERO PUSH2 0x964 JUMPI POP DUP2 DUP2 GT ISZERO JUMPDEST DUP1 ISZERO PUSH2 0x96F JUMPI POP DUP1 ISZERO ISZERO JUMPDEST DUP1 ISZERO PUSH2 0x97A JUMPI POP DUP2 ISZERO ISZERO JUMPDEST ISZERO ISZERO PUSH2 0x985 JUMPI PUSH1 0x0 DUP1 REVERT JUMPDEST PUSH1 0x1 PUSH1 0xA0 PUSH1 0x2 EXP SUB DUP6 AND PUSH1 0x0 DUP2 DUP2 MSTORE PUSH1 0x2 PUSH1 0x20 MSTORE PUSH1 0x40 DUP1 DUP3 KECCAK256 DUP1 SLOAD PUSH1 0xFF NOT AND PUSH1 0x1 SWAP1 DUP2 OR SWAP1 SWAP2 SSTORE PUSH1 0x3 DUP1 SLOAD SWAP2 DUP3 ADD DUP2 SSTORE DUP4 MSTORE PUSH32 0xC2575A0E9E593C00F959F8C92F12DB2869C3395A3B0502D05E2516446F71F85B ADD DUP1 SLOAD PUSH20 0xFFFFFFFFFFFFFFFFFFFFFFFFFFFFFFFFFFFFFFFF NOT AND DUP5 OR SWAP1 SSTORE MLOAD PUSH32 0xF39E6E1EB0EDCF53C221607B54B00CD28F3196FED0A24994DC308B8F611B682D SWAP2 SWAP1 LOG2 POP POP POP POP POP JUMP JUMPDEST PUSH1 0x0 DUP1 DUP1 JUMPDEST PUSH1 0x3 SLOAD DUP2 LT ISZERO PUSH2 0xA9F JUMPI PUSH1 0x0 DUP5 DUP2 MSTORE PUSH1 0x1 PUSH1 0x20 MSTORE PUSH1 0x40 DUP2 KECCAK256 PUSH1 0x3 DUP1 SLOAD SWAP2 SWAP3 SWAP2 DUP5 SWAP1 DUP2 LT PUSH2 0xA50 JUMPI INVALID JUMPDEST PUSH1 0x0 SWAP2 DUP3 MSTORE PUSH1 0x20 DUP1 DUP4 KECCAK256 SWAP1 SWAP2 ADD SLOAD PUSH1 0x1 PUSH1 0xA0 PUSH1 0x2 EXP SUB AND DUP4 MSTORE DUP3 ADD SWAP3 SWAP1 SWAP3 MSTORE PUSH1 0x40 ADD SWAP1 KECCAK256 SLOAD PUSH1 0xFF AND ISZERO PUSH2 0xA84 JUMPI PUSH1 0x1 DUP3 ADD SWAP2 POP JUMPDEST PUSH1 0x4 SLOAD DUP3 EQ ISZERO PUSH2 0xA97 JUMPI PUSH1 0x1 SWAP3 POP PUSH2 0xA9F JUMP JUMPDEST PUSH1 0x1 ADD PUSH2 0xA27 JUMP JUMPDEST POP POP SWAP2 SWAP1 POP JUMP JUMPDEST PUSH1 0x0 DUP1 JUMPDEST PUSH1 0x3 SLOAD DUP2 LT ISZERO PUSH2 0xB0F JUMPI PUSH1 0x0 DUP4 DUP2 MSTORE PUSH1 0x1 PUSH1 0x20 MSTORE PUSH1 0x40 DUP2 KECCAK256 PUSH1 0x3 DUP1 SLOAD SWAP2 SWAP3 SWAP2 DUP5 SWAP1 DUP2 LT PUSH2 0xAD3 JUMPI INVALID JUMPDEST PUSH1 0x0 SWAP2 DUP3 MSTORE PUSH1 0x20 DUP1 DUP4 KECCAK256 SWAP1 SWAP2 ADD SLOAD PUSH1 0x1 PUSH1 0xA0 PUSH1 0x2 EXP SUB AND DUP4 MSTORE DUP3 ADD SWAP3 SWAP1 SWAP3 MSTORE PUSH1 0x40 ADD SWAP1 KECCAK256 SLOAD PUSH1 0xFF AND ISZERO PUSH2 0xB07 JUMPI PUSH1 0x1 DUP3 ADD SWAP2 POP JUMPDEST PUSH1 0x1 ADD PUSH2 0xAAA JUMP JUMPDEST POP SWAP2 SWAP1 POP JUMP JUMPDEST PUSH1 0x0 PUSH1 0x20 DUP2 DUP2 MSTORE SWAP2 DUP2 MSTORE PUSH1 0x40 SWAP1 DUP2 SWAP1 KECCAK256 DUP1 SLOAD PUSH1 0x1 DUP1 DUP4 ADD SLOAD PUSH1 0x2 DUP1 DUP6 ADD DUP1 SLOAD DUP8 MLOAD PUSH2 0x100 SWAP6 DUP3 AND ISZERO SWAP6 SWAP1 SWAP6 MUL PUSH1 0x0 NOT ADD AND SWAP2 SWAP1 SWAP2 DIV PUSH1 0x1F DUP2 ADD DUP9 SWAP1 DIV DUP9 MUL DUP5 ADD DUP9 ADD SWAP1 SWAP7 MSTORE DUP6 DUP4 MSTORE PUSH1 0x1 PUSH1 0xA0 PUSH1 0x2 EXP SUB SWAP1 SWAP4 AND SWAP6 SWAP1 SWAP5 SWAP2 SWAP3 SWAP2 SWAP1 DUP4 ADD DUP3 DUP3 DUP1 ISZERO PUSH2 0xBC0 JUMPI DUP1 PUSH1 0x1F LT PUSH2 0xB95 JUMPI PUSH2 0x100 DUP1 DUP4 SLOAD DIV MUL DUP4 MSTORE SWAP2 PUSH1 0x20 ADD SWAP2 PUSH2 0xBC0 JUMP JUMPDEST DUP3 ADD SWAP2 SWAP1 PUSH1 0x0 MSTORE PUSH1 0x20 PUSH1 0x0 KECCAK256 SWAP1 JUMPDEST DUP2 SLOAD DUP2 MSTORE SWAP1 PUSH1 0x1 ADD SWAP1 PUSH1 0x20 ADD DUP1 DUP4 GT PUSH2 0xBA3 JUMPI DUP3 SWAP1 SUB PUSH1 0x1F AND DUP3 ADD SWAP2 JUMPDEST POP POP POP PUSH1 0x3 SWAP1 SWAP4 ADD SLOAD SWAP2 SWAP3 POP POP PUSH1 0xFF AND DUP5 JUMP JUMPDEST PUSH1 0x60 PUSH1 0x3 DUP1 SLOAD DUP1 PUSH1 0x20 MUL PUSH1 0x20 ADD PUSH1 0x40 MLOAD SWAP1 DUP2 ADD PUSH1 0x40 MSTORE DUP1 SWAP3 SWAP2 SWAP1 DUP2 DUP2 MSTORE PUSH1 0x20 ADD DUP3 DUP1 SLOAD DUP1 ISZERO PUSH2 0xC2B JUMPI PUSH1 0x20 MUL DUP3 ADD SWAP2 SWAP1 PUSH1 0x0 MSTORE PUSH1 0x20 PUSH1 0x0 KECCAK256 SWAP1 JUMPDEST DUP2 SLOAD PUSH1 0x1 PUSH1 0xA0 PUSH1 0x2 EXP SUB AND DUP2 MSTORE PUSH1 0x1 SWAP1 SWAP2 ADD SWAP1 PUSH1 0x20 ADD DUP1 DUP4 GT PUSH2 0xC0D JUMPI JUMPDEST POP POP POP POP POP SWAP1 POP SWAP1 JUMP JUMPDEST PUSH1 0x60 DUP1 PUSH1 0x0 DUP1 PUSH1 0x5 SLOAD PUSH1 0x40 MLOAD SWAP1 DUP1 DUP3 MSTORE DUP1 PUSH1 0x20 MUL PUSH1 0x20 ADD DUP3 ADD PUSH1 0x40 MSTORE DUP1 ISZERO PUSH2 0xC67 JUMPI DUP2 PUSH1 0x20 ADD PUSH1 0x20 DUP3 MUL DUP1 CODESIZE DUP4 CODECOPY ADD SWAP1 POP JUMPDEST POP SWAP3 POP PUSH1 0x0 SWAP2 POP PUSH1 0x0 SWAP1 POP JUMPDEST PUSH1 0x5 SLOAD DUP2 LT ISZERO PUSH2 0xCEE JUMPI DUP6 DUP1 ISZERO PUSH2 0xC9C JUMPI POP PUSH1 0x0 DUP2 DUP2 MSTORE PUSH1 0x20 DUP2 SWAP1 MSTORE PUSH1 0x40 SWAP1 KECCAK256 PUSH1 0x3 ADD SLOAD PUSH1 0xFF AND ISZERO JUMPDEST DUP1 PUSH2 0xCC0 JUMPI POP DUP5 DUP1 ISZERO PUSH2 0xCC0 JUMPI POP PUSH1 0x0 DUP2 DUP2 MSTORE PUSH1 0x20 DUP2 SWAP1 MSTORE PUSH1 0x40 SWAP1 KECCAK256 PUSH1 0x3 ADD SLOAD PUSH1 0xFF AND JUMPDEST ISZERO PUSH2 0xCE6 JUMPI DUP1 DUP4 DUP4 DUP2 MLOAD DUP2 LT ISZERO ISZERO PUSH2 0xCD4 JUMPI INVALID JUMPDEST PUSH1 0x20 SWAP1 DUP2 MUL SWAP1 SWAP2 ADD ADD MSTORE PUSH1 0x1 SWAP2 SWAP1 SWAP2 ADD SWAP1 JUMPDEST PUSH1 0x1 ADD PUSH2 0xC73 JUMP JUMPDEST DUP8 DUP8 SUB PUSH1 0x40 MLOAD SWAP1 DUP1 DUP3 MSTORE DUP1 PUSH1 0x20 MUL PUSH1 0x20 ADD DUP3 ADD PUSH1 0x40 MSTORE DUP1 ISZERO PUSH2 0xD1A JUMPI DUP2 PUSH1 0x20 ADD PUSH1 0x20 DUP3 MUL DUP1 CODESIZE DUP4 CODECOPY ADD SWAP1 POP JUMPDEST POP SWAP4 POP DUP8 SWAP1 POP JUMPDEST DUP7 DUP2 LT ISZERO PUSH2 0xD63 JUMPI DUP3 DUP2 DUP2 MLOAD DUP2 LT ISZERO ISZERO PUSH2 0xD37 JUMPI INVALID JUMPDEST SWAP1 PUSH1 0x20 ADD SWAP1 PUSH1 0x20 MUL ADD MLOAD DUP5 DUP10 DUP4 SUB DUP2 MLOAD DUP2 LT ISZERO ISZERO PUSH2 0xD51 JUMPI INVALID JUMPDEST PUSH1 0x20 SWAP1 DUP2 MUL SWAP1 SWAP2 ADD ADD MSTORE PUSH1 0x1 ADD PUSH2 0xD21 JUMP JUMPDEST POP POP POP SWAP5 SWAP4 POP POP POP POP JUMP JUMPDEST PUSH1 0x60 DUP1 PUSH1 0x0 DUP1 PUSH1 0x3 DUP1 SLOAD SWAP1 POP PUSH1 0x40 MLOAD SWAP1 DUP1 DUP3 MSTORE DUP1 PUSH1 0x20 MUL PUSH1 0x20 ADD DUP3 ADD PUSH1 0x40 MSTORE DUP1 ISZERO PUSH2 0xDA3 JUMPI DUP2 PUSH1 0x20 ADD PUSH1 0x20 DUP3 MUL DUP1 CODESIZE DUP4 CODECOPY ADD SWAP1 POP JUMPDEST POP SWAP3 POP PUSH1 0x0 SWAP2 POP PUSH1 0x0 SWAP1 POP JUMPDEST PUSH1 0x3 SLOAD DUP2 LT ISZERO PUSH2 0xE60 JUMPI PUSH1 0x0 DUP6 DUP2 MSTORE PUSH1 0x1 PUSH1 0x20 MSTORE PUSH1 0x40 DUP2 KECCAK256 PUSH1 0x3 DUP1 SLOAD SWAP2 SWAP3 SWAP2 DUP5 SWAP1 DUP2 LT PUSH2 0xDD8 JUMPI INVALID JUMPDEST PUSH1 0x0 SWAP2 DUP3 MSTORE PUSH1 0x20 DUP1 DUP4 KECCAK256 SWAP1 SWAP2 ADD SLOAD PUSH1 0x1 PUSH1 0xA0 PUSH1 0x2 EXP SUB AND DUP4 MSTORE DUP3 ADD SWAP3 SWAP1 SWAP3 MSTORE PUSH1 0x40 ADD SWAP1 KECCAK256 SLOAD PUSH1 0xFF AND ISZERO PUSH2 0xE58 JUMPI PUSH1 0x3 DUP1 SLOAD DUP3 SWAP1 DUP2 LT PUSH2 0xE13 JUMPI INVALID JUMPDEST PUSH1 0x0 SWAP2 DUP3 MSTORE PUSH1 0x20 SWAP1 SWAP2 KECCAK256 ADD SLOAD DUP4 MLOAD PUSH1 0x1 PUSH1 0xA0 PUSH1 0x2 EXP SUB SWAP1 SWAP2 AND SWAP1 DUP5 SWAP1 DUP5 SWAP1 DUP2 LT PUSH2 0xE39 JUMPI INVALID JUMPDEST PUSH1 0x1 PUSH1 0xA0 PUSH1 0x2 EXP SUB SWAP1 SWAP3 AND PUSH1 0x20 SWAP3 DUP4 MUL SWAP1 SWAP2 ADD SWAP1 SWAP2 ADD MSTORE PUSH1 0x1 SWAP2 SWAP1 SWAP2 ADD SWAP1 JUMPDEST PUSH1 0x1 ADD PUSH2 0xDAF JUMP JUMPDEST DUP2 PUSH1 0x40 MLOAD SWAP1 DUP1 DUP3 MSTORE DUP1 PUSH1 0x20 MUL PUSH1 0x20 ADD DUP3 ADD PUSH1 0x40 MSTORE DUP1 ISZERO PUSH2 0xE8A JUMPI DUP2 PUSH1 0x20 ADD PUSH1 0x20 DUP3 MUL DUP1 CODESIZE DUP4 CODECOPY ADD SWAP1 POP JUMPDEST POP SWAP4 POP PUSH1 0x0 SWAP1 POP JUMPDEST DUP2 DUP2 LT ISZERO PUSH2 0xEDF JUMPI DUP3 DUP2 DUP2 MLOAD DUP2 LT ISZERO ISZERO PUSH2 0xEA8 JUMPI INVALID JUMPDEST SWAP1 PUSH1 0x20 ADD SWAP1 PUSH1 0x20 MUL ADD MLOAD DUP5 DUP3 DUP2 MLOAD DUP2 LT ISZERO ISZERO PUSH2 0xEC0 JUMPI INVALID JUMPDEST PUSH1 0x1 PUSH1 0xA0 PUSH1 0x2 EXP SUB SWAP1 SWAP3 AND PUSH1 0x20 SWAP3 DUP4 MUL SWAP1 SWAP2 ADD SWAP1 SWAP2 ADD MSTORE PUSH1 0x1 ADD PUSH2 0xE92 JUMP JUMPDEST POP POP POP SWAP2 SWAP1 POP JUMP JUMPDEST PUSH1 0x5 SLOAD DUP2 JUMP JUMPDEST CALLER ADDRESS EQ PUSH2 0xEF9 JUMPI PUSH1 0x0 DUP1 REVERT JUMPDEST PUSH1 0x3 SLOAD DUP2 PUSH1 0x32 DUP3 GT DUP1 ISZERO SWAP1 PUSH2 0xF0E JUMPI POP DUP2 DUP2 GT ISZERO JUMPDEST DUP1 ISZERO PUSH2 0xF19 JUMPI POP DUP1 ISZERO ISZERO JUMPDEST DUP1 ISZERO PUSH2 0xF24 JUMPI POP DUP2 ISZERO ISZERO JUMPDEST ISZERO ISZERO PUSH2 0xF2F JUMPI PUSH1 0x0 DUP1 REVERT JUMPDEST PUSH1 0x4 DUP4 SWAP1 SSTORE PUSH1 0x40 DUP1 MLOAD DUP5 DUP2 MSTORE SWAP1 MLOAD PUSH32 0xA3F1EE9126A074D9326C682F561767F710E927FAA811F7A99829D49DC421797A SWAP2 DUP2 SWAP1 SUB PUSH1 0x20 ADD SWAP1 LOG1 POP POP POP JUMP JUMPDEST CALLER PUSH1 0x0 DUP2 DUP2 MSTORE PUSH1 0x2 PUSH1 0x20 MSTORE PUSH1 0x40 SWAP1 KECCAK256 SLOAD PUSH1 0xFF AND ISZERO ISZERO PUSH2 0xF8A JUMPI PUSH1 0x0 DUP1 REVERT JUMPDEST PUSH1 0x0 DUP3 DUP2 MSTORE PUSH1 0x20 DUP2 SWAP1 MSTORE PUSH1 0x40 SWAP1 KECCAK256 SLOAD DUP3 SWAP1 PUSH1 0x1 PUSH1 0xA0 PUSH1 0x2 EXP SUB AND ISZERO ISZERO PUSH2 0xFAF JUMPI PUSH1 0x0 DUP1 REVERT JUMPDEST PUSH1 0x0 DUP4 DUP2 MSTORE PUSH1 0x1 PUSH1 0x20 SWAP1 DUP2 MSTORE PUSH1 0x40 DUP1 DUP4 KECCAK256 CALLER DUP1 DUP6 MSTORE SWAP3 MSTORE SWAP1 SWAP2 KECCAK256 SLOAD DUP5 SWAP2 SWAP1 PUSH1 0xFF AND ISZERO PUSH2 0xFDA JUMPI PUSH1 0x0 DUP1 REVERT JUMPDEST PUSH1 0x0 DUP6 DUP2 MSTORE PUSH1 0x1 PUSH1 0x20 DUP2 DUP2 MSTORE PUSH1 0x40 DUP1 DUP5 KECCAK256 CALLER DUP1 DUP7 MSTORE SWAP3 MSTORE DUP1 DUP5 KECCAK256 DUP1 SLOAD PUSH1 0xFF NOT AND SWAP1 SWAP4 OR SWAP1 SWAP3 SSTORE SWAP1 MLOAD DUP8 SWAP3 PUSH32 0x4A504A94899432A9846E1AA406DCEB1BCFD538BB839071D49D1E5E23F5BE30EF SWAP2 LOG3 PUSH2 0x1030 DUP6 PUSH2 0x1232 JUMP JUMPDEST POP POP POP POP POP JUMP JUMPDEST PUSH1 0x0 PUSH2 0x1044 DUP5 DUP5 DUP5 PUSH2 0x1455 JUMP JUMPDEST SWAP1 POP PUSH2 0x104F DUP2 PUSH2 0xF6C JUMP JUMPDEST SWAP4 SWAP3 POP POP POP JUMP JUMPDEST CALLER ADDRESS EQ PUSH2 0x1062 JUMPI PUSH1 0x0 DUP1 REVERT JUMPDEST PUSH1 0x6 DUP2 SWAP1 SSTORE PUSH1 0x40 DUP1 MLOAD DUP3 DUP2 MSTORE SWAP1 MLOAD PUSH32 0xC71BDC6AFAF9B1AA90A7078191D4FC1ADF3BF680FCA3183697DF6B0DC226BCA2 SWAP2 DUP2 SWAP1 SUB PUSH1 0x20 ADD SWAP1 LOG1 POP JUMP JUMPDEST PUSH1 0x32 DUP2 JUMP JUMPDEST PUSH1 0x4 SLOAD DUP2 JUMP JUMPDEST PUSH1 0x0 CALLER ADDRESS EQ PUSH2 0x10B6 JUMPI PUSH1 0x0 DUP1 REVERT JUMPDEST PUSH1 0x1 PUSH1 0xA0 PUSH1 0x2 EXP SUB DUP4 AND PUSH1 0x0 SWAP1 DUP2 MSTORE PUSH1 0x2 PUSH1 0x20 MSTORE PUSH1 0x40 SWAP1 KECCAK256 SLOAD DUP4 SWAP1 PUSH1 0xFF AND ISZERO ISZERO PUSH2 0x10DF JUMPI PUSH1 0x0 DUP1 REVERT JUMPDEST PUSH1 0x1 PUSH1 0xA0 PUSH1 0x2 EXP SUB DUP4 AND PUSH1 0x0 SWAP1 DUP2 MSTORE PUSH1 0x2 PUSH1 0x20 MSTORE PUSH1 0x40 SWAP1 KECCAK256 SLOAD DUP4 SWAP1 PUSH1 0xFF AND ISZERO PUSH2 0x1107 JUMPI PUSH1 0x0 DUP1 REVERT JUMPDEST PUSH1 0x0 SWAP3 POP JUMPDEST PUSH1 0x3 SLOAD DUP4 LT ISZERO PUSH2 0x1198 JUMPI DUP5 PUSH1 0x1 PUSH1 0xA0 PUSH1 0x2 EXP SUB AND PUSH1 0x3 DUP5 DUP2 SLOAD DUP2 LT ISZERO ISZERO PUSH2 0x112F JUMPI INVALID JUMPDEST PUSH1 0x0 SWAP2 DUP3 MSTORE PUSH1 0x20 SWAP1 SWAP2 KECCAK256 ADD SLOAD PUSH1 0x1 PUSH1 0xA0 PUSH1 0x2 EXP SUB AND EQ ISZERO PUSH2 0x118D JUMPI DUP4 PUSH1 0x3 DUP5 DUP2 SLOAD DUP2 LT ISZERO ISZERO PUSH2 0x115A JUMPI INVALID JUMPDEST SWAP1 PUSH1 0x0 MSTORE PUSH1 0x20 PUSH1 0x0 KECCAK256 ADD PUSH1 0x0 PUSH2 0x100 EXP DUP2 SLOAD DUP2 PUSH1 0x1 PUSH1 0xA0 PUSH1 0x2 EXP SUB MUL NOT AND SWAP1 DUP4 PUSH1 0x1 PUSH1 0xA0 PUSH1 0x2 EXP SUB AND MUL OR SWAP1 SSTORE POP PUSH2 0x1198 JUMP JUMPDEST PUSH1 0x1 SWAP1 SWAP3 ADD SWAP2 PUSH2 0x110C JUMP JUMPDEST PUSH1 0x1 PUSH1 0xA0 PUSH1 0x2 EXP SUB DUP1 DUP7 AND PUSH1 0x0 DUP2 DUP2 MSTORE PUSH1 0x2 PUSH1 0x20 MSTORE PUSH1 0x40 DUP1 DUP3 KECCAK256 DUP1 SLOAD PUSH1 0xFF NOT SWAP1 DUP2 AND SWAP1 SWAP2 SSTORE SWAP4 DUP9 AND DUP3 MSTORE DUP1 DUP3 KECCAK256 DUP1 SLOAD SWAP1 SWAP5 AND PUSH1 0x1 OR SWAP1 SWAP4 SSTORE SWAP2 MLOAD SWAP1 SWAP2 PUSH32 0x8001553A916EF2F495D26A907CC54D96ED840D7BDA71E73194BF5A9DF7A76B90 SWAP2 LOG2 PUSH1 0x40 MLOAD PUSH1 0x1 PUSH1 0xA0 PUSH1 0x2 EXP SUB DUP6 AND SWAP1 PUSH32 0xF39E6E1EB0EDCF53C221607B54B00CD28F3196FED0A24994DC308B8F611B682D SWAP1 PUSH1 0x0 SWAP1 LOG2 POP POP POP POP POP JUMP JUMPDEST CALLER PUSH1 0x0 DUP2 DUP2 MSTORE PUSH1 0x2 PUSH1 0x20 MSTORE PUSH1 0x40 DUP2 KECCAK256 SLOAD SWAP1 SWAP2 DUP3 SWAP2 PUSH1 0xFF AND ISZERO ISZERO PUSH2 0x1254 JUMPI PUSH1 0x0 DUP1 REVERT JUMPDEST PUSH1 0x0 DUP5 DUP2 MSTORE PUSH1 0x1 PUSH1 0x20 SWAP1 DUP2 MSTORE PUSH1 0x40 DUP1 DUP4 KECCAK256 CALLER DUP1 DUP6 MSTORE SWAP3 MSTORE SWAP1 SWAP2 KECCAK256 SLOAD DUP6 SWAP2 SWAP1 PUSH1 0xFF AND ISZERO ISZERO PUSH2 0x1280 JUMPI PUSH1 0x0 DUP1 REVERT JUMPDEST PUSH1 0x0 DUP7 DUP2 MSTORE PUSH1 0x20 DUP2 SWAP1 MSTORE PUSH1 0x40 SWAP1 KECCAK256 PUSH1 0x3 ADD SLOAD DUP7 SWAP1 PUSH1 0xFF AND ISZERO PUSH2 0x12A1 JUMPI PUSH1 0x0 DUP1 REVERT JUMPDEST PUSH1 0x0 DUP8 DUP2 MSTORE PUSH1 0x20 DUP2 SWAP1 MSTORE PUSH1 0x40 SWAP1 KECCAK256 SWAP6 POP PUSH2 0x12BA DUP8 PUSH2 0xA22 JUMP JUMPDEST SWAP5 POP DUP5 DUP1 PUSH2 0x12ED JUMPI POP PUSH1 0x2 DUP1 DUP8 ADD SLOAD PUSH1 0x0 NOT PUSH2 0x100 PUSH1 0x1 DUP4 AND ISZERO MUL ADD AND DIV ISZERO DUP1 ISZERO PUSH2 0x12ED JUMPI POP PUSH2 0x12ED DUP7 PUSH1 0x1 ADD SLOAD PUSH2 0x1545 JUMP JUMPDEST ISZERO PUSH2 0x1446 JUMPI PUSH1 0x3 DUP7 ADD DUP1 SLOAD PUSH1 0xFF NOT AND PUSH1 0x1 OR SWAP1 SSTORE DUP5 ISZERO ISZERO PUSH2 0x1317 JUMPI PUSH1 0x1 DUP7 ADD SLOAD PUSH1 0x8 DUP1 SLOAD SWAP1 SWAP2 ADD SWAP1 SSTORE JUMPDEST DUP6 SLOAD PUSH1 0x1 DUP1 DUP9 ADD SLOAD PUSH1 0x2 DUP1 DUP11 ADD DUP1 SLOAD PUSH1 0x40 DUP1 MLOAD PUSH1 0x20 PUSH1 0x1F PUSH1 0x0 NOT SWAP9 DUP6 AND ISZERO PUSH2 0x100 MUL SWAP9 SWAP1 SWAP9 ADD SWAP1 SWAP4 AND SWAP5 SWAP1 SWAP5 DIV SWAP6 DUP7 ADD DUP3 SWAP1 DIV DUP3 MUL DUP5 ADD DUP3 ADD SWAP1 MSTORE DUP5 DUP4 MSTORE PUSH2 0x13C3 SWAP6 PUSH1 0x1 PUSH1 0xA0 PUSH1 0x2 EXP SUB AND SWAP5 SWAP3 SWAP2 SWAP1 DUP4 SWAP1 DUP4 ADD DUP3 DUP3 DUP1 ISZERO PUSH2 0x13B9 JUMPI DUP1 PUSH1 0x1F LT PUSH2 0x138E JUMPI PUSH2 0x100 DUP1 DUP4 SLOAD DIV MUL DUP4 MSTORE SWAP2 PUSH1 0x20 ADD SWAP2 PUSH2 0x13B9 JUMP JUMPDEST DUP3 ADD SWAP2 SWAP1 PUSH1 0x0 MSTORE PUSH1 0x20 PUSH1 0x0 KECCAK256 SWAP1 JUMPDEST DUP2 SLOAD DUP2 MSTORE SWAP1 PUSH1 0x1 ADD SWAP1 PUSH1 0x20 ADD DUP1 DUP4 GT PUSH2 0x139C JUMPI DUP3 SWAP1 SUB PUSH1 0x1F AND DUP3 ADD SWAP2 JUMPDEST POP POP POP POP POP PUSH2 0x158D JUMP JUMPDEST ISZERO PUSH2 0x13F8 JUMPI PUSH1 0x40 MLOAD DUP8 SWAP1 PUSH32 0x33E13ECB54C3076D8E8BB8C2881800A4D972B792045FFAE98FDF46DF365FED75 SWAP1 PUSH1 0x0 SWAP1 LOG2 PUSH2 0x1446 JUMP JUMPDEST PUSH1 0x40 MLOAD DUP8 SWAP1 PUSH32 0x526441BB6C1ABA3C9A4A6CA1D6545DA9C2333C8C48343EF398EB858D72B79236 SWAP1 PUSH1 0x0 SWAP1 LOG2 PUSH1 0x3 DUP7 ADD DUP1 SLOAD PUSH1 0xFF NOT AND SWAP1 SSTORE DUP5 ISZERO ISZERO PUSH2 0x1446 JUMPI PUSH1 0x1 DUP7 ADD SLOAD PUSH1 0x8 DUP1 SLOAD SWAP2 SWAP1 SWAP2 SUB SWAP1 SSTORE JUMPDEST POP POP POP POP POP POP POP JUMP JUMPDEST PUSH1 0x8 SLOAD DUP2 JUMP JUMPDEST PUSH1 0x0 DUP4 PUSH1 0x1 PUSH1 0xA0 PUSH1 0x2 EXP SUB DUP2 AND ISZERO ISZERO PUSH2 0x146D JUMPI PUSH1 0x0 DUP1 REVERT JUMPDEST PUSH1 0x5 SLOAD PUSH1 0x40 DUP1 MLOAD PUSH1 0x80 DUP2 ADD DUP3 MSTORE PUSH1 0x1 PUSH1 0xA0 PUSH1 0x2 EXP SUB DUP9 DUP2 AND DUP3 MSTORE PUSH1 0x20 DUP1 DUP4 ADD DUP10 DUP2 MSTORE DUP4 DUP6 ADD DUP10 DUP2 MSTORE PUSH1 0x0 PUSH1 0x60 DUP7 ADD DUP2 SWAP1 MSTORE DUP8 DUP2 MSTORE DUP1 DUP5 MSTORE SWAP6 SWAP1 SWAP6 KECCAK256 DUP5 MLOAD DUP2 SLOAD PUSH20 0xFFFFFFFFFFFFFFFFFFFFFFFFFFFFFFFFFFFFFFFF NOT AND SWAP5 AND SWAP4 SWAP1 SWAP4 OR DUP4 SSTORE MLOAD PUSH1 0x1 DUP4 ADD SSTORE SWAP3 MLOAD DUP1 MLOAD SWAP5 SWAP7 POP SWAP2 SWAP4 SWAP1 SWAP3 PUSH2 0x14ED SWAP3 PUSH1 0x2 DUP6 ADD SWAP3 SWAP2 ADD SWAP1 PUSH2 0x15D9 JUMP JUMPDEST POP PUSH1 0x60 SWAP2 SWAP1 SWAP2 ADD MLOAD PUSH1 0x3 SWAP1 SWAP2 ADD DUP1 SLOAD PUSH1 0xFF NOT AND SWAP2 ISZERO ISZERO SWAP2 SWAP1 SWAP2 OR SWAP1 SSTORE PUSH1 0x5 DUP1 SLOAD PUSH1 0x1 ADD SWAP1 SSTORE PUSH1 0x40 MLOAD DUP3 SWAP1 PUSH32 0xC0BA8FE4B176C1714197D43B9CC6BCF797A4A7461C5FE8D0EF6E184AE7601E51 SWAP1 PUSH1 0x0 SWAP1 LOG2 POP SWAP4 SWAP3 POP POP POP JUMP JUMPDEST PUSH1 0x0 PUSH1 0x7 SLOAD PUSH3 0x15180 ADD TIMESTAMP GT ISZERO PUSH2 0x1560 JUMPI TIMESTAMP PUSH1 0x7 SSTORE PUSH1 0x0 PUSH1 0x8 SSTORE JUMPDEST PUSH1 0x6 SLOAD DUP3 PUSH1 0x8 SLOAD ADD GT DUP1 PUSH2 0x1577 JUMPI POP PUSH1 0x8 SLOAD DUP3 DUP2 ADD LT JUMPDEST ISZERO PUSH2 0x1584 JUMPI POP PUSH1 0x0 PUSH2 0x1588 JUMP JUMPDEST POP PUSH1 0x1 JUMPDEST SWAP2 SWAP1 POP JUMP JUMPDEST PUSH1 0x0 DUP1 PUSH1 0x40 MLOAD PUSH1 0x20 DUP5 ADD PUSH1 0x0 DUP3 DUP8 DUP4 DUP11 DUP13 PUSH2 0x8796 GAS SUB CALL SWAP9 SWAP8 POP POP POP POP POP POP POP POP JUMP JUMPDEST DUP2 SLOAD DUP2 DUP4 SSTORE DUP2 DUP2 GT ISZERO PUSH2 0x15D4 JUMPI PUSH1 0x0 DUP4 DUP2 MSTORE PUSH1 0x20 SWAP1 KECCAK256 PUSH2 0x15D4 SWAP2 DUP2 ADD SWAP1 DUP4 ADD PUSH2 0x1657 JUMP JUMPDEST POP POP POP JUMP JUMPDEST DUP3 DUP1 SLOAD PUSH1 0x1 DUP2 PUSH1 0x1 AND ISZERO PUSH2 0x100 MUL SUB AND PUSH1 0x2 SWAP1 DIV SWAP1 PUSH1 0x0 MSTORE PUSH1 0x20 PUSH1 0x0 KECCAK256 SWAP1 PUSH1 0x1F ADD PUSH1 0x20 SWAP1 DIV DUP2 ADD SWAP3 DUP3 PUSH1 0x1F LT PUSH2 0x161A JUMPI DUP1 MLOAD PUSH1 0xFF NOT AND DUP4 DUP1 ADD OR DUP6 SSTORE PUSH2 0x1647 JUMP JUMPDEST DUP3 DUP1 ADD PUSH1 0x1 ADD DUP6 SSTORE DUP3 ISZERO PUSH2 0x1647 JUMPI SWAP2 DUP3 ADD JUMPDEST DUP3 DUP2 GT ISZERO PUSH2 0x1647 JUMPI DUP3 MLOAD DUP3 SSTORE SWAP2 PUSH1 0x20 ADD SWAP2 SWAP1 PUSH1 0x1 ADD SWAP1 PUSH2 0x162C JUMP JUMPDEST POP PUSH2 0x1653 SWAP3 SWAP2 POP PUSH2 0x1657 JUMP JUMPDEST POP SWAP1 JUMP JUMPDEST PUSH2 0x882 SWAP2 SWAP1 JUMPDEST DUP1 DUP3 GT ISZERO PUSH2 0x1653 JUMPI PUSH1 0x0 DUP2 SSTORE PUSH1 0x1 ADD PUSH2 0x165D JUMP STOP LOG1 PUSH6 0x627A7A723058 KECCAK256 PUSH6 0x9E7DEF074F9F 0x23 0xe3 0xaa 0xe2 0x26 DIV 0xc PUSH10 0x63E0CA51911A869F6898 EXP LOG1 0x46 SHR SWAP11 GAS 0xd3 STOP 0x29 "
				},
				"gasEstimates": {
					"creation": {
						"codeDepositCost": "1157800",
						"executionCost": "infinite",
						"totalCost": "infinite"
					},
					"external": {
						"": "2099",
						"MAX_OWNER_COUNT()": "646",
						"addOwner(address)": "63433",
						"calcMaxWithdraw()": "1363",
						"changeDailyLimit(uint256)": "21668",
						"changeRequirement(uint256)": "21940",
						"confirmTransaction(uint256)": "infinite",
						"confirmations(uint256,address)": "709",
						"dailyLimit()": "538",
						"executeTransaction(uint256)": "infinite",
						"getConfirmationCount(uint256)": "infinite",
						"getConfirmations(uint256)": "infinite",
						"getOwners()": "infinite",
						"getTransactionCount(bool,bool)": "infinite",
						"getTransactionIds(uint256,uint256,bool,bool)": "infinite",
						"isConfirmed(uint256)": "infinite",
						"isOwner(address)": "609",
						"lastDay()": "560",
						"owners(uint256)": "837",
						"removeOwner(address)": "infinite",
						"replaceOwner(address,address)": "infinite",
						"required()": "868",
						"revokeConfirmation(uint256)": "23045",
						"spentToday()": "934",
						"submitTransaction(address,uint256,bytes)": "infinite",
						"transactionCount()": "736",
						"transactions(uint256)": "infinite"
					},
					"internal": {
						"isUnderLimit(uint256)": "25944"
					}
				},
				"methodIdentifiers": {
					"MAX_OWNER_COUNT()": "d74f8edd",
					"addOwner(address)": "7065cb48",
					"calcMaxWithdraw()": "4bc9fdc2",
					"changeDailyLimit(uint256)": "cea08621",
					"changeRequirement(uint256)": "ba51a6df",
					"confirmTransaction(uint256)": "c01a8c84",
					"confirmations(uint256,address)": "3411c81c",
					"dailyLimit()": "67eeba0c",
					"executeTransaction(uint256)": "ee22610b",
					"getConfirmationCount(uint256)": "8b51d13f",
					"getConfirmations(uint256)": "b5dc40c3",
					"getOwners()": "a0e67e2b",
					"getTransactionCount(bool,bool)": "54741525",
					"getTransactionIds(uint256,uint256,bool,bool)": "a8abe69a",
					"isConfirmed(uint256)": "784547a7",
					"isOwner(address)": "2f54bf6e",
					"lastDay()": "6b0c932d",
					"owners(uint256)": "025e7c27",
					"removeOwner(address)": "173825d9",
					"replaceOwner(address,address)": "e20056e6",
					"required()": "dc8452cd",
					"revokeConfirmation(uint256)": "20ea8d86",
					"spentToday()": "f059cf2b",
					"submitTransaction(address,uint256,bytes)": "c6427474",
					"transactionCount()": "b77bf600",
					"transactions(uint256)": "9ace38c2"
				}
			},
			"userdoc": {
				"methods": {}
			}
		}
	}
}